S0180000476363426F61726450726F6A656374312E737265630F
S2140800000026072001070800FD060800FD06080070
S214080010FD060800FD060800FD06080000000000B2
S214080020000000000000000000000000FD060800B8
S214080030FD06080000000000FD060800FD06080092
S214080040FD060800FD060800FD060800FD06080077
S214080050FD060800FD060800FD060800FD06080067
S214080060FD060800FD060800000000006D050800F3
S2140800708105080095050800A9050800000000008D
S21408008000000000FD060800FD060800FD06080042
S214080090FD060800FD060800FD060800FD06080027
S2140800A0FD06080000000000FD060800FD06080022
S2140800B0FD060800FD060800FD060800FD06080007
S2140800C0FD060800FD060800FD060800FD060800F7
S2140800D0FD060800FD060800FD060800FD060800E7
S2140800E0FD060800FD060800FD060800FD060800D7
S2140800F0FD06080010B5054C237833B9044B13B138
S2140801000448AFF300800123237010BD680507205C
S214080110000000003419080008B5064B1BB1064855
S2140801200649AFF300800648036813B1054B03B1D0
S214080130984708BD00000000341908006C05072021
S214080140341908000000000010B500231E491F4897
S21408015002E00133834216D0CA6B12F0007FF8D152
S21408016011E05A1C834201D013460EE01346164A85
S214080170D26B12F0007F16D0154A934215D0002095
S2140801801149144609E010491148CA6B12F0007F5D
S214080190E7D0ECE71A18A24208D00130CA6B12F072
S2140801A0007FF7D102E0002000E00020094B9847C6
S2140801B003A3D3E90023084CA047084B984710BD73
S2140801C0666666666666144000120E40414B4C0032
S2140801D0404B4C00990C0800D90F0800A9110800DC
S2140801E070B50B4C4FF0806565630C20094EB04720
S2140801F025633C20B0476563074B9847074B186054
S214080200074BA3FB00204009064B186070BD00BFD3
S21408021000120E400100072049010800F8050720D3
S21408022009CB3D8DF405072010B50E480E4B9847B0
S21408023000203E210D4B98470D4CA0470028FCD0C7
S2140802400C4B98470C4A0D4B9A620D4CA047002859
S214080250FCD010200B4B98470B4B98470148024B95
S214080260984710BD00BD0105B1000720210608000B
S2140802707506080085060800013F0D2000060E409A
S21408028095060800BD050800B107080010B54FF42C
S2140802900042134B5A600B20124CA0470C20A04774
S2140802A00D20A0470E20A0473B204FF060510E4C73
S2140802B0A04755204FF06051A04756204FF0605198
S2140802C0A04768200949A0475C200949A047094873
S2140802D04FF440714FF00062074B984710BD00BFBF
S2140802E0501A0E40A5060800A10308007900002849
S2140802F001000028000E0E40750408004264B1F1A3
S214080300805F16D004D8C1B1B1F1006F0AD013E0EF
S214080310B1F1405F11D0B1F1605F0ED0B1F1205F4E
S2140803200AD17047036F016F0B4023EA0203036785
S21408033002E0036F1343036742607047416412F09C
S214080340010F14BF4166016612F00A0F14BF01625E
S214080350416212F0020F02D0C0F8801004E012F0DA
S214080360080F18BFC0F8841041610160704700BFCD
S21408037010B44164019C0CB1416600E001660BB103
S214080380016500E041650AB1016300E0416301616F
S21408039001605DF8044B7047C06C7047806C70470E
S2140803A070B582B00D46440904F5001404F20774CB
S2140803B0660201F0F044B4F1205F30D006D8B4F1FC
S2140803C0006F0AD0B4F1805F18D049E0B4F1405FFE
S2140803D030D0B4F1605F2DD042E000F01F00012459
S2140803E0844030464FF0006122461F4B984715F070
S2140803F0010F14BF74663466012032E000F01F0057
S2140804000124844030464FF080512246164B9847C8
S21408041015F0010F14BF74663466012021E000F061
S2140804201F010124304604FA01F12A460F4B98476B
S214080430204616E000F01F01012405F0605205EA88
S21408044004030093304604FA01F1B2F1605F14BF6A
S21408045000220122C5F38003054DA847204600E088
S214080460002002B070BD00BFFD0208003D03080072
S21408047071030800F0B583B007460E46154602F02D
S214080480F044B4F1205F26D006D8B4F1006F0AD045
S214080490B4F1805F13D034E0B4F1405F1FD0B4F1FC
S2140804A0605F1CD02DE04FF000613246164B98472F
S2140804B015F0010F14BF7E663E66012022E04FF05D
S2140804C080513246104B984715F0010F14BF7E66D0
S2140804D03E66012016E00D4B9847012012E005F015
S2140804E0605205F00103009338463146B2F1605F6A
S2140804F014BF00220122C5F38003054CA047012043
S21408050000E0002003B0F0BDFD0208003D0308002F
S214080510710308002DE9F04104460E46104B984733
S214080520054620460F4B9847054017D00E4F07F153
S2140805300C046C3754F80C3CB3420AD154F8081C27
S214080540294206D023683046984754F8083C25EADE
S2140805500305BC4202D01034002DEBD1BDE8F08173
S214080560990308009D0308008405072008B502487B
S2140805700B21024B984708BD000E0E4015050800D3
S21408058008B502480C21024B984708BD00100E40DB
S2140805901505080008B502480D21024B984708BD06
S2140805A000120E401505080008B502480E21024B39
S2140805B0984708BD00140E4015050800174B1A6B1F
S2140805C022F07002104318639B6E13F0080F09D1CF
S2140805D04FF40063114901E0013B19D08A6E12F00E
S2140805E0080FF9D00D4B1A6B22F0030242F00202F4
S2140805F01A63986E10F008000CD14FF40063074990
S21408060001E0013B08D08A6E12F0080FF9D0704757
S21408061001207047002070470120704700060E40F2
S21408062038B111490B6A114A1A40114B13430B6231
S21408063070470D4A136A23F45C1323F0030343F44C
S2140806405C1343F00103090289B20B431362936EED
S21408065013F0010FFBD0044A136A43F09B7343F46C
S21408066080331362704700BF00060E40FCFFC8FECA
S21408067002003701024B986E00F48030704700BFC6
S21408068000060E404FF00052014B9A62704700BFBA
S21408069000060E40024B986E00F00200704700BF3E
S2140806A000060E402C2820D81F280DD8124B9A6911
S2140806B0012383401A40934219D0012303FA00F01D
S2140806C00D4B1861002070470B4BD3F808212038D3
S2140806D0012383401A4093420BD0012303FA00F00B
S2140806E0054BC3F800010020704701207047002022
S2140806F070470020704700BF00060E40FEE700BFA8
S21408070010B51E4B1E4A9A4203D01E4B1B4A9A42ED
S21408071004D31D4B1D4A9A420FD31AE01C4B1D4C9E
S214080720E41A24F0030404340023144814495A58DD
S2140807301A500433A342FAD1EBE7174B1749C91AE4
S21408074021F003011A1D1144002243F8042F8B429E
S214080750FBD1134A22F0604323F07F0311498B60D4
S21408076002F16042B2F5801F03D28A6842F0005256
S2140807708A600D4B98470D4B9847FEE70000072008
S2140807803419080068050720FC05072068050720B7
S214080790040007206B05072064050720F7050720D7
S2140807A00000080000ED00E0B9170800A5090800D9
S2140807B03E4B1B6B03F00303032B5FD8DFE803F005
S2140807C0020E2B2B3A4B5B6913F0800F14BF4FF4C5
S2140807D000424FF4FA42374B1A604FE0334B1B6A1D
S2140807E013F0807F03D0344A324B1A6046E0334A0F
S2140807F0304B1A602D4B1B6A03F07003102B02D087
S214080800202B04D03AE02E4A2A4B1A6036E02A4AB1
S214080810284B1A6032E0254B1B6A13F0807F03D002
S214080820254A244B1A6012E0244A224B1A601F4BB2
S2140808301B6A03F07003102B02D0202B04D006E0AE
S2140808401F4A1C4B1A6002E01B4A1A4B1A60174BC9
S2140808501B6B03F00303022B0DD1144B986A996A9D
S214080860144BC0F30A401A6800FB0222C9B2B2FB56
S214080870F1F21A6002E0134A0E4B1A600B4B1B6B20
S21408088003F07003702B07D10A4B1A680E49A1FBB8
S214080890020252081A607047044B196B054BC1F3E5
S2140808A002111A68CA401A60704700BF00060E4058
S2140808B0101A0E4038010720001BB70000093D003B
S2140808C000127A00001C4E0EABAAAAAA000000006E
S2140808D0F8B50D4C4FF40045256309A3D3E900236A
S2140808E00A4916461F46E1FB006730463946084A5D
S2140808F00023084EB047084B98476563F8BD00BF0D
S2140809007F9FD50000000000000E0E4000BD0105C8
S214080910809FD500F911080001000720AFF300807A
S21408092038B540F2D660064DA84741F6C810054CC3
S214080930A04740F2B160A8470348A04738BD00BFAB
S214080940D108080001000720C027090038B540F282
S214080950D660064DA84741F6C810054CA04740F299
S214080960E240A8470348A04738BD00BFD1080800A2
S214080970010007204016400038B540F2DC50064D0E
S214080980A84741F6C810054CA04740F2DC50A847D7
S2140809900348A04738BD00BFD1080800010007205B
S2140809A0001BB70070B5124B9847124B9847124B6E
S2140809B04FF400421A61C3F8A02003F580634FF095
S2140809C080621A61C3F8A0204FF000725A61C3F81B
S2140809D0A0200A480A4B98470A4C0B4E0B4DA047D6
S2140809E04A2803D8A8470A4B9847F8E7B047F6E7D7
S2140809F0290208008D020800000E0E40001BB700F2
S214080A0001000720E101080021090800790908000B
S214080A104D09080081F0004102E000BF83F0004362
S214080A2030B54FEA41044FEA430594EA050F08BF7C
S214080A3090EA020F1FBF54EA000C55EA020C7FEA40
S214080A40645C7FEA655C00F0E2804FEA5454D4EBBD
S214080A505555B8BF6D420CDD2C4480EA020281EA87
S214080A60030382EA000083EA010180EA020281EABF
S214080A700303362D88BF30BD11F0004F4FEA013111
S214080A804FF4801C4CEA113102D0404261EB410120
S214080A9013F0004F4FEA03334CEA133302D05242A6
S214080AA063EB430394EA050F00F0A780A4F1010462
S214080AB0D5F1200E0DDB02FA0EFC22FA05F280189C
S214080AC041F1000103FA0EF2801843FA05F3594182
S214080AD00EE0A5F120050EF1200E012A03FA0EFC01
S214080AE028BF4CF0020C43FA05F3C01851EBE3712B
S214080AF001F0004507D54FF0000EDCF1000C7EEB48
S214080B0000006EEB0101B1F5801F1BD3B1F5001F85
S214080B100CD349085FEA30004FEA3C0C04F10104A4
S214080B204FEA445212F5800F80F09A80BCF1004FCD
S214080B3008BF5FEA500C50F1000041EB045141EA4F
S214080B40050130BD5FEA4C0C404141EB010111F450
S214080B50801FA4F10104E9D191F0000F04BF0146FB
S214080B600020B1FA81F308BF2033A3F10B03B3F1D9
S214080B7020020CDA0C3208DD02F1140CC2F10C0269
S214080B8001FA0CF021FA02F10CE002F11402D8BFC7
S214080B90C2F1200C01FA02F120FA0CFCDCBF41EA93
S214080BA00C019040E41AA2BF01EB0451294330BD62
S214080BB06FEA04041F3C1CDA0C340EDC04F114043F
S214080BC0C4F1200220FA04F001FA02F340EA030016
S214080BD021FA04F345EA030130BDC4F10C04C4F15C
S214080BE0200220FA02F001FA04F340EA030029463C
S214080BF030BD21FA04F0294630BD94F0000F83F486
S214080C00801306BF81F480110134013D4EE77FEA68
S214080C10645C18BF7FEA655C29D094EA050F08BFB4
S214080C2090EA020F05D054EA000C04BF1946104695
S214080C3030BD91EA030F1EBF0021002030BD5FEAD9
S214080C40545C05D14000494128BF41F0004130BD01
S214080C5014F580043CBF01F5801130BD01F0004555
S214080C6045F0FE4141F470014FF0000030BD7FEAC8
S214080C70645C1ABF194610467FEA655C1CBF0B46C3
S214080C80024650EA013406BF52EA033591EA030FDA
S214080C9041F4002130BD00BF90F0000F04BF0021D2
S214080CA0704730B54FF4806404F132044FF0000505
S214080CB04FF0000150E700BF90F0000F04BF00217E
S214080CC0704730B54FF4806404F1320410F00045E4
S214080CD048BF40424FF000013EE700BF42004FEADF
S214080CE0E2014FEA31014FEA02701FBF12F07F435C
S214080CF093F07F4F81F06051704792F0000F14BF59
S214080D0093F07F4F704730B54FF4607401F000459C
S214080D1021F0004120E700BF50EA010208BF7047F3
S214080D2030B54FF000050AE050EA010208BF7047E8
S214080D3030B511F0004502D5404261EB41014FF451
S214080D40806404F132045FEA915C3FF4DCAE4FF055
S214080D5003025FEADC0C18BF03325FEADC0C18BF3C
S214080D60033202EBDC02C2F1200300FA03FC20FA8D
S214080D7002F001FA03FE40EA0E0021FA02F11444DA
S214080D80C1E600BF70B54FF0FF0C4CF4E06C1CEAEF
S214080D9011541DBF1CEA135594EA0C0F95EA0C0F64
S214080DA000F0DEF82C4481EA030621EA4C5123EAD7
S214080DB04C5350EA013518BF52EA033541F4801106
S214080DC043F4801338D0A0FB02CE4FF00005E1FBB9
S214080DD002E506F00042E0FB03E54FF00006E1FB03
S214080DE003569CF0000F18BF4EF0010EA4F1FF0446
S214080DF0B6F5007F64F5407404D25FEA4E0E6D4186
S214080E0046EB060642EAC62141EA55514FEAC52096
S214080E1040EA5E504FEACE2EB4F1FD0C88BFBCF512
S214080E20E06F1ED8BEF1004F08BF5FEA500E50F1C3
S214080E30000041EB045170BD06F0004646EA010189
S214080E4040EA020081EA0301B4EB5C04C2BFD4EBBB
S214080E500C0541EA045170BD41F480114FF0000EB4
S214080E60013C00F3AB8014F1360FDEBF002001F022
S214080E70004170BDC4F10004203C35DA0C341BDC9C
S214080E8004F11404C4F1200500FA05F320FA04F06E
S214080E9001FA05F240EA020001F0004221F00041A2
S214080EA010EBD37021FA04F642EB06015EEA430E15
S214080EB008BF20EAD37070BDC4F10C04C4F1200545
S214080EC000FA04F320FA05F001FA04F240EA0200F8
S214080ED001F0004110EBD37041F100015EEA430EC9
S214080EE008BF20EAD37070BDC4F1200500FA05F2E9
S214080EF04EEA020E20FA04F301FA05F243EA020368
S214080F0021FA04F001F0004121FA04F220EA020076
S214080F1000EBD3705EEA430E08BF20EAD37070BDBC
S214080F2094F0000F0FD101F00046400041EB01019C
S214080F3011F4801F08BF013CF7D041EA060195F07E
S214080F40000F18BF704703F00046520043EB030338
S214080F5013F4801F08BF013DF7D043EA0603704725
S214080F6094EA0C0F0CEA135518BF95EA0C0F0CD030
S214080F7050EA410618BF52EA4306D1D181EA030176
S214080F8001F000414FF0000070BD50EA410606BF70
S214080F901046194652EA430619D094EA0C0F02D1B5
S214080FA050EA013613D195EA0C0F05D152EA0336FA
S214080FB01CBF104619460AD181EA030101F0004118
S214080FC041F0FE4141F470014FF0000070BD41F061
S214080FD0FE4141F4780170BD70B54FF0FF0C4CF43B
S214080FE0E06C1CEA11541DBF1CEA135594EA0C0F5A
S214080FF095EA0C0F00F0A7F8A4EB050481EA030EA7
S21408100052EA03354FEA013100F088804FEA03338D
S2140810104FF0805545EA131343EA12634FEA02225B
S21408102045EA111545EA10654FEA00260EF000411C
S2140810309D4208BF964244F1FD0404F5407402D26E
S2140810405B084FEA3202B61A65EB03055B084FEAFF
S21408105032024FF480104FF4002CB6EB020E75EBFC
S214081060030E22BFB61A754640EA0C005B084FEA24
S2140810703202B6EB020E75EB030E22BFB61A7546A1
S21408108040EA5C005B084FEA3202B6EB020E75EBEC
S214081090030E22BFB61A754640EA9C005B084FEA64
S2140810A03202B6EB020E75EB030E22BFB61A754671
S2140810B040EADC0055EA060E18D04FEA051545EA60
S2140810C016754FEA06164FEAC30343EA52734FEA09
S2140810D0C2025FEA1C1CC0D111F4801F0BD141EA82
S2140810E000014FF000004FF0004CB6E711F4801FE7
S2140810F004BF01430020B4F1FD0C88BFBCF5E06FC7
S2140811003FF6AFAEB5EB030C04BFB6EB020C5FEAD6
S214081110500C50F1000041EB045170BD0EF0004E2B
S2140811204EEA113114EB5C04C2BFD4EB0C0541EA5D
S214081130045170BD41F480114FF0000E013C90E65A
S21408114045EA060E8DE60CEA135594EA0C0F08BF1E
S21408115095EA0C0F3FF43BAF94EA0C0F0AD150EA1D
S21408116001347FF434AF95EA0C0F7FF425AF1046B0
S21408117019462CE795EA0C0F06D152EA03353FF4D8
S214081180FDAE1046194622E750EA410618BF52EA55
S21408119043067FF4C5AE50EA41047FF40DAF52EA29
S2140811A043057FF4EBAE12E74FEA410212F5001250
S2140811B015D211D56FF47873B3EB625212D94FEA91
S2140811C0C12343F0004343EA505311F0004F23FA7B
S2140811D002F018BF404270474FF00000704750EAD0
S2140811E0013005D111F0004008BF6FF0004070478D
S2140811F04FF00000704700BF4BB942B9002908BF3E
S214081200002802D04FF0FF31084600F03BB882B005
S214081210EC462DE9005000F01DF8DDF804E002B0B9
S2140812200CBC70472DE9704F089E14461D46804634
S214081230894600F029F804FB01F3A4FB00AB00FB89
S21408124005329344B8EB0A0869EB0B09C6E900892E
S214081250BDE8708F2DE9704F089E14461D468046DF
S214081260894600F061F900FB05F5A0FB04AB04FB1A
S2140812700154A344B8EB0A0869EB0B09C6E90089D0
S214081280BDE8708F704700BF00292DE9F00FC0F247
S214081290A1800024002BC0F29880154606460F460B
S2140812A0002B3FD18A4258D9B2FA82F34BB1C3F128
S2140812B0200201FA03F720FA02F29D4000FA03F62C
S2140812C01743290CB7FBF1F201FB1277A8B200FB13
S2140812D002F34FEA164C4CEA0747BB4209D97F1976
S2140812E002F1FF3C80F00581BB4240F20281023ADF
S2140812F02F44FF1AB7FBF1F301FB137100FB03F051
S214081300B6B246EA0141884208D9491903F1FF37BF
S21408131080F0F180884240F2EE80023B43EA0242C7
S214081320002303E08B420AD900231A4610461946C2
S21408133014B1404261EB4101BDE8F00F7047B3FAC3
S21408134083F8B8F1000F40F088808B4202D38242BF
S21408135000F2E28000230122E8E712B90123B3FB7A
S214081360F2F5B5FA85F2002A3AD17F1B280C1FFA47
S21408137085FC0123B7FBF0F100FB11770CFB01F2AB
S2140813804FEA164848EA0747BA4207D97F1901F1D3
S214081390FF3802D2BA4200F2C4804146BF1AB7FBF1
S2140813A0F0F200FB12700CFB02FCB6B246EA0040F4
S2140813B0844507D9401902F1FF3702D2844500F266
S2140813C0AE803A4642EA0142B0E7E443524263EB53
S2140813D0430362E7404261EB41014FF0FF3459E7AF
S2140813E09540C2F1200927FA09F126FA09F997402B
S2140813F0280CB1FBF0F800FB18111FFA85FC0CFB53
S21408140008F349EA07094FEA194747EA01418B42B8
S21408141006FA02F608D9491908F1FF327AD28B4241
S21408142078D9A8F102082944C91AB1FBF0F300FBE1
S21408143013170CFB03F21FFA89F949EA0747BA4261
S21408144007D97F1903F1FF3160D2BA425ED9023B51
S2140814502F44BF1A43EA08438CE7C8F1200225FA4E
S21408146002F103FA08FC27FA02F320FA02F207FA56
S21408147008F741EA0C0C4FEA1C49B3FBF9F109FBE3
S21408148011331FFA8CFA0AFB01FB17433A0C42EA9F
S21408149003439B4505FA08F008D913EB0C0301F142
S2140814A0FF3235D29B4533D902396344CBEB03036D
S2140814B0B3FBF9F209FB12330AFB02FABFB247EA9A
S2140814C00347BA4508D917EB0C0702F1FF331BD2BE
S2140814D0BA4519D9023A674442EA0145A5FB000114
S2140814E0CAEB07078F424FF000030AD305D02A46F7
S2140814F01CE76246FDE63B4610E706FA08F6864213
S214081500F5D26A1E002311E71A46E5E70B46A0E760
S2140815101146CBE7904687E74346424606E7023A37
S21408152050E702392F4439E72DE9F00F14460546EF
S2140815300E46002B43D18A4253D9B2FA82F757B1E6
S214081540C7F1200620FA06F601FA07F302FA07F4AE
S21408155000FA07F51E43210CB6FBF1F201FB1266F2
S214081560A0B200FB02F32F0C47EA0646B34209D99D
S214081570361902F1FF3780F0FD80B34240F2FA8058
S214081580023A2644F61AB6FBF1F301FB136100FB98
S21408159003F0ADB245EA0141884208D9091903F1BA
S2140815A0FF3680F0E980884240F2E680023B43EA54
S2140815B00242002310461946BDE8F00F70478B42DA
S2140815C04CD8B3FA83F6002E4FD18B4202D3824210
S2140815D000F2DD80BDE8F00F002301221046194610
S2140815E0704712B90124B4FBF2F4B4FA84F2002A64
S2140815F040F08280091B260CA7B20123B1FBF6F047
S21408160006FB101107FB00F24FEA154C4CEA0141A5
S2140816108A4207D9091900F1FF3C02D28A4200F231
S214081620C8806046891AB1FBF6F206FB121107FB62
S21408163002F7ADB245EA0145AF4208D92C1902F1C6
S214081640FF3180F09B80A74240F29880023A42EA37
S214081650004210461946BDE8F00F704700231A46A8
S21408166010461946BDE8F00F7047C6F1200522FA65
S21408167005F703FA06F421FA05F301FA06FB20FA41
S21408168005F53C434FEA1448B3FBF8FC08FB1C334B
S2140816901FFA84F909FB0CFA45EA0B0B4FEA1B45BF
S2140816A045EA03439A4502FA06F204D91B190CF1D7
S2140816B0FF356FD3AC46CAEB0303B3FBF8F508FB5C
S2140816C0153309FB05F91FFA8BFB4BEA0347B945A7
S2140816D004D93F1905F1FF3362D31D4645EA0C4C81
S2140816E0ACFB0223C9EB07079F424FF000054AD31D
S2140816F046D062462B465DE79440C2F1200921FA9F
S21408170009FC914020FA09F9260CBCFBF6F806FB02
S21408171018CCA7B207FB08F349EA01094FEA1941B2
S21408172041EA0C4C634500FA02F509D91CEB040C97
S21408173008F1FF323BD2634539D9A8F10208A44420
S214081740C3EB0C0CBCFBF6F306FB13C107FB03F25A
S2140817501FFA89F949EA01418A4207D9091903F1AA
S214081760FF3022D28A4220D9023B2144891A43EA12
S214081770084343E73A4605E7334618E70A4666E766
S214081780B0409042B5D20CF1FF32002312E7334640
S21408179032460FE79A458DD9ACF1020C23448AE706
S2140817A0B9459AD9023D274498E70346DEE79046AE
S2140817B0C6E70238214435E770B50F4E0F4D761B45
S2140817C0B61007D0043D0024013455F8043F984766
S2140817D0A642F9D10A4E0B4D00F096F8761BB610C5
S2140817E008D0043D0024013455F8043F9847A64223
S2140817F0F9D170BD70BD00BF14190800141908008F
S2140818001C19080014190800024B13B1024800F00E
S21408181005B8704700000000291808000146002097
S2140818200246034600F018B838B5094D094C641B43
S214081830A41018BF05EB840505D0013C55F8043DF7
S2140818409847002CF9D1BDE8384000F067B800BFCB
S214081850281908002C190800F0B5274C85B026680A
S2140818600746D6F84841002C40D065681F2D1EDD77
S214081870224818B94FF0FF3005B0F0BD4FF4C870D5
S214081880039102920193AFF3008003990446029AEB
S214081890019B0028EED0D6F84851002025606060ED
S2140818A00546C6F84841C4F88801C4F88C013FB913
S2140818B06B1C00200235636044F8251005B0F0BDA7
S2140818C00126AE4004EB8500C0F88820D4F88821AD
S2140818D0022F42EA0602C4F88821C0F80831E7D188
S2140818E0D4F88C311E43C4F88C61E1E706F5A6747B
S2140818F0C6F84841B9E700BF041908000000000010
S2140819004300000040010720F8B500BFF8BC08BC3B
S2140819109E4670470918080019010800F8B500BF68
S210081920F8BC08BC9E467047F50008009E
S20C08192C5CF9FF7F01000000D2
S214081934BFF35F8F0138FBD1704700BF4FF4806355
S214081944204A136002F5007213601F4B1B6A13F0DB
S214081954807F07D11D4A1C4B1A621A46936E13F0F1
S214081964010FFBD01A4A184B1A621A46936E13F4E0
S214081974803FFBD0144B1A6B22F0030242F001029C
S2140819841A631A46936E13F0080FFBD0114A0E4BCF
S2140819949A621A46936E13F0020FFBD011220A4B72
S2140819A41A631A46936E13F0080FFBD01222064BDE
S2140819B41A631A46936E13F0080FFBD0064A074BB1
S2140819C41A607047000A0E4000060E4009083700E1
S2140819D409083701013F0D2000BD0105380107201D
S2140819E41B4B984206D800231A4A136002F5007265
S2140819F413607047184B984207D84FF48073154AFB
S214081A04136002F5007213607047144B984207D8A7
S214081A144FF400730F4A136002F5007213607047A0
S214081A240F4B984207D84FF440730A4A136002F5DE
S214081A340072136070470B4B984294BF4FF4806350
S214081A444FF4A063034A136002F5007213607047EC
S214081A54BFEA2101000A0E407FF0FA02FF8FD00386
S214081A64FFB3C4047F4A5D0500093D00000000007A
S214081A74000000002C04072094040720FC04072018
S214081A840000000000000000000000000000000045
S214081A940000000000000000000000000000000035
S214081AA40000000000190800000000000000000004
S214081AB40000000000000000000000000000000015
S214081AC40000000000000000000000000000000005
S214081AD400000000000000000000000000000000F5
S214081AE400000000000000000000000000000000E5
S214081AF400000000000000000000000000000000D5
S214081B0400000000000000000000000000000000C4
S214081B1400000000000000000100000000000000B3
S214081B240E33CDAB34126DE6ECDE05000B00000078
S214081B340000000000000000000000000000000094
S214081B440000000000000000000000000000000084
S214081B540000000000000000000000000000000074
S214081B640000000000000000000000000000000064
S804080701EB
