S016000050726F6A6563744C617361726F732E7372656362
S21408000038CE0720E5320800E1320800E132080061
S214080010E1320800E1320800E13208000000000082
S214080020000000000000000000000000F1180800B2
S214080030E1320800000000006D190800A919080040
S214080040E1320800E1320800E1320800E132080037
S214080050E1320800E1320800E1320800E132080027
S214080060E1320800E1320800000000002D310800E7
S21408007041310800553108006931080000000000C9
S2140800800000000019160800E1320800E1320800F6
S214080090E1320800E1320800E1320800E1320800E7
S2140800A0E132080000000000E1320800951308005D
S2140800B061130800E1320800E1320800E132080066
S2140800C0E1320800E1320800E1320800E1320800B7
S2140800D0E1320800E1320800E1320800E1320800A7
S2140800E0E1320800E1320800E1320800E132080097
S2140800F0E132080010B5054C237833B9044B13B128
S2140801000448AFF300800123237010BDE00A0720DF
S214080110000000008498080008B5064B1BB1064886
S2140801200649AFF300800648036813B1054B03B1D0
S214080130984708BD0000000084980800E40A0720D5
S21408014084980800000000000F4B994219D849000F
S214080150B2FBF1F2043AFF2A07D90023013352080A
S214080160FF2A03D9072BF9D100E00023110289B230
S2140801701B0403F4E0230B43D2B21A4302610020A7
S21408018070470120704700BF801A060038B504463D
S2140801900D464FF0FF338362036A80230360036BC8
S2140801A008230360202303600423036049682A6841
S2140801B0054B9847012814BF002001206B7A012BB5
S2140801C004BF4023236038BD490108002DE9F00329
S2140801D00446CB688E68002B49D0002242604868E7
S2140801E0000200F4407040F480500D7C2D0405F4A5
S2140801F0FE0528436060E2604A685AB10878012A1A
S214080200C4BF4D7845EA0020022A04DD8A7842EA0F
S214080210002000E00020E060012B04D103222260C9
S2140802204FF0010C2BE0012222604FF0000C26E074
S214080230216A11F4807F1CD1551EE2B12A46012B93
S21408024005D1BCF1000F02D1C4F80090C44611F0E5
S214080250020F04D0226B3270013B01363A46002B5F
S214080260E6D1236A13F0010FFBD0236A14E00120BD
S21408027012E0052010E009200EE005200CE0216AB7
S21408028011F48070F9D143F697224FF002094FF027
S214080290010843F69827D2E7BDE8F003704700BF89
S2140802A070B40346CA688868002A3FD000245C6099
S2140802B00E7C360406F4FE064D682D0205F44075DD
S2140802C035435D60DC604C685CB10D78012CC4BFBA
S2140802D04E7846EA0525022C04DD897841EA05258C
S2140802E000E00025DD600BE0196A11F4807F1FD15D
S2140802F011F0040FF8D010F8011B5963013A07D023
S214080300196A11F4807F15D111F0040FF3D1EBE7C9
S2140803101A6A12F480700FD112F0040FF8D0022275
S2140803201A601A6A12F0010FFBD006E0012004E0FA
S214080330052002E0052000E0052070BC704700BFDD
S21408034000B587B0002306AA02F8153D03920122DD
S21408035004928DF814108DF80430029301A9024B0C
S214080360984707B05DF804FBA1020800F0B48CB00B
S21408037007460E4601AC124D0FCD0FC40FCD0FC465
S21408038095E8070084E807006A46002352F8044FF9
S214080390B6FBF4F4B4FBF7F4B4F5807F03D9013365
S2140803A00B2BF3D104E00A2B05D844EA032004E01B
S2140803B04FF6FF7001E04FF6FF700CB0F0BC7047C8
S2140803C07C90080070B506460C46086840B18968F7
S2140803D00B4B984705464FF6FF73984201D10EE03F
S2140803E00025606840B1A168054B98474FF6FF7333
S2140803F0984204D045EA00453560002070BD70BDBF
S2140804006D03080070B40B688C8A4A6802F00F0205
S21408041014430D892C438A7A44EA42248A7D44EAA6
S2140804200244CA7D44EA42440A7E44EA824400EB17
S2140804304312C2F80042CC68C2F804420C69C2F8FB
S2140804400C428A7D3AB18C8B4A8B42EA044400EB14
S2140804504312C2F81842856C4FF001129A40D243F4
S2140804601540CE7F9E408C7F9C4044EA06442C4331
S2140804708464446C224091F821509D4091F82040B5
S2140804809C4044EA05442243426401229A4091F87B
S21408049022401CB1046A1443046203E0046A24EA96
S2140804A00204046291F82440012C846E0CBF1443A5
S2140804B09443846691F82540012C846E0CBF44EA68
S2140804C0024224EA02428266032B0CD8C46EDB0082
S2140804D0FF229A4024EA020291F8231001FA03F355
S2140804E01343C3660CE0043B046FDB00FF229A400C
S2140804F024EA020291F8231001FA03F31343036770
S214080500002070BC704700BF10B40C680B6993429B
S21408051006D3CA6000EB4410C0F80822002001E0A9
S2140805204FF6FF705DF8044B704700BF012303FACF
S21408053001F14160704700BF012303FA01F18160B1
S214080540704700BF00B585B000230B4A53710222DE
S2140805500A490A600A4902918DF80C20094A019254
S2140805608DF80D301720084B9847084801A9084B06
S214080570984705B05DF804FBD0AD0720CCAD072042
S214080580A086010000BD010565320800000009408C
S2140805908D01080030B587B00023019302930593B8
S2140805A0039004910A4B19788DF8141009480A4BE1
S2140805B0984738B9074D094C284601A9A04700288E
S2140805C0FAD101E0002000E0012007B030BD00BFEE
S2140805D0CCAD07200000094041030800A10208002E
S2140805E030B587B0002301930293059303900491D6
S2140805F0064B1B688DF81430054D064C284601A995
S214080600A0470028FAD1012007B030BDCCAD07209E
S21408061000000940CD01080008B50238232837D85D
S214080620DFE800F0161A1E363636363636363636D2
S214080630363636363636363636363636363636364D
S2140806403636122A222E26321348144B984708BDEF
S2140806501348124B984708BD1248104B984708BDD8
S21408066011480E4B984708BD10480C4B984708BDD4
S2140806700F480A4B984708BD0E48084B984708BDD0
S2140806800D48064B984708BD0C48044B984708BDCC
S2140806900B48024B984708BDAC9008002566080032
S2140806A0C0900800DC900800F89008001891080030
S2140806B03091080048910800609108007891080079
S2140806C08891080000B583B022238DF804300023F3
S2140806D08DF805308DF8063001A80321024B98479F
S2140806E003B05DF804FB00BF9505080010B582B09E
S2140806F024238DF8043000238DF805308DF8063055
S214080700ADF800308DF8023001A80321184B984741
S21408071048B368460321174B98479DF80030242BAA
S2140807200CD19DF80100C31EDBB2012B1ED8124B5C
S21408073018709DF80220114B1A7017E01048114BDC
S21408074098479DF8002010481146104B98474EF6DB
S21408075060200F4CA0479DF800000E4B98474EF6B9
S2140807606020A04702E00C48064B984702B010BD30
S21408077095050800E105080038010720FC0A07204F
S214080780B49108002D680800C8910800256608007E
S2140807900100072019060800D491080000B583B0A8
S2140807A00A4B1A889B78ADF804208DF8063001A805
S2140807B00321074B9847034618B10522054B1A70C4
S2140807C00123184603B05DF804FB00BFA890080094
S2140807D0950508003801072000B583B021238DF859
S2140807E0043000238DF805308DF8063001A8032163
S2140807F0024B984703B05DF804FB00BF9505080058
S21408080010B582B023238DF8043000238DF8053008
S2140808108DF80630ADF800308DF8023001A80321B7
S214080820134B9847F8B168460321124B98479DF832
S2140808300030232B02D19DF8010017E00E480F4B1D
S21408084098479DF800200E4811460E4B98474EF6DE
S21408085060200D4CA0479DF800000C4B98474EF6BC
S2140808606020A04702E00A48044B984702B010BD33
S21408087095050800E1050800B49108002D680800F1
S214080880C891080025660800010007201906080018
S214080890D4910800000000002DE9F8439248934CD4
S2140808A0A047934D0D2029464FF08052914B98470C
S2140808B00D2029464FF400028F4B98478F4B9847D8
S2140808C0012040F2DC518E4DA847002040F2DC5152
S2140808D0A84700208B4DA8470120A84700208A4B30
S2140808E098478A4B9847054689482946A047894825
S2140808F0A047002D08DA85EAE570A0EBE570864B80
S2140809009847864B984704E02846834B9847844B7D
S2140809109847844B9847DFF85C920024824D70A76E
S214080920D7E9006719E04FF4FA70804B9847804B78
S214080930D3F800807F4B1868C0EB08007E4B9847BA
S2140809404046754B984732463B46DFF82CC2E04790
S2140809507A4B98477A48654B98470020C8472246FE
S2140809602B46DFF818C2E0470028DCD1754B9847BD
S2140809707548764B19685D4B9847754B1B78002B66
S21408098000F08C807348744B9847744B1B686BB1A7
S214080990734A1368013313606C4A1360022B08DD30
S2140809A003226F4B1A600220BDE8F8830322674BC8
S2140809B01A600024664B1C704B484C4DA8474C4E9A
S2140809C00D2031464FF080524A4B98470D2031464D
S2140809D04FF40002484B9847484B9847012040F28E
S2140809E0DC51474EB047204640F2DC51B04720461F
S2140809F0444EB0470120B0472046434B9847434BE8
S214080A009847044642482146A8474248A847002C2B
S214080A1008DA84EAE470A0EBE4703F4B98473F4B53
S214080A20984704E020463C4B98473D4B98473D4B3B
S214080A309847DFF8409100243B4D29A7D7E900677F
S214080A4019E04FF4FA70394B9847394BD3F80080C1
S214080A50384B1868C0EB0800374B984740462E4B73
S214080A60984732463B46DFF810C1E047334B984775
S214080A7033481E4B98470020C84722462B46DFF8C7
S214080A80FCC0E0470028DCD12E4B98472E482F4B59
S214080A901968164B98470120BDE8F883314B1B7838
S214080AA0CBB131482C4B98472C4B1B682BB92C4A9A
S214080AB0136801331360254A13600022294B1A7005
S214080AC0224D2A482968094CA04729482968A04782
S214080AD00220BDE8F8830120BDE8F883AFF3008064
S214080AE0AE47E17A14AEF53FF09108002566080097
S214080AF000120E408D140800ED140800C9130800F3
S214080B001D140800E9130800390F0800CD0E080068
S214080B10009208000893080079590800E90C0800B4
S214080B20C10D08005910080000003E40D5250800F1
S214080B30280B07202C0B0720B90B0800911008007B
S214080B4010920800CD0C080020920800000B072021
S214080B50040B0720489208002D680800080B072099
S214080B600C0B0720FD0A0720589208006892080018
S214080B7078920800E10F0800455A0800655F0800EB
S214080B8008B50348034B98470122034B1A7008BD63
S214080B90989208002D680800040B072008B503483B
S214080BA0034B98470122034B1A7008BDA892080009
S214080BB02D680800FD0A07202DE9F04F87B003903E
S214080BC00026314B1E60314B1E60314DA847CDE9DB
S214080BD00401304BD3E90089CDE90089DFF8DC90C1
S214080BE0DFF8DC80D9E90023C0472B4F2B4BD3E92D
S214080BF00023B8472A4CDDE90023A04782468B46E7
S214080C00C9E900ABDFF8BC90D9F80000039B181AB6
S214080C10A84702460B46DDE90001B847214BD3E951
S214080C200023A04704460D461F4BC3E90045039B17
S214080C30C9F80030DFF89090D9F80030B3F5FA6FAD
S214080C4028BF4FF4FA63C9F80030DDE904015246BC
S214080C505B46C04702460B4620462946C047134B0C
S214080C60D3E90023B847124B9847124B196801443A
S214080C7019600120104CA0473046D9F80010A0474C
S214080C8007B0BDE8F08F00BF280B07202C0B072005
S214080C907959080050010720455A080060010720C6
S214080CA0995C080058010720180B07204001072008
S214080CB0795F08003C0107201D140800100B072068
S214080CC0E1560800200B07204801072010B5002031
S214080CD040F2DC51034CA047012040F2DC51A0470B
S214080CE010BD00BF1D1408002DE9F84304460D4644
S214080CF0274B98470020274EB0470120B047264E7E
S214080D002046294620A3D3E90023B0470022234BD8
S214080D10B0470022224B234CA04704460D4600202D
S214080D2040F20A51204EB047012040F27C61B0479D
S214080D3000201E4B18601E4B18601E4B9847024634
S214080D400B46204629461C4EB04790B1DFF86C90FB
S214080D50DFF85880174F41F27070C847D8F800007F
S214080D60B84702460B4620462946134EB047002889
S214080D70F1D1074B984700230C4A13600C4A1360BE
S214080D80BDE8F883AFF300809A9999999999F13F4D
S214080D90CD0C0800E9130800455A08000000D03FAB
S214080DA00000F03FDD5608001D140800280B072039
S214080DB02C0B072079590800655F080001000720FA
S214080DC02DE9F84304460D4629482A4B98472A4BEE
S214080DD098472A4E2046294623A3D3E90023B0473E
S214080DE00022274BB0470022264B274CA047044634
S214080DF00D46002040F2A461244EB047012040F280
S214080E001E51B0470020224EB0470120B0470020B0
S214080E10204B1860204B1860204B984702460B461C
S214080E20204629461E4EB04790B1DFF87890DFF886
S214080E3064801A4F41F27070C847D8F80000B84767
S214080E4002460B4620462946154EB0470028F1D1E3
S214080E50094B984700230F4A13600F4A1360BDE8F2
S214080E60F88300BFAFF30080CDCCCCCCCCCCF03F21
S214080E70DC92080025660800CD0C0800455A0800D4
S214080E800000D03F0000F03FDD5608001D140800A3
S214080E90E9130800280B07202C0B072079590800AF
S214080EA0655F080001000720044B1A88044B1A8067
S214080EB0044B1A88044B1A80704700BF6801072045
S214080EC0240B07206A010720260B0720144B1A68F4
S214080ED0144B1A60144B1B68C3F1B40313490B6018
S214080EE0A2F5B4710029B8BF49421944104A81FBDB
S214080EF00223CA18CB17C3EB22234FF4B47202FBA3
S214080F001311A1F5B4710029B8BF4942B429C8BF66
S214080F10A1F5B471074B1960064B1868704700BFF7
S214080F206C01072010AE0720F0AD072008AE07209A
S214080F30B7600BB614AE0720F8B504461A4B9847A8
S214080F401A4B33F834701A4A1288BF1A194A1760AF
S214080F5003EBC4046088184B1B88C01A174B18602C
S214080F60174EB04704460D463846B04702460B466D
S214080F7020462946134CA047134BC3E9000100221C
S214080F80124B134CA04706A3D3E90023114CA047E5
S214080F90114B9847114B1860F8BD00BFAFF300809F
S214080FA07A008BFCFA210940A90E08007001072078
S214080FB0240B07200CAE0720260B0720E0AD0720E1
S214080FC079590800153D080000AE072000806640E5
S214080FD0455A0800995C0800795F0800F0AD0720BC
S214080FE02DE9F84F144B9847144E154B1868B04720
S214080FF004460D46134B1868B04780468946DFF806
S21408100050A0DFF850B04046494642464B46D047C7
S21408101006460F462046294622462B46D047024615
S2140810200B4630463946D847074B9847074BC3E91F
S2140810300001BDE8F88F00BF390F0800795908008D
S2140810400CAE0720E0AD0720193D0800E8AD0720E4
S214081050455A0800E156080009480368094A116815
S214081060591A01F5B471084A81FB0223CA18CB172E
S214081070C3EB22234FF4B47202FB131101607047CE
S2140810806C01072014AE0720B7600BB600000000FE
S2140810902DE9F04F85B004460D46DFF8D8902A4B68
S2140810A01868C847DFF8D08025A3D3E90023C047CF
S2140810B00022264B264EB04706460F46254BC3E968
S2140810C00067254B9847CDE90001DFF8B0B0BBF8BC
S2140810D00000C847CDE90201DDE9000122462B469B
S2140810E0C04702460B46DDE90201DFF894C0E04738
S2140810F01A4B98471FFA80FAABF800A030463946D4
S214081100174B9847CDE90001164E3088C847CDE9F9
S2140811100201DDE9000122462B46C04702460B467F
S214081120DDE90201104CA0470C4B984780B230808E
S2140811300E4BA3F800A00E4B188005B0BDE8F08F44
S2140811407A008BFCFA2109406C0107200080664073
S214081150995C080000AE0720F53B0800C95F080048
S214081160813C0800260B0720E15608006801072086
S2140811706A01072079590800455A0800240B0720F9
S214081180DD560800AFF300802DE9F843064600EB6D
S214081190C0003B4B03EB80004469630903F500136A
S2140811A003F207735B0204F01F04012202FA04F438
S2140811B05C61C3F8A0404369C4698169214303F0B0
S2140811C01F0082405B0903F5001303F207735B02F6
S2140811D011F0080F14BF5A661A6611F0200F14BFD4
S2140811E01A655A6511F0C00F14BF1A625A6211F0D8
S2140811F0800F14BFC3F88420C3F8802011F0010FB5
S214081200196F14BF0A4321EA02021A671C4D4FEAF7
S214081210C60909EB0607BF00EC19636903F01F024D
S2140812204FF0010808FA02F25B0903F5001303F20F
S21408123007735B025A600020124B9847A068124B4F
S2140812409847E85961682269104B9847E8596168D9
S2140812500F4B9847E859616840220E4B98474E4412
S21408126005EB86052B7B59B2490903F01F0308FADC
S21408127003F32031084A42F82130BDE8F88300BF5E
S21408128008020720BD3208006532080091170800DA
S214081290AD170800B517080000E100E02DE9F04199
S2140812A00446C0EB0012294B03EB8202136B516B0A
S2140812B003F01F02012000FA02F25B0903F500138F
S2140812C003F207735B0211F0080F14BF5A661A661A
S2140812D011F0200F14BF1A655A6511F0C00F14BF1D
S2140812E01A625A6211F0800F14BFC3F88420C3F83C
S2140812F0802011F0010F196F14BF0A4321EA020279
S2140813001A67124D2701C4EB07084FEA880805EB51
S2140813100806336B03F01F02012101FA02F25B098B
S21408132003F5001303F207735B025A60F06A084B72
S214081330984755F808007168064B98473C1B55F8BF
S21408134024000549054B9847BDE8F0819001072021
S214081350653208003905080050020720C503080052
S21408136010B5094C20686168084B9847237B59B22A
S214081370490903F01F03012202FA03F32031044A45
S21408138042F8213010BD00BF08020720BD1708002C
S21408139000E100E010B5094C606AA16A084B98475E
S2140813A094F8303059B2490903F01F03012202FAB3
S2140813B003F32031034A42F8213010BD0802072003
S2140813C0BD17080000E100E010B50020044CA04757
S2140813D00120A0470020034CA0470120A04710BDCD
S2140813E09D12080089110800F8B50646084C070142
S2140813F03D1AAD00611960590431064B9847BE1B6B
S21408140004EB860660597168034B9847F8BD00BF21
S21408141090010720050408002D05080010B50A46A7
S214081420C0EB0011094B03EB81039B6B93420BD374
S214081430064B01010C1A03EB840153F8240004310F
S214081440034B9847002010BD012010BD90010720CF
S21408145009050800044BDB6B13F0805F03D0034BD1
S2140814601A6801321A60704700120E40280B0720CF
S214081470044BDB6B13F4000F03D0034B1A680132DE
S2140814801A60704700120E402C0B072070B582B009
S21408149006460D46144600200D4B984730460D4B21
S2140814A098472846214601220B4B98470B4B00933A
S2140814B02846314622464023094EB047284621464C
S2140814C0084B98474FF40052074B1A6002B070BD9D
S2140814D0BD32080065320800892E08005514080039
S2140814E0F1300800152F080000E100E070B582B062
S2140814F006460D46144600200D4B984730460D4BC1
S21408150098472846214601220B4B98470B4B0093D9
S2140815102846314622464023094EB04728462146EB
S214081520084B98474FF40052074B1A6002B070BD3C
S214081530BD32080065320800892E080071140800BC
S214081540F1300800152F080000E100E0114B124AA0
S2140815501360124A116821F0020141F0010111607E
S214081560E43213600E4B1B6813F0006F03D14FF084
S21408157000620C4B1A600C4A136803F0113323F010
S21408158001031360054B1A6822F0020242F00502B6
S2140815901A60704700011000E4060E40000008407C
S2140815A018060E4010060E40040008402DE9F041CB
S2140815B00C46904660B9002A0EDD8F18094E0A4D73
S2140815C0306821462B6898470134BC42F8D106E0BB
S2140815D04FF0FF30BDE8F0810020BDE8F0814046BE
S2140815E0BDE8F08120AE072018AE0720436913F047
S2140815F0020F1DBFC1F30801C1610020012070471A
S214081600436913F0010F05D08369C3F308030B6021
S214081610002070470120704700B583B011480DF1CF
S21408162007010122104B984772B6BFF35F8F00225E
S2140816300E4B1A700E4B1B789DF807100D4AD154A6
S2140816409B2B03D100220A4B1A7002E00133084A8A
S21408165013700122054B1A70BFF35F8F62B603B092
S2140816605DF804FB00800940CD16080068020720D4
S214081670D40B0720380B07202DE9F0410E461546F7
S214081680013802280FD892B10024DFF83C800D4FAD
S214081690D8F80000315D3B68984700280ADB01341B
S2140816A0A542F5D10AE04FF0FF30BDE8F0810020F2
S2140816B0BDE8F0814FF0FF30BDE8F0812046BDE878
S2140816C0F08100BF1CAE072020AE07202DE9F04FA2
S2140816D083B005469046002A47D04E1C254F264C18
S2140816E0DFF8A8A0DFF894B006F1FF3900230193CD
S2140816F0224B9D4206D158464946214B984700281A
S214081700F9D119E01F4B9D4209D19946484601A9CF
S214081710A0470028FAD1019B06F8013C17E01A4BAF
S2140817209D4209D19946484601A9A0470028FAD102
S214081730019B06F8013C14E0554508D1504601A91E
S214081740A0470028FAD1019B06F8013C09E0BD42F3
S21408175007D1384601A9A0470028FAD1019B06F808
S214081760013C0136B8F10108BED1002003B0BDE83F
S214081770F08F00BF00400A400116080000080E401F
S2140817800D1808000080094000C0094000000A4003
S21408179010B489014318022444504FF0FF3199626F
S2140817A0196A5A605DF8044B704700BF8901052323
S2140817B04350704700EB81114A62704700EB811175
S2140817C0086A704710B4AC2303600A684B68B2FB1B
S2140817D0F3F31B095C1E4FF6FE7294420AD80362A6
S2140817E08B68436040F20223C0F820315023036020
S2140817F0002000E001205DF8044B7047436913F0B1
S214081800020F1ABFC161002001207047436913F018
S214081810010F1DBF83690B7000200120704700BFB1
S21408182000F1080343604FF0FF328260C360036133
S21408183000230360704700BF00230361704700BFA2
S21408184043685A684A6042688A605A689160596074
S21408185041600861036801330360704710B40C6880
S214081860B4F1FF3F01D103690AE000F10803C2683A
S2140818701268944204D35B685A6812689442FAD293
S2140818805A684A6091608B60596008610368013342
S21408189003605DF8044B7047436882689A60836803
S2140818A042685A6003695A68824204BF82685A606E
S2140818B0002202611A68013A1A601868704700BF69
S2140818C003480068006880F3088862B600DF00BF37
S2140818D008ED00E04FF0807340F8043C40F8081C20
S2140818E0002340F80C3C40F8202C4038704700BFD6
S2140818F0064B19680868B0E8F00F80F309884FF0BF
S214081900000080F311884EF00D0E70479CAC07203F
S2140819104FF08052014B1A60704700BF04ED00E09C
S214081920EFF311804FF0A00181F311887047002073
S21408193008B5034B9847034B1A6801321A6008BD6E
S214081940211908005C02072080F31188704700BF41
S21408195008B5044A1368013B136013B90020024B0C
S214081960984708BD5C02072049190800EFF309806C
S2140819700C4B1A6820E9F00F10602DE908404FF06C
S214081980A00080F3118800F08BFE4FF0000080F373
S2140819901188BDE8084019680868B0E8F00F80F3B9
S2140819A0098870479CAC072008B54FF08052054B55
S2140819B01A60054B9847054B98470020044B9847F4
S2140819C008BD00BF04ED00E021190800AD2308009B
S2140819D049190800034A044B1A600722043B1A6098
S2140819E0704700BF1F48010014E000E010B5094B1F
S2140819F01A6842F470021A601A6842F070421A6056
S214081A00054B98470024054B1C60054B9847204615
S214081A1010BD00BF20ED00E0D51908005C020720C5
S214081A20C118080030B4134A1368834201D21A4614
S214081A30FAE7114654681519854203D168680444C4
S214081A405460104642688418A3420CD10A4C246895
S214081A509C4206D05B681A4442600B681B680360A9
S214081A6002E0036000E00360814218BF086030BCF3
S214081A70704700BFDCAB0720D8AB072038B5044654
S214081A80284B9847284B1B689BB9284A284B136055
S214081A900021516049F6F0729818234D286049F6DF
S214081AA0F475595199505A601860224B1A68103AC2
S214081AB01A60002C2DD004F1100212F0070F1CBF7C
S214081AC022F007020832511E49F6FE73994222D8C0
S214081AD016490C6863689A4204D9236813B12146EC
S214081AE01C46F7E7104B1B689C4216D00D6810354D
S214081AF023680B6063689B1A202B04D9A0184360E0
S214081B0062600D4B98470B4B1A686168521A1A6048
S214081B1004E0002502E0002500E00025074B984772
S214081B20284638BD7D230800D8AB0720DCAB072045
S214081B30D80B072060020720251A0800CD240800C5
S214081B4010B5044668B1074B9847074B196854F810
S214081B500C2C0A441A60A4F11000044B9847044B56
S214081B60984710BD7D23080060020720251A080044
S214081B70CD24080010B50446036C3BB903681BBBAC
S214081B804068134B9847002363601DE06AB9806875
S214081B901A46104B9847A268236C1344A3606268E1
S214081BA0934211D32368A3600EE0C0681A46094B17
S214081BB09847226C5242E3681344E36021688B42DC
S214081BC002D263681A44E260A36B0133A36310BDB4
S214081BD0B92908004D66080038B5034605685DB1A2
S214081BE0026CC4681444C4604068844228BFDD6040
S214081BF00846D968014B984738BD00BF4D660800AF
S214081C00F8B504461D4B9847A36C002B12DD636A93
S214081C1083B104F124061A4D1A4F01E0636A4BB1EA
S214081C203046A84700B1B847A36C013BA364A36C31
S214081C30002BF3DC4FF0FF33A364134B98470F4B8E
S214081C409847636C002B12DD236983B104F11006F4
S214081C500B4D0C4F01E023694BB13046A84700B145
S214081C60B847636C013B6364636C002BF3DC4FF08E
S214081C70FF336364044B9847F8BD00BF311908006A
S214081C80D5270800052908005119080038B50D465B
S214081C90044618B9164B984700BFFDE7154B9847FA
S214081CA02368226CE06B00FB02F0191861600021C3
S214081CB0A163A360821A1344E3604FF0FF336364A2
S214081CC0A36455B923697BB104F110000A4B984701
S214081CD0012809D1094B984706E004F11000084D81
S214081CE0A84704F12400A847064B9847012038BDAA
S214081CF02119080031190800D5270800111908000D
S214081D002118080051190800F8B50D46174606466A
S214081D1088B150200E4B9847044660B105FB06F084
S214081D2001300B4B9847206040B92046094B98472E
S214081D3001E000BFFDE7084B9847FAE7E66325642D
S214081D4020460121054B984784F84D702046F8BD7B
S214081D507D1A0800411B0800211908008D1C080080
S214081D602DE9F04F85B08A4601929B46044618B97D
S214081D70364B984700BFFDE709B9036C1BB9002727
S214081D80334E344D03E0314B984700BFFDE7B0476C
S214081D90A26BE36B9A4212D2204651465A462E4B05
S214081DA09847636A3BB104F124002C4B98470128F6
S214081DB001D12B4B9847274B9847012043E0019BBE
S214081DC01BB9244B984700203DE01FB902A8254BB5
S214081DD098470127A847244B9847B047636CB3F148
S214081DE0FF3F04BF00236364A36CB3F1FF3F04BF47
S214081DF00023A364A84702A801A91C4B9847E0B98A
S214081E00B047D4F83890D4F83C80A847C1450ED1DE
S214081E1004F110000199164B98472046154B984731
S214081E20154B98470028B2D10D4B9847AFE7204688
S214081E30104B9847104B9847A9E720460D4B9847F4
S214081E400D4B9847002005B0BDE8F08F2119080013
S214081E503119080051190800751B0800D527080015
S214081E6011190800592808007D2308008128080051
S214081E7031270800011C0800CD2408002DE9F04190
S214081E800E4615469846044618B91C4B984700BF98
S214081E90FDE729B9036C1BB1184B984700BFFDE74F
S214081EA0164B98470746A26BE36B9A4218D2204611
S214081EB031464246124B9847A36CB3F1FF3F0AD10E
S214081EC0636A7BB104F124000E4B984760B16DB18C
S214081ED001242C600BE0A36C0133A364012406E004
S214081EE0002404E0012402E0012400E0012438462E
S214081EF0054B98472046BDE8F08100BF2119080029
S214081F00751B0800D5270800491908002DE9F04F69
S214081F1085B0894601929A46044618B9444B9847B4
S214081F2000BFFDE709B9036C2BB90027414EDFF85F
S214081F3034B1414D03E03E4B984700BFFDE7B0473C
S214081F40A36B002B28D0E568204649463B4B9847AC
S214081F50BAF1000F12D1A36B013BA363236813B930
S214081F60374B98476060236993B104F11000354BEE
S214081F70984701280CD1344B984709E0E560636A16
S214081F8033B104F124002F4B984708B12E4B9847DD
S214081F90294B9847012048E0019B1BB9264B9847D8
S214081FA0002042E017B902A8D8470127A847274BC0
S214081FB09847B047636CB3F1FF3F04BF00236364E0
S214081FC0A36CB3F1FF3F04BF0023A364A84702A88D
S214081FD001A91F4B984710BBB047D4F83880A847CC
S214081FE0B8F1000F15D1236823B9B0476068194BBC
S214081FF09847A84704F124000199174B98472046AC
S214082000164B9847164B9847002898D10E4B98477A
S21408201095E72046114B9847114B98478FE720467F
S2140820200E4B98470E4B9847002005B0BDE8F08F3A
S214082030211908003119080051190800D91B080091
S21408204011290800D5270800111908007D23080063
S214082050812808003D29080031270800011C0800CF
S214082060CD2408005928080038B504460D460D4BFF
S2140820709847636CB3F1FF3F04BF00236364A36C07
S214082080B3F1FF3F04BF0023A364074B9847A36B35
S21408209023B904F124002946044B98472046044BEC
S2140820A0984738BD311908005119080091270800CB
S2140820B0011C080010B504460E4B1B6858600E4BF2
S2140820C01B68984207D20D4B18680A4B19680431EA
S2140820D00B4B984710BD0B4B1868064B1968043114
S2140820E0074B9847084B1B689C423CBF064B1C6036
S2140820F010BD00BF9CAC0720B8AC0720BCAC0720BE
S2140821005D180800FCAB0720640207202DE9F84F8D
S2140821100E4617469A460A9DDDF83080814618B95D
S214082120624B984700BFFDE7042D03D95F4B9847DD
S21408213000BFFDE74C205E4B98470446002800F099
S214082140B180B8F1000F40F0A980B800584B984706
S214082150206318B92046574B9847A3E0A521BA0034
S214082160554B984707F18047013F236B03EB8703DE
S21408217023F0070B04F1340031460A224F4B9847E8
S214082180002384F83D30042D34BF2E460426E6622C
S214082190A664271D3846DFF87081C04704F118008A
S2140821A0C0472461C6F10506A661646258464946DA
S2140821B05246434B9847206010F0070F03D03B4B1E
S2140821C0984700BFFDE70B9B03B11C603D4B984743
S2140821D03D4B1A6801321A603C4B1B682BBB3B4BC5
S2140821E01C60394B1B68012B29D1394E06F164094E
S2140821F0DFF8E0803046C04714364E45FAD1DFF89F
S2140822000C914846334EB047DFF804814046B04745
S2140822103148B0473148B0473148B047314BC3F82A
S2140822200090314BC3F8008009E0304B1B6833B987
S214082230264B1B68DB6A9D4224BF244B1C60E36A5E
S2140822402B4A1268934284BF294A1360294A1168A8
S214082250216401311160284A1268934284BF264AD5
S214082260136003EB83031A4800EB83003946234BBD
S2140822709847234B98471D4B1B684BB1134B1B685D
S214082280DB6A9D4207D91F4B98470120BDE8F88FA7
S2140822900120BDE8F88F0120BDE8F88FC0F830802F
S2140822A040465BE74FF0FF30BDE8F88F211908007D
S2140822B07D1A0800411B080039670800AD69080048
S2140822C0D518080031190800DCAC07209CAC07209C
S2140822D034AC072021180800A0AC072008AC07205B
S2140822E0E8AB0720FCAB0720BCAC072000AC0720F7
S2140822F0E0AC0720C0AC072030AC07204118080027
S214082300511908001119080039180800C4AC07202C
S2140823101CAC072010B584B00023009301930293E9
S21408232003930E480E4982220E4CA04701280ED170
S2140823300D4B984701280AD10C4B984701220C4BA5
S2140823401A6000220B4B1A600B4B984704E018B92A
S214082350064B984700BFFDE704B010BD1D260800D1
S2140823600C9308000D210800B12A0800211908005E
S21408237000AC0720B8AC0720ED190800024B1A6815
S21408238001321A60704700BF98AC072010B5044B9E
S2140823909847044B1C68044B9847204610BD00BF5E
S2140823A031190800B8AC0720511908002DE9F0418A
S2140823B03A4B1B68002B6BD1394B1A6801321A60EE
S2140823C01B6803BB374B1B681B681BB1364B98470B
S2140823D000BFFDE7334B1968344A1068186011606F
S2140823E0334A1168013111601B681B6823B94FF026
S2140823F0FF32304B1A6006E02A4B1B68DB68DB6846
S2140824005A682C4B1A60264B1A682A4B1B689A4245
S21408241042D3244B1B681B684BB1224B1B68DB68F6
S214082420DC6863681E4A1268934213D90EE04FF0C0
S214082430FF32204B1A60BDE8F0811A4B1B68DB6838
S214082440DC686368164A1268934207D9194A13600B
S214082450BDE8F081184E194FDFF86C80251D284618
S214082460B047A36A13B104F11800B047E36A3A68A4
S214082470934288BF3B6003EB830008EB8000294645
S2140824800F4B9847074B1B681B68002BD5D1CEE728
S2140824900C4B1A6801321A60BDE8F08198AC072028
S2140824A0B8AC0720FCAB072021190800BCAC0720F5
S2140824B0B4AC0720640207209918080030AC07203F
S2140824C041180800E4AB072034AC07202DE9F84390
S2140824D0314B1B681BB9314B984700BFFDE7304BA3
S2140824E098472D4B1A68013A1A601B68002B48D18A
S2140824F02C4B1B68002B46D00025DFF8D4802A4FCB
S2140825002A4E1DE0D8F80C30DC6804F11800B847ED
S21408251004F104094846B847E36A3268934288BF1C
S214082520336003EB8303224800EB83004946214BC4
S2140825309847214B1B68E26ADB6A9A4228BF012546
S214082540D8F80030002BDDD11C4B1B6863B11B4B41
S2140825501B687BB11A4D194CA8472368013B2360BA
S2140825602368002BF8D105E0012D03D0154B1B6816
S214082570012B0AD10022134B1A60134B98470124EB
S21408258004E0002402E0002400E000240F4B9847F3
S2140825902046BDE8F88300BF98AC0720211908003C
S2140825A031190800DCAC07209918080030AC072061
S2140825B034AC0720411808009CAC0720E4AB072081
S2140825C0AD230800D8AC07201119080051190800D7
S2140825D0A0AC072010B5044678B1094B9847094BBC
S2140825E01B681C44084B18680430084B984720465C
S2140825F0074B9847074B984708B9074B984710BDAD
S2140826007D230800B8AC07209CAC07209918080062
S214082610B5200800CD2408001119080080B5154D0E
S214082620154EDFF878801CE0144B9847144B1C684E
S214082630144B9847ACB1144B9847114BDB68DC68D1
S214082640201D124B9847124B1A68013A1A602B68DD
S214082650013B2B600F4B9847206B0F4FB84720461F
S214082660B8472B68002BDFD13368012BF9D9C04750
S214082670F7E700BF04AC072034AC07207D2308002A
S21408268008AC0720CD24080031190800991808005E
S214082690DCAC072051190800411B08001119080076
S2140826A008B51D4B1B685BB91C4B1B6803EB830303
S2140826B09B001B4AD358CBB9184B1B6853B905E087
S2140826C00122184B1A6008BD1A682AB9164B984793
S2140826D000BFFDE7114B12491A68013A1A601A68DA
S2140826E002EB820251F82220002AEDD00B4B1B6821
S2140826F003EB83030A4A02EB83035A6852685A605C
S21408270003F108018A4204BF52685A605B68DA68B7
S214082710064B1A6008BD00BF98AC072030AC0720EF
S21408272034AC0720D8AC0720211908009CAC072039
S21408273038B50C4618B90E4B984700BFFDE70D4D47
S214082740296818310C4B9847286804300B4B984773
S214082750B4F1FF3F05D1296809480431094B984769
S21408276038BD094B18682044084B984738BD00BF49
S214082770211908009CAC07205D1808009918080065
S214082780E8AB072041180800B8AC0720B5200800B9
S21408279038B50D4618B9094B984700BFFDE7084CF1
S2140827A021681831074B984720680430064B98472D
S2140827B0064B18682844064B984738BD2119080068
S2140827C09CAC07204118080099180800B8AC0720E8
S2140827D0B520080038B5C368DC681CB9164B98479E
S2140827E000BFFDE704F118052846144B9847144B1C
S2140827F01B689BB9251D2846104B9847E36A114A63
S2140828001268934284BF0F4A136003EB83030E4893
S21408281000EB830029460D4B984703E00C482946F1
S2140828200A4B98470B4B1B68E06ADB6A984234BF32
S2140828300020012038BD00BF21190800991808009B
S21408284098AC072030AC072034AC072041180800A5
S214082850A0AC07209CAC072008B518B9054B9847CC
S21408286000BFFDE7044A12680260044A1268426024
S21408287008BD00BF21190800B4AC0720B8AC072073
S21408288038B50D46044618B9184B984700BFFDE7FB
S21408289019B9164B984700BFFDE7154B98472B68A4
S2140828A0B3F1FF3F19D0134A116822688A4204D050
S2140828B0114A116862688A4211D90F4A116862681B
S2140828C0891A8B420DD90C490968521A13442B6091
S2140828D020460A4B9847002404E0002402E001241E
S2140828E000E00124064B9847204638BD2119080009
S2140828F031190800B4AC0720B8AC072059280800DE
S214082900511908000122014B1A607047D8AC0720FD
S214082910014B1868704700BF9CAC0720054B1B6826
S21408292033B1054B1B68002B14BF022001207047EB
S2140829300020704700AC072098AC072038B504463E
S21408294000282ED0C36A174A1268D26A934228D241
S214082950144A1268D26AC2F10502826103EB830345
S214082960114A02EB830342699A4216D1051D28468E
S2140829700E4B98470B4B1B68DB6AE3620C4A1268DF
S214082980934284BF0A4A136003EB8303064800EBAE
S21408299083002946074B984738BD024B1B68DB6AFD
S2140829A0C36238BD9CAC072034AC072099180800D1
S2140829B030AC07204118080038B50446D0B1C26AC2
S2140829C0836C9A4216D0051D28460B4B9847A36C75
S2140829D0E362C3F10502A261084A1268934284BF03
S2140829E0064A136003EB8303054800EB8300294679
S2140829F0044B984738BD00BF9918080030AC07202C
S214082A0034AC07204118080010B504464160206120
S214082A1091420AD8D21A81698A4211D20A4B18689A
S214082A20211D0A4B9847002010BD9A4201D29942B0
S214082A3008D2074B1868211D044B9847002010BD84
S214082A40012010BD012010BD18AD07205D18080034
S214082A50E4AC072070B50D4B98470D4B1B688BB937
S214082A600C4D28460C4EB0470C4C2046B0470C4B35
S214082A701D600C4B1C6005200C2100220A4B984751
S214082A80034B1860094B984770BD00BF3119080002
S214082A9014AD0720E8AC072021180800FCAC072076
S214082AA0E4AC072018AD0720091D080051190800D6
S214082AB010B584B00B4B98470B4B1B6863B10423C7
S214082AC000930023019302930393084808494FF4A0
S214082AD08272084CA04718B9074B984700BFFDE715
S214082AE004B010BD552A080014AD0720052C0800B0
S214082AF0189308000D2108002119080010B584B0A5
S214082B000F4C2468C4B10191029203906BB90D4B27
S214082B10984701280A4B186801A907BF069A002398
S214082B2000221346084CA04707E0204601A91A468B
S214082B300023064CA04700E0002004B010BD00BFEC
S214082B4014AD07201D290800611D08007D1E080019
S214082B502DE9F04782B08146224B98478046224BA3
S214082B601B68984234D2214E214F24E0DA68D2F806
S214082B7000A0DB68DC68251D2846B847636A20463F
S214082B809847E369012B16D1A3695344534506D9E0
S214082B906360246130682946164B98470BE000238B
S214082BA00093204619465246134CA04718B9134BB3
S214082BB0984700BFFDE733681A68002AD6D1104A3E
S214082BC011680A48016013600123C9F8003002E062
S214082BD00023C9F80030044BC3F80080404602B012
S214082BE0BDE8F0878D23080010AD0720E4AC072069
S214082BF0991808005D180800FD2A08002119080021
S214082C0018AD07202DE9F04387B04D4DDFF86081F9
S214082C104C4B1B681A68002A00F08780DB681E6821
S214082C20494B984703A8494B98470746039B002BF0
S214082C3030D1864224D8464B9847424B1B68DB68FF
S214082C40DC68201DC047E369012B14D1A169204622
S214082C5031443A4633463F4FB84701280BD1002344
S214082C6000932046194632463B4EB04718B93B4BB0
S214082C70984700BFFDE7636A204698470CE00026A1
S214082C802868F11B364B9847314B984720B9354B87
S214082C90984701E02E4B984702A82C4B98470746C2
S214082CA0314EDFF8B09038E0059C1CB1616909B177
S214082CB0201DC047039902291FD003292AD00029BE
S214082CC02BD1049BA169204619443A46C8470128D7
S214082CD023D1636A20469847E369012B1DD1A26970
S214082CE00023009320461946049C22441A4CA04709
S214082CF098B91A4B984700BFFDE70499A16119B91E
S214082D00164B984700BFFDE7204639443A463B46EF
S214082D10C84702E02046154B9847286803A90022B2
S214082D201346B0470028BFD172E7074B984703A859
S214082D30064B98470746039B002BA0D0AAE700BF80
S214082D4014AD0720E4AC07207D230800512B0800AB
S214082D50CD240800092A0800FD2A080021190800C1
S214082D6069200800111908000D1F0800411B0800FB
S214082D709918080010B50E480E4B984700203E21BB
S214082D800D4B98470D4CA0470028FCD00C4B984795
S214082D900C4A0D4B9A620D4CA0470028FCD0102018
S214082DA00B4B98470B4B98470148024B984710BD6A
S214082DB000BD0105B1000720E131080035320800E2
S214082DC045320800013F0D2000060E405532080027
S214082DD07D3108009533080010B54FF40042124BB9
S214082DE05A600B20114CA0470C20A0470D20A04786
S214082DF00E20A0473B204FF060510D4CA0475520B1
S214082E004FF06051A04756204FF06051A047682009
S214082E100849A0475C200849A04708484FF4407175
S214082E20074A084B984710BD501A0E4065320800EE
S214082E30252F08007900002801000028000E0E4003
S214082E4001000008F92F08004264B1F1805F16D02F
S214082E5004D8C1B1B1F1006F0AD013E0B1F1405FF8
S214082E6011D0B1F1605F0ED0B1F1205F0AD1704782
S214082E70036F016F0B4023EA0203036702E0036F48
S214082E801343036742607047416412F0010F14BF92
S214082E904166016612F00A0F14BF0162416212F021
S214082EA0020F02D0C0F8801004E012F0080F18BF16
S214082EB0C0F8841041610160704700BF10B44164D7
S214082EC0019C0CB1416600E001660BB1016500E0AB
S214082ED041650AB1016300E04163016101605DF884
S214082EE0044B704712F0100F10D0C0F8B01012F054
S214082EF0200F14BFC0F8D410C0F8D01012F0400F3E
S214082F0014BFC0F8C010C0F8C4107047C0F8B4109A
S214082F10704700BFC36C0164704700BFC06C704741
S214082F20806C704770B582B00D46440904F50014ED
S214082F3004F20774660201F0F044B4F1205F30D062
S214082F4006D8B4F1006F0AD0B4F1805F18D049E013
S214082F50B4F1405F30D0B4F1605F2DD042E000F0AD
S214082F601F000124844030464FF0006122461F4B64
S214082F70984715F0010F14BF74663466012032E0D6
S214082F8000F01F000124844030464FF0805122464E
S214082F90164B984715F0010F14BF74663466012067
S214082FA021E000F01F010124304604FA01F12A4608
S214082FB00F4B9847204616E000F01F01012405F045
S214082FC0605205EA04030093304604FA01F1B2F1B0
S214082FD0605F14BF00220122C5F38003054DA84791
S214082FE0204600E0002002B070BD00BF492E080051
S214082FF0892E0800BD2E0800F0B583B007460E4699
S214083000154602F0F044B4F1205F26D006D8B4F195
S214083010006F0AD0B4F1805F13D034E0B4F1405F9B
S2140830201FD0B4F1605F1CD02DE04FF0006132462F
S214083030164B984715F0010F14BF7E663E660120B2
S21408304022E04FF080513246104B984715F0010F9A
S21408305014BF7E663E66012016E00D4B9847012099
S21408306012E005F0605205F0010300933846314639
S214083070B2F1605F14BF00220122C5F38003054C3D
S214083080A047012000E0002003B0F0BD492E08004C
S214083090892E0800BD2E08002DE9F04104460E468C
S2140830A0104B9847054620460F4B9847054017D0C3
S2140830B00E4F07F10C046C3754F80C3CB3420AD197
S2140830C054F8081C294206D023683046984754F816
S2140830D0083C25EA0305BC4202D01034002DEBD18B
S2140830E0BDE8F0811D2F0800212F080020AD07201D
S2140830F0F8B50B4C2468062C10D80A4F2601BD19C3
S214083100B9516A60AB600699E960013404490C60FD
S21408311011461A46044B98470020F8BD0120F8BD12
S2140831201CAD072020AD0720E52E080008B502488C
S2140831300B21024B984708BD000E0E409930080038
S21408314008B502480C21024B984708BD00100E40EF
S2140831509930080008B502480D21024B984708BD6B
S21408316000120E409930080008B502480E21024B9E
S214083170984708BD00140E4099300800174B1A6B84
S21408318022F07002104318639B6E13F0080F09D1E3
S2140831904FF40063114901E0013B19D08A6E12F022
S2140831A0080FF9D00D4B1A6B22F0030242F0020208
S2140831B01A63986E10F008000CD14FF400630749A4
S2140831C001E0013B08D08A6E12F0080FF9D070476C
S2140831D001207047002070470120704700060E4007
S2140831E038B111490B6A114A1A40114B13430B6246
S2140831F070470D4A136A23F45C1323F0030343F461
S2140832005C1343F00103090289B20B431362936E01
S21408321013F0010FFBD0044A136A43F09B7343F480
S21408322080331362704700BF00060E40FCFFC8FEDE
S21408323002003701024B986E00F48030704700BFDA
S21408324000060E404FF00052014B9A62704700BFCE
S21408325000060E40024B986E00F00200704700BF52
S21408326000060E402C2820D81F280DD8124B9A6925
S214083270012383401A40934219D0012303FA00F031
S2140832800D4B1861002070470B4BD3F808212038E7
S214083290012383401A4093420BD0012303FA00F01F
S2140832A0054BC3F800010020704701207047002036
S2140832B070470020704700BF00060E4020B1054A40
S2140832C0054BC3F8E4207047044A034BC3F8E420D0
S2140832D0704700BF01434D5000060E4000434D5056
S2140832E0FEE700BF10B51E4B1E4A9A4203D01E4B7F
S2140832F01B4A9A4204D31D4B1D4A9A420FD31AE022
S2140833001C4B1D4CE41A24F0030404340023144810
S21408331014495A581A500433A342FAD1EBE7174B0C
S2140833201749C91A21F003011A1D1144002243F84F
S214083330042F8B42FBD1134A22F0604323F07F030D
S21408334011498B6002F16042B2F5801F03D28A6889
S21408335042F000528A600D4B98470D4B9847FEE79F
S2140833600000072084980800DC0A072038AE0720EB
S214083370E00A072004000720DF0A0720DC0A0720E7
S21408338033AE07200000080000ED00E0D565080011
S214083390293A08003E4B1B6B03F00303032B5FD848
S2140833A0DFE803F0020E2B2B3A4B5B6913F0800F15
S2140833B014BF4FF400424FF4FA42374B1A604FE0FE
S2140833C0334B1B6A13F0807F03D0344A324B1A60A3
S2140833D046E0334A304B1A602D4B1B6A03F07003E5
S2140833E0102B02D0202B04D03AE02E4A2A4B1A6023
S2140833F036E02A4A284B1A6032E0254B1B6A13F03F
S214083400807F03D0254A244B1A6012E0244A224BB8
S2140834101A601F4B1B6A03F07003102B02D0202B78
S21408342004D006E01F4A1C4B1A6002E01B4A1A4BDF
S2140834301A60174B1B6B03F00303022B0DD1144BBA
S214083440986A996A144BC0F30A401A6800FB02226D
S214083450C9B2B2FBF1F21A6002E0134A0E4B1A60C8
S2140834600B4B1B6B03F07003702B07D10A4B1A68C3
S2140834700E49A1FB020252081A607047044B196BEA
S214083480054BC1F302111A68CA401A60704700BF9C
S21408349000060E40101A0E406C020720001BB700EC
S2140834A000093D0000127A00001C4E0EABAAAAAA1C
S2140834B0094B1B6813B9094A074B1A60064B1B6869
S2140834C01A180749914204DB1046034A106018464A
S2140834D070474FF0FF30704790AD072038CE072072
S2140834E0FC7F08204FF0FF30704700BF4FF40053B2
S2140834F04B600020704700BF0120704700207047CF
S214083500F8B51D4C1D4D1E4E2378012B31D133784E
S214083510002B2ED11B4B1B78002B2AD11A481B4B8D
S21408352098471B4B9847074601280DD10023237060
S214083530144A13700122327016490B70164B1A7013
S2140835401648174B98470FE002280DD10023237022
S2140835500C4A1370012232700E4A137003220E4B67
S2140835601A7010480E4B98470F483946074B98472D
S214083570CAE7C820A847C7E794AD0720D52508009E
S21408358096AD072095AD072020930800256608000D
S2140835909908080097AD072031AE07204C9308001D
S2140835A02D680800649308007C930800000000005B
S2140835B02DE9F047364E374C374D3378012B5DD121
S2140835C0364B1B78002B59D1354B1B78002B55D121
S2140835D03448354B98473548354B1968DFF800911D
S2140835E0C8473448344B1968C8474FF00108334B6E
S2140835F083F80080DFF8DCA023A3D3E90023CAE918
S2140836000023002727602E4B1F602E48C8474046D9
S21408361040F27C61DFF8D090C847384640F2A46193
S214083620C8473846284FB8474046B8472068274B0B
S2140836309847DAE90023264FB84768B1DFF88C8048
S21408364041F27070A8472068C047224BD3E9002390
S2140836501F4FB8470028F3D11F4B9847002727600D
S214083660174B1F601D481E4B98470D4B1F70377031
S214083670124B1F700122094B1A709EE76420194BE3
S21408368098479AE7AFF30080D5F1001132851D40C0
S21408369096AD0720280B07200100072095AD0720C8
S2140836A094AD07208C9308002D680800B093080096
S2140836B0340B0720C8930800300B072097AD072067
S2140836C02C0B0720F0920800E91308007959080027
S2140836D0295F0800D8AD0720CD0C0800E093080045
S2140836E025660800D52508001D140800AFF30080DD
S2140836F0F8B5594C594D5A4E2378012B40F0A880FE
S2140837003378002B40F0A480564B1B78002B40F0F3
S2140837109F80554B1B78002B40F09A80534B1978A6
S214083720052900F29180DFE801F0030C1E59688B2A
S2140837304F48504B9847002323700122494B1A7074
S214083740DAE74D4B9847012806D14C48494B98472D
S2140837500222464B1A70CFE74948464B9847012243
S214083760424B1A70C8E74748474B9847474B984715
S21408377002380528C0D801A353F820F0A53708005A
S214083780C1370800C1370800F93608009537080021
S2140837909D3708003E48374B9847ADE73D48354BC0
S2140837A09847A9E73C48334B98473C4B9847002333
S2140837B033702D4A1370237001222A4B1A709BE728
S2140837C037482C4B984737482F4FB8473648B8479E
S2140837D0364B98470722254B1A708DE7344B984787
S2140837E0012803D10422214B1A7085E73148214B62
S2140837F0984703221D4B1A707EE72F4B98470238CE
S21408380003283FF679AFDFE800F0020F13172B4BBB
S21408381098472B481C4B984700233370124A13705E
S2140838202370104A137067E72648174B984763E7D4
S2140838302548154B98475FE72448134B98475BE79E
S21408384023480C4B984757E722480F4B984753E7AF
S2140838506420A84750E700BF95AD0720D525080087
S21408386096AD072094AD072097AD072031AE072008
S214083870F49308002D680800C506080000940800A0
S21408388010940800E894080025660800ED0608006D
S21408389028940800389408004C940800810B080007
S2140838A0589408006C940800889408009D0708003F
S2140838B0D9070800B0940800010808009D0B080006
S2140838C0C8940800D8940800EC940800FC940800F3
S2140838D00C9308000C950800F0B583B004460D4616
S2140838E0002301931F4B984207D11F461E4E3846A9
S2140838F02946B0470028FAD119E01C4B984209D14E
S2140839001F461B4E384601A9B0470028FAD1019B2E
S2140839102B7019E0174B984209D11E46144C3046B6
S21408392001A9A0470028FAD1019B2B7018E0124B7A
S2140839309C4209D11E460E4C304601A9A0470028D5
S214083940FAD1019B2B700BE00C4B9C4208D11E460B
S214083950074C304601A9A0470028FAD1019B2B70D6
S21408396003B0F0BD00080E400D180800008009409E
S2140839700116080000C0094000000A4000400A403E
S21408398070B50C46214B984207D11E46204D30464E
S2140839902146A8470028FAD12BE01E4B984207D1AB
S2140839A01E461D4D30462146A8470028FAD122E07B
S2140839B01A4B984207D11E46174D30462146A8474F
S2140839C00028FAD119E0164B984207D11E46124D28
S2140839D030462146A8470028FAD110E0114B9842F5
S2140839E00FD11E460C4D30462146A8470028FAD16E
S2140839F009E0012070BD012070BD012070BD0120C6
S214083A0070BD002070BD012070BD00BF00080E40CC
S214083A10FD17080000800940ED15080000C00940A1
S214083A2000000A4000400A4070B588B04B4B9847E3
S214083A304B4B984708204B4CA0474B4D4B4B1D60B3
S214083A404B4A4C4B1A604C4A4C4B1A604C4B0593ED
S214083A504FF4E13306934FF4006307930820A0471A
S214083A60284605A9474B9847474E3368986800216B
S214083A70464DA847336858680021A8474448454D2E
S214083A80A8474548A847454B9847454B98470025BB
S214083A90444B1D700B20A0470C20A0470D20A047C4
S214083AA00E20A047404A4FF400031361C2F8A03026
S214083AB04FF080631361C2F8A0304FF00073536173
S214083AC0C2F8A0304FF080731361C2F8A030536379
S214083AD001230093354B1B680193029503953448E0
S214083AE034494FF47A722B46334CA047012802D04B
S214083AF03248284B984701230093314B1B680193A3
S214083B000023029303932F482F494FF47A722A4CC6
S214083B10A047012802D02D481E4B98470123009342
S214083B202B4B1B68019300230293039329482A49C9
S214083B304FF47A72204CA047012802D02748154B2C
S214083B4098470023264A1370264A1370264A13708D
S214083B500122264B1A70264B9847FEE7752D08005B
S214083B60D92D08006532080000080E4020AE072050
S214083B70813908001CAE0720D938080018AE07207F
S214083B8000BD0105C5170800A00607203D68080007
S214083B902495080025660800349508004D15080089
S214083BA04505080031AE072000120E4028AE072053
S214083BB001350800449508000D21080054950800B2
S214083BC024AE0720B13508007895080084950800CB
S214083BD02CAE0720F1360800A8950800B89508000E
S214083BE094AD072096AD072097AD072095AD072022
S214083BF01523080070B5204E21F00044B44286B064
S214083C0002460B4619DD1D4DAC4203DD01F066FD8C
S214083C1006B070BD02AA00F0CFF900F00300012834
S214083C201BD002280FD000B301230093DDE9020160
S214083C30DDE9042301F0A4F9EAE70022002300F0F6
S214083C409BFC06B070BDDDE90201DDE9042300F047
S214083C5093FC01F1004106B070BD0090DDE9042335
S214083C60DDE9020101F08CF9F3E7DDE90201DDE99F
S214083C70042300F081FCCBE7FB21E93FFFFFEF7F41
S214083C8070B5224E21F00044B44286B002460B4678
S214083C901ADD1F4DAC4203DD01F020FD06B070BDF5
S214083CA002AA00F089F900F0030001281DD00228B6
S214083CB012D008B3DDE90201DDE9042300F05CFC5C
S214083CC001F1004106B070BD0023009300220023D6
S214083CD001F056F906B070BD01230093DDE9020134
S214083CE0DDE9042301F04CF9EAE7DDE90201DDE944
S214083CF0042300F041FCD1E701230093DDE902012B
S214083D00DDE9042301F03CF9C8E700BFFB21E93FE1
S214083D10FFFFEF7F00F058B82DE9F0478AB0044659
S214083D200D4600F069FBDFF898A006469AF90030C1
S214083D300F4601330FD02046294601F015FC50B136
S214083D404FF000084FF0000942464B4620462946E9
S214083D5002F0EAF820B9304639460AB0BDE8F087DE
S214083D6016499AF8006001220023CDE90445CDE9FA
S214083D70024501910092089366B9CDE9068968461E
S214083D8001F01AFC80B1089B9BB9DDE906010AB070
S214083D90BDE8F0874046494642464B4601F07CFF60
S214083DA0022ECDE90601EAD102F00EFC21230360BB
S214083DB0E9E702F009FC089B0360E6E7DC950800E3
S214083DC070020720000000002DE9F047C2F1000944
S214083DD049EA020923F00048DFF8D4C148EAD9794D
S214083DE082B0E14514461D46CDE900010F4647D886
S214083DF0C0F1000A4AEA000A21F0004949EADA7ADC
S214083E00E2453DD803F1404C0CF5801C5CEA020CF8
S214083E104CD04FEAA37A0AF0020A4AEAD17A59EA5B
S214083E20000136D058EA04013AD06149884551D095
S214083E305F49894534D0C8EB09084FEA2858B8F1D5
S214083E403C0F43DC002D70DBDDE9000101F024FFA8
S214083E5001F0F6FA01F04CF9BAF1010F62D0BAF1A6
S214083E60020F52D0BAF1000F10D03FA3D3E90023B7
S214083E7001F034FC3EA3D3E9002301F02FFC05E053
S214083E8010461946DDE9002301F02AFC02B0BDE819
S214083E90F087BAF1030FC5D8DFE80AF00D0D141045
S214083EA0002F2EDB34A1D1E90001EFE702B0BDE810
S214083EB0F04701F01DB9DDE90001E7E730A1D1E9D7
S214083EC00001E3E72AA1D1E90001DFE72AA1D1E949
S214083ED00001C1E7C1452ED0BAF1030FA8D801A149
S214083EE051F82AF0FD3E0800F53E0800C53E0800D9
S214083EF0BD3E080000204FF00041C7E70020002123
S214083F00C4E721A1D1E90001C0E717A3D3E900233C
S214083F1001F0E4FB02460B4615A1D1E9000101F0C9
S214083F20DDFBB3E701F10041B0E718F13C0F8BDA8F
S214083F300020002190E7BAF1030FB1D8DFE80AF0B5
S214083F4006020E0A12A1D1E900019FE712A1D1E9E3
S214083F5000019BE712A1D1E9000197E712A1D1E978
S214083F60000193E7AFF30080075C143326A6A13C54
S214083F70182D4454FB210940182D4454FB21F93FC1
S214083F80182D4454FB2109C0182D4454FB21F9BFB1
S214083F90182D4454FB21E9BF182D4454FB21E93F52
S214083FA0D221337F7CD902C0D221337F7CD902400C
S214083FB00000F07FAFF300802DE9F04F964B21F01C
S214083FC000469E4291B004460D468B46904640F306
S214083FD08180924B9E4226DC85A3D3E900230029E4
S214083FE040F3A08101F07AFB8D4B04469E420D46B5
S214083FF000F0858080A3D3E9002301F06FFB02461A
S2140840000B46C8E900232046294601F067FB7AA339
S214084010D3E9002301F062FB0127C8E9020138460C
S21408402011B0BDE8F08F7F4B9E4240F385807E4BF3
S2140840309E425ADC4FEA2659A9F21649A6EB0955BC
S2140840402946044601F098FF01F096FC06460F46FE
S21408405002460B4620462946CDE90A6701F03EFB94
S2140840600022724B01F0EEFC0F46064601F084FF74
S21408407001F082FC02460B4604460D463046394699
S214084080CDE90C4501F02AFB0022684B01F0DAFC6A
S21408409000220023CDE90E0101F03CFF002800F0C5
S2140840A06D81002320462946002201F033FF0028B0
S2140840B014BF012302235E480221019000914A465C
S2140840C00AA8414600F07CFBBBF1000FC0F248810D
S2140840D0074606E000220023C8E90045C8E902238F
S2140840E00027384611B0BDE8F08F02460B4601F0AF
S2140840F0F5FA0027C8E90201C8E90001F1E740A37C
S214084100D3E9002301F0EAFA3FA3D3E900230446E3
S2140841100D4601F0E3FA02460B46C8E9002320469E
S214084120294601F0DBFA38A3D3E9002301F0D6FAD2
S2140841300127C8E90201D4E701F082F934A3D3E9DC
S214084140002304460D4601F07DFC0022394B01F0A1
S214084150C7FA01F011FF074601F00EFC24A3D3E9C5
S2140841600023CDE9060101F06DFC02460B46204609
S214084170294601F0B3FA20A3D3E90023CDE90201CA
S214084180DDE9060101F05EFC1F2FCDE90401DDE93B
S214084190020153DC284B7A1E53F82230B3424DD026
S2140841A0DDE9042301F09AFA04460D46C8E90045FD
S2140841B0DDE9020122462B4601F090FADDE90423E8
S2140841C001F08CFABBF1000FC8E9020189DA26462D
S2140841D001F1004305F100447F42C8F80060C8F8C2
S2140841E00440C8F80800C8F80C307AE7AFF3008037
S2140841F000004054FB21F93F3163621A61B4D03D98
S2140842000000601A61B4D03D7370032E8A19A33B70
S21408421083C8C96D305FE43FFB21E93F7BD9024084
S214084220FB21F93FFB213941FFFFEF7F000070417A
S214084230649608000000E03FE4950800DDE90423E2
S21408424001F04CFA3615C1F30A53F31A04460D4624
S214084250102BC8E90045ABDD5BA3D3E90023DDE9F5
S214084260060101F0EFFB04460D4622462B46DDE923
S214084270020101F033FACDE90801DDE90823DDE99A
S214084280020101F02BFA22462B4601F027FA50A32A
S214084290D3E9002304460D46DDE9060101F0D2FB0A
S2140842A022462B4601F01AFACDE90401DDE904237B
S2140842B0DDE9080101F012FAC1F30A53F61A0446BA
S2140842C00D46312EC8E9004578DD43A3D3E900231F
S2140842D0DDE9060101F0B6FB04460D4622462B46EC
S2140842E0DDE9080101F0FAF9CDE90201DDE902236A
S2140842F0DDE9080101F0F2F922462B4601F0EEF955
S21408430037A3D3E9002304460D46DDE9060101F08C
S21408431099FB22462B4601F0E1F9CDE90401DDE9D7
S21408432002013DE701F0DCF9314B04469E420D469A
S21408433026D02DA3D3E9002301F0D2F902460B4676
S214084340C8E900232046294601F0C8F926A3D3E980
S214084350002301F0C5F94FF0FF37C8E90201C0E6AF
S214084360D8F80420D8F80C3002F1004203F10043D4
S2140843704742C8F80420C8F80C30B2E603239AE689
S21408438011A3D3E9002301F0ABF911A3D3E9002365
S21408439004460D4601F0A4F902460B46C8E9002378
S2140843A02046294601F09AF909A3D3E9002301F02B
S2140843B097F94FF0FF37C8E9020192E6DDE90823CE
S2140843C0CDE90223F4E600BF0000601A61B4D03DD0
S2140843D07370032E8A19A33B0000002E8A19A33B8C
S2140843E0C14920259A837B393163621A61B4D03D6E
S2140843F0FB21F93FAFF3008021F0004C2DE9F8438C
S2140844004FEA1C5CDFF86C814FEA0C5CC445064634
S2140844100F460B46024600F08F8000296FDD0F1509
S21408442078D0A7F2FF37C3F31303F90743F48013D2
S21408443060D4D10F4FF0000C01EB43037F105200FD
S214084440654616204FF400116C189C424FEAD27647
S2140844504FEA420202DC1B1B65188C44013806EB47
S21408446043034FEA5101EFD1804620264FF0004122
S21408447009E023D0D40F013E4FEA510104EB430371
S2140844804FEA42021ED0AB4201EB0804F1DD04F00D
S2140844900049B9F1004F04EB010809D0A9465B1B97
S2140844A0944288BF03F1FF33121B08444D46E1E7E8
S2140844B0B8F1000FF2DB05F10109F0E79442E6D9FE
S2140844C01D46D7E71A4304D0431C41D000F0010329
S2140844D0184446084FEA6C031CF0010F03F17F539B
S2140844E003F5001318BF46F0004603EB07513046A5
S2140844F0BDE8F883D10F01EB4303520099E721F09A
S2140845000043034322D051BB0F46D30A153F52053A
S214084510002BFAD013F480111DD15B00D80201F1EC
S2140845200101FAD5C1F10100C1F1200422FA04F410
S21408453007448A40234374E702460B4601F082FA92
S21408454032463B4601F0CCF8BDE8F883BDE8F88370
S2140845500CF1010CBEE7202401200021E6E7024604
S2140845600B4601F0BBF802460B4601F095FBBDE88A
S214084570F88300BF0000F07F2DE9F04F21F00049D6
S214084580B9F1795F85B006460F4692469B466BDAC8
S21408459001F0F2FC002800F0EA8032463B4630463E
S2140845A0394601F04FFA74A3D3E9002304460D46B2
S2140845B001F048FA72A3D3E9002301F091F82246E5
S2140845C02B4601F03FFA70A3D3E9002301F086F8E2
S2140845D022462B4601F036FA6DA3D3E9002301F0F4
S2140845E07FF822462B4601F02DFA6BA3D3E9002369
S2140845F001F074F822462B4601F024FA68A3D3E9A2
S214084600002301F06DF822462B4601F01BFACDE98F
S2140846100001204629460022634B01F013FADDE923
S2140846200023804689462046294601F00BFA524662
S21408463004460D465B463046394601F003FA024604
S2140846400B462046294601F049F802460B464046E6
S214084650494601F043F802460B460020534901F04C
S2140846603DF805B0BDE8F08F02460B4601F0EAF9C2
S21408467041A3D3E9002304460D4601F0E3F940A31D
S214084680D3E9002301F02CF822462B4601F0DAF98C
S2140846903DA3D3E9002301F021F822462B4601F07A
S2140846A0D1F93BA3D3E9002301F01AF822462B469A
S2140846B001F0C8F938A3D3E9002301F00FF8224621
S2140846C02B4601F0BFF936A3D3E9002301F008F81A
S2140846D02B46224601F0B6F9354BCDE9000199453F
S2140846E097DD344B0022994539DCA9F500130022E2
S2140846F000202E499046994600F0F0FFCDE90201C9
S214084700204629460022284B01F09CF942464B4693
S21408471000F0E4FFDDE90023804689462046294666
S21408472001F090F9524604460D465B463046394637
S21408473001F088F902460B462046294600F0CEFFCF
S21408474002460B464046494600F0C8FF02460B465E
S214084750DDE9020100F0C2FF05B0BDE8F08F164B98
S2140847604FF00008CDE90223DFF85090C8E70F495C
S214084770002005B0BDE8F08FD43888BEE9FAA8BD99
S214084780C4B1B4BD9EEE213EAD529C804F7E923E93
S2140847909015CB19A001FA3E7751C1166CC1563F49
S2140847A04C5555555555A53F0000E03F0000F03FD5
S2140847B03233D33F0000E93F0000E73F0000D23F16
S2140847C02DE9F04F7B4DD41E85FB0465E417C4EB3A
S2140847D0A505ADF51D7D25EAE5750E959946764C39
S2140847E0EB43A69D09F1FF3654F8254004960C9431
S2140847F007900E9C049D0C9803EB430302EBC3033F
S214084800A61B2C180B910A9317D4A7983444013486
S2140848100DF1880800EB8605002709E0E85901F045
S214084820ABF80136A642E8E9020107F1040704D00E
S214084830002EF3DA00200021F3E70C9C002C2DDB79
S2140848400C9D74AE06EBC50B24A800EBC90A0DF543
S214084850E478CDF80CB0049C002CC0F29581079D36
S2140848605746A5F1080B00240025002677E9022301
S214084870FBE9020101F0E6F802460B462046294607
S21408488000F02EFF01364E4504460D46EED1E8E907
S2140848900245039C0AF1080AA045DCD10C9D10AC21
S2140848A004EB850602940F960395039E9CABF600D0
S2140848B033440696039E53E92845002E2EDD069EB1
S2140848C00DF5E87AB244039E0DF13C0B0BEB860B14
S2140848D00DF13C080022394B2046294601F0B2F873
S2140848E001F04AFB01F048F80022354B06460F4611
S2140848F001F0A8F802460B462046294600F0EEFED0
S21408490001F03AFB324648F8040F3B467AE90201C2
S21408491000F0E6FED84504460D46DBD1204629467B
S2140849200A9A00F04DFE00224FF07F5304460D46CB
S21408493001F088F800F088FD0022224B01F082F88A
S21408494002460B462046294600F0C8FE04460D4699
S21408495001F012FB824601F00FF802460B4620468D
S214084960294600F0BBFE0A9C0646002C0F4640F37C
S214084970F280039D10A8691E50F82130C4F1180073
S21408498043FA00F202FA00F0C4F117051B1A43FABC
S21408499005F510AC44F821309244002D3EDD039C0A
S2140849A00AF1010A002C40F3F98010AB03EB8401EE
S2140849B0002411E0ABAAAA2A6C9708000000703EF3
S2140849C00000704100002040C2F1807012B143F828
S2140849D0040C01248B420DD053F8042B002CF3D082
S2140849E0C2F1FF1202F57F428B4243F8042C4FF0C7
S2140849F00104F1D10A9800280DDD012800F0B380E3
S214084A00022808D1039910A84B1E50F82320C2F399
S214084A10150240F82320022D00F0848030463946DF
S214084A200022002301F076FA002800F0B980039CE3
S214084A300C9E04F1FF3846450DDC10A800EB8403F5
S214084A400F98002253F8041D834242EA0102F9D166
S214084A50002A40F044820C9C10AD621E55F82230A5
S214084A60002B40F0548205EB8202012352F8041D05
S214084A7001330029FAD0039E039C1E44631CB342EC
S214084A800D9649DC049D0E9E2B44214622460D9D1C
S214084A903244494424AE03F1FF3B2B1B06EBC1040A
S214084AA00994A79D069C06EBCB0B74AE05EB820219
S214084AB0DB0026440392089306964FF00008039DF1
S214084AC008F1080855F8040F039500F055FF049EF2
S214084AD0EBE90201002E22DB079C099FA4F1080AD5
S214084AE0474400240025002677E90223FAE9020154
S214084AF000F0A8FF02460B462046294600F0F0FDC7
S214084B0001364E4504460D46EED1069EE6E90245B8
S214084B10089C0696A045D2D10D9D0395C5E60024AF
S214084B200025F2E732463B460020924900F0D6FDC3
S214084B3006460F46002C3FF471AF0A9A00208D49AE
S214084B4000F03EFD02460B463046394600F0C6FDEC
S214084B5006460F4662E710D1039D10A86B1E50F854
S214084B602350ED1519E7039910A84B1E50F823207B
S214084B70C2F3160240F823204DE700227E4B01F0D0
S214084B80E7F920B9054649E7002400257FE6039C97
S214084B900225002C0AF1010A3FF707AF002429E78F
S214084BA00A9C3046624239460695CDF81CA000F0AD
S214084BB007FD0022714B04460D4601F0C9F900288E
S214084BC000F0BB8100226E4B2046294600F03AFFD3
S214084BD001F0D2F9064600F0CFFE0022674B00F03F
S214084BE031FF02460B462046294600F077FD01F0C5
S214084BF0C3F9039C0A9D10A904F10108183541F869
S214084C0024000A9541F828600A9A0020594900F0BD
S214084C10D7FCB8F1000F04460D465ADB08F101062A
S214084C2010A874A9039600EB860701EBC60657F88A
S214084C30040D00F0A1FE22462B4600F003FF0022DA
S214084C4066E902014E4B2046294600F0FBFE029A12
S214084C50044697420D46EAD108F1005B0BF1FF3B8C
S214084C6074AB0DF5987ACDF82080DDF8308003EB2C
S214084C70CB0B4FF00009CDF810A0B8F1000FC0F22A
S214084C802881DFF800A15F4600240025002601E001
S214084C904E4510DCF7E90223FAE9020100F0D2FEDD
S214084CA002460B462046294600F01AFD0136B04556
S214084CB004460D46ECDA049EABF1080B06EBC90376
S214084CC0C3E90045039C09F10109A145D5D1DDF8E2
S214084CD02080A69D032D00F29780DFE815F0DA0005
S214084CE09C009C000400B8F1000F40F312810DF5FB
S214084CF0987A08F101030AEBC3034FEAC80B03933B
S214084D0099460AEB0B030DF59C7CD3E9006701E096
S214084D1026462F4659E9044532463B46204629464C
S214084D20CDF804C0CDE9044500F0DAFC04460D468B
S214084D3022462B46DDE9040100F0D0FC32463B460D
S214084D4000F0CEFC69E90201DDF804C049E9024535
S214084D50E145DDD1B8F1010F40F30D81DDF80CC057
S214084D600AEB0B03CDF810A00AF1100BD3E90045A7
S214084D70E2460BE00000F03F0000E03F0000704114
S214084D800000703E7897080034463D465AE9048984
S214084D9022462B464046494600F0A2FC06460F46E9
S214084DA032463B464046494600F098FC22462B468B
S214084DB000F096FC6AE90201DA454AE90267E3D19F
S214084DC0DDF810A0039C0020002174E9022300F0FF
S214084DD087FCA345F9D1069D002D00F0A280DAF8DD
S214084DE00450DAF80C400B9EDAF80020DAF808309F
S214084DF005F1004504F1004401F100417560F460D6
S214084E003260B36030617161079C04F007000DF5ED
S214084E101D7DBDE8F08FB8F1000FC0F2A7800DF534
S214084E20987A08F10104002200230AEBC40410460D
S214084E30194674E9022300F053FC5445F9D102469A
S214084E400B46069E002E47D0104603F100410B9CE9
S214084E50C4E90001DAE9000100F040FCB8F1000FEF
S214084E6007DD0AEBC808FAE9022300F039FCC24558
S214084E70F9D1069D002D6AD00B9E024601F100432B
S214084E80C6E90223079C04F007000DF51D7DBDE862
S214084E90F08FB8F1000F66DB08F101044CAD05EBA6
S214084EA0C4040020002174E9022300F019FCAC4277
S214084EB0F9D1069C002C50D00B9D024601F1004308
S214084EC0C5E90023079C04F007000DF51D7DBDE825
S214084ED0F08F00240025EEE610461946B7E70A9E2E
S214084EE0069510AD55F82830183ECDF81CA00A9641
S214084EF0002B7FF489AE05EB8803324653F8041D71
S214084F0008F1FF38183A0029F8D00A927CE60123FF
S214084F10B1E5069D002000210DF5987A002D7FF456
S214084F205EAF0B9EDAE90023C6E90401DAE902015E
S214084F30C6E90023C6E9020166E72046294601F0CD
S214084F401BF8DDF80C8010AA42F828005CE60B9ED9
S214084F5002460B46C6E9022394E70B9D02460B461B
S214084F60C5E90023AEE700200021A2E700220023BF
S214084F700DF5987A65E7002000212CE70000000070
S214084F802DE9F04F21F00046B6F1795F85B004466A
S214084F900D469046994604DA00F0EEFF002800F029
S214084FA0848022462B462046294600F04BFD2246A2
S214084FB02B4606460F4600F045FD3FA3D3E90023DF
S214084FC082468B463046394600F03CFD3CA3D3E982
S214084FD0002300F083FB32463B4600F033FD3AA33D
S214084FE0D3E9002300F07CFB32463B4600F02AFD5E
S214084FF037A3D3E9002300F071FB32463B4600F0A6
S21408500021FD35A3D3E9002300F06AFB0E9BCDE90A
S2140850100201002B33D0404649460022324B00F0AE
S21408502011FDDDE90223CDE900015046594600F09E
S21408503009FD02460B46DDE9000100F04FFB32464B
S2140850403B4600F0FFFC42464B4600F047FB24A3D5
S214085050D3E9002306460F465046594600F0F2FCB0
S21408506002460B463046394600F03AFB02460B46E7
S2140850702046294600F032FB05B0BDE8F08FDDE992
S21408508002233046394600F0DDFC15A3D3E9002399
S21408509000F024FB52465B4600F0D4FC22462B4622
S2140850A000F01EFB05B0BDE8F08F2046294605B087
S2140850B0BDE8F08FAFF300807CD5CF5A3AD9E53DEE
S2140850C0EB9C2B8AE6E55A3E7DFEB157E31DC73EAC
S2140850D0D561C119A0012A3FA6F810111111813F08
S2140850E0495555555555C53F0000E03FAFF300807C
S2140850F02DE9F04FB64B21F000469E4283B0044699
S2140851000D4689460FDDB3498E4200F3B38000F0A2
S214085110AE80B9F1000F40F3EF8091A1D1E900010C
S21408512003B0BDE8F08FAC4B9E4200F3BD80A3F100
S214085130DE739E4240F3A7804FF0FF3C22462B4684
S21408514020462946CDF804C000F07CFC02460B46F3
S21408515082468B4600F076FC83A3D3E900230646F6
S2140851600F4600F06FFC82A3D3E9002300F0B8FADC
S21408517032463B4600F066FC7FA3D3E9002300F0E6
S214085180AFFA32463B4600F05DFC7DA3D3E9002328
S21408519000F0A6FA32463B4600F054FC7AA3D3E960
S2140851A0002300F09DFA32463B4600F04BFC78A3FD
S2140851B0D3E9002300F094FA52465B4600F042FC1E
S2140851C075A3D3E9002382468B463046394600F05D
S2140851D039FC73A3D3E9002300F080FA32463B4635
S2140851E000F030FC70A3D3E9002300F077FA3246CB
S2140851F03B4600F027FC6EA3D3E9002300F06EFAC6
S21408520032463B4600F01EFC6BA3D3E9002300F0B1
S21408521065FA32463B4600F015FCDDF804C0024647
S214085220BCF1FF3F0B466BD0504659464FEACC06BA
S21408523000F056FA22462B4600F004FC674F684BEF
S21408524037441E44D6E9002300F048FA22462B4687
S21408525000F044FA02460B46D7E9000100F03EFA91
S214085260B9F1000F0CDA01F10045294608E00028DC
S2140852703FF44FAF2046294622462B4600F030FA28
S21408528003B0BDE8F08F4EA3D3E9002300F028FA58
S2140852900022544B00F066FE00283FF44DAF20462F
S2140852A0294603B0BDE8F08F00F0CAF84E4B044616
S2140852B09E420D4633DCA3F550239E4200F3A5809C
S2140852C002460B4600F00CFA0022464B00F006FA9F
S2140852D0002206460F46204629464FF0804300F037
S2140852E0FFF902460B463046394600F0D5FC4FF02B
S2140852F0000C04460D4621E733A1D1E90001BFE7BB
S2140853005046594600F0ECF922462B4600F09AFB28
S21408531002460B462046294600F0E0F9B0E7334B34
S2140853209E4267DC0022324B00F0D8F9002206467F
S2140853300F46204629462E4B00F084FB0022294BB8
S21408534000F0CEF902460B463046394600F0A4FC7B
S2140853504FF0020C04460D46F0E600BFAFF300809F
S214085360182D4454FB21F93F11DA22E33AAD903F59
S214085370EB0D76244B7BA93F513DD0A0660DB13F7F
S2140853806E204CC5CD45B73FFF8300922449C23FE7
S2140853900D5555555555D53F2F6C6A2C44B4A2BFAC
S2140853A09AFDDE522DDEAD3F6D9A74AFF2B0B33F74
S2140853B0711623FEC671BC3FC4EB98999999C93FEC
S2140853C09C7500883CE4377E182D4454FB21F9BFB1
S2140853D0FFFF0F440000F07FFFFFDB3FE097080069
S2140853E0C09708000000F03FFFFFF23FFF7F034032
S2140853F00000F83F02460B4600200F4900F04CFC20
S2140854004FF0030C04460D4698E600220B4B00F0BE
S21408541065F9002206460F4620462946074B00F047
S2140854205FF902460B463046394600F035FC4FF029
S214085430010C04460D4681E60000F0BF0000F03F70
S21408544021F00041704700BF2DE9F84FC1F30A5715
S214085450A7F2FF36132E02460B4604460D4689462B
S2140854608A4680461CDC002E40DB3D4F374107EA63
S214085470010C5CEA000C18D037A3D3E9002300F02F
S2140854802FF90022002300F06DFD28B1002D42DB25
S2140854902AEA07094FF0000840464946BDE8F88F53
S2140854A0332E06DDB6F5806F31D010461946BDE8B6
S2140854B0F88FA7F2134C4FF0FF3B2BFA0CFB1BEAB6
S2140854C0000FF2D024A3D3E9002300F009F9002244
S2140854D0002300F047FD0028DED0002D22DB28EA56
S2140854E00B08D14640464946BDE8F88F1AA3D3E9CB
S2140854F0002300F0F5F80022002300F033FD002812
S214085500CAD0002D1CDB4FF00008C146C4E700F0E7
S214085510E7F8BDE8F88F4FF4801A4AFA06F606EB65
S214085520050AB5E7142E14D0C7F586670123033796
S21408553003FA07F717EB040828BF05EB030ACEE7BC
S21408554025F00042074B224318BF99464FF0000843
S214085550A2E705F1010AC2E79C7500883CE4377E9D
S214085560FFFF0F000000F0BF31F0004310B408D072
S2140855700F4AA3F5801494420AD804205DF8044B19
S214085580704700280CBF022003205DF8044B7047C4
S214085590B3F5801F01D20320F7E7064A934201D0ED
S2140855A00020F2E7D0F1010038BF0020EDE700BF89
S2140855B0FFFFDF7F0000F07F00207047000000003C
S2140855C0C1F30A532DE9F041904606460F460A46AF
S2140855D01BBB21F00043034334D0354B002200F0B8
S2140855E031FA344B064698450F463BDBC1F30A535F
S2140855F0363B0A46434440F2FE718B4216DD28A12C
S214085600D1E9000132463B4600F05AF824A3D3E914
S214085610002300F017FABDE8F08140F2FF74A342B9
S21408562027D0434440F2FE718B42E8DC002B0BDDAA
S21408563022F0FF4222F4E00242EA03573046394697
S214085640BDE8F081BDE8F08113F1350F17DA4CF2AA
S21408565050339845D3DC14A1D1E9000132463B46C5
S21408566000F02EF810A3D3E9002300F0EBF9BDE80C
S214085670F08102460B4600F033F8BDE8F08122F0D0
S214085680FF4222F4E002363342EA035730463946F0
S2140856900022094B00F0D6F9BDE8F081AFF3008090
S2140856A09C7500883CE4377E59F3F8C21F6EA50146
S2140856B000005043B03CFFFF0000903CAFF3008072
S2140856C030B403F0004321F0004243EA020130BC44
S2140856D0704700BF81F0004102E000BF83F000433E
S2140856E030B54FEA41044FEA430594EA050F08BF70
S2140856F090EA020F1FBF54EA000C55EA020C7FEA34
S214085700645C7FEA655C00F0E2804FEA5454D4EBB0
S2140857105555B8BF6D420CDD2C4480EA020281EA7A
S214085720030382EA000083EA010180EA020281EAB2
S2140857300303362D88BF30BD11F0004F4FEA013104
S2140857404FF4801C4CEA113102D0404261EB410113
S21408575013F0004F4FEA03334CEA133302D0524299
S21408576063EB430394EA050F00F0A780A4F1010455
S214085770D5F1200E0DDB02FA0EFC22FA05F280188F
S21408578041F1000103FA0EF2801843FA05F3594175
S2140857900EE0A5F120050EF1200E012A03FA0EFCF4
S2140857A028BF4CF0020C43FA05F3C01851EBE3711E
S2140857B001F0004507D54FF0000EDCF1000C7EEB3B
S2140857C000006EEB0101B1F5801F1BD3B1F5001F79
S2140857D00CD349085FEA30004FEA3C0C04F1010498
S2140857E04FEA445212F5800F80F09A80BCF1004FC1
S2140857F008BF5FEA500C50F1000041EB045141EA43
S214085800050130BD5FEA4C0C404141EB010111F443
S214085810801FA4F10104E9D191F0000F04BF0146EE
S2140858200020B1FA81F308BF2033A3F10B03B3F1CC
S21408583020020CDA0C3208DD02F1140CC2F10C025C
S21408584001FA0CF021FA02F10CE002F11402D8BFBA
S214085850C2F1200C01FA02F120FA0CFCDCBF41EA86
S2140858600C019040E41AA2BF01EB0451294330BD55
S2140858706FEA04041F3C1CDA0C340EDC04F1140432
S214085880C4F1200220FA04F001FA02F340EA030009
S21408589021FA04F345EA030130BDC4F10C04C4F14F
S2140858A0200220FA02F001FA04F340EA030029462F
S2140858B030BD21FA04F0294630BD94F0000F83F479
S2140858C0801306BF81F480110134013D4EE77FEA5C
