S016000050726F6A6563744C617361726F732E7372656362
S214080000B0CE0720913A08008D3A08008D3A0800CD
S2140800108D3A08008D3A08008D3A08000000000066
S214080020000000000000000000000000ED1F0800AF
S2140800308D3A08000000000069200800A520080086
S2140800408D3A08008D3A08008D3A08008D3A080067
S2140800508D3A08008D3A08008D3A08008D3A080057
S2140800608D3A08008D3A080000000000D9380800CC
S214080070ED380800013908001539080000000000AE
S21408008000000000151D08008D3A08008D3A08008B
S2140800908D3A08008D3A08008D3A08008D3A080017
S2140800A08D3A0800000000008D3A08006913080021
S2140800B0351308008D3A08008D3A08008D3A080076
S2140800C08D3A08008D3A08008D3A08008D3A0800E7
S2140800D08D3A08008D3A08008D3A08008D3A0800D7
S2140800E08D3A08008D3A08008D3A08008D3A0800C7
S2140800F08D3A080010B5054C237833B9044B13B174
S2140801000448AFF300800123237010BDA80A072017
S21408011000000000AC8F080008B5064B1BB1064867
S2140801200649AFF300800648036813B1054B03B1D0
S214080130984708BD00000000AC8F0800AC0A0720EE
S214080140AC8F0800000000000F4B994219D84900F0
S214080150B2FBF1F2043AFF2A07D90023013352080A
S214080160FF2A03D9072BF9D100E00023110289B230
S2140801701B0403F4E0230B43D2B21A4302610020A7
S21408018070470120704700BF801A060038B504463D
S2140801900D464FF0FF338362036A80230360036BC8
S2140801A008230360202303600423036049682A6841
S2140801B0054B9847012814BF002001206B7A012BB5
S2140801C004BF4023236038BD490108002DE9F00329
S2140801D00446CB688E68002B49D0002242604868E7
S2140801E0000200F4407040F480500D7C2D0405F4A5
S2140801F0FE0528436060E2604A685AB10878012A1A
S214080200C4BF4D7845EA0020022A04DD8A7842EA0F
S214080210002000E00020E060012B04D103222260C9
S2140802204FF0010C2BE0012222604FF0000C26E074
S214080230216A11F4807F1CD1551EE2B12A46012B93
S21408024005D1BCF1000F02D1C4F80090C44611F0E5
S214080250020F04D0226B3270013B01363A46002B5F
S214080260E6D1236A13F0010FFBD0236A14E00120BD
S21408027012E0052010E009200EE005200CE0216AB7
S21408028011F48070F9D143F697224FF002094FF027
S214080290010843F69827D2E7BDE8F003704700BF89
S2140802A070B40346CA688868002A3FD000245C6099
S2140802B00E7C360406F4FE064D682D0205F44075DD
S2140802C035435D60DC604C685CB10D78012CC4BFBA
S2140802D04E7846EA0525022C04DD897841EA05258C
S2140802E000E00025DD600BE0196A11F4807F1FD15D
S2140802F011F0040FF8D010F8011B5963013A07D023
S214080300196A11F4807F15D111F0040FF3D1EBE7C9
S2140803101A6A12F480700FD112F0040FF8D0022275
S2140803201A601A6A12F0010FFBD006E0012004E0FA
S214080330052002E0052000E0052070BC704700BFDD
S21408034000B587B0002306AA02F8153D03920122DD
S21408035004928DF814108DF80430029301A9024B0C
S214080360984707B05DF804FBA102080038B50024DA
S214080370174A18490EE001348C420BD11648174B21
S2140803809847134BDB6B13F0007F1AD0144B9C4234
S2140803900ED108E0D36B13F0007FECD0F1E76319B9
S2140803A08B4208D100E000250E480C4B984709E020
S2140803B00025074A0A490135D36B13F0007FEED1B2
S2140803C000E000256808084BA3FB0020400938BD5C
S2140803D000120E4091D00300EC860800955C0800D9
S2140803E090D00300F8860800298D8F4C0000000086
S2140803F02DE97043184B984713A3D3E90023174CED
S214080400A0470022164B174CA047174B9847174B88
S2140804101860174D4FF080762E630DA3D3E900239E
S214080420144990469946E1FB008940464946124AD7
S2140804300023124CA047124CA0476E631148A047F1
S214080440BDE87083AFF3008033333333333325404E
S2140804507F9FD50000000000E94F0800B55008004F
S21408046000407F40514D080039560800C40A07204E
S21408047000120E4000BD0105809FD5007956080081
S21408048001000720C0D401002DE9F04180467E4BCC
S2140804901B78032B00F2DF80DFE813F004008500EA
S2140804A02300CA000022794B1A70794B1B789BB13F
S2140804B0452811D8774B18700122734B1A70764B63
S2140804C01B78764A1370764A1360764B1A88013280
S2140804D01A807548754B98476F4B1A7801321A7010
S2140804E0B9E00022694B1A70714B984704460D46CE
S2140804F0684B18786F4B984706460F4660A3D3E9B3
S2140805000023DFF8B8C1E04702460B4620462946D6
S214080510DFF8E0C1E047A8B1304639464FF033323D
S214080520654B664EB04702460B4620462946644C45
S214080530A04738B15B4C634821885C4B98472388B2
S21408054001332380574B1B88052B16D901224E4BA7
S2140805501A70514C2178514B19705B48534DA84777
S2140805605A484146A8475A4BC3F8008022784C4B55
S2140805701A6000224B4B1A8010E0474B1A78474BFC
S2140805801B780A339A4209DD5248484CA047002394
S214080590444A13803C4A13704F48A0473E4B1A788B
S2140805A001321A7057E00122384B1A70404B9847B0
S2140805B004460D46374B18783E4B984706460F4676
S2140805C02FA3D3E90023DFF8F4C0E04702460B4622
S2140805D020462946DFF820C1E04780B9304639462C
S2140805E04FF03332344B354EB04702460B46204662
S2140805F029463A4CA04710B9B8F13C0F14D9384CE4
S21408060038482178294B984723780133DBB2052BE5
S21408061001D823701FE00024314B1C703248234B4E
S2140806209847194B1C7016E000222D4B1A7012E0E2
S2140806300023164A1370184A13702C4B1B78013384
S214080640DBB21E2B02D0294A137004E00023274A87
S21408065013700D4A1370104B1B78B42B05D9002263
S2140806600D4B1A700322084B1A700B4B1878204B48
S2140806709847074B83F80080BDE8F081AFF3008009
S2140806809A9999999999E93FD20A0720D90A072091
S214080690DA0A0720DC0A0720DB0A0720C80A072030
S2140806A0CC0A0720D00A072014870800955C0800A3
S2140806B0C94F0800E94F08003333F33FB550080028
S2140806C0AD55080028870800548708007C8708006E
S2140806D0D40A0720A0870800CC870800D55508004C
S2140806E0D80A0720DC87080014880800DD0A0720D7
S2140806F0F1030800C155080099550800AFF30080BB
S21408070070B5084C4FF0806565630C20064EB04700
S21408071025633C20B0476563044B9847044B9847CD
S21408072070BD00BF00120E40010007206D030800D0
S2140807308904080010B5002040F2DC51054CA0479B
S214080740012040F2DC51A0470020034CA0470120BE
S214080750A04710BDF1130800BD13080000000000F4
S2140807602DE9F04704462C4B98472C4D2C4F204635
S214080770B84727A3D3E900232A4CA047C5E90001B8
S214080780294E00243460294B1C6020464FF4C8616B
S214080790DFF8AC80C047012040F22761C0472046FA
S2140807A0234CA0470120A0473668D5E900453046C7
S2140807B0B84722462B461F4FB847D0B1DFF884A06B
S2140807C0DFF88490DFF884805046314622462B4670
S2140807D0C8470120C047144B1E68104BD3E9004594
S2140807E030460F4B984722462B46124FB8470028EC
S2140807F0EAD11148114B9847074B984700230A4AF5
S21408080013600A4A13600120BDE8F087AFF3008042
S214080810AE47E17A14AEF53F35070800B8AD0720B5
S214080820E94F080009530800100B0720140B07208F
S214080830BD130800995508004C8808009D5E0800FE
S214080840F113080034880800955C0800612D08003C
S2140808502DE9F0410446224B9847224D224E204669
S214080860B0471DA3D3E90023204CA047C5E90001E3
S2140808701F4F00243C601F4B1C6020464FF4A061AD
S214080880DFF88080C04701204FF4A061C0472046AB
S214080890194CA0470120A0473868B047D5E900237F
S2140808A0164CA04768B1164F114E0F4D0120B84799
S2140808B03068A8470B4BD3E90023104CA047002804
S2140808C0F4D1074B98470023094A1360094A136076
S2140808D0BDE8F081AFF30080AE47E17A14AEF53F8D
S2140808E035070800B8AD0720E94F08000953080087
S2140808F0100B0720140B0720BD1308009955080095
S214080900612D0800F1130800F8B50446404200B20D
S214080910214B9847214B98472046214B98471CA3C4
S214080920D3E900231F4CA0471F4B98470028B8BFA1
S21408093003308410013C24EAE474002C0DDD00200A
S2140809404FF4A061194DA847012040F27C61A847E2
S2140809500020174DA8470120A8470023154A136012
S214080960154A13609C4207DD0127144E114D384680
S214080970B0472B689C42FADC084B9847C8200F4BB8
S214080980984700230B4A13600B4A1360F8BD00BF54
S2140809909A9999999999F13F290D08003507080001
S2140809A0E94F0800B5500800E9550800F11308009B
S2140809B0BD130800100B0720140B0720612D080034
S2140809C070B504462D2806DD2D26054D2D3C3046EF
S2140809D0A8472D2CFADC2046014B984770BD00BF6F
S2140809E00909080000000000F8B5044600B2224BCA
S2140809F09847224B98472046214B98471CA3D3E993
S214080A000023204CA047204B98470028B8BF033047
S214080A108410013C24EAE474002C0DDD002040F22A
S214080A20A4611A4DA84701204FF4A061A8470020EA
S214080A30174DA8470120A8470023164A1360164AF0
S214080A4013609C4207DD0127144E124D3846B04706
S214080A502B689C42FADC094B9847C8200F4B9847EE
S214080A6000230C4A13600C4A1360F8BDAFF30080ED
S214080A70CDCCCCCCCCCCF03F290D080035070800EF
S214080A80E94F0800B5500800E9550800F1130800BA
S214080A90BD130800100B0720140B0720612D080053
S214080AA070B504462D2806DD2D26054D2D3C30460E
S214080AB0A8472D2CFADC2046014B984770BD00BF8E
S214080AC0E90908002DE9F84381460026154B1E6003
S214080AD0154B1E60154FDFF870803888C0470446EF
S214080AE00D464846C047124BD3E90023DFF85CC0E2
S214080AF0E04702460B46204629460E4CA0470E4BBA
S214080B009847388030460D4B19880D4CA047012071
S214080B103988A04730460B4CA0470120A047BDE8BF
S214080B20F88300BF100B0720140B07203801072096
S214080B3040010720514D0800395608004801072093
S214080B40F1130800BD130800E94F0800B550080067
S214080B50014B1870704700BFF80A07200022014BA7
S214080B601A707047F10A07200022014B1A70704766
S214080B70F10A0720044B1A68044B1A60044B1A68DB
S214080B80044B1A60704700BFFC0A0720DCAD07203C
S214080B90F40A0720C4AD0720144B1A68144B1A60D1
S214080BA0144B1B68C3F1B40313490B60A2F5B47168
S214080BB00029B8BF49421944104A81FB0223CA18C3
S214080BC0CB17C3EB22234FF4B47202FB1311A1F523
S214080BD0B4710029B8BF4942B429C8BFA1F5B47199
S214080BE0074B1960064B1868704700BF4C01072072
S214080BF07CAE072050AE072070AE0720B7600BB655
S214080C0080AE072000000000F8B504461A4B984747
S214080C101A4B6200111953F82170194909687F1A8E
S214080C2018490F60144403EB84035868164B1B6876
S214080C30C01A164B1860164EB04704460D4638467E
S214080C40B04702460B4620462946124CA047124B90
S214080C50C3E900010022114B114CA04704A3D3E9B5
S214080C600023104CA047104B9847104B1860F8BD4F
S214080C707A008BFCFA210940750B0800E8AD0720BE
S214080C80DCAD072074AE0720C4AD0720C0AD072032
S214080C90E94F08007545080068AE072000806640E2
S214080CA0B550080009530800E955080050AE07205B
S214080CB02DE9F84F144B9847144E154B1868B04753
S214080CC004460D46134B1868B04780468946DFF839
S214080CD050A0DFF850B04046494642464B46D047FB
S214080CE006460F462046294622462B46D047024649
S214080CF00B4630463946D847074B9847074BC3E953
S214080D000001BDE8F88F00BF090C0800E94F08008D
S214080D1074AE0720C0AD072079450800E0AD07206F
S214080D20B5500800514D080008490B68181A00F518
S214080D30B470074A80FB0223C218C317C3EB2223EA
S214080D404FF4B47202FB1300086070474C0107208A
S214080D50B7600BB608B5002805DA0028B8BF4042C9
S214080D60024B984708BD024B984708BDC1090800C2
S214080D70A10A080000000000F8B5254E254F3B687C
S214080D803360254C254D2B682360254B98473F68D4
S214080D903368FF1A234B1F6028682368C01A224B43
S214080DA01860224EB04704460D463846B0470246FD
S214080DB00B46204629461E4CA0471E4BC3E9000199
S214080DC000221D4B1D4CA0470FA3D3E900231C4C43
S214080DD0A0471C4B9847C0F1B4001B4B18601B4B30
S214080DE01B6898420CD01A481A4B98471A4B9847D3
S214080DF0154B1A68154B1A60184B9847184B9847A6
S214080E00F8BD00BFAFF300807A008BFCFA210940DA
S214080E1060AE0720DCAD0720CCAD0720C4AD0720A8
S214080E20750B080074AE0720C0AD0720E94F080010
S214080E307545080068AE072000806640B550080073
S214080E4009530800E955080078AE07204C0107202A
S214080E505C880800955C080035070800990B0800B0
S214080E60550D0800AFF3008010B584B0114B1B7801
S214080E706BB111480321017002224270042383706B
S214080E800024C47000940D480D4CA04710E00A4892
S214080E90032101700022427002238370C27004246A
S214080EA0047142710092019402920648044CA047CD
S214080EB004B010BDF80A072048AE07206C88080062
S214080EC0955C08007C880800F8B56D486D4B196875
S214080ED06D4B1A686D4B98476D4B1B7843B96D4B35
S214080EE0984700226C4B1A7006226C4B1A7003E067
S214080EF06A4B1B78002B29D0654D674E3378E85C23
S214080F00674B9847674C68482168604FB847674BF7
S214080F109847014620606648B8472068654B98475A
S214080F203378E85C644B984702460B46634CC4E942
S214080F300023634CC4E900230022624B624CA0479E
S214080F40624BC3E900010022544B1A70604B1868C4
S214080F50604B98475A4BD3E900235F4CA0470028BC
S214080F605FD05E4D5E4C5020294622465D4B984722
S214080F705D4829682268454B9847514BD3E9004598
S214080F8020462946514BD3E90023584EB04710B1A6
S214080F90574B984714E0494BD3E900010022554BBC
S214080FA0554EB04702460B46204629464A4CA047AF
S214080FB030B14F4B9847002200234049C1E900232F
S214080FC04E4B18684E4B1B68C01A4E4B18604E4B5B
S214080FD098474E48414B1968414B1A682B4CA04716
S214080FE02B4D2D4E3378EB5C494A5900CF1802EB4F
S214080FF08703484852F827105A68A0471420464BDB
S21408100098472F4CD4E900233049C1E900233378A8
S214081010E85C294B9847C4E9000100201F4B18706C
S214081020F8BD334B98471C4B1B78194AD25C5AB10B
S21408103001223A490A70194C22701344164A137052
S214081040374B98472078F8BD354B98470122334BE5
S2140810501A700222114B1A70324B1B7863B9324A47
S21408106013780133DBB21370032B07D80A4B1A78B0
S21408107001321A700220F8BD0220F8BD0320F8BD20
S214081080908808004C01072070AE0720955C080081
S21408109048AE0720690E0800F00A0720000B072054
S2140810A0090C0800C8AD0720B0880800990B08008E
S2140810B0B4880800550D0800B10C0800080B072076
S2140810C0E00A072000003440514D0800E80A0720CF
S2140810D050010720E94F080099550800FC0A072028
S2140810E0F40A0720651C0800C8880800D5550800BB
S2140810F0790D08000000E03FB5500800100B0720E7
S214081100140B072054AE0720C50A0800D888080024
S214081110E8AD0720EC880800612D0800F10A0720D2
S21408112035070800F80A0720F90A0720014B186057
S214081130704700BF50010720054B1B78054AD35C53
S21408114003EB4303044A02EB8303187A704700BF95
S214081150F00A072048AE0720E8AD07202DE9F84337
S214081160064600EBC0003B4B03EB8000446963096E
S21408117003F5001303F207735B0204F01F04012251
S21408118002FA04F45C61C3F8A0404369C469816943
S214081190214303F01F0082405B0903F5001303F2A6
S2140811A007735B0211F0080F14BF5A661A6611F02F
S2140811B0200F14BF1A655A6511F0C00F14BF1A62C3
S2140811C05A6211F0800F14BFC3F88420C3F8802039
S2140811D011F0010F196F14BF0A4321EA02021A67B9
S2140811E01C4D4FEAC60909EB0607BF00EC196369F0
S2140811F003F01F024FF0010808FA02F25B0903F534
S214081200001303F207735B025A600020124B9847DC
S214081210A068124B9847E85961682269104B9847AE
S214081220E85961680F4B9847E859616840220E4BA9
S21408123098474E4405EB86052B7B59B2490903F0BF
S2140812401F0308FA03F32031084A42F82130BDE8A4
S214081250F88300BFCC010720693A0800113A080055
S2140812608D1E0800A91E0800B11E080000E100E057
S2140812702DE9F0410446C0EB0012294B03EB82022D
S214081280136B516B03F01F02012000FA02F25B0990
S21408129003F5001303F207735B0211F0080F14BF7F
S2140812A05A661A6611F0200F14BF1A655A6511F0AF
S2140812B0C00F14BF1A625A6211F0800F14BFC3F829
S2140812C08420C3F8802011F0010F196F14BF0A4359
S2140812D021EA02021A67124D2701C4EB07084FEAF3
S2140812E0880805EB0806336B03F01F02012101FA94
S2140812F002F25B0903F5001303F207735B025A60F8
S214081300F06A084B984755F808007168064B9847E6
S2140813103C1B55F824000549054B9847BDE8F08165
S21408132054010720113A08004D1708001402072038
S214081330D915080010B5094C20686168084B98470D
S214081340237B59B2490903F01F03012202FA03F36B
S2140813502031044A42F8213010BD00BFCC010720D6
S214081360B91E080000E100E010B5094C606AA16AE1
S214081370084B984794F8303059B2490903F01F03D0
S214081380012202FA03F32031034A42F8213010BD45
S214081390CC010720B91E080000E100E010B50020C7
S2140813A0044CA0470120A0470020034CA04701207A
S2140813B0A04710BD711208005D110800F8B5064672
S2140813C0084C07013D1AAD00611960590431064BF7
S2140813D09847BE1B04EB860660597168034B98470E
S2140813E0F8BD00BF54010720191608004117080069
S2140813F010B50A46C0EB0011094B03EB81039B6B43
S21408140093420BD3064B01010C1A03EB840153F8E5
S21408141024000431034B9847002010BD012010BD5E
S214081420540107201D170800044BDB6B13F0805F80
S21408143003D0034B1A6801321A60704700120E4038
S214081440100B0720044BDB6B13F4000F03D0034B81
S2140814501A6801321A60704700120E40140B0720F3
S21408146070B582B006460D46144600200D4B9847C8
S21408147030460D4B98472846214601220B4B984785
S2140814800B4B00932846314622464023094EB04768
S21408149028462146084B98474FF40052074B1A60D7
S2140814A002B070BD693A0800113A080035360800DF
S2140814B0291408009D380800C136080000E100E03D
S2140814C070B582B006460D46144600200D4B984768
S2140814D030460D4B98472846214601220B4B984725
S2140814E00B4B00932846314622464023094EB04708
S2140814F028462146084B98474FF40052074B1A6077
S21408150002B070BD693A0800113A0800353608007E
S214081510451408009D380800C136080000E100E0C0
S214081520114B124A1360124A116821F0020141F069
S21408153001011160E43213600E4B1B6813F0006F54
S21408154003D14FF000620C4B1A600C4A136803F084
S214081550113323F001031360054B1A6822F00202C8
S21408156042F005021A60704700011000E4060E40BB
S2140815700000084018060E4010060E4004000840FA
S214081580F0B48CB007460E4601AC124D0FCD0FC412
S2140815900FCD0FC495E8070084E807006A460023C5
S2140815A052F8044FB6FBF4F4B4FBF7F4B4F5807FB6
S2140815B003D901330B2BF3D104E00A2B05D844EAF0
S2140815C0032004E04FF6FF7001E04FF6FF700CB002
S2140815D0F0BC70470089080070B506460C460868D7
S2140815E040B189680B4B984705464FF6FF739842FB
S2140815F001D10EE00025606840B1A168054B984708
S2140816004FF6FF73984204D045EA0045356000203F
S21408161070BD70BD8115080070B40B688C8A4A6866
S21408162002F00F0214430D892C438A7A44EA4224B6
S2140816308A7D44EA0244CA7D44EA42440A7E44EA71
S214081640824400EB4312C2F80042CC68C2F8044257
S2140816500C69C2F80C428A7D3AB18C8B4A8B42EAF6
S214081660044400EB4312C2F81842856C4FF001128E
S2140816709A40D2431540CE7F9E408C7F9C4044EAD9
S21408168006442C438464446C224091F821509D40C3
S21408169091F820409C4044EA0544224342640122D3
S2140816A09A4091F822401CB1046A1443046203E08D
S2140816B0046A24EA0204046291F82440012C846E29
S2140816C00CBF14439443846691F82540012C846E1D
S2140816D00CBF44EA024224EA02428266032B0CD874
S2140816E0C46EDB00FF229A4024EA020291F8231017
S2140816F001FA03F31343C3660CE0043B046FDB00F4
S214081700FF229A4024EA020291F8231001FA03F312
S21408171013430367002070BC704700BF10B40C6802
S2140817200B69934206D3CA6000EB4410C0F808223F
S214081730002001E04FF6FF705DF8044B704700BFCD
S214081740012303FA01F14160704700BF012303FA41
S21408175001F18160704700BF00B585B000230A4AD2
S21408176053710A4A029202228DF80C20084A019206
S2140817708DF80D301720074B9847074801A9074BE7
S214081780984705B05DF804FB84AE0720A0860100E4
S21408179000BD0105113A0800000009408D01080047
S2140817A030B587B000230193029305930390049104
S2140817B002218DF814100848084B984738B9064D8A
S2140817C0074C284601A9A0470028FAD101E00020C6
S2140817D000E0012007B030BD0000094041030800C2
S2140817E0A102080030B587B0002301930293059341
S2140817F00390049102238DF81430054D054C2846B5
S21408180001A9A0470028FAD1012007B030BD00BFC3
S21408181000000940CD01080008B50238232837D84B
S214081820DFE800F0161A1E363636363636363636C0
S214081830363636363636363636363636363636363B
S2140818403636122A222E26321348144B984708BDDD
S2140818501348124B984708BD1248104B984708BDC6
S21408186011480E4B984708BD10480C4B984708BDC2
S2140818700F480A4B984708BD0E48084B984708BDBE
S2140818800D48064B984708BD0C48044B984708BDBA
S2140818900B48024B984708BD30890800955C08003D
S2140818A044890800608908007C8908009C8908002B
S2140818B0B4890800CC890800E4890800FC89080077
S2140818C00C8A080030B583B0044600238DF806302D
S2140818D0ADF800308DF8023020238DF8043002234E
S2140818E08DF8053001A803213C4B984708B3684695
S2140818F003213B4B98473B4B9DF801201A709DF8F7
S21408190002205A7001225A713C20374B98472023F0
S2140819108DF8043003218DF8051000238DF800306B
S2140819208DF801308DF8023001A82C4B984758B92D
S2140819302AE02E482E4B98472A4B00225A711868E0
S21408194020609B88A38046E068460321244B98477E
S214081950244B9DF801209A709DF80220DA70012227
S2140819605A713C20204B984704238DF805300023F5
S2140819708DF800308DF801308DF8023001A803216B
S214081980164B9847E8B10AE01A48194B9847154B82
S21408199000225A71186820609B88A3801BE068465E
S2140819A003210F4B98470F4D9DF801302B710123EB
S2140819B06B713C200C4B984728682060AB88A38046
S2140819C009E00D480A4B9847064B00225A711868DA
S2140819D020609B88A380204603B030BDA11708006E
S2140819E0E517080084AE0720612D0800148A080051
S2140819F09D5E0800208A08002C8A080000B583B07F
S214081A0022238DF8043000238DF805308DF8060063
S214081A1001A80321024B984703B05DF804FB00BFFA
S214081A20A117080000B583B024238DF804300023DE
S214081A308DF805308DF80630ADF800308DF8023098
S214081A4001A80321174B984730B34EF66020164B73
S214081A50984768460321154B98479DF80030242B75
S214081A600CD19DF80100C31EDBB2012B17D8104B12
S214081A7018709DF802200F4B1A7010E00E480F4B96
S214081A8098479DF800200E4811460E4B98479DF83B
S214081A9000000D4B984702E00C48084B984703B0E7
S214081AA05DF804FBA117080001000720E5170800E9
S214081AB020020720180B0720388A08009D5E0800B9
S214081AC04C8A0800955C080019180800588A08000F
S214081AD000B583B00A4B1A889B78ADF804208DF8B9
S214081AE0063001A80321074B9847034618B105227C
S214081AF0054B1A700123184603B05DF804FB00BFB7
S214081B002C890800A11708002002072000B583B01A
S214081B1021238DF8043000238DF805308DF8063023
S214081B2001A80321024B984703B05DF804FB00BFE9
S214081B30A117080000B583B023238DF804300023CE
S214081B408DF805308DF80630ADF800308DF8023087
S214081B5001A80321104B9847C0B1684603210F4BD4
S214081B6098479DF80030232B02D19DF8010010E01D
S214081B700B480C4B98479DF800200B4811460B4B1A
S214081B8098479DF800000A4B984702E00948054B1D
S214081B90984703B05DF804FBA1170800E51708008E
S214081BA0388A08009D5E08004C8A0800955C080084
S214081BB019180800588A080030B589B08DF807004B
S214081BC000230393049307930DF10703059301235A
S214081BD0069303218DF81C1009480A4B984738B914
S214081BE0074D094C284603A9A0470028FAD104E067
S214081BF00648074B9847002000E0012009B030BD92
S214081C000000094041030800A1020800748A080081
S214081C109D5E080030B587B00023019302930593B4
S214081C2003900523049303238DF81430044D054CC4
S214081C30284601A9A0470028FAD107B030BD00BF42
S214081C4000000940CD01080010B4C478037943EABF
S214081C5004234478807840EA0420088013805DF8DE
S214081C60044B704730B583B00D46144600230093E6
S214081C708DF80430502804D051280CBF512018463F
S214081C8000E05020054B98476846054B984768463D
S214081C9029462246034B984703B030BDB91B0800B7
S214081CA0151C0800491C08002DE9F0410C46904612
S214081CB060B9002A0EDD8F18094E0A4D3068214695
S214081CC02B6898470134BC42F8D106E04FF0FF3045
S214081CD0BDE8F0810020BDE8F0814046BDE8F0810F
S214081CE094AE07208CAE0720436913F0020F1DBF81
S214081CF0C1F30801C161002001207047436913F051
S214081D00010F05D08369C3F308030B6000207047F2
S214081D100120704700B583B011480DF10701012274
S214081D20104B984772B6BFF35F8F00220E4B1A709F
S214081D300E4B1B789DF807100D4AD1549B2B03D1E8
S214081D4000220A4B1A7002E00133084A1370012277
S214081D50054B1A70BFF35F8F62B603B05DF804FBDD
S214081D6000800940C91D080030020720B80B07206C
S214081D701C0B07202DE9F0410E46154601380228AF
S214081D800FD892B10024DFF83C800D4FD8F8000039
S214081D90315D3B68984700280ADB0134A542F5D137
S214081DA00AE04FF0FF30BDE8F0810020BDE8F08182
S214081DB04FF0FF30BDE8F0812046BDE8F08100BF57
S214081DC090AE072094AE07202DE9F04F83B0054665
S214081DD09046002A47D04E1C254F264CDFF8A8A070
S214081DE0DFF894B006F1FF3900230193224B9D4299
S214081DF006D158464946214B98470028F9D119E09C
S214081E001F4B9D4209D19946484601A9A04700287C
S214081E10FAD1019B06F8013C17E01A4B9D4209D1FE
S214081E209946484601A9A0470028FAD1019B06F81A
S214081E30013C14E0554508D1504601A9A0470028A2
S214081E40FAD1019B06F8013C09E0BD4207D13846A5
S214081E5001A9A0470028FAD1019B06F8013C0136E3
S214081E60B8F10108BED1002003B0BDE8F08F00BF6E
S214081E7000400A40FD1C080000080E40091F080024
S214081E800080094000C0094000000A4010B48901DB
S214081E904318022444504FF0FF319962196A5A6079
S214081EA05DF8044B704700BF89010523435070470F
S214081EB000EB81114A62704700EB8111086A70478F
S214081EC010B4AC2303600A684B68B2FBF3F31B0933
S214081ED05C1E4FF6FE7294420AD803628B68436013
S214081EE040F20223C0F8203150230360002000E0AF
S214081EF001205DF8044B7047436913F0020F1ABFC0
S214081F00C161002001207047436913F0010F1DBF0F
S214081F1083690B7000200120704700BF00F108039A
S214081F2043604FF0FF328260C360036100230360A2
S214081F30704700BF00230361704700BF43685A68B4
S214081F404A6042688A605A689160596041600861D0
S214081F50036801330360704710B40C68B4F1FF3FA0
S214081F6001D103690AE000F10803C26812689442C6
S214081F7004D35B685A6812689442FAD25A684A6070
S214081F8091608B60596008610368013303605DF8EF
S214081F90044B7047436882689A60836842685A6050
S214081FA003695A68824204BF82685A600022026146
S214081FB01A68013A1A601868704700BF0348006834
S214081FC0006880F3088862B600DF00BF08ED00E00E
S214081FD04FF0807340F8043C40F8081C002340F893
S214081FE00C3C40F8202C4038704700BF064B196858
S214081FF00868B0E8F00F80F309884FF0000080F317
S21408200011884EF00D0E704784AC07204FF08052B2
S214082010014B1A60704700BF04ED00E0EFF3118033
S2140820204FF0A00181F311887047002008B5034BD4
S2140820309847034B1A6801321A6008BD1D2008002D
S2140820402402072080F31188704700BF08B5044AA9
S2140820501368013B136013B90020024B984708BD6C
S2140820602402072045200800EFF309800C4B1A6865
S21408207020E9F00F10602DE908404FF0A00080F32B
S214082080118800F0D3FE4FF0000080F31188BDE8F9
S214082090084019680868B0E8F00F80F309887047A8
S2140820A084AC072008B54FF08052054B1A60054BE4
S2140820B09847054B98470020044B984708BD00BF33
S2140820C004ED00E01D200800A92A080045200800A5
S2140820D0034A044B1A600722043B1A60704700BF85
S2140820E01F48010014E000E010B5094B1A6842F4D6
S2140820F070021A601A6842F070421A60054B9847D8
S2140821000024054B1C60054B9847204610BD00BFB1
S21408211020ED00E0D120080024020720BD1F08009B
S21408212030B4134A1368834201D21A46FAE71146B6
S21408213054681519854203D16868044454601046EB
S21408214042688418A3420CD10A4C24689C4206D0E4
S2140821505B681A4442600B681B68036002E0036011
S21408216000E00360814218BF086030BC704700BFBB
S214082170C4AB0720C0AB072038B50446284B9847A1
S214082180284B1B689BB9284A284B136000215160CE
S21408219049F6F0729818234D286049F6F475595197
S2140821A099505A601860224B1A68103A1A60002C28
S2140821B02DD004F1100212F0070F1CBF22F0070200
S2140821C00832511E49F6FE73994222D816490C6801
S2140821D063689A4204D9236813B121461C46F7E778
S2140821E0104B1B689C4216D00D68103523680B6090
S2140821F063689B1A202B04D9A018436062600D4BB5
S21408220098470B4B1A686168521A1A6004E0002552
S21408221002E0002500E00025074B9847284638BD11
S214082220792A0800C0AB0720C4AB0720C00B0720DC
S2140822302802072021210800C92B080010B50446EB
S21408224068B1074B9847074B196854F80C2C0A4492
S2140822501A60A4F11000044B9847044B984710BD29
S214082260792A08002802072021210800C92B08001F
S21408227010B50446036C3BB903681BBB4068134B98
S2140822809847002363601DE06AB980681A46104BB9
S2140822909847A268236C1344A3606268934211D3DC
S2140822A02368A3600EE0C0681A46094B9847226C5C
S2140822B05242E3681344E36021688B4202D26368A3
S2140822C01A44E260A36B0133A36310BD45310800CE
S2140822D0BD5C080038B5034605685DB1026CC46885
S2140822E01444C4604068844228BFDD600846D96844
S2140822F0014B984738BD00BFBD5C0800F8B50446DA
S2140823001D4B9847A36C002B12DD636A83B104F15A
S21408231024061A4D1A4F01E0636A4BB13046A847A7
S21408232000B1B847A36C013BA364A36C002BF3DC95
S2140823304FF0FF33A364134B98470F4B9847636CD3
S214082340002B12DD236983B104F110060B4D0C4FE8
S21408235001E023694BB13046A84700B1B847636C23
S214082360013B6364636C002BF3DC4FF0FF3363645C
S214082370044B9847F8BD00BF2D200800612F0800C1
S214082380913008004D20080038B50D46044618B9A7
S214082390164B984700BFFDE7154B98472368226CF5
S2140823A0E06B00FB02F0191861600021A163A360CE
S2140823B0821A1344E3604FF0FF336364A36455B98D
S2140823C023697BB104F110000A4B9847012809D10C
S2140823D0094B984706E004F11000084DA84704F199
S2140823E02400A847064B9847012038BD1D20080042
S2140823F02D200800612F08000D2008001D1F08006A
S2140824004D200800F8B50D461746064688B15020F8
S2140824100E4B9847044660B105FB06F001300B4B9F
S2140824209847206040B92046094B984701E000BF0E
S214082430FDE7084B9847FAE7E6632564204601213E
S214082440054B984784F84D702046F8BD792108005A
S2140824503D2208001D200800892308002DE9F04FBA
S21408246085B08A4601929B46044618B9364B98476B
S21408247000BFFDE709B9036C1BB90027334E344D7E
S21408248003E0314B984700BFFDE7B047A26BE36B0C
S2140824909A4212D2204651465A462E4B9847636AAD
S2140824A03BB104F124002C4B9847012801D12B4B53
S2140824B09847274B9847012043E0019B1BB9244BBC
S2140824C0984700203DE01FB902A8254B98470127EA
S2140824D0A847244B9847B047636CB3F1FF3F04BF47
S2140824E000236364A36CB3F1FF3F04BF0023A36417
S2140824F0A84702A801A91C4B9847E0B9B047D4F8EA
S2140825003890D4F83C80A847C1450ED104F1100095
S2140825100199164B98472046154B9847154B9847F0
S2140825200028B2D10D4B9847AFE72046104B984786
S214082530104B9847A9E720460D4B98470D4B9847F0
S214082540002005B0BDE8F08F1D2008002D200800EB
S2140825504D20080071220800612F08000D20080091
S214082560E52F0800792A08000D300800BD2E08005F
S214082570FD220800C92B08002DE9F0410E46154635
S2140825809846044618B91C4B984700BFFDE729B97A
S214082590036C1BB1184B984700BFFDE7164B9847CE
S2140825A00746A26BE36B9A4218D22046314642464B
S2140825B0124B9847A36CB3F1FF3F0AD1636A7BB10D
S2140825C004F124000E4B984760B16DB101242C60CD
S2140825D00BE0A36C0133A364012406E0002404E0A6
S2140825E0012402E0012400E001243846054B984700
S2140825F02046BDE8F08100BF1D20080071220800B3
S214082600612F0800452008002DE9F04F85B089465F
S21408261001929A46044618B9444B984700BFFDE70E
S21408262009B9036C2BB90027414EDFF834B1414D88
S21408263003E03E4B984700BFFDE7B047A36B002B6F
S21408264028D0E568204649463B4B9847BAF1000F24
S21408265012D1A36B013BA363236813B9374B984782
S2140826606060236993B104F11000354B9847012840
S2140826700CD1344B984709E0E560636A33B104F13E
S21408268024002F4B984708B12E4B9847294B98475C
S214082690012048E0019B1BB9264B9847002042E0E2
S2140826A017B902A8D8470127A847274B9847B04725
S2140826B0636CB3F1FF3F04BF00236364A36CB3F1FC
S2140826C0FF3F04BF0023A364A84702A801A91F4B25
S2140826D0984710BBB047D4F83880A847B8F1000F21
S2140826E015D1236823B9B0476068194B9847A8479F
S2140826F004F124000199174B98472046164B984733
S214082700164B9847002898D10E4B984795E72046D1
S214082710114B9847114B98478FE720460E4B984722
S2140827200E4B9847002005B0BDE8F08F1D20080026
S2140827302D2008004D200800D52208009D300800EE
S214082740612F08000D200800792A08000D300800BF
S214082750C9300800BD2E0800FD220800C92B080055
S214082760E52F080038B504460D460D4B9847636CB0
S214082770B3F1FF3F04BF00236364A36CB3F1FF3FCC
S21408278004BF0023A364074B9847A36B23B904F13F
S21408279024002946044B98472046044B984738BDE2
S2140827A02D2008004D2008001D2F0800FD220800D7
S2140827B010B504460E4B1B6858600E4B1B689842B3
S2140827C007D20D4B18680A4B196804310B4B98470B
S2140827D010BD0B4B1868064B19680431074B984711
S2140827E0084B1B689C423CBF064B1C6010BD00BFD4
S2140827F084AC0720A0AC0720A4AC0720591F08000B
S214082800E4AB07202C0207202DE9F84F0E461746A2
S2140828109A460A9DDDF83080814618B9624B98477B
S21408282000BFFDE7042D03D95F4B984700BFFDE7BF
S2140828304C205E4B98470446002800F0B180B8F15B
S214082840000F40F0A980B800584B9847206318B985
S2140828502046574B9847A3E0A521BA00554B984702
S21408286007F18047013F236B03EB870323F0070B31
S21408287004F1340031460A224F4B9847002384F867
S2140828803D30042D34BF2E460426E662A664271D76
S2140828903846DFF87081C04704F11800C047246145
S2140828A0C6F10506A6616462584649465246434B39
S2140828B09847206010F0070F03D03B4B984700BF9F
S2140828C0FDE70B9B03B11C603D4B98473D4B1A68D0
S2140828D001321A603C4B1B682BBB3B4B1C60394BC8
S2140828E01B68012B29D1394E06F16409DFF8E08010
S2140828F03046C04714364E45FAD1DFF80C914846A4
S214082900334EB047DFF804814046B0473148B047F9
S2140829103148B0473148B047314BC3F80090314B87
S214082920C3F8008009E0304B1B6833B9264B1B6898
S214082930DB6A9D4224BF244B1C60E36A2B4A12685C
S214082940934284BF294A1360294A116821640131D9
S2140829501160284A1268934284BF264A136003EB24
S21408296083031A4800EB83003946234B9847234BCA
S21408297098471D4B1B684BB1134B1B68DB6A9D427F
S21408298007D91F4B98470120BDE8F88F0120BDE8FE
S214082990F88F0120BDE8F88FC0F8308040465BE726
S2140829A04FF0FF30BDE8F88F1D2008007921080099
S2140829B03D220800A95D08001D600800D11F080018
S2140829C02D200800C4AC072084AC07201CAC0720C8
S2140829D01D1F080088AC0720F0AB0720D0AB0720E7
S2140829E0E4AB0720A4AC0720E8AB0720C8AC072058
S2140829F0A8AC072018AC07203D1F08004D2008008B
S214082A000D200800351F0800ACAC072004AC0720D2
S214082A1010B584B0002300930193029303930E48E5
S214082A200E4982220E4CA04701280ED10D4B98471E
S214082A3001280AD10C4B984701220C4B1A60002239
S214082A400B4B1A600B4B984704E018B9064B98478F
S214082A5000BFFDE704B010BDA92D0800108B0800C4
S214082A60092808003D3208001D200800E8AB0720AA
S214082A70A0AC0720E9200800024B1A6801321A6049
S214082A80704700BF80AC072010B5044B9847044B2E
S214082A901C68044B9847204610BD00BF2D20080030
S214082AA0A0AC07204D2008002DE9F0413A4B1B68E2
S214082AB0002B6BD1394B1A6801321A601B6803BBAE
S214082AC0374B1B681B681BB1364B984700BFFDE7A2
S214082AD0334B1968344A106818601160334A116815
S214082AE0013111601B681B6823B94FF0FF32304B69
S214082AF01A6006E02A4B1B68DB68DB685A682C4BB2
S214082B001A60264B1A682A4B1B689A4242D3244BF3
S214082B101B681B684BB1224B1B68DB68DC68636864
S214082B201E4A1268934213D90EE04FF0FF32204B2C
S214082B301A60BDE8F0811A4B1B68DB68DC686368BE
S214082B40164A1268934207D9194A1360BDE8F081FD
S214082B50184E194FDFF86C80251D2846B047A36A23
S214082B6013B104F11800B047E36A3A68934288BF85
S214082B703B6003EB830008EB800029460F4B984721
S214082B80074B1B681B68002BD5D1CEE70C4B1A6881
S214082B9001321A60BDE8F08180AC0720A0AC07209F
S214082BA0E4AB07201D200800A4AC07209CAC072037
S214082BB02C020720951F080018AC07203D1F0800A8
S214082BC0CCAB07201CAC07202DE9F843314B1B681B
S214082BD01BB9314B984700BFFDE7304B98472D4B44
S214082BE01A68013A1A601B68002B48D12C4B1B68E0
S214082BF0002B46D00025DFF8D4802A4F2A4E1DE049
S214082C00D8F80C30DC6804F11800B84704F1040959
S214082C104846B847E36A3268934288BF336003EB96
S214082C208303224800EB83004946214B9847214BF3
S214082C301B68E26ADB6A9A4228BF0125D8F800308A
S214082C40002BDDD11C4B1B6863B11B4B1B687BB18B
S214082C501A4D194CA8472368013B23602368002BAC
S214082C60F8D105E0012D03D0154B1B68012B0AD1BE
S214082C700022134B1A60134B9847012404E00024E3
S214082C8002E0002400E000240F4B98472046BDE8E9
S214082C90F88300BF80AC07201D2008002D20080000
S214082CA0C4AC0720951F080018AC07201CAC0720EA
S214082CB03D1F080084AC0720CCAB0720A92A0800D3
S214082CC0C0AC07200D2008004D20080088AC07205F
S214082CD038B50C46054618B9194B984700BFFDE7A6
S214082CE019B9174B984700BFFDE7164B98472B684E
S214082CF01C44154A1268934207D9A3421CD9124BA2
S214082D001B682C609C420FD906E0A34212D80E4BD3
S214082D101B689C420ED80FE00C4B186804300C4B0E
S214082D20984720460B4B98470B4B984730B90B4BA8
S214082D30984738BD2C60EFE72C60F5E738BD00BF34
S214082D401D200800792A0800A0AC072084AC0720BC
S214082D50951F0800B1270800C92B08000D20080099
S214082D6010B5044678B1094B9847094B1B681C44B4
S214082D70084B18680430084B98472046074B984776
S214082D80074B984708B9074B984710BD792A08009B
S214082D90A0AC072084AC0720951F0800B1270800C0
S214082DA0C92B08000D20080080B5154D154EDFF814
S214082DB078801CE0144B9847144B1C68144B9847B3
S214082DC0ACB1144B9847114BDB68DC68201D124BDE
S214082DD09847124B1A68013A1A602B68013B2B6019
S214082DE00F4B9847206B0F4FB8472046B8472B68BD
S214082DF0002BDFD13368012BF9D9C047F7E700BFAE
S214082E00ECAB07201CAC0720792A0800F0AB07209B
S214082E10C92B08002D200800951F0800C4AC072001
S214082E204D2008003D2208000D20080008B51D4B5F
S214082E301B685BB91C4B1B6803EB83039B001B4A90
S214082E40D358CBB9184B1B6853B905E00122184B69
S214082E501A6008BD1A682AB9164B984700BFFDE7DE
S214082E60114B12491A68013A1A601A6802EB820274
S214082E7051F82220002AEDD00B4B1B6803EB830386
S214082E800A4A02EB83035A6852685A6003F108013B
S214082E908A4204BF52685A605B68DA68064B1A6052
S214082EA008BD00BF80AC072018AC07201CAC072064
S214082EB0C0AC07201D20080084AC072038B50C4697
S214082EC018B90E4B984700BFFDE70D4D2968183115
S214082ED00C4B9847286804300B4B9847B4F1FF3FD3
S214082EE005D1296809480431094B984738BD094B6C
S214082EF018682044084B984738BD00BF1D200800B6
S214082F0084AC0720591F0800951F0800D0AB07207F
S214082F103D1F0800A0AC0720B127080038B50D46AD
S214082F2018B9094B984700BFFDE7084C21681831C7
S214082F30074B984720680430064B9847064B186896
S214082F402844064B984738BD1D20080084AC072047
S214082F503D1F0800951F0800A0AC0720B1270800F1
S214082F6038B5C368DC681CB9164B984700BFFDE740
S214082F7004F118052846144B9847144B1B689BB950
S214082F80251D2846104B9847E36A114A1268934253
S214082F9084BF0F4A136003EB83030E4800EB8300DD
S214082FA029460D4B984703E00C4829460A4B984794
S214082FB00B4B1B68E06ADB6A984234BF002001208E
S214082FC038BD00BF1D200800951F080080AC0720EC
S214082FD018AC07201CAC07203D1F080088AC07204B
S214082FE084AC072008B518B9054B984700BFFDE71D
S214082FF0044A12680260044A1268426008BD00BFAC
S2140830001D2008009CAC0720A0AC072038B50D464C
S214083010044618B9184B984700BFFDE719B9164B70
S214083020984700BFFDE7154B98472B68B3F1FF3F5D
S21408303019D0134A116822688A4204D0114A1168C6
S21408304062688A4211D90F4A11686268891A8B42E7
S2140830500DD90C490968521A13442B6020460A4BAE
S2140830609847002404E0002402E0012400E001243C
S214083070064B9847204638BD1D2008002D2008001E
S2140830809CAC0720A0AC0720E52F08004D200800C0
S2140830900122014B1A607047C0AC0720014B186824
S2140830A0704700BF84AC0720054B1B6833B1054B3F
S2140830B01B68002B14BF02200120704700207047B1
S2140830C0E8AB072080AC072038B5044600282ED089
S2140830D0C36A174A1268D26A934228D2144A1268F8
S2140830E0D26AC2F10502826103EB8303114A02EB3E
S2140830F0830342699A4216D1051D28460E4B984707
S2140831000B4B1B68DB6AE3620C4A1268934284BF67
S2140831100A4A136003EB8303064800EB830029463C
S214083120074B984738BD024B1B68DB6AC36238BD3D
S21408313084AC07201CAC0720951F080018AC072095
S2140831403D1F080038B50446D0B1C26A836C9A425F
S21408315016D0051D28460B4B9847A36CE362C3F1AF
S2140831600502A261084A1268934284BF064A1360A1
S21408317003EB8303054800EB83002946044B984776
S21408318038BD00BF951F080018AC07201CAC0720E8
S2140831903D1F080010B504464160206191420AD8D8
S2140831A0D21A81698A4211D20A4B1868211D0A4B25
S2140831B09847002010BD9A4201D2994208D2074B80
S2140831C01868211D044B9847002010BD012010BD2B
S2140831D0012010BD00AD0720591F0800CCAC072001
S2140831E070B50D4B98470D4B1B688BB90C4D284690
S2140831F00C4EB0470C4C2046B0470C4B1D600C4B91
S2140832001C6005200C2100220A4B9847034B1860C7
S214083210094B984770BD00BF2D200800FCAC07205E
S214083220D0AC07201D1F0800E4AC0720CCAC072054
S21408323000AD0720052408004D20080010B584B00E
S2140832400B4B98470B4B1B6863B104230093002372
S214083250019302930393084808494FF48272084C76
S214083260A04718B9074B984700BFFDE704B010BD44
S214083270E1310800FCAC0720913308001C8B0800DD
S214083280092808001D20080010B584B00F4C2468D3
S214083290C4B10191029203906BB90D4B984701286F
S2140832A00A4B186801A907BF069A0023002213468E
S2140832B0084CA04707E0204601A91A460023064CFA
S2140832C0A04700E0002004B010BD00BFFCAC0720FB
S2140832D0A93008005D240800792508002DE9F04784
S2140832E082B08146224B98478046224B1B689842FC
S2140832F034D2214E214F24E0DA68D2F800A0DB68E9
S214083300DC68251D2846B847636A20469847E3695F
S214083310012B16D1A3695344534506D9636024612B
S21408332030682946164B98470BE000230093204642
S21408333019465246134CA04718B9134B984700BF76
S214083340FDE733681A68002AD6D1104A11680A4879
S214083350016013600123C9F8003002E00023C9F8B1
S2140833600030044BC3F80080404602B0BDE8F08742
S214083370892A0800F8AC0720CCAC0720951F08005F
S214083380591F0800893208001D20080000AD0720D4
S2140833902DE9F04387B04D4DDFF860814C4B1B6834
S2140833A01A68002A00F08780DB681E68494B984731
S2140833B003A8494B98470746039B002B30D1864203
S2140833C024D8464B9847424B1B68DB68DC68201DB0
S2140833D0C047E369012B14D1A169204631443A4617
S2140833E033463F4FB84701280BD1002300932046A9
S2140833F0194632463B4EB04718B93B4B984700BF74
S214083400FDE7636A204698470CE000262868F11B0B
S214083410364B9847314B984720B9354B984701E0CB
S2140834202E4B984702A82C4B98470746314EDFF894
S214083430B09038E0059C1CB1616909B1201DC047F1
S214083440039902291FD003292AD000292BD1049BCF
S214083450A169204619443A46C847012823D1636A19
S21408346020469847E369012B1DD1A26900230093E3
S21408347020461946049C22441A4CA04798B91A4B71
S214083480984700BFFDE70499A16119B9164B9847FC
S21408349000BFFDE7204639443A463B46C84702E0A7
S2140834A02046154B9847286803A900221346B047BC
S2140834B00028BFD172E7074B984703A8064B9847E2
S2140834C00746039B002BA0D0AAE700BFFCAC07204A
S2140834D0CCAC0720792A0800DD320800C92B080082
S2140834E095310800893208001D2008006527080065
S2140834F00D200800092608003D220800951F080030
S21408350010B50E480E4B984700203E210D4B9847A5
S2140835100D4CA0470028FCD00C4B98470C4A0D4B86
S2140835209A620D4CA0470028FCD010200B4B9847F9
S2140835300B4B98470148024B984710BD00BD010544
S214083540B10007208D390800E1390800F139080074
S214083550013F0D2000060E40013A080029390800F0
S214083560413B080010B54FF400421A4B5A600B2036
S214083570194CA0470C20A0470D20A0470E20A047B6
S2140835803B204FF06051154CA04755204FF0605136
S214083590A04756204FF06051A04768201049A04722
S2140835A05C201049A04710484FF440710F4A104B52
S2140835B0984711204FF00061A04712204FF0006195
S2140835C0A0472C204FF00061A0472D204FF0006147
S2140835D0A04710BD501A0E40113A0800D136080010
S2140835E07900002801000028000E0E40010000089F
S2140835F0A53708004264B1F1805F16D004D8C1B17F
S214083600B1F1006F0AD013E0B1F1405F11D0B1F10B
S214083610605F0ED0B1F1205F0AD17047036F016F6B
S2140836200B4023EA0203036702E0036F13430367B2
S21408363042607047416412F0010F14BF416601668C
S21408364012F00A0F14BF0162416212F0020F02D094
S214083650C0F8801004E012F0080F18BFC0F88410F5
S21408366041610160704700BF10B44164019C0CB111
S214083670416600E001660BB1016500E041650AB1EC
S214083680016300E04163016101605DF8044B704727
S21408369012F0100F10D0C0F8B01012F0200F14BFA0
S2140836A0C0F8D410C0F8D01012F0400F14BFC0F8FD
S2140836B0C010C0F8C4107047C0F8B410704700BFF8
S2140836C0C36C0164704700BFC06C7047806C70475D
S2140836D070B582B00D46440904F5001404F2077468
S2140836E0660201F0F044B4F1205F30D006D8B4F199
S2140836F0006F0AD0B4F1805F18D049E0B4F1405F9B
S21408370030D0B4F1605F2DD042E000F01F000124F5
S214083710844030464FF0006122461F4B984715F00C
S214083720010F14BF74663466012032E000F01F00F3
S2140837300124844030464FF080512246164B984765
S21408374015F0010F14BF74663466012021E000F0FE
S2140837501F010124304604FA01F12A460F4B984708
S214083760204616E000F01F01012405F0605205EA25
S21408377004030093304604FA01F1B2F1605F14BF07
S21408378000220122C5F38003054DA847204600E025
S214083790002002B070BD00BFF535080035360800B9
S2140837A069360800F0B583B007460E46154602F09F
S2140837B0F044B4F1205F26D006D8B4F1006F0AD0E2
S2140837C0B4F1805F13D034E0B4F1405F1FD0B4F199
S2140837D0605F1CD02DE04FF000613246164B9847CC
S2140837E015F0010F14BF7E663E66012022E04FF0FA
S2140837F080513246104B984715F0010F14BF7E666D
S2140838003E66012016E00D4B9847012012E005F0B1
S214083810605205F00103009338463146B2F1605F06
S21408382014BF00220122C5F38003054CA0470120DF
S21408383000E0002003B0F0BDF53508003536080076
S214083840693608002DE9F04104460E46104B9847A5
S214083850054620460F4B9847054017D00E4F07F1F0
S2140838600C046C3754F80C3CB3420AD154F8081CC4
S214083870294206D023683046984754F8083C25EA7B
S2140838800305BC4202D01034002DEBD1BDE8F08110
S214083890C9360800CD36080008AD0720F8B50B4C29
S2140838A02468062C10D80A4F2601BD19B9516A603B
S2140838B0AB600699E960013404490C6011461A4663
S2140838C0044B98470020F8BD0120F8BD04AD07203A
S2140838D008AD07209136080008B502480B21024BB0
S2140838E0984708BD000E0E404538080008B502483F
S2140838F00C21024B984708BD00100E4045380800BA
S21408390008B502480D21024B984708BD00120E4024
S2140839104538080008B502480E21024B984708BDEE
S21408392000140E4045380800174B1A6B22F0700238
S214083930104318639B6E13F0080F09D14FF4006309
S214083940114901E0013B19D08A6E12F0080FF9D030
S2140839500D4B1A6B22F0030242F002021A63986EAD
S21408396010F008000CD14FF40063074901E0013B52
S21408397008D08A6E12F0080FF9D0704701207047F9
S214083980002070470120704700060E4038B11149E4
S2140839900B6A114A1A40114B13430B6270470D4AC3
S2140839A0136A23F45C1323F0030343F45C1343F015
S2140839B00103090289B20B431362936E13F0010FD9
S2140839C0FBD0044A136A43F09B7343F480331362B4
S2140839D0704700BF00060E40FCFFC8FE0200370115
S2140839E0024B986E00F48030704700BF00060E4009
S2140839F04FF00052014B9A62704700BF00060E4017
S214083A00024B986E00F00200704700BF00060E409A
S214083A102C2820D81F280DD8124B9A6901238340DA
S214083A201A40934219D0012303FA00F00D4B18618F
S214083A30002070470B4BD3F8082120380123834019
S214083A401A4093420BD0012303FA00F0054BC3F843
S214083A5000010020704701207047002070470020B2
S214083A60704700BF00060E4020B1054A054BC3F854
S214083A70E4207047044A034BC3F8E420704700BFAD
S214083A8001434D5000060E4000434D50FEE700BF70
S214083A9010B51E4B1E4A9A4203D01E4B1B4A9A422A
S214083AA004D31D4B1D4A9A420FD31AE01C4B1D4CDB
S214083AB0E41A24F0030404340023144814495A581A
S214083AC01A500433A342FAD1EBE7174B1749C91A21
S214083AD021F003011A1D1144002243F8042F8B42DB
S214083AE0FBD1134A22F0604323F07F0311498B6011
S214083AF002F16042B2F5801F03D28A6842F0005293
S214083B008A600D4B98470D4B9847FEE70000072044
S214083B10AC8F0800A40A0720ACAE0720A80A072026
S214083B2004000720A70A0720A40A0720A7AE072034
S214083B300000080000ED00E0455C0800814308002E
S214083B403E4B1B6B03F00303032B5FD8DFE803F041
S214083B50020E2B2B3A4B5B6913F0800F14BF4FF401
S214083B6000424FF4FA42374B1A604FE0334B1B6A59
S214083B7013F0807F03D0344A324B1A6046E0334A4B
S214083B80304B1A602D4B1B6A03F07003102B02D0C3
S214083B90202B04D03AE02E4A2A4B1A6036E02A4AEE
S214083BA0284B1A6032E0254B1B6A13F0807F03D03F
S214083BB0254A244B1A6012E0244A224B1A601F4BEF
S214083BC01B6A03F07003102B02D0202B04D006E0EB
S214083BD01F4A1C4B1A6002E01B4A1A4B1A60174B06
S214083BE01B6B03F00303022B0DD1144B986A996ADA
S214083BF0144BC0F30A401A6800FB0222C9B2B2FB93
S214083C00F1F21A6002E0134A0E4B1A600B4B1B6B5C
S214083C1003F07003702B07D10A4B1A680E49A1FBF4
S214083C20020252081A607047044B196B054BC1F321
S214083C3002111A68CA401A60704700BF00060E4094
S214083C40101A0E4034020720001BB70000093D007A
S214083C5000127A00001C4E0EABAAAAAA094B1B68D3
S214083C6013B9094A074B1A60064B1B681A18074906
S214083C70914204DB1046034A1060184670474FF01E
S214083C80FF30704778AD0720B0CE0720FC7F0820AD
S214083C904FF0FF30704700BF4FF400534B600020D2
S214083CA0704700BF01207047002070472DE9F84391
S214083CB0DFF80C82DFF80C926F4E704D98F80030E3
S214083CC0012B40F0D6806E4B1B78002B40F0D1803D
S214083CD06C4B1B78002B40F0CC806B486B4B98479E
S214083CE040F269146A4FB0472B78012B08BF3B7027
S214083CF0013CF8D1664B1B78012B40F0B380654B2E
S214083D0018685A2832D1644B1C682034002C10DD01
S214083D102046624B9847624821465C4B98470023EA
S214083D20584A137088F80030594A13700122544BC9
S214083D301A70594B1C6814F1200F40F19380C4F197
S214083D40FF2404F57F04E0342046564B984756482F
S214083D5021464E4B984700234A4A137088F800308D
S214083D604B4A13700122464B1A707BE05A2839DDFD
S214083D705A384E4B9847474B19684D485A39434B63
S214083D809847454B1C682034002C10DD2046434BD2
S214083D909847434821463D4B98470023394A1370B5
S214083DA088F800303A4A13700122354B1A703A4B9D
S214083DB01C6814F1200F15D5C4F1FF2404F57F0400
S214083DC0E0342046374B98473A4821462F4B9847C9
S214083DD000232C4A137088F800302D4A13700122ED
S214083DE0274B1A702B4B186859283BDCC0F15A0031
S214083DF0314B9847274B19683048C1F15A01234B75
S214083E009847254B1C682034002C10DD2046234B91
S214083E109847234821461D4B98470023194A137094
S214083E2088F800301A4A13700122154B1A701A4B7C
S214083E301C6814F1200F15D5C4F1FF2404F57F047F
S214083E40E0342046174B98471A4821460F4B9847A8
S214083E5000230C4A137088F800300D4A13700122AC
S214083E60074B1A7000230C4A13600A4A13602B701B
S214083E7024E76420C84721E701070800D90A072075
S214083E807DAD07207CAD0720248B0800955C0800D4
S214083E907FAD0720CC0A0720D40A07206107080050
S214083EA0348B080051080800608B0800C109080018
S214083EB08C8B0800C48B0800A10A0800008C080038
S214083EC07EAD0720612D08002DE9F04F87B0744CB1
S214083ED0744D754E2378012B40F0DF803378002B25
S214083EE040F0DB80714B1B78002B40F0D680704B7F
S214083EF01B78002B40F0D1806E4B1978052900F20C
S214083F00C580DFE811F006003D0051008B009A00DE
S214083F10BF006948694B984704A8694B98479DF8BD
S214083F2010A09DF811B09DF812809DF813C0CDF82A
S214083F300CC09DF814709DF81530EBB14046614BE7
S214083F4098474FF001095B4B83F800905E485F4B3B
S214083F509847CDF8008001975D4859465246039B1E
S214083F60DFF868C1E04738465A4B984784F800900F
S214083F7000224E4B1A708CE05748504B984788E002
S214083F80564B9847564B9847012806D155484B4BF1
S214083F9098470222474B1A707BE05348474B98478E
S214083FA00122444B1A7074E0504B98470238052893
S214083FB06FD8DFE800F00B1F1F6E03074C483F4B17
S214083FC0984766E04B483D4B984762E04A483B4B6B
S214083FD098474A4B984700233370354A1370012296
S214083FE02270324A13700322324B1A704FF47A70DA
S214083FF0A8474EE04248314B98474248334B9847CB
S21408400041F28830404B984710B140482B4B9847B0
S2140840103F482E4B98473F4B98473AE03E4B9847C9
S214084020012803D10422234B1A7032E03B48234B65
S214084030984703221F4B1A702BE039481F4B9847A6
S214084040384B98470238032823D8DFE800F0020FD9
S2140840501317354B984735481C4B98470023134A87
S21408406013703370124A1370237012E03048174BDF
S21408407098470EE02F48154B98470AE02E48134BF2
S214084080984706E02D480D4B984702E02C480F4B02
S21408409098474FF49670A8471CE76420A84719E786
S2140840A07DAD0720612D08007EAD07207CAD07207A
S2140840B07FAD0720A5AE0720388C08009D5E080057
S2140840C0C51808002D110800448C0800955C0800E7
S2140840D0548C0800510B0800748C0800391108002D
S2140840E0FD190800888C0800988C0800251A080016
S2140840F0B08C0800C08C0800D48C08005D0B080043
S214084100E08C0800F08C080061070800108D080095
S2140841101C8D0800D11A08000D1B0800308D0800F9
S214084120488D0800351B0800690B08005C8D0800E0
S2140841306C8D0800808D0800908D0800108B080094
S214084140A08D0800F0B583B004460D460023019301
S2140841501F4B984207D11F461E4E38462946B04781
S2140841600028FAD119E01C4B984209D11F461B4E6D
S214084170384601A9B0470028FAD1019B2B7019E0F0
S214084180174B984209D11E46144C304601A9A04741
S2140841900028FAD1019B2B7018E0124B9C4209D1DB
S2140841A01E460E4C304601A9A0470028FAD1019BAE
S2140841B02B700BE00C4B9C4208D11E46074C304631
S2140841C001A9A0470028FAD1019B2B7003B0F0BDC7
S2140841D000080E40091F080000800940FD1C080062
S2140841E000C0094000000A4000400A4070B50C466E
S2140841F0214B984207D11E46204D30462146A847F7
S2140842000028FAD12BE01E4B984207D11E461D4DBA
S21408421030462146A8470028FAD122E01A4B984291
S21408422007D11E46174D30462146A8470028FAD122
S21408423019E0164B984207D11E46124D30462146C5
S214084240A8470028FAD110E0114B98420FD11E4615
S2140842500C4D30462146A8470028FAD109E001202F
S21408426070BD012070BD012070BD012070BD00200A
S21408427070BD012070BD00BF00080E40F91E080082
S21408428000800940E91C080000C0094000000A40F8
S21408429000400A40F0B583B02A4C2B4D2B4E2378AD
S2140842A0012B4BD13378002B48D1294B1B78002B98
S2140842B044D12848284B9847284B9847012811D1BD
S2140842C0002323703370264A13700127204B1F7073
S2140842D0244B1F702448254B9847254839461E4BC3
S2140842E0984721E0022812D10023237033701C4A15
S2140842F013700122164B1A7003221A4B1A701D48A7
S2140843001A4B98471A480221134B98470CE0032883
S2140843100AD1002323703370114A13700C4A1370A5
S214084320134803210C4B9847134B984702AB43F8A6
S214084330040D1846FA21114B9847B0E7C820A8473D
S214084340ADE700BF7CAD0720612D08007EAD0720D5
S2140843507DAD0720B88D0800955C0800C90E0800DA
S2140843607FAD0720A5AE0720E48D08009D5E0800F7
S214084370FC8D08000C8E0800892A0800D12C08003D
S21408438070B588B0524B9847524B98470820524D04
S214084390A847524C524B1C60524A534B1A60534A19
S2140843A0534B1A60534B05934FF4E13306934FF47F
S2140843B0006307930820A847204605A94E4B984750
S2140843C04E4E3368986800214D4CA04733685868AD
S2140843D00021A0474B484C4CA0474C48A0474C4BA4
S2140843E098474C4B98474C4C0D2021464FF080522E
S2140843F04A4B98470D2021464FF40002484B9847F1
S214084400484B98470026484B1E700B20A8470C20A0
S214084410A8470D20A8470E20A8474FF4000323619D
S214084420C4F8A0304FF080632361C4F8A0304FF082
S21408443000736361C4F8A0304FF080732361C4F83A
S214084440A030636301230093384B1B6801930296E0
S2140844500396374837494FF47A723346364CA047A6
S214084460012802D03548284B984701230093344B3F
S2140844701B680193002302930393324832494FF492
S2140844807A722D4CA047012802D030481E4B984718
S214084490012300932E4B1B6801930023029303937A
S2140844A02C482D494FF47A72234CA047012802D095
S2140844B02A48154B98470023294A1370294A13702F
S2140844C0294A13700122294B1A70294B9847FEE790
S2140844D00135080065350800113A080000080E4046
S2140844E094AE0720ED41080090AE0720454108002D
S2140844F08CAE072000BD0105C11E0800680607200F
S214084500AD5E0800248E0800955C0800348E08000E
S214084510211508005917080000120E4061140800FB
S214084520C11408009D130800A5AE07209CAE0720FE
S21408453095420800448E080009280800548E080092
S21408454098AE0720AD3C0800788E0800848E0800D8
S214084550A0AE0720C93E0800A88E0800B88E08003E
S2140845607CAD07207EAD07207FAD07207DAD0720F8
S214084570112A080000F058B82DE9F0478AB004461A
S2140845800D4600F049F9DFF898A006469AF900307B
S2140845900F4601330FD02046294600F0A9FB50B13C
S2140845A04FF000084FF0000942464B462046294681
S2140845B000F0F2FF20B9304639460AB0BDE8F08769
S2140845C016499AF8006001220023CDE90445CDE992
S2140845D0024501910092089366B9CDE906896846B6
S2140845E000F0AEFB80B1089B9BB9DDE906010AB076
S2140845F0BDE8F0874046494642464B4600F084FEF2
S214084600022ECDE90601EAD101F016FB212303604C
S214084610E9E701F011FB089B0360E6E7DC8E08007B
S21408462038020720000000002DE9F047C2F1000913
S21408463049EA020923F00048DFF8D4C148EAD979E4
S21408464082B0E14514461D46CDE900010F4647D81D
S214084650C0F1000A4AEA000A21F0004949EADA7A73
S214084660E2453DD803F1404C0CF5801C5CEA020C90
S2140846704CD04FEAA37A0AF0020A4AEAD17A59EAF3
S214084680000136D058EA04013AD06149884551D02D
S2140846905F49894534D0C8EB09084FEA2858B8F16D
S2140846A03C0F43DC002D70DBDDE9000100F02CFE3A
S2140846B000F01AFB00F070F9BAF1010F62D0BAF1F7
S2140846C0020F52D0BAF1000F10D03FA3D3E900234F
S2140846D000F03CFB3EA3D3E9002300F037FB05E0DF
S2140846E010461946DDE9002300F032FB02B0BDE8AB
S2140846F0F087BAF1030FC5D8DFE80AF00D0D1410DD
S214084700002F2EDB34A1D1E90001EFE702B0BDE8A7
S214084710F04700F041B9DDE90001E7E730A1D1E94B
S2140847200001E3E72AA1D1E90001DFE72AA1D1E9E0
S2140847300001C1E7C1452ED0BAF1030FA8D801A1E0
S21408474051F82AF05D470800554708002547080035
S2140847501D47080000204FF00041C7E70020002151
S214084760C4E721A1D1E90001C0E717A3D3E90023D4
S21408477000F0ECFA02460B4615A1D1E9000100F05C
S214084780E5FAB3E701F10041B0E718F13C0F8BDA20
S2140847900020002190E7BAF1030FB1D8DFE80AF04D
S2140847A006020E0A12A1D1E900019FE712A1D1E97B
S2140847B000019BE712A1D1E9000197E712A1D1E910
S2140847C0000193E7AFF30080075C143326A6A13CEC
S2140847D0182D4454FB210940182D4454FB21F93F59
S2140847E0182D4454FB2109C0182D4454FB21F9BF49
S2140847F0182D4454FB21E9BF182D4454FB21E93FEA
S214084800D221337F7CD902C0D221337F7CD90240A3
S2140848100000F07FAFF3008021F0004C2DE9F8434C
S2140848204FEA1C5CDFF86C814FEA0C5CC445064610
S2140848300F460B46024600F08F8000296FDD0F15E5
S21408484078D0A7F2FF37C3F31303F90743F48013AE
S21408485060D4D10F4FF0000C01EB43037F105200D9
S214084860654616204FF400116C189C424FEAD27623
S2140848704FEA420202DC1B1B65188C44013806EB23
S21408488043034FEA5101EFD1804620264FF00041FE
S21408489009E023D0D40F013E4FEA510104EB43034D
S2140848A04FEA42021ED0AB4201EB0804F1DD04F0E9
S2140848B00049B9F1004F04EB010809D0A9465B1B73
S2140848C0944288BF03F1FF33121B08444D46E1E7C4
S2140848D0B8F1000FF2DB05F10109F0E79442E6D9DA
S2140848E01D46D7E71A4304D0431C41D000F0010305
S2140848F0184446084FEA6C031CF0010F03F17F5377
S21408490003F5001318BF46F0004603EB0751304680
S214084910BDE8F883D10F01EB4303520099E721F075
S2140849200043034322D051BB0F46D30A153F520516
S214084930002BFAD013F480111DD15B00D80201F1C8
S2140849400101FAD5C1F10100C1F1200422FA04F4EC
S21408495007448A40234374E702460B4600F0AAFB46
S21408496032463B4600F0F4F9BDE8F883BDE8F88324
S2140849700CF1010CBEE7202401200021E6E70246E0
S2140849800B4600F0E3F902460B4600F0BDFCBDE816
S214084990F88300BF0000F07F2DE9F04FB64B21F0FA
S2140849A000469E4283B004460D4689460FDDB3494D
S2140849B08E4200F3B38000F0AE80B9F1000F40F3EA
S2140849C0EF8091A1D1E9000103B0BDE8F08FAC4BB0
S2140849D09E4200F3BD80A3F1DE739E4240F3A7809B
S2140849E04FF0FF3C22462B4620462946CDF804C009
S2140849F000F060FB02460B4682468B4600F05AFBE8
S214084A0083A3D3E9002306460F4600F053FB82A390
S214084A10D3E9002300F09CF932463B4600F04AFBF7
S214084A207FA3D3E9002300F093F932463B4600F013
S214084A3041FB7DA3D3E9002300F08AF932463B46C2
S214084A4000F038FB7AA3D3E9002300F081F9324658
S214084A503B4600F02FFB78A3D3E9002300F078F953
S214084A6052465B4600F026FB75A3D3E90023824630
S214084A708B463046394600F01DFB73A3D3E9002366
S214084A8000F064F932463B4600F014FB70A3D3E905
S214084A90002300F05BF932463B4600F00BFB6EA3A2
S214084AA0D3E9002300F052F932463B4600F002FBF9
S214084AB06BA3D3E9002300F049F932463B4600F0E1
S214084AC0F9FADDF804C00246BCF1FF3F0B466BD08E
S214084AD0504659464FEACC0600F03AF922462B468D
S214084AE000F0E8FA674F684B37441E44D6E90023BF
S214084AF000F02CF922462B4600F028F902460B4611
S214084B00D7E9000100F022F9B9F1000F0CDA01F13B
S214084B100045294608E000283FF44FAF20462946BE
S214084B2022462B4600F014F903B0BDE8F08F4EA3DA
S214084B30D3E9002300F00CF90022544B00F04AFD9C
S214084B4000283FF44DAF2046294603B0BDE8F08F55
S214084B5000F0CAF84E4B04469E420D4633DCA3F5D9
S214084B6050239E4200F3A58002460B4600F0F0F85C
S214084B700022464B00F0EAF8002206460F4620467A
S214084B8029464FF0804300F0E3F802460B463046CD
S214084B90394600F0B9FB4FF0000C04460D4621E7F5
S214084BA033A1D1E90001BFE75046594600F0D0F8D6
S214084BB022462B4600F07EFA02460B462046294639
S214084BC000F0C4F8B0E7334B9E4267DC0022324B55
S214084BD000F0BCF8002206460F46204629462E4B13
S214084BE000F068FA0022294B00F0B2F802460B469D
S214084BF03046394600F088FB4FF0020C04460D4656
S214084C00F0E600BFAFF30080182D4454FB21F93FAF
S214084C1011DA22E33AAD903FEB0D76244B7BA93FA1
S214084C20513DD0A0660DB13F6E204CC5CD45B73F6F
S214084C30FF8300922449C23F0D5555555555D53F1B
S214084C402F6C6A2C44B4A2BF9AFDDE522DDEAD3F0F
S214084C506D9A74AFF2B0B33F711623FEC671BC3FAF
S214084C60C4EB98999999C93F9C7500883CE4377EAF
S214084C70182D4454FB21F9BFFFFF0F440000F07FB6
S214084C80FFFFDB3F088F0800E88E08000000F03FB3
S214084C90FFFFF23FFF7F03400000F83F02460B4647
S214084CA000200F4900F030FB4FF0030C04460D4679
S214084CB098E600220B4B00F049F8002206460F46FD
S214084CC020462946074B00F043F802460B46304676
S214084CD0394600F019FB4FF0010C04460D4681E6F4
S214084CE00000F0BF0000F03F21F00041704700BF11
S214084CF031F0004310B408D00F4AA3F5801494424C
S214084D000AD804205DF8044B704700280CBF022020
S214084D1003205DF8044B7047B3F5801F01D20320CB
S214084D20F7E7064A934201D00020F2E7D0F10100E7
S214084D3038BF0020EDE700BFFFFFDF7F0000F07FF1
S214084D400020704781F0004102E000BF83F0004376
S214084D5030B54FEA41044FEA430594EA050F08BF09
S214084D6090EA020F1FBF54EA000C55EA020C7FEACD
S214084D70645C7FEA655C00F0E2804FEA5454D4EB4A
S214084D805555B8BF6D420CDD2C4480EA020281EA14
S214084D90030382EA000083EA010180EA020281EA4C
S214084DA00303362D88BF30BD11F0004F4FEA01319E
S214084DB04FF4801C4CEA113102D0404261EB4101AD
S214084DC013F0004F4FEA03334CEA133302D0524233
S214084DD063EB430394EA050F00F0A780A4F10104EF
S214084DE0D5F1200E0DDB02FA0EFC22FA05F2801829
S214084DF041F1000103FA0EF2801843FA05F359410F
S214084E000EE0A5F120050EF1200E012A03FA0EFC8D
S214084E1028BF4CF0020C43FA05F3C01851EBE371B7
S214084E2001F0004507D54FF0000EDCF1000C7EEBD4
S214084E3000006EEB0101B1F5801F1BD3B1F5001F12
S214084E400CD349085FEA30004FEA3C0C04F1010431
S214084E504FEA445212F5800F80F09A80BCF1004F5A
S214084E6008BF5FEA500C50F1000041EB045141EADC
S214084E70050130BD5FEA4C0C404141EB010111F4DD
S214084E80801FA4F10104E9D191F0000F04BF014688
S214084E900020B1FA81F308BF2033A3F10B03B3F166
S214084EA020020CDA0C3208DD02F1140CC2F10C02F6
S214084EB001FA0CF021FA02F10CE002F11402D8BF54
S214084EC0C2F1200C01FA02F120FA0CFCDCBF41EA20
S214084ED00C019040E41AA2BF01EB0451294330BDEF
S214084EE06FEA04041F3C1CDA0C340EDC04F11404CC
S214084EF0C4F1200220FA04F001FA02F340EA0300A3
S214084F0021FA04F345EA030130BDC4F10C04C4F1E8
S214084F10200220FA02F001FA04F340EA03002946C8
S214084F2030BD21FA04F0294630BD94F0000F83F412
S214084F30801306BF81F480110134013D4EE77FEAF5
S214084F40645C18BF7FEA655C29D094EA050F08BF41
S214084F5090EA020F05D054EA000C04BF1946104622
S214084F6030BD91EA030F1EBF0021002030BD5FEA66
S214084F70545C05D14000494128BF41F0004130BD8E
S214084F8014F580043CBF01F5801130BD01F00045E2
S214084F9045F0FE4141F470014FF0000030BD7FEA55
S214084FA0645C1ABF194610467FEA655C1CBF0B4650
S214084FB0024650EA013406BF52EA033591EA030F67
S214084FC041F4002130BD00BF90F0000F04BF00215F
S214084FD0704730B54FF4806404F132044FF0000592
S214084FE04FF0000150E700BF90F0000F04BF00210B
S214084FF0704730B54FF4806404F1320410F0004571
S21408500048BF40424FF000013EE700BF42004FEA6B
S214085010E2014FEA31014FEA02701FBF12F07F43E8
S21408502093F07F4F81F06051704792F0000F14BFE5
S21408503093F07F4F704730B54FF4607401F0004529
S21408504021F0004120E700BF50EA010208BF704780
S21408505030B54FF000050AE050EA010208BF704775
S21408506030B511F0004502D5404261EB41014FF4DE
S214085070806404F132045FEA915C3FF4DCAE4FF0E2
S21408508003025FEADC0C18BF03325FEADC0C18BFC9
S214085090033202EBDC02C2F1200300FA03FC20FA1A
S2140850A002F001FA03FE40EA0E0021FA02F1144467
S2140850B0C1E600BF70B54FF0FF0C4CF4E06C1CEA7C
S2140850C011541DBF1CEA135594EA0C0F95EA0C0FF1
S2140850D000F0DEF82C4481EA030621EA4C5123EA64
S2140850E04C5350EA013518BF52EA033541F4801193
S2140850F043F4801338D0A0FB02CE4FF00005E1FB46
S21408510002E506F00042E0FB03E54FF00006E1FB8F
S21408511003569CF0000F18BF4EF0010EA4F1FF04D2
S214085120B6F5007F64F5407404D25FEA4E0E6D4112
S21408513046EB060642EAC62141EA55514FEAC52023
S21408514040EA5E504FEACE2EB4F1FD0C88BFBCF59F
S214085150E06F1ED8BEF1004F08BF5FEA500E50F150
S214085160000041EB045170BD06F0004646EA010116
S21408517040EA020081EA0301B4EB5C04C2BFD4EB48
S2140851800C0541EA045170BD41F480114FF0000E41
S214085190013C00F3AB8014F1360FDEBF002001F0AF
S2140851A0004170BDC4F10004203C35DA0C341BDC29
S2140851B004F11404C4F1200500FA05F320FA04F0FB
S2140851C001FA05F240EA020001F0004221F000412F
S2140851D010EBD37021FA04F642EB06015EEA430EA2
S2140851E008BF20EAD37070BDC4F10C04C4F12005D2
S2140851F000FA04F320FA05F001FA04F240EA020085
S21408520001F0004110EBD37041F100015EEA430E55
S21408521008BF20EAD37070BDC4F1200500FA05F275
S2140852204EEA020E20FA04F301FA05F243EA0203F4
S21408523021FA04F001F0004121FA04F220EA020003
S21408524000EBD3705EEA430E08BF20EAD37070BD49
S21408525094F0000F0FD101F00046400041EB010129
S21408526011F4801F08BF013CF7D041EA060195F00B
S214085270000F18BF704703F00046520043EB0303C5
S21408528013F4801F08BF013DF7D043EA06037047B2
S21408529094EA0C0F0CEA135518BF95EA0C0F0CD0BD
S2140852A050EA410618BF52EA4306D1D181EA030103
S2140852B001F000414FF0000070BD50EA410606BFFD
S2140852C01046194652EA430619D094EA0C0F02D142
S2140852D050EA013613D195EA0C0F05D152EA033687
S2140852E01CBF104619460AD181EA030101F00041A5
S2140852F041F0FE4141F470014FF0000070BD41F0EE
S214085300FE4141F4780170BD70B54FF0FF0C4CF4C7
S214085310E06C1CEA11541DBF1CEA135594EA0C0FE6
S21408532095EA0C0F00F0A7F8A4EB050481EA030E33
S21408533052EA03354FEA013100F088804FEA03331A
S2140853404FF0805545EA131343EA12634FEA0222E8
S21408535045EA111545EA10654FEA00260EF00041A9
S2140853609D4208BF964244F1FD0404F5407402D2FB
S2140853705B084FEA3202B61A65EB03055B084FEA8C
S21408538032024FF480104FF4002CB6EB020E75EB89
S214085390030E22BFB61A754640EA0C005B084FEAB1
S2140853A03202B6EB020E75EB030E22BFB61A75462E
S2140853B040EA5C005B084FEA3202B6EB020E75EB79
S2140853C0030E22BFB61A754640EA9C005B084FEAF1
S2140853D03202B6EB020E75EB030E22BFB61A7546FE
S2140853E040EADC0055EA060E18D04FEA051545EAED
S2140853F016754FEA06164FEAC30343EA52734FEA96
S214085400C2025FEA1C1CC0D111F4801F0BD141EA0E
S21408541000014FF000004FF0004CB6E711F4801F73
S21408542004BF01430020B4F1FD0C88BFBCF5E06F53
S2140854303FF6AFAEB5EB030C04BFB6EB020C5FEA63
S214085440500C50F1000041EB045170BD0EF0004EB8
S2140854504EEA113114EB5C04C2BFD4EB0C0541EAEA
S214085460045170BD41F480114FF0000E013C90E6E7
S21408547045EA060E8DE60CEA135594EA0C0F08BFAB
S21408548095EA0C0F3FF43BAF94EA0C0F0AD150EAAA
S21408549001347FF434AF95EA0C0F7FF425AF10463D
S2140854A019462CE795EA0C0F06D152EA03353FF465
S2140854B0FDAE1046194622E750EA410618BF52EAE2
S2140854C043067FF4C5AE50EA41047FF40DAF52EAB6
S2140854D043057FF4EBAE12E74FF0FF3C06E000BF53
S2140854E04FF0010C02E000BF4FF0010C4DF804CD60
S2140854F04FEA410C7FEA6C5C4FEA430C18BF7FEA20
S2140855006C5C1BD001B050EA410C0CBF52EA430C4D
S21408551091EA030F02BF90EA020F0020704710F1CD
S214085520000F91EA030F58BF994208BF90422CBF5C
S214085530D8176FEAE37040F0010070474FEA410C55
S2140855407FEA6C5C02D150EA013C07D14FEA430C73
S2140855507FEA6C5CD6D152EA033CD3D05DF8040BE4
S214085560704700BF8446104662468C461946634616
S21408557000E000BF01B5FFF7B7FF002848BF10F1ED
S214085580000F01BD4DF808EDFFF7F4FF0CBF012032
S21408559000205DF808FB00BF4DF808EDFFF7EAFFAE
S2140855A034BF012000205DF808FB00BF4DF808ED69
S2140855B0FFF7E0FF94BF012000205DF808FB00BF5E
S2140855C04DF808EDFFF7CEFF94BF012000205DF8E8
S2140855D008FB00BF4DF808EDFFF7C4FF34BF0120F5
S2140855E000205DF808FB00BF4FEA410212F50012E2
S2140855F015D211D56FF47873B3EB625212D94FEA0D
S214085600C12343F0004343EA505311F0004F23FAF6
S21408561002F018BF404270474FF00000704750EA4B
S214085620013005D111F0004008BF6FF00040704708
S2140856304FF00000704700BF4A0011D212F5001262
S21408564011D20DD56FF47873B3EB62520ED44FEACD
S214085650C12343F0004343EA505323FA02F070474D
S2140856604FF00000704750EA013002D14FF0FF308B
S21408567070474FF0000070474BB942B9002908BF81
S214085680002802D04FF0FF31084600F03BB882B041
S214085690EC462DE9005000F01DF8DDF804E002B0F5
S2140856A00CBC70472DE9704F089E14461D46804670
S2140856B0894600F029F804FB01F3A4FB00AB00FBC5
S2140856C005329344B8EB0A0869EB0B09C6E900896A
S2140856D0BDE8708F2DE9704F089E14461D4680461B
S2140856E0894600F061F900FB05F5A0FB04AB04FB56
S2140856F00154A344B8EB0A0869EB0B09C6E900890C
S214085700BDE8708F704700BF00292DE9F00FC0F282
S214085710A1800024002BC0F29880154606460F4646
S214085720002B3FD18A4258D9B2FA82F34BB1C3F163
S214085730200201FA03F720FA02F29D4000FA03F667
S2140857401743290CB7FBF1F201FB1277A8B200FB4E
S21408575002F34FEA164C4CEA0747BB4209D97F19B1
S21408576002F1FF3C80F00581BB4240F20281023A1A
S2140857702F44FF1AB7FBF1F301FB137100FB03F08C
S214085780B6B246EA0141884208D9491903F1FF37FB
S21408579080F0F180884240F2EE80023B43EA024203
S2140857A0002303E08B420AD900231A4610461946FE
S2140857B014B1404261EB4101BDE8F00F7047B3FAFF
S2140857C083F8B8F1000F40F088808B4202D38242FB
S2140857D000F2E28000230122E8E712B90123B3FBB6
S2140857E0F2F5B5FA85F2002A3AD17F1B280C1FFA83
S2140857F085FC0123B7FBF0F100FB11770CFB01F2E7
S2140858004FEA164848EA0747BA4207D97F1901F10E
S214085810FF3802D2BA4200F2C4804146BF1AB7FB2C
S214085820F0F200FB12700CFB02FCB6B246EA00402F
S214085830844507D9401902F1FF3702D2844500F2A1
S214085840AE803A4642EA0142B0E7E443524263EB8E
S214085850430362E7404261EB41014FF0FF3459E7EA
S2140858609540C2F1200927FA09F126FA09F9974066
S214085870280CB1FBF0F800FB18111FFA85FC0CFB8E
S21408588008F349EA07094FEA194747EA01418B42F4
S21408589006FA02F608D9491908F1FF327AD28B427D
S2140858A078D9A8F102082944C91AB1FBF0F300FB1D
S2140858B013170CFB03F21FFA89F949EA0747BA429D
S2140858C007D97F1903F1FF3160D2BA425ED9023B8D
