S016000050726F6A6563744C617361726F732E7372656362
S21408000000CD0720352608003126080031260800CE
S21408001031260800312608003126080000000000B6
S214080020000000000000000000000000B90C0800F6
S2140800303126080000000000350D0800710D080084
S2140800403126080031260800312608003126080027
S2140800503126080031260800312608003126080017
S214080060312608003126080000000000A1240800F8
S214080070B5240800C9240800DD2408000000000094
S214080080000000000D0A0800312608003126080086
S21408009031260800312608003126080031260800D7
S2140800A03126080000000000312608005D08080018
S2140800B029080800312608003126080031260800DD
S2140800C031260800312608003126080031260800A7
S2140800D03126080031260800312608003126080097
S2140800E03126080031260800312608003126080087
S2140800F03126080010B5054C237833B9044B13B1E4
S2140801000448AFF300800123237010BD000A0720BF
S214080110000000008C66080008B5064B1BB10648B0
S2140801200649AFF300800648036813B1054B03B1D0
S214080130984708BD000000008C660800040A0720DF
S2140801408C660800000000000F4B994219D8490039
S214080150B2FBF1F2043AFF2A07D90023013352080A
S214080160FF2A03D9072BF9D100E00023110289B230
S2140801701B0403F4E0230B43D2B21A4302610020A7
S21408018070470120704700BF801A060038B504463D
S2140801900D464FF0FF338362036A80230360036BC8
S2140801A008230360202303600423036049682A6841
S2140801B0054B9847012814BF002001206B7A012BB5
S2140801C004BF4023236038BD490108002DE9F00329
S2140801D00446CB688E68002B49D0002242604868E7
S2140801E0000200F4407040F480500D7C2D0405F4A5
S2140801F0FE0528436060E2604A685AB10878012A1A
S214080200C4BF4D7845EA0020022A04DD8A7842EA0F
S214080210002000E00020E060012B04D103222260C9
S2140802204FF0010C2BE0012222604FF0000C26E074
S214080230216A11F4807F1CD1551EE2B12A46012B93
S21408024005D1BCF1000F02D1C4F80090C44611F0E5
S214080250020F04D0226B3270013B01363A46002B5F
S214080260E6D1236A13F0010FFBD0236A14E00120BD
S21408027012E0052010E009200EE005200CE0216AB7
S21408028011F48070F9D143F697224FF002094FF027
S214080290010843F69827D2E7BDE8F003704700BF89
S2140802A070B40346CA688868002A3FD000245C6099
S2140802B00E7C360406F4FE064D682D0205F44075DD
S2140802C035435D60DC604C685CB10D78012CC4BFBA
S2140802D04E7846EA0525022C04DD897841EA05258C
S2140802E000E00025DD600BE0196A11F4807F1FD15D
S2140802F011F0040FF8D010F8011B5963013A07D023
S214080300196A11F4807F15D111F0040FF3D1EBE7C9
S2140803101A6A12F480700FD112F0040FF8D0022275
S2140803201A601A6A12F0010FFBD006E0012004E0FA
S214080330052002E0052000E0052070BC704700BFDD
S21408034000B587B0002306AA02F8153D03920122DD
S21408035004928DF814108DF80430029301A9024B0C
S214080360984707B05DF804FBA102080000B585B001
S21408037000230B4A537102220A490A600A4902916D
S2140803808DF80C20094A01928DF80D301720084B7D
S2140803909847084801A9084B984705B05DF804FB3C
S2140803A0CCAC0720C8AC0720A086010000BD01051C
S2140803B0D9250800000009408D01080030B587B02F
S2140803C00023019302930593039004910A4B19782E
S2140803D08DF8141009480A4B984738B9074D094C48
S2140803E0284601A9A0470028FAD101E0002000E02D
S2140803F0012007B030BD00BFC8AC07200000094088
S21408040041030800A102080030B587B00023019315
S2140804100293059303900491064B1B688DF81430DD
S214080420054D064C284601A9A0470028FAD1012008
S21408043007B030BDC8AC072000000940CD01080051
S21408044008B50238232837D8DFE800F0161A1E3613
S214080450363636363636363636363636363636362F
S21408046036363636363636363636122A222E26327F
S2140804701348144B984708BD1348124B984708BDB5
S2140804801248104B984708BD11480E4B984708BDB0
S21408049010480C4B984708BD0F480A4B984708BDAC
S2140804A00E48084B984708BD0D48064B984708BDA8
S2140804B00C48044B984708BD0B48024B984708BDA4
S2140804C004600800A93508001860080034600800B1
S2140804D0506008007060080088600800A060080087
S2140804E0B8600800D0600800E060080010B582B068
S2140804F0044600238DF80630ADF800308DF802303B
S21408050020238DF8043002238DF8053001A8032136
S214080510384B9847F0B168460321374B9847374B16
S2140805209DF801201A709DF802205A7001225A710F
S21408053020238DF8043003218DF8051000238DF84C
S21408054000308DF801308DF8023001A8294B984705
S21408055058B927E02A482B4B9847284B00225A714F
S214080560186820609B88A38040E068460321224BD9
S2140805709847224B9DF801209A709DF80220DA7061
S21408058001225A7104238DF8053000238DF80030B7
S2140805908DF801308DF8023001A80321154B9847D5
S2140805A0D0B10AE01848174B9847144B00225A71E6
S2140805B0186820609B88A38018E0684603210E4BC5
S2140805C098470E4B9DF801201A7101225A71186837
S2140805D020609B88A38009E00C480A4B9847074B85
S2140805E000225A71186820609B88A380204602B0B3
S2140805F010BD00BFBD03080009040800CCAC0720E6
S214080600E8600800B1370800F460080000610800D8
S21408061000B583B022238DF8043000238DF805300A
S2140806208DF8063001A80321024B984703B05DF801
S21408063004FB00BFBD03080000B583B024238DF873
S214080640043000238DF805308DF80630ADF80030FC
S2140806508DF8023001A80321164B984718B3684650
S2140806600321154B98479DF80030242B0CD19DF894
S2140806700100C31EDBB2012B19D8104B18709DF869
S21408068002200F4B1A7012E00E480F4B98479DF841
S21408069000200E4811460E4B98479DF800000D4B5B
S2140806A09847062003E00C48074B9847062003B0F7
S2140806B05DF804FBBD03080009040800380107209C
S2140806C01C0A07200C610800B137080020610800E2
S2140806D0A9350800410408002C61080000B583B05D
S2140806E00A4B1A889B78ADF804208DF8063001A8C6
S2140806F00321074B9847034618B10522054B1A7085
S2140807000123184603B05DF804FB00BF006008002C
S214080710BD0308003801072000B583B021238DF8F3
S214080720043000238DF805308DF8063001A8032123
S214080730024B984703B05DF804FB00BFBD030800F2
S21408074000B583B023238DF8043000238DF80530D8
S2140807508DF80630ADF800308DF8023001A8032178
S214080760114B9847C8B168460321104B98479DF827
S2140807700030232B02D19DF8010012E00C480D4BE7
S21408078098479DF800200C4811460C4B98479DF852
S21408079000000B4B9847042003E00A48054B98478F
S2140807A0042003B05DF804FBBD0308000904080034
S2140807B00C610800B137080020610800A935080058
S2140807C0410408002C610800114B124A1360124AB3
S2140807D0116821F0020141F001011160E432136052
S2140807E00E4B1B6813F0006F03D14FF000620C4BE2
S2140807F01A600C4A136803F0113323F001031360E0
S214080800054B1A6822F0020242F005021A60704789
S21408081000011000E4060E400000084018060E40CE
S21408082010060E400400084010B5094C20686168A0
S214080830084B9847237B59B2490903F01F03012246
S21408084002FA03F32031044A42F8213010BD00BFF3
S2140808503C010720850B080000E100E010B5094CB4
S214080860606AA16A084B984794F8303059B249092B
S21408087003F01F03012202FA03F32031034A42F869
S214080880213010BD3C010720850B080000E100E080
S21408089038B5224B1B7813B32148224B9847224B76
S2140808A01B6863B1214A136801331360204A13603A
S2140808B0022B07DD03221D4B1A60022038BD0322D7
S2140808C01B4B1A600022154B1A70194D19482968D7
S2140808D0194CA04719482968A047012038BD184B6D
S2140808E01B78C3B117480F4B98470F4B1B682BB99B
S2140808F00E4A1368013313600D4A13600022104B2A
S2140809001A700B4D0B4829680B4CA0470B482968F2
S214080910A047022038BD012038BD00BF240A0720A2
S21408092088610800B1370800280A07202C0A072023
S214080930200A072098610800A9350800A861080061
S2140809401D0A0720B861080010B50446034821466A
S214080950034B9847034B1C6010BD00BFC8610800D6
S214080960A9350800280A072008B50348034B984706
S2140809700122034B1A7008BDD8610800B137080079
S214080980240A072008B50348034B98470122034B5F
S2140809901A7008BDE8610800B13708001D0A07206C
S2140809A02DE9F0410C46904660B9002A0EDD8F18F6
S2140809B0094E0A4D306821462B6898470134BC42D8
S2140809C0F8D106E04FF0FF30BDE8F0810020BDE822
S2140809D0F0814046BDE8F081DCAC0720D4AC0720A7
S2140809E0436913F0020F1DBFC1F30801C16100205F
S2140809F001207047436913F0010F05D08369C3F3DC
S214080A0008030B60002070470120704700B583B0CC
S214080A1011480DF107010122104B984772B6BFF333
S214080A205F8F00220E4B1A700E4B1B789DF807102E
S214080A300D4AD1549B2B03D100220A4B1A7002E0B0
S214080A400133084A13700122054B1A70BFF35F8FF3
S214080A5062B603B05DF804FB00800940C10A0800CE
S214080A6090010720D40A0720380A07202DE9F0410C
S214080A700E461546013802280FD892B10024DFF832
S214080A803C800D4FD8F80000315D3B689847002839
S214080A900ADB0134A542F5D10AE04FF0FF30BDE885
S214080AA0F0810020BDE8F0814FF0FF30BDE8F0810E
S214080AB02046BDE8F08100BFD8AC0720DCAC072094
S214080AC02DE9F04F83B005469046002A47D04E1CC5
S214080AD0254F264CDFF8A8A0DFF894B006F1FF39BA
S214080AE000230193224B9D4206D158464946214B86
S214080AF098470028F9D119E01F4B9D4209D199461D
S214080B00484601A9A0470028FAD1019B06F8013CEF
S214080B1017E01A4B9D4209D19946484601A9A047B5
S214080B200028FAD1019B06F8013C14E0554508D187
S214080B30504601A9A0470028FAD1019B06F8013CB7
S214080B4009E0BD4207D1384601A9A0470028FAD1D6
S214080B50019B06F8013C0136B8F10108BED1002019
S214080B6003B0BDE8F08F00BF00400A40F509080052
S214080B7000080E40D50B08000080094000C0094058
S214080B8000000A4000EB8111086A704710B4AC23D5
S214080B9003600A684B68B2FBF3F31B095C1E4FF64A
S214080BA0FE7294420AD803628B68436040F20223BE
S214080BB0C0F8203150230360002000E001205DF8D3
S214080BC0044B7047436913F0020F1ABFC161002037
S214080BD001207047436913F0010F1DBF83690B702E
S214080BE000200120704700BF00F1080343604FF063
S214080BF0FF328260C360036100230360704700BF52
S214080C0000230361704700BF43685A684A60426819
S214080C108A605A68916059604160086103680133C8
S214080C200360704710B40C68B4F1FF3F01D1036944
S214080C300AE000F10803C2681268944204D35B68AD
S214080C405A6812689442FAD25A684A6091608B6071
S214080C50596008610368013303605DF8044B704708
S214080C60436882689A60836842685A6003695A686B
S214080C70824204BF82685A60002202611A68013AFA
S214080C801A601868704700BF03480068006880F359
S214080C90088862B600DF00BF08ED00E04FF08073FA
S214080CA040F8043C40F8081C002340F80C3C40F888
S214080CB0202C4038704700BF064B19680868B0E813
S214080CC0F00F80F309884FF0000080F311884EF08B
S214080CD00D0E70479CAB07204FF08052014B1A60F0
S214080CE0704700BF04ED00E0EFF311804FF0A0015D
S214080CF081F311887047002008B5034B9847034BCB
S214080D001A6801321A6008BDE90C08008401072039
S214080D1080F31188704700BF08B5044A1368013B82
S214080D20136013B90020024B984708BD84010720BA
S214080D30110D0800EFF309800C4B1A6820E9F00F34
S214080D4010602DE908404FF0A00080F3118800F0ED
S214080D508BFE4FF0000080F31188BDE80840196844
S214080D600868B0E8F00F80F3098870479CAB072046
S214080D7008B54FF08052054B1A60054B9847054B4F
S214080D8098470020044B984708BD00BF04ED00E0D4
S214080D90E90C080075170800110D0800034A044BF3
S214080DA01A600722043B1A60704700BF1F480100FC
S214080DB014E000E010B5094B1A6842F470021A6095
S214080DC01A6842F070421A60054B98470024054B93
S214080DD01C60054B9847204610BD00BF20ED00E07C
S214080DE09D0D080084010720890C080030B4134ABA
S214080DF01368834201D21A46FAE711465468151951
S214080E00854203D1686804445460104642688418D2
S214080E10A3420CD10A4C24689C4206D05B681A444C
S214080E2042600B681B68036002E0036000E0036032
S214080E30814218BF086030BC704700BFDCAA072094
S214080E40D8AA072038B50446284B9847284B1B686D
S214080E509BB9284A284B13600021516049F6F07266
S214080E609818234D286049F6F475595199505A60D8
S214080E701860224B1A68103A1A60002C2DD004F11C
S214080E80100212F0070F1CBF22F007020832511E8C
S214080E9049F6FE73994222D816490C6863689A4246
S214080EA004D9236813B121461C46F7E7104B1B6884
S214080EB09C4216D00D68103523680B6063689B1A31
S214080EC0202B04D9A018436062600D4B98470B4B43
S214080ED01A686168521A1A6004E0002502E00025C4
S214080EE000E00025074B9847284638BD45170800F8
S214080EF0D8AA0720DCAA0720D80A072088010720D6
S214080F00ED0D08009518080010B5044668B1074BA3
S214080F109847074B196854F80C2C0A441A60A4F131
S214080F201000044B9847044B984710BD4517080017
S214080F3088010720ED0D08009518080010B504462E
S214080F40036C3BB903681BBB4068134B98470023E8
S214080F5063601DE06AB980681A46104B9847A26815
S214080F60236C1344A3606268934211D32368A3607A
S214080F700EE0C0681A46094B9847226C5242E3684E
S214080F801344E36021688B4202D263681A44E26025
S214080F90A36B0133A36310BD811D0800D13508007B
S214080FA038B5034605685DB1026CC4681444C4606D
S214080FB04068844228BFDD600846D968014B9847D8
S214080FC038BD00BFD1350800F8B504461D4B984714
S214080FD0A36C002B12DD636A83B104F124061A4D54
S214080FE01A4F01E0636A4BB13046A84700B1B847CC
S214080FF0A36C013BA364A36C002BF3DC4FF0FF3318
S214081000A364134B98470F4B9847636C002B12DD6D
S214081010236983B104F110060B4D0C4F01E02369D8
S2140810204BB13046A84700B1B847636C013B6364D0
S214081030636C002BF3DC4FF0FF336364044B984774
S214081040F8BD00BFF90C08009D1B0800CD1C080061
S214081050190D080038B50D46044618B9164B9847BA
S21408106000BFFDE7154B98472368226CE06B00FB32
S21408107002F0191861600021A163A360821A134464
S214081080E3604FF0FF336364A36455B923697BB10B
S21408109004F110000A4B9847012809D1094B9847D4
S2140810A006E004F11000084DA84704F12400A847FC
S2140810B0064B9847012038BDE90C0800F90C0800D3
S2140810C09D1B0800D90C0800E90B0800190D08003C
S2140810D0F8B50D461746064688B150200E4B984779
S2140810E0044660B105FB06F001300B4B98472060BC
S2140810F040B92046094B984701E000BFFDE7084B7A
S2140811009847FAE7E663256420460121054B984789
S21408111084F84D702046F8BD450E0800090F0800F3
S214081120E90C0800551008002DE9F04F85B08A46EE
S21408113001929B46044618B9364B984700BFFDE710
S21408114009B9036C1BB90027334E344D03E0314B05
S214081150984700BFFDE7B047A26BE36B9A4212D2EE
S214081160204651465A462E4B9847636A3BB104F1CF
S21408117024002C4B9847012801D12B4B9847274B26
S2140811809847012043E0019B1BB9244B9847002051
S2140811903DE01FB902A8254B98470127A847244BCE
S2140811A09847B047636CB3F1FF3F04BF00236364FE
S2140811B0A36CB3F1FF3F04BF0023A364A84702A8AB
S2140811C001A91C4B9847E0B9B047D4F83890D4F832
S2140811D03C80A847C1450ED104F110000199164B72
S2140811E098472046154B9847154B98470028B2D184
S2140811F00D4B9847AFE72046104B9847104B98473B
S214081200A9E720460D4B98470D4B9847002005B098
S214081210BDE8F08FE90C0800F90C0800190D080065
S2140812203D0F08009D1B0800D90C0800211C08006B
S21408123045170800491C0800F91A0800C90F0800D5
S214081240951808002DE9F0410E46154698460446BE
S21408125018B91C4B984700BFFDE729B9036C1BB1AA
S214081260184B984700BFFDE7164B98470746A26BF2
S214081270E36B9A4218D2204631464246124B9847AC
S214081280A36CB3F1FF3F0AD1636A7BB104F1240073
S2140812900E4B984760B16DB101242C600BE0A36C2F
S2140812A00133A364012406E0002404E0012402E0DC
S2140812B0012400E001243846054B98472046BDE83F
S2140812C0F08100BFE90C08003D0F08009D1B0800D0
S2140812D0110D08002DE9F04F85B0894601929A460F
S2140812E0044618B9444B984700BFFDE709B9036C94
S2140812F02BB90027414EDFF834B1414D03E03E4B91
S214081300984700BFFDE7B047A36B002B28D0E568D9
S214081310204649463B4B9847BAF1000F12D1A36BBB
S214081320013BA363236813B9374B9847606023696A
S21408133093B104F11000354B984701280CD1344B73
S214081340984709E0E560636A33B104F124002F4B3F
S214081350984708B12E4B9847294B9847012048E0F4
S214081360019B1BB9264B9847002042E017B902A8F4
S214081370D8470127A847274B9847B047636CB3F16F
S214081380FF3F04BF00236364A36CB3F1FF3F04BFB1
S2140813900023A364A84702A801A91F4B984710BBBF
S2140813A0B047D4F83880A847B8F1000F15D123689D
S2140813B023B9B0476068194B9847A84704F124003A
S2140813C00199174B98472046164B9847164B98474F
S2140813D0002898D10E4B984795E72046114B98471A
S2140813E0114B98478FE720460E4B98470E4B984769
S2140813F0002005B0BDE8F08FE90C0800F90C0800DD
S214081400190D0800A10F0800D91C08009D1B08002C
S214081410D90C080045170800491C0800051D0800D7
S214081420F91A0800C90F080095180800211C0800BA
S21408143038B504460D460D4B9847636CB3F1FF3F2D
S21408144004BF00236364A36CB3F1FF3F04BF00230B
S214081450A364074B9847A36B23B904F124002946D5
S214081460044B98472046044B984738BDF90C0800AB
S214081470190D0800591B0800C90F080010B50446C6
S2140814800E4B1B6858600E4B1B68984207D20D4BD4
S21408149018680A4B196804310B4B984710BD0B4B5C
S2140814A01868064B19680431074B9847084B1B68A1
S2140814B09C423CBF064B1C6010BD00BF9CAB07207F
S2140814C0B8AB0720BCAB0720250C0800FCAA0720F1
S2140814D08C0107202DE9F84F0E4617469A460A9DB6
S2140814E0DDF83080814618B9624B984700BFFDE7A3
S2140814F0042D03D95F4B984700BFFDE74C205E4B91
S21408150098470446002800F0B180B8F1000F40F074
S214081510A980B800584B9847206318B92046574BFF
S2140815209847A3E0A521BA00554B984707F180478E
S214081530013F236B03EB870323F0070B04F134000A
S21408154031460A224F4B9847002384F83D30042D35
S21408155034BF2E460426E662A664271D3846DFF802
S2140815607081C04704F11800C0472461C6F105061B
S214081570A6616462584649465246434B98472060DF
S21408158010F0070F03D03B4B984700BFFDE70B9BB7
S21408159003B11C603D4B98473D4B1A6801321A60F0
S2140815A03C4B1B682BBB3B4B1C60394B1B68012B09
S2140815B029D1394E06F16409DFF8E0803046C04785
S2140815C014364E45FAD1DFF80C914846334EB047EC
S2140815D0DFF804814046B0473148B0473148B04745
S2140815E03148B047314BC3F80090314BC3F8008000
S2140815F009E0304B1B6833B9264B1B68DB6A9D42F3
S21408160024BF244B1C60E36A2B4A1268934284BFAB
S214081610294A1360294A1168216401311160284A51
S2140816201268934284BF264A136003EB83031A4862
S21408163000EB83003946234B9847234B98471D4BAE
S2140816401B684BB1134B1B68DB6A9D4207D91F4BBF
S21408165098470120BDE8F88F0120BDE8F88F0120E3
S214081660BDE8F88FC0F8308040465BE74FF0FF30A3
S214081670BDE8F88FE90C0800450E0800090F0800B9
S214081680BD360800313908009D0C0800F90C080022
S214081690DCAB07209CAB072034AB0720E90B08001F
S2140816A0A0AB072008AB0720E8AA0720FCAA07205B
S2140816B0BCAB072000AB0720E0AB0720C0AB072079
S2140816C030AB0720090C0800190D0800D90C0800D3
S2140816D0010C0800C4AB07201CAB072010B584B06B
S2140816E0002300930193029303930E480E49822227
S2140816F00E4CA04701280ED10D4B984701280AD159
S2140817000C4B984701220C4B1A6000220B4B1A60B0
S2140817100B4B984704E018B9064B984700BFFDE7FF
S21408172004B010BDE519080030620800D51408009A
S214081730791E0800E90C080000AB0720B8AB0720A4
S214081740B50D0800024B1A6801321A60704700BFD0
S21408175098AB072010B5044B9847044B1C68044BFD
S2140817609847204610BD00BFF90C0800B8AB072004
S214081770190D08002DE9F0413A4B1B68002B6BD178
S214081780394B1A6801321A601B6803BB374B1B6853
S2140817901B681BB1364B984700BFFDE7334B1968EB
S2140817A0344A106818601160334A116801311160B4
S2140817B01B681B6823B94FF0FF32304B1A6006E0EF
S2140817C02A4B1B68DB68DB685A682C4B1A60264B6A
S2140817D01A682A4B1B689A4242D3244B1B681B681C
S2140817E04BB1224B1B68DB68DC6863681E4A1268CC
S2140817F0934213D90EE04FF0FF32204B1A60BDE833
S214081800F0811A4B1B68DB68DC686368164A126846
S214081810934207D9194A1360BDE8F081184E194F4C
S214081820DFF86C80251D2846B047A36A13B104F17B
S2140818301800B047E36A3A68934288BF3B6003EBF8
S214081840830008EB800029460F4B9847074B1B6818
S2140818501B68002BD5D1CEE70C4B1A6801321A60EC
S214081860BDE8F08198AB0720B8AB0720FCAA072094
S214081870E90C0800BCAB0720B4AB07208C01072096
S214081880610C080030AB0720090C0800E4AA072002
S21408189034AB07202DE9F843314B1B681BB9314B95
S2140818A0984700BFFDE7304B98472D4B1A68013A1A
S2140818B01A601B68002B48D12C4B1B68002B46D09F
S2140818C00025DFF8D4802A4F2A4E1DE0D8F80C30C1
S2140818D0DC6804F11800B84704F104094846B8471C
S2140818E0E36A3268934288BF336003EB8303224877
S2140818F000EB83004946214B9847214B1B68E26A58
S214081900DB6A9A4228BF0125D8F80030002BDDD1C3
S2140819101C4B1B6863B11B4B1B687BB11A4D194CDB
S214081920A8472368013B23602368002BF8D105E00D
S214081930012D03D0154B1B68012B0AD10022134B2F
S2140819401A60134B9847012404E0002402E00024A0
S21408195000E000240F4B98472046BDE8F88300BFF8
S21408196098AB0720E90C0800F90C0800DCAB072048
S214081970610C080030AB072034AB0720090C0800C0
S2140819809CAB0720E4AA072075170800D8AB0720E9
S214081990D90C0800190D0800A0AB072010B504469E
S2140819A078B1094B9847094B1B681C44084B1868C4
S2140819B00430084B98472046074B9847074B9847EC
S2140819C008B9074B984710BD45170800B8AB07205D
S2140819D09CAB0720610C08007D14080095180800C9
S2140819E0D90C080080B5154D154EDFF878801CE038
S2140819F0144B9847144B1C68144B9847ACB1144BBF
S214081A009847114BDB68DC68201D124B9847124B31
S214081A101A68013A1A602B68013B2B600F4B9847EF
S214081A20206B0F4FB8472046B8472B68002BDFD1EE
S214081A303368012BF9D9C047F7E700BF04AB072086
S214081A4034AB07204517080008AB07209518080090
S214081A50F90C0800610C0800DCAB0720190D08001B
S214081A60090F0800D90C080008B51D4B1B685BB9A0
S214081A701C4B1B6803EB83039B001B4AD358CBB94C
S214081A80184B1B6853B905E00122184B1A6008BDAD
S214081A901A682AB9164B984700BFFDE7114B12493A
S214081AA01A68013A1A601A6802EB820251F8222074
S214081AB0002AEDD00B4B1B6803EB83030A4A02EBA4
S214081AC083035A6852685A6003F108018A4204BFC1
S214081AD052685A605B68DA68064B1A6008BD00BF31
S214081AE098AB072030AB072034AB0720D8AB0720CD
S214081AF0E90C08009CAB072038B50C4618B90E4B05
S214081B00984700BFFDE70D4D296818310C4B9847DC
S214081B10286804300B4B9847B4F1FF3F05D1296875
S214081B2009480431094B984738BD094B18682044C2
S214081B30084B984738BD00BFE90C08009CAB072047
S214081B40250C0800610C0800E8AA0720090C080004
S214081B50B8AB07207D14080038B50D4618B9094BF0
S214081B60984700BFFDE7084C21681831074B98478F
S214081B7020680430064B9847064B18682844064BDE
S214081B80984738BDE90C08009CAB0720090C0800EC
S214081B90610C0800B8AB07207D14080038B5C36888
S214081BA0DC681CB9164B984700BFFDE704F118051A
S214081BB02846144B9847144B1B689BB9251D284686
S214081BC0104B9847E36A114A1268934284BF0F4A3B
S214081BD0136003EB83030E4800EB830029460D4B86
S214081BE0984703E00C4829460A4B98470B4B1B6856
S214081BF0E06ADB6A984234BF0020012038BD00BF87
S214081C00E90C0800610C080098AB072030AB0720E9
S214081C1034AB0720090C0800A0AB07209CAB0720B4
S214081C2008B518B9054B984700BFFDE7044A12687F
S214081C300260044A1268426008BD00BFE90C08004A
S214081C40B4AB0720B8AB072038B50D46044618B91C
S214081C50184B984700BFFDE719B9164B984700BFC1
S214081C60FDE7154B98472B68B3F1FF3F19D0134A89
S214081C70116822688A4204D0114A116862688A424A
S214081C8011D90F4A11686268891A8B420DD90C4916
S214081C900968521A13442B6020460A4B98470024BA
S214081CA004E0002402E0012400E00124064B9847E3
S214081CB0204638BDE90C0800F90C0800B4AB07202C
S214081CC0B8AB0720211C0800190D08000122014B9B
S214081CD01A607047D8AB0720014B1868704700BFDA
S214081CE09CAB0720054B1B6833B1054B1B68002BC4
S214081CF014BF0220012070470020704700AB072061
S214081D0098AB072038B5044600282ED0C36A174A71
S214081D101268D26A934228D2144A1268D26AC2F16A
S214081D200502826103EB8303114A02EB83034269CF
S214081D309A4216D1051D28460E4B98470B4B1B6832
S214081D40DB6AE3620C4A1268934284BF0A4A13604D
S214081D5003EB8303064800EB83002946074B9847A6
S214081D6038BD024B1B68DB6AC36238BD9CAB0720D4
S214081D7034AB0720610C080030AB0720090C0800BC
S214081D8038B50446D0B1C26A836C9A4216D0051D8F
S214081D9028460B4B9847A36CE362C3F10502A26181
S214081DA0084A1268934284BF064A136003EB83030B
S214081DB0054800EB83002946044B984738BD00BF0A
S214081DC0610C080030AB072034AB0720090C08006C
S214081DD010B504464160206191420AD8D21A81693A
S214081DE08A4211D20A4B1868211D0A4B98470020D0
S214081DF010BD9A4201D2994208D2074B1868211D95
S214081E00044B9847002010BD012010BD012010BDCE
S214081E1018AC0720250C0800E4AB072070B50D4B5E
S214081E2098470D4B1B688BB90C4D28460C4EB0478F
S214081E300C4C2046B0470C4B1D600C4B1C60052014
S214081E400C2100220A4B9847034B1860094B984709
S214081E5070BD00BFF90C080014AC0720E8AB0720DB
S214081E60E90B0800FCAB0720E4AB072018AC0720FA
S214081E70D1100800190D080010B584B00B4B984710
S214081E800B4B1B6863B10423009300230193029352
S214081E900393084808494FF48272084CA04718B9BB
S214081EA0074B984700BFFDE704B010BD1D1E08008D
S214081EB014AC0720CD1F08003C620800D5140800A3
S214081EC0E90C080010B584B00F4C2468C4B1019121
S214081ED0029203906BB90D4B984701280A4B186875
S214081EE001A907BF069A002300221346084CA047FC
S214081EF007E0204601A91A460023064CA04700E042
S214081F00002004B010BD00BF14AC0720E51C080074
S214081F1029110800451208002DE9F04782B08146CD
S214081F20224B98478046224B1B68984234D2214E53
S214081F30214F24E0DA68D2F800A0DB68DC68251DAB
S214081F402846B847636A20469847E369012B16D1A6
S214081F50A3695344534506D963602461306829460B
S214081F60164B98470BE00023009320461946524626
S214081F70134CA04718B9134B984700BFFDE73368C2
S214081F801A68002AD6D1104A11680A4801601360F8
S214081F900123C9F8003002E00023C9F80030044BDA
S214081FA0C3F80080404602B0BDE8F0875517080021
S214081FB010AC0720E4AB0720610C0800250C0800CD
S214081FC0C51E0800E90C080018AC07202DE9F043E8
S214081FD087B04D4DDFF860814C4B1B681A68002AA5
S214081FE000F08780DB681E68494B984703A8494B72
S214081FF098470746039B002B30D1864224D8464B89
S2140820009847424B1B68DB68DC68201DC047E369BD
S214082010012B14D1A169204631443A4633463F4F36
S214082020B84701280BD100230093204619463246AC
S2140820303B4EB04718B93B4B984700BFFDE7636A6D
S214082040204698470CE000262868F11B364B984730
S214082050314B984720B9354B984701E02E4B9847A7
S21408206002A82C4B98470746314EDFF8B09038E068
S214082070059C1CB1616909B1201DC0470399022956
S2140820801FD003292AD000292BD1049BA1692046FA
S21408209019443A46C847012823D1636A2046984718
S2140820A0E369012B1DD1A269002300932046194637
S2140820B0049C22441A4CA04798B91A4B984700BF6C
S2140820C0FDE70499A16119B9164B984700BFFDE7CB
S2140820D0204639443A463B46C84702E02046154B58
S2140820E09847286803A900221346B0470028BFD19E
S2140820F072E7074B984703A8064B98470746039B83
S214082100002BA0D0AAE700BF14AC0720E4AB07203A
S21408211045170800191F080095180800D11D080063
S214082120C51E0800E90C080031140800D90C080080
S214082130D5120800090F0800610C080010B50E48F3
S2140821400E4B984700203E210D4B98470D4CA04754
S2140821500028FCD00C4B98470C4A0D4B9A620D4C45
S214082160A0470028FCD010200B4B98470B4B9847ED
S2140821700148024B984710BD00BD0105B100072075
S21408218055250800A9250800B9250800013F0D2097
S21408219000060E40C9250800F1240800E5260800B8
S2140821A010B54FF400421A4B5A600B20194CA04742
S2140821B00C20A0470D20A0470E20A0473B204FF03C
S2140821C06051154CA04755204FF06051A047562047
S2140821D04FF06051A04768201049A0475C2010497E
S2140821E0A04710484FF440710F4A104B98471120EB
S2140821F04FF00061A04712204FF00061A0472C2046
S2140822004FF00061A0472D204FF00061A04710BD99
S214082210501A0E40D9250800D52208007900002853
S21408222001000028000E0E4001000008A92308003F
S2140822304264B1F1805F16D004D8C1B1B1F1006F25
S2140822400AD013E0B1F1405F11D0B1F1605F0ED053
S214082250B1F1205F0AD17047036F016F0B4023EA84
S2140822600203036702E0036F134303674260704785
S214082270416412F0010F14BF4166016612F00A0F9E
S21408228014BF0162416212F0020F02D0C0F880103B
S21408229004E012F0080F18BFC0F88410416101600E
S2140822A0704700BF10B44164019C0CB1416600E061
S2140822B001660BB1016500E041650AB1016300E003
S2140822C04163016101605DF8044B7047C06C70475C
S2140822D0806C704770B582B00D46440904F500144A
S2140822E004F20774660201F0F044B4F1205F30D0BF
S2140822F006D8B4F1006F0AD0B4F1805F18D049E070
S214082300B4F1405F30D0B4F1605F2DD042E000F009
S2140823101F000124844030464FF0006122461F4BC0
S214082320984715F0010F14BF74663466012032E032
S21408233000F01F000124844030464FF080512246AA
S214082340164B984715F0010F14BF746634660120C3
S21408235021E000F01F010124304604FA01F12A4664
S2140823600F4B9847204616E000F01F01012405F0A1
S214082370605205EA04030093304604FA01F1B2F10C
S214082380605F14BF00220122C5F38003054DA847ED
S214082390204600E0002002B070BD00BF31220800D1
S2140823A071220800A5220800F0B583B007460E463D
S2140823B0154602F0F044B4F1205F26D006D8B4F1F2
S2140823C0006F0AD0B4F1805F13D034E0B4F1405FF8
S2140823D01FD0B4F1605F1CD02DE04FF0006132468C
S2140823E0164B984715F0010F14BF7E663E6601200F
S2140823F022E04FF080513246104B984715F0010FF7
S21408240014BF7E663E66012016E00D4B98470120F5
S21408241012E005F0605205F0010300933846314695
S214082420B2F1605F14BF00220122C5F38003054C99
S214082430A047012000E0002003B0F0BD31220800CC
S21408244071220800A52208002DE9F04104460E4630
S214082450104B9847054620460F4B9847054017D01F
S2140824600E4F07F10C046C3754F80C3CB3420AD1F3
S21408247054F8081C294206D023683046984754F872
S214082480083C25EA0305BC4202D01034002DEBD1E7
S214082490BDE8F081CD220800D12208001CAC072038
S2140824A008B502480B21024B984708BD000E0E409F
S2140824B04924080008B502480C21024B984708BD75
S2140824C000100E404924080008B502480D21024BAA
S2140824D0984708BD00120E404924080008B502486F
S2140824E00E21024B984708BD00140E4049240800E8
S2140824F0174B1A6B22F07002104318639B6E13F08A
S214082500080F09D14FF40063114901E0013B19D0C7
S2140825108A6E12F0080FF9D00D4B1A6B22F00302E0
S21408252042F002021A63986E10F008000CD14FF4BD
S2140825300063074901E0013B08D08A6E12F0080FD5
S214082540F9D0704701207047002070470120704777
S21408255000060E4038B111490B6A114A1A40114B51
S21408256013430B6270470D4A136A23F45C1323F077
S214082570030343F45C1343F00103090289B20B43D7
S2140825801362936E13F0010FFBD0044A136A43F0EC
S2140825909B7343F480331362704700BF00060E40F7
S2140825A0FCFFC8FE02003701024B986E00F480302C
S2140825B0704700BF00060E404FF00052014B9A626B
S2140825C0704700BF00060E40024B986E00F00200EF
S2140825D0704700BF00060E402C2820D81F280DD8AC
S2140825E0124B9A69012383401A40934219D001235B
S2140825F003FA00F00D4B1861002070470B4BD3F818
S21408260008212038012383401A4093420BD0012327
S21408261003FA00F0054BC3F80001002070470120BC
S2140826207047002070470020704700BF00060E4025
S214082630FEE700BF10B51E4B1E4A9A4203D01E4B3B
S2140826401B4A9A4204D31D4B1D4A9A420FD31AE0DE
S2140826501C4B1D4CE41A24F00304043400231448CD
S21408266014495A581A500433A342FAD1EBE7174BC9
S2140826701749C91A21F003011A1D1144002243F80C
S214082680042F8B42FBD1134A22F0604323F07F03CA
S21408269011498B6002F16042B2F5801F03D28A6846
S2140826A042F000528A600D4B98470D4B9847FEE75C
S2140826B0000007208C660800FC09072000AD0720EC
S2140826C0000A072004000720FF090720FC09072046
S2140826D0FBAC07200000080000ED00E059350800B4
S2140826E0BD2D08003E4B1B6B03F00303032B5FD87E
S2140826F0DFE803F0020E2B2B3A4B5B6913F0800FD2
S21408270014BF4FF400424FF4FA42374B1A604FE0BA
S214082710334B1B6A13F0807F03D0344A324B1A605F
S21408272046E0334A304B1A602D4B1B6A03F07003A1
S214082730102B02D0202B04D03AE02E4A2A4B1A60DF
S21408274036E02A4A284B1A6032E0254B1B6A13F0FB
S214082750807F03D0254A244B1A6012E0244A224B75
S2140827601A601F4B1B6A03F07003102B02D0202B35
S21408277004D006E01F4A1C4B1A6002E01B4A1A4B9C
S2140827801A60174B1B6B03F00303022B0DD1144B77
S214082790986A996A144BC0F30A401A6800FB02222A
S2140827A0C9B2B2FBF1F21A6002E0134A0E4B1A6085
S2140827B00B4B1B6B03F07003702B07D10A4B1A6880
S2140827C00E49A1FB020252081A607047044B196BA7
S2140827D0054BC1F302111A68CA401A60704700BF59
S2140827E000060E40101A0E4094010720001BB70082
S2140827F000093D0000127A00001C4E0EABAAAAAAD9
S214082800094B1B6813B9094A074B1A60064B1B6825
S2140828101A180749914204DB1046034A1060184606
S21408282070474FF0FF3070478CAC072000CD07206C
S214082830FC7F08204FF0FF30704700BF4FF400536E
S2140828404B600020704700BF01207047002070478B
S214082850F0B583B004460D46002301931F4B9842FB
S21408286007D11F461E4E38462946B0470028FAD1DB
S21408287019E01C4B984209D11F461B4E384601A941
S214082880B0470028FAD1019B2B7019E0174B9842E5
S21408289009D11E46144C304601A9A0470028FAD193
S2140828A0019B2B7018E0124B9C4209D11E460E4C19
S2140828B0304601A9A0470028FAD1019B2B700BE0EF
S2140828C00C4B9C4208D11E46074C304601A9A0472F
S2140828D00028FAD1019B2B7003B0F0BD00080E400B
S2140828E0D50B080000800940F509080000C009401B
S2140828F000000A4000400A4070B50C46214B98423A
S21408290007D11E46204D30462146A8470028FAD152
S2140829102BE01E4B984207D11E461D4D30462146D9
S214082920A8470028FAD122E01A4B984207D11E463B
S214082930174D30462146A8470028FAD119E0164B0D
S214082940984207D11E46124D30462146A847002811
S214082950FAD110E0114B98420FD11E460C4D304666
S2140829602146A8470028FAD109E0012070BD0120B9
S21408297070BD012070BD012070BD002070BD012013
S21408298070BD00BF00080E40C50B08000080094057
S214082990E109080000C0094000000A4000400A405B
S2140829A02DE9F041234C244E244D2378022B01D1E7
S2140829B03046A847224B1B78012B36D1214B1B7873
S2140829C0002B32D1204B1B78002B2ED11F48A8474E
S2140829D01F48204B1968204FB8472048204B1978C5
S2140829E0B8472048B847204B1B78012B03D11F480F
S2140829F0A847032323701C4B1B78032B03D11C48C2
S214082A00A84704232370DFF87480012788F800702D
S214082A101848114B984700230B4A1370084A13703E
S214082A2088F80030074B1F70BFE76420124B9847A2
S214082A30BBE700BFF8AC072044620800B1370800BF
S214082A4092AC072091AC072090AC0720546208008F
S214082A5078620800340A0720A9350800946208003E
S214082A60300A0720AC620800FBAC0720D4620800D6
S214082A70E8620800006308009D19080093AC072068
S214082A802DE9F04184B0724C724D734E2378012BB9
S214082A9040F0DA803378002B40F0D6806F4B1B78F6
S214082AA0002B40F0D1806E4B1B78002B40F0CC807A
S214082AB06C4B1978052900F2C380DFE811F0060090
S214082AC02E0040008B009A00BD006748674B984769
S214082AD0674F02A8674B984702983860BDF80C30D5
S214082AE0BB807B79ABB13879634B9847002323705A
S214082AF001225A4B1A706148DFF89C81C0477978E2
S214082B003A78FB78B8780090387901905C48C047E6
S214082B10BCE75C48554B9847B8E75B4B9847012895
S214082B2006D15A48514B984702224E4B1A70ADE7C9
S214082B3057484E4B984701224A4B1A70A6E7554805
S214082B40554B9847554B98470746831E062B9DD8E6
S214082B50DFE803F01A2B2B16040B12005048434BE1
S214082B60984706224F4B1A7090E74F483F4B9847B6
S214082B7007224C4B1A7089E708224A4B1A7085E7D9
S214082B800522484B1A7081E74848384B9847484B07
S214082B90984700233370324A1370237001222F4B54
S214082BA01A7008223F4B1A7070E742482F4B984716
S214082BB04148394B98473B4B1B78072B02D13F4877
S214082BC02A4B98473E48344B98473E4B9847354BD8
S214082BD01F705BE73C4B9847012803D10422214B22
S214082BE01A7053E73948214B984703221D4B1A7031
S214082BF04CE7374B9847023803283FF647AFDFE8DD
S214082C0000F0020F1317334B98473348224B984768
S214082C1000233370124A13702370104A137035E776
S214082C202E481D4B984731E72D481B4B98472DE7F4
S214082C302C48194B984729E72B480C4B984725E70B
S214082C402A48154B984721E76420A8471EE700BF87
S214082C5091AC07209D19080092AC072090AC07207D
S214082C6093AC0720FBAC072014630800B1370800B4
S214082C70ECAC0720ED0408004909080020630800AA
S214082C8030630800506308001106080064630800F3
S214082C907463080064640800A9350800390608004B
S214082CA08C630800FAAC07209C630800B063080031
S214082CB069090800BC630800D0630800EC630800D4
S214082CC004640800DD060800190708002C640800DC
S214082CD04107080085090800446408005464080091
S214082CE06864080078640800306208008864080091
S214082CF0F8B5224C224D234E2378012B3AD133784F
S214082D00002B37D1204B1B78002B33D11F48204B84
S214082D109847204B98470746012810D10023237070
S214082D20194A1370012232701B490B701B4B1A701C
S214082D301B481C4B98471C481C4B984712E0022817
S214082D4010D100232370104A137001223270124AE1
S214082D5013700322114B1A701548124B98471248E5
S214082D60124B984713483946094B984712480F4B59
S214082D709847C1E7C820A847BEE700BF90AC072021
S214082D809D19080092AC072091AC0720A0640800A3
S214082D90A93508009108080093AC0720FBAC07206B
S214082DA0CC640800B1370800001BB70001000720F4
S214082DB0E4640800FC640800808D5B0070B588B089
S214082DC04D4B98474D4B984708204D4DA8474D4CBE
S214082DD04D4B1C604D4A4E4B1A604E4A4E4B1A607D
S214082DE04E4B05934FF4E13306934FF40063079375
S214082DF00820A847204605A9494B9847494E3368F6
S214082E0098680021484CA047336858680021A047B6
S214082E104648474CA0474748A047474B9847474B24
S214082E2098470024464B1C70464B1C70464B1C703B
S214082E300B20A8470C20A8470D20A8470E20A84717
S214082E40424A4FF400031361C2F8A0304FF0806383
S214082E501361C2F8A0304FF000735361C2F8A03077
S214082E604FF080731361C2F8A030536301230093B8
S214082E70374B1B68019302940394364836494FF43F
S214082E807A722346354CA047012802D03448284B8E
S214082E90984701230093334B1B6801930023029342
S214082EA00393314831494FF47A722C4CA0470128D5
S214082EB002D02F481E4B9847012300932D4B1B68C2
S214082EC001930023029303932B482C494FF47A72FC
S214082ED0224CA047012802D02948154B98470023C2
S214082EE0284A1370284A1370284A13700122284B60
S214082EF01A70284B9847FEE73D210800A1210800D4
S214082F00D925080000080E40DCAC0720F928080080
S214082F10D8AC072051280800D4AC072000BD01050E
S214082F208D0B0800C0050720C1370800506508004B
S214082F30A935080060650800C90708006D03080081
S214082F40FBAC0720F8AC0720E8AC072000120E40C0
S214082F50E4AC0720F12C080070650800D5140800BA
S214082F6080650800E0AC0720A1290800A4650800D1
S214082F70B0650800F4AC0720812A0800D46508006C
S214082F80E465080090AC072092AC072093AC0720B5
S214082F9091AC0720DD1608004BB942B9002908BFD6
S214082FA0002802D04FF0FF31084600F03BB882B048
S214082FB0EC462DE9005000F01DF8DDF804E002B0FC
S214082FC00CBC70472DE9704F089E14461D46804677
S214082FD0894600F029F804FB01F3A4FB00AB00FBCC
S214082FE005329344B8EB0A0869EB0B09C6E9008971
S214082FF0BDE8708F2DE9704F089E14461D46804622
S214083000894600F061F900FB05F5A0FB04AB04FB5C
S2140830100154A344B8EB0A0869EB0B09C6E9008912
S214083020BDE8708F704700BF00292DE9F00FC0F289
S214083030A1800024002BC0F29880154606460F464D
S214083040002B3FD18A4258D9B2FA82F34BB1C3F16A
S214083050200201FA03F720FA02F29D4000FA03F66E
S2140830601743290CB7FBF1F201FB1277A8B200FB55
S21408307002F34FEA164C4CEA0747BB4209D97F19B8
S21408308002F1FF3C80F00581BB4240F20281023A21
S2140830902F44FF1AB7FBF1F301FB137100FB03F093
S2140830A0B6B246EA0141884208D9491903F1FF3702
S2140830B080F0F180884240F2EE80023B43EA02420A
S2140830C0002303E08B420AD900231A461046194605
S2140830D014B1404261EB4101BDE8F00F7047B3FA06
S2140830E083F8B8F1000F40F088808B4202D3824202
S2140830F000F2E28000230122E8E712B90123B3FBBD
S214083100F2F5B5FA85F2002A3AD17F1B280C1FFA89
S21408311085FC0123B7FBF0F100FB11770CFB01F2ED
S2140831204FEA164848EA0747BA4207D97F1901F115
S214083130FF3802D2BA4200F2C4804146BF1AB7FB33
S214083140F0F200FB12700CFB02FCB6B246EA004036
S214083150844507D9401902F1FF3702D2844500F2A8
S214083160AE803A4642EA0142B0E7E443524263EB95
S214083170430362E7404261EB41014FF0FF3459E7F1
S2140831809540C2F1200927FA09F126FA09F997406D
S214083190280CB1FBF0F800FB18111FFA85FC0CFB95
S2140831A008F349EA07094FEA194747EA01418B42FB
S2140831B006FA02F608D9491908F1FF327AD28B4284
S2140831C078D9A8F102082944C91AB1FBF0F300FB24
S2140831D013170CFB03F21FFA89F949EA0747BA42A4
S2140831E007D97F1903F1FF3160D2BA425ED9023B94
S2140831F02F44BF1A43EA08438CE7C8F1200225FA91
S21408320002F103FA08FC27FA02F320FA02F207FA98
S21408321008F741EA0C0C4FEA1C49B3FBF9F109FB25
S21408322011331FFA8CFA0AFB01FB17433A0C42EAE1
S21408323003439B4505FA08F008D913EB0C0301F184
S214083240FF3235D29B4533D902396344CBEB0303AF
S214083250B3FBF9F209FB12330AFB02FABFB247EADC
S2140832600347BA4508D917EB0C0702F1FF331BD200
S214083270BA4519D9023A674442EA0145A5FB000156
S214083280CAEB07078F424FF000030AD305D02A4639
S2140832901CE76246FDE63B4610E706FA08F6864255
S2140832A0F5D26A1E002311E71A46E5E70B46A0E7A3
S2140832B01146CBE7904687E74346424606E7023A7A
S2140832C050E702392F4439E72DE9F00F1446054632
S2140832D00E46002B43D18A4253D9B2FA82F757B129
S2140832E0C7F1200620FA06F601FA07F302FA07F4F1
S2140832F000FA07F51E43210CB6FBF1F201FB126635
S214083300A0B200FB02F32F0C47EA0646B34209D9DF
S214083310361902F1FF3780F0FD80B34240F2FA809A
S214083320023A2644F61AB6FBF1F301FB136100FBDA
S21408333003F0ADB245EA0141884208D9091903F1FC
S214083340FF3680F0E980884240F2E680023B43EA96
S2140833500242002310461946BDE8F00F70478B421C
S2140833604CD8B3FA83F6002E4FD18B4202D3824252
S21408337000F2DD80BDE8F00F002301221046194652
S214083380704712B90124B4FBF2F4B4FA84F2002AA6
S21408339040F08280091B260CA7B20123B1FBF6F089
S2140833A006FB101107FB00F24FEA154C4CEA0141E8
S2140833B08A4207D9091900F1FF3C02D28A4200F274
S2140833C0C8806046891AB1FBF6F206FB121107FBA5
S2140833D002F7ADB245EA0145AF4208D92C1902F109
S2140833E0FF3180F09B80A74240F29880023A42EA7A
S2140833F0004210461946BDE8F00F704700231A46EB
S21408340010461946BDE8F00F7047C6F1200522FAA7
S21408341005F703FA06F421FA05F301FA06FB20FA83
S21408342005F53C434FEA1448B3FBF8FC08FB1C338D
S2140834301FFA84F909FB0CFA45EA0B0B4FEA1B4501
S21408344045EA03439A4502FA06F204D91B190CF119
S214083450FF356FD3AC46CAEB0303B3FBF8F508FB9E
S214083460153309FB05F91FFA8BFB4BEA0347B945E9
S21408347004D93F1905F1FF3362D31D4645EA0C4CC3
S214083480ACFB0223C9EB07079F424FF000054AD35F
S21408349046D062462B465DE79440C2F1200921FAE1
S2140834A009FC914020FA09F9260CBCFBF6F806FB45
S2140834B018CCA7B207FB08F349EA01094FEA1941F5
S2140834C041EA0C4C634500FA02F509D91CEB040CDA
S2140834D008F1FF323BD2634539D9A8F10208A44463
S2140834E0C3EB0C0CBCFBF6F306FB13C107FB03F29D
S2140834F01FFA89F949EA01418A4207D9091903F1ED
S214083500FF3022D28A4220D9023B2144891A43EA54
S214083510084343E73A4605E7334618E70A4666E7A8
S214083520B0409042B5D20CF1FF32002312E7334682
S21408353032460FE79A458DD9ACF1020C23448AE748
S214083540B9459AD9023D274498E70346DEE79046F0
S214083550C6E70238214435E770B50F4E0F4D761B87
S214083560B61007D0043D0024013455F8043F9847A8
S214083570A642F9D10A4E0B4D03F072F8761BB61028
S21408358008D0043D0024013455F8043F9847A64265
S214083590F9D170BD70BD00BF6C6608006C66080087
S2140835A0746608006C6608000FB410B5074B82B046
S2140835B004AC54F8042B186823468168019400F07C
S2140835C025FA02B0BDE8104004B07047C0050720D1
S2140835D0844641EA000313F0030349D1403A23D353
S2140835E00B6803604B6843608B688360CB68C36076
S2140835F00B6903614B6943618B698361CB69C3615E
S2140836000B6A03624B6A43628B6A8362CB6AC36245
S2140836100B6B03634B6B43638B6B8363CB6BC3632D
S21408362040304031403ADBD230320BD30B6803606F
S2140836304B6843608B688360CB68C360103010317A
S214083640103AF3D20C3205D351F8043B40F8043B49
S214083650043AF9D2043208D0D2071CBF11F8013B4D
S21408366000F8013B01D30B8803806046704700BF13
S214083670082A13D38B07B1D010F00303AED0C3F1DA
S2140836800403D21ADB071CBF11F8013B00F8013B04
S214083690A4D331F8023B20F8023B9FE7043AD9D37B
S2140836A0013A11F8013B00F8013BF9D20B78037098
S2140836B04B7843708B78837060467047F0B4840705
S2140836C043D0541E002A3ED0CDB2034603E0621E05
S2140836D0002C38D0144603F8015B9A07F7D1032C60
S2140836E02AD9CDB245EA05250F2C45EA054515D950
S2140836F0A4F110073F0903F1100606EB07161A4651
S214083700156055609560D5601032B242F8D104F065
S2140837100F040137032C03EB07130DD91E46224668
S214083720043A032A46F8045BFAD8221F22F003025A
S2140837300432134404F003042CB1C9B21C4403F841
S214083740011BA342FBD1F0BC704714460346C6E7EC
S214083750F0B5044689B008460D4600F0B9F8A368E7
S21408376002219A89DFF844E000F1010C012704AE33
S2140837700291910404950590CDF80CC0CDF818E098
S2140837800797019606D4596E42F4005221F4005168
S2140837909A8159662046194601AA01F0E1FA0028DE
S2140837A00CBF0A204FF0FF3009B0F0BD2C620800AD
S2140837B0024B01461868FFF7CBBF00BFC0050720BD
S2140837C000290CBF022200224FF4806300F000B8E4
S2140837D02DE9F0413C4D04462D68884616461F469E
S2140837E015B1AB6B002B4FD0022E30D8002F2EDB36
S2140837F02846214601F088F8A38900226260A26163
S2140838001A0628D423F083039BB2022EA3812DD058
S214083810B8F1000F3CD0012E13D09BB203F008007D
S2140838202A4A80B2EA63C4F80080C4F81080676148
S21408383078B113F0030F18BF0027A7600020BDE873
S214083840F08143F001037A42A381A261E5E74FF0D5
S214083850FF30BDE8F0812846216901F0B5F9A38953
S214083860022E23F083039BB2A381D1D1002004F15A
S214083870430243F0020300250121A381A5602260CC
S21408388022616161BDE8F081284601F059F8ABE78E
S214083890002F08BF4FF48067384601F08BFC80463F
S2140838A028B1A38943F080039BB2A381B3E74FF402
S2140838B0806001F07FFC804618B9A3894FF0FF307E
S2140838C0D5E74FF48067ECE7C005072035490800C0
S2140838D020F0030110F00300C0F1000051F8043B8B
S2140838E000F1040C4FEACC0C6FF000021CBF22FA61
S2140838F00CF213434FF0010C4CEA0C2C4CEA0C4C1F
S214083900A3EB0C0222EA030212EACC1204BF51F817
S214083910043B0430F4D013F0FF0F1FBF013013F43C
S2140839207F4F013013F47F0F18BF0130704700BF78
S21408393040EA01039B0770B42AD1032A28D90C460B
S2140839400346214654F8045BA5F1013626EA050627
S21408395016F0803F05D1043A032A43F8045B214653
S214083960EFD89AB10C78013A1C7001333CB16AB1B1
S21408397011F8014F013A03F8014B002CF7D12AB190
S2140839801A44002103F8011B9342FBD170BC704710
S2140839900346E6E74B6E2DE9F0479C040E46804644
S2140839A091462AD59368126802F1080A1BB31AE9E9
S2140839B0A000BF0817D0043D002401E0A74210D09D
S2140839C0404655F8041F324601F050F8431C04F1EF
S2140839D00104F3D10023C9F80830C9F80430BDE85B
S2140839E0F087D9F80830A3EB8703C9F808300AF13E
S2140839F0080A002BDBD10020ECE701F0B1F9002320
S214083A00C9F80830C9F80430BDE8F0872DE9F04F4A
S214083A10B1B01C46029190460893069018B1836B85
S214083A20002B00F0E880029DAB899AB2900407D478
S214083A306A6E43F4005322F40051AB819AB2696669
S214083A40110740F1B780DDF808B0DBF81030002B1E
S214083A5000F0B08002F01A020A2A00F0B7800023AD
S214083A600DF180090A93159314930993CDF84C9099
S214083A704E4698F80030002B00F0C884252B00F03E
S214083A80C58408F1010201E0252B04D013781446FA
S214083A900132002BF8D1C8EB040595B1149B159A92
S214083AA001332A44072BC6F80080756015921493D4
S214083AB07BDD002A40F0D5840998149228444E46A7
S214083AC009902378002B00F0ED8300214FF00002C8
S214083AD04FF0FF3C63788DF8472004918A4604F13E
S214083AE001080846654608F10108A3F12002582A8D
S214083AF000F2D982DFE812F0CB02D702D702D20250
S214083B00D702D702D702D702D702D70282028F027D
S214083B10D70284009302D7022B01960196019601DC
S214083B20960196019601960196019601D702D7024C
S214083B30D702D702D702D702D702D702D702D702B0
S214083B403001D702D702D702D702D702D702D70248
S214083B50D702D702D7027B01D702D702D702D702ED
S214083B60D702A401D702D702BF01D702D702D702CD
S214083B70D702D702D702D702D702D702D702E40164
S214083B80FA01D702D702D7021602FA01D702D702DD
S214083B901B02D7022802890066027D02D7023A0273
S214083BA0D7021901D702D702AF0208360998284467
S214083BB0099086E70698029900F090FDB0B9029D34
S214083BC0AA8902F01A020A2A7FF449AFDDF808B07B
S214083BD0BBF90E30002BFFF642AF06985946424610
S214083BE0234600F03DFD31B0BDE8F08F4FF0FF30C2
S214083BF031B0BDE8F08F00F0A3FE14E7404208930A
S214083C004AF0040A98F800306DE71AF0200304908A
S214083C10AC4600F0F480DDF820B00BF1070323F083
S214083C20070303F108040894D3E9004500234FF07E
S214083C30000000218DF84700CDF814C00791BCF1AC
S214083C40000FA8BF2AF0800A54EA050240F0AD80AB
S214083C50BCF1000F40F0A980002B40F0C0831AF09A
S214083C60010F00F0BC83302330AF07F8413DC7EBA7
S214083C7009040594DDF814B0079CE345B8BFE3468D
S214083C80CDF80CB01CB10BF1010BCDF80CB01AF046
S214083C900205079505D0DDF80CB00BF1020BCDF840
S214083CA00CB01AF084030B9340F01B82049DDDF8D9
S214083CB00CB0CBEB0504002C40F31382102C40F319
S214083CC08984BE4D159A2B46149825464FF0100B3E
S214083CD06446B4461E4606E0831C0CF1080C0846EB
S214083CE0103D102D11DD411C1032072915928CE865
S214083CF040081491F0DD002A40F0E681103D102DB2
S214083D004FF001031046CC46EDDC31466646A44625
S214083D102C460D462244072B159235607460149382
S214083D2000F36D830836591CDEE11AF0200F049064
S214083D30AC4600F08D80089DEB1D23F0070303F1C9
S214083D40080BD3E90045CDF820B001236FE74AF009
S214083D50800A98F80030C6E64AF0100A1AF0200FD3
S214083D600490AC468DF8471000F0C880089CE11D0A
S214083D7021F00701D1E900230831089114461D46B1
S214083D80002A73F1000BC0F2CE83BCF1000F9DF839
S214083D904700A8BF2AF0800A54EA05020790CDF823
S214083DA014C04FF001033FF453AF012B00F0198302
S214083DB0022B0DF17F0340F04C82DDF828B019463F
S214083DC004F00F0022091BF8000042EA05722B09CE
S214083DD0087052EA03000F4614461D4601F1FF31EB
S214083DE0EED1CDE90E23C7EB0903059342E74AF067
S214083DF0100A1AF020030490AC467FF40CAF1AF0B1
S214083E00100240F011831AF0400300F00D83DDF82D
S214083E1020B01346BBF800400BF1040B0025CDF884
S214083E2020B004E7A3F13002002018F8013B00EBAD
S214083E30800002EB4000A3F13002092AF5D954E6C7
S214083E404AF0100A1AF0200F0490AC467FF473AFBD
S214083E501AF0100F40F0EF821AF0400F00F0EB82D5
S214083E60DDF820B00025BBF800400BF1040B012359
S214083E70CDF820B0DBE6AC46514D1AF0200F049082
S214083E808DF847100A9500F0F080089DEA1D22F08C
S214083E90070202F1080BCDF820B0D2E900451AF067
S214083EA0010F00F0AA8254EA050B00F0A682302221
S214083EB08DF849304AF0020A8DF848200223B6E603
S214083EC0089BDDF820B01B6801244FF000050BF1B5
S214083ED0040B049003948DF847508DF85830CDF8AD
S214083EE020B0059416AF4FF0000CD0E61AF0200F5D
S214083EF00490AC468DF847107FF438AF1AF0100FD0
S214083F0040F0A7821AF0400F00F0A382DDF820B038
S214083F10BBF900400BF1040BE51722462B46CDF8FB
S214083F2020B02DE74AF0400A98F80030DBE598F80C
S214083F30003042466C2B03BF08F101084AF0200AFD
S214083F4053784AF0100ACEE51AF0200F8DF847107D
S214083F5000F0F782089C2168099CE5172B46089D07
S214083F60224604350895C1E9002382E5089CAC463C
S214083F7027684FF0000504908DF847500434002F4A
S214083F8000F03283BCF1000F3846C0F20783624661
S214083F900021CDF804C001F0B1FBDDF804C000280C
S214083FA000F03A83C01B9DF847506045A8BF60469E
S214083FB00590089407954FF0000C5BE650660800DD
S214083FC010660800089BDDF820B00490B2481C680C
S214083FD0302278230BF1040BAC468DF849304AF0B2
S214083FE0020ACDF820B000258DF848200A90022352
S214083FF01DE64AF0200A98F8003074E5DDF820B08F
S214084000DBF800000BF104030028FFF6F7AD089371
S21408401098F8003067E598F800302B2163E598F8A3
S214084020003008F101042A2B00F00583A3F13002C2
S214084030092A98BF002500F2FA8214F8013B05EB1E
S214084040850502EB4505A3F13002092AF5D945EAAC
S214084050E575A04649E5904C1AF0200F0490AC464A
S2140840600A948DF847107FF410AF1AF0100F40F03E
S214084070EA811AF0400F00F0E681DDF820B000254E
S214084080BBF800400BF1040BCDF820B007E798F812
S214084090003000297FF427AD202124E54AF0010AE4
S2140840A098F800301FE504908DF84710002B00F0B4
S2140840B0F98001254FF0000B03958DF858308DF8E0
S2140840C047B0059516AF0EE70698029913AAFFF7AC
S2140840D061FC002840F0ED801498159A431CCC46E5
S2140840E0FEE5149B159A591C9DF8470068B10132E5
S2140840F00DF14700012307291592149186E8090057
S21408410000F360810B4608360131079C64B1023221
S21408411012A8022307291592149186E8090000F3CD
S21408412057810B46083601310B9D802D00F0018122
S214084130059DC5EB0C04002C2FDD102C574D22DDF9
S21408414030464FF0100B2E462546069C06E003F137
S214084150020C08300B46103D102D10DD591C10328D
S2140841600729159280E840081491F0DD002A63D1EB
S214084170103D102D4FF0010C13464846EEDC2C4639
S214084180614635460646224407291592356074600E
S214084190149100F3C18008360131059D07292A4489
S2140841A0159237607560149140F3C180002A40F07C
S2140841B0308114924E461AF0040F00F08B80049D4E
S2140841C0DDF80CB0CBEB0504002C40F38380102CF4
S2140841D040F31E821499324D1027DDF818A0DDF83A
S2140841E008B005E0881C08361946103C102C10DD6F
S2140841F04B1C1032072B159286E8A0001493F1DDAD
S214084200002A7DD1103C102C4FF0010011464E4676
S214084210EEDC22440728159235607460149059DD48
S214084220002A4FD1099CDDF80CB0049DAB45ACBF05
S2140842305C44641909945EE02046029913AAFFF7C5
S214084240A9FB002835D1149B159A03F1010C4846A2
S21408425081E7E00840EA457004F00702E9083032D2
S21408426050EA010B1F461A7004460D4603F1FF3349
S214084270EFD11AF0010FCDE90C01394600F0B980EC
S214084280302A3FF4F4AC1F46C7EB090530230595E2
S21408429001F8013CEEE400BF24660800406608000A
S2140842A050660800159B23B10698029913AAFFF7D3
S2140842B071FB029CA3895B063FF598AC099831B060
S2140842C0BDE8F08F0698029913AAFFF763FB00284B
S2140842D0EFD1159A099CDDF80CB0049DAB45ACBF30
S2140842E05C446419099432B10698029913AAFFF738
S2140842F051FB0028DDD1002014904E46FFF7B9BBCD
S2140843005046594613AAFFF745FB0028D1D1149901
S214084310159A481C4E4668E7002A40F0F780059C28
S2140843200123209721941594224614934E46083666
S21408433041E7049DDDF80CB0CBEB0504002C7FF7B5
S214084340F7AE102CA64D40F3708129464FF0100B9F
S21408435025466446B4460E4606E0981C0CF1080C42
S2140843600B46103D102D0FDD591C103207291592EB
S2140843708CE840081491F0DDBAB9103D102D4FF0C6
S21408438001001346CC46EFDC33466646A4462C4668
S2140843901D4622440728159235607460149000F371
S2140843A0AF800836411C0346C2E60698029913AA4F
S2140843B0FFF7F0FA00287FF47CAF149B159A581C78
S2140843C0CC46CEE7002A79D119464E4613469CE6D7
S2140843D0002A40F08480012113464E46A4E64F4644
S2140843E048E4002D08BF0A2C46D2303430AF07F810
S2140843F0414DC7EB090305933CE4022317E4002A62
S21408440040F0AF80134601214E466DE64446FFF75E
S21408441058BB0698029913AAFFF7BCFA00287FF43F
S21408442048AF159A4E46C6E6089D2C68043508958A
S2140844300025FFF7FCBB089D01232C68043508956A
S2140844400025FFF7F4BB089D2C6804350895002561
S21408445025E5089D2C6804350895E51722462B4661
S2140844608EE40698029913AAFFF794FA00287FF4B8
S21408447020AF4E46FFF79ABB0DF17F0B03965E46BC
S214084480E346204629460A220023FEF785FD3032F9
S2140844903270204629460A220023FEF77DFD044690
S2140844A00D4654EA0500374606F1FF36E9D1C7EB54
S2140844B00903DC46039E0593FFF7DCBB06980299C2
S2140844C013AACDF804C0FFF765FADDF804C0002883
S2140844D07FF4EFAE149B159A591C4E4615E60698BF
S2140844E0029913AACDF804C0FFF754FADDF804C001
S2140844F000287FF4DEAE149B159A591C4E4613E628
S214084500002A56D1012113464E4611E6069802990E
S21408451013AAFFF73FFA00287FF4CBAE1499159A32
S21408452001314E4639E64FF02D0B644265EB4505E2
S2140845308DF847B0CDF81CB0CDF814C00123FFF7AE
S2140845407EBB1AF0100F1DD11AF0400F58D0089DE8
S214084550DDF824B02B6804350895A3F800B0FFF7FB
S21408456088BA0698029913AACDF804C0FFF712FA7B
S214084570DDF804C000287FF49CAE149B159A591CDD
S2140845804E46B1E5DDF820B0099CDBF800300BF1AB
S214084590040BCDF820B01C60FFF76BBA0894FFF741
S2140845A097F99DF84740059007944FF0000CFFF7E1
S2140845B061BB0698029913AACDF804C0FFF7EAF97A
S2140845C0DDF804C000287FF474AE149B159A591CB5
S2140845D04E46ADE5149B159A0133024DFFF79ABB7C
S2140845E04066080050660800BCF1060F34BF6346F4
S2140845F00623089423EAE37405930394164F72E49B
S214084600089C099D2368043408941D60FFF731BA96
S2140846101498124D0130FCE59DF84750CDF814C0AB
S214084620079508948446FFF725BB0846B1E6A046DA
S2140846300025FFF75ABADDF820B098F80130DBF805
S21408464000500BF10402002D0892A046BFF64BAAB4
S2140846504FF0FF35FFF747BA38660800506608007F
S2140846602DE9F0474F6EADF58D6D88461997D8F849
S2140846701C70B1F80CA0B1F80E900797D8F8247003
S2140846801AAC4FF480652AF0020A002669460094A0
S214084690049402950595ADF80CA0ADF80E90099710
S2140846A006960546FFF7B2F9041E07DB2846694654
S2140846B000F02AF9B04218BF4FF0FF34BDF80C30AE
S2140846C05B0605D5B8F80C3043F04003A8F80C3064
S2140846D020460DF58D6DBDE8F08700BF2F4B70B5F1
S2140846E0064618680C4610B1826B002A36D0A58993
S2140846F0ABB219070CD52269AAB113F001011ED076
S214084700636900215B42A361A160F2B1002070BD1D
S214084710DA063AD55B0724D4226945F00803A38154
S2140847209BB2002AE9D103F42071B1F5007FE4D0EA
S2140847303046214600F0CEFCA3892269DDE79807BB
S21408474058BF6169A160002AE0D1A3891A06DDD5A1
S21408475043F04003A3814FF0FF3070BD00F0F0F83F
S214084760C5E7216B49B104F14003994203D03046AE
S21408477000F02AFAA58900232363226925F0240578
S2140847800021ADB222606160C7E745F04005092305
S21408479033604FF0FF30A58170BD00BFC00507200D
S2140847A0024B13B1024800F005B87047000000003D
S2140847B03D4A0800014600200246034601F024BB95
S2140847C08B892DE9F0419AB20D46110780463CD4F4
S2140847D06A6843F40063002AAB8159DDAC6A002C92
S2140847E04BD09BB203F48052002192B2D8F80060F6
S2140847F0C8F80010002A4FD02A6D5F0705D56968EB
S2140848002B6B521A0BB1EB6BD21A4046E9690023A0
S214084810A047441C4AD0AB892A6923F400639BB29C
S21408482000212A60DA04AB8169604CD4296BC8F889
S214084830006011B305F14003994202D0404600F0EB
S214084840C3F900202863BDE8F0812E69AEB1910750
S2140848502C680CBF6B6900232E60A41BAB600AE0B3
S214084860324623466F6A4046E969B8470028C0EBD7
S2140848700404064404DD002CF2DC0020BDE8F081C8
S214084880AB894FF0FF3043F04003AB81BDE8F081C1
S214084890EA6B002AA2DCF0E701234046E969A04754
S2140848A0431C02461ED0AB89AC6AA6E7D8F800308F
S2140848B05BB9AA89296922F4006292B26B60D304B4
S2140848C0AA812960B2D52865B0E71D2B01D0162B22
S2140848D013D1A9892B6921F400610022A9812B60D4
S2140848E06A60A3E7D8F80030002BDCD01D2B01D077
S2140848F0162BC5D1C8F80060BFE7AB8943F0400364
S214084900AB81BDE8F08100BF10B5044682B008B19F
S214084910836B53B1B1F90C0008B902B010BD20463C
S21408492002B0BDE81040FFF74BBF019100F008F851
S2140849300199EFE7014900F09FBB00BF555F0800EB
S2140849402DE9F04F846B83B00746002C65D17D684F
S21408495033480423032107F53B72F863C7F8E412CB
S214084960C7F8E822C7F8E04205F15C00AB812C6086
S2140849706C60AC606C66EC812C616C61AC61214645
S2140849800822FEF79BFEDFF89CB0BE68DFF898A00A
S214084990DFF89890DFF8988001230922ED61C5F8C2
S2140849A020B0C5F824A0C5F82890C5F82C80214664
S2140849B0F381B28134607460B46074663461746183
S2140849C0B461082206F15C000193FEF777FEFD68E5
S2140849D012200222F661C6F820B0C6F824A0C6F84F
S2140849E02890C6F82C802146A881EA812C606C6045
S2140849F0AC606C662C616C61AC6105F15C000822E9
S214084A00FEF75CFE019BED61C5F820B0C5F824A052
S214084A10C5F82890C5F82C80BB6303B0BDE8F08FB6
S214084A2035490800495C08006D5C0800A55C08006C
S214084A30C55C0800704700BF704700BF38B5094D11
S214084A40094C641BA41018BF05EB840505D0013C6F
S214084A5055F8043D9847002CF9D1BDE8384001F0D8
S214084A6009BE00BF80660800846608002DE9F0418C
S214084A7093890F46990482B01446804606D4526E2F
S214084A8043F4005342F40052A381626600F01CFB14
S214084A9001283ED03A46404601A904F15C0301F0DD
S214084AA069F9421C06462DD000283AD09DF8041015
S214084AB0002509E02368197023680133236001354F
S214084AC0B5422ED201ABE95CA368013B002BA3607C
S214084AD0F0DAA269934206DB23681970236819780E
S214084AE001330A29EAD14046224601F0EFF8B0F130
S214084AF0FF33584258410028E1D04FF0FF3002B04B
S214084B00BDE8F081A38943F04003A38102B0BDE865
S214084B10F0817B1EFE2BBDD8F9B206468DF8041030
S214084B20C6E7384602B0BDE8F08100BFF8B5234DA9
S214084B300F46044600F092FEAB685E6826F0030651
S214084B40F11B01F6EF7121F47F6121F00F01A1F549
S214084B508057B7F5805F07DB2046002101F062F832
S214084B60AB683344984204D0204600F079FE002013
S214084B70F8BD2046794201F055F801300DD0104BAB
S214084B80AA681968F61B46F001062046C91B566037
S214084B90196000F065FE0120F8BD2046002101F0EE
S214084BA041F8AB68C21A0F2ADEDD064D04492D68A7
S214084BB042F00102401B5A600860D5E7E805072066
S214084BC0A0AC0720F40907202DE9F0410D4606465B
S214084BD0002955D000F042FE55F8041CDFF870C1D5
S214084BE0A5F1080421F00103E218DCF8080057686C
S214084BF0904227F0030768D011F00101576032D0C1
S214084C000021D0194068C00706D43B4490680029A4
S214084C104DD0D268C260906043F001026260E350F3
S214084C20E1B9B3F5007F2DD35A0A042A69D8980942
S214084C30383041000CEB810CDCF80820444962450A
S214084C4065D0516821F003018B4202D292689445E0
S214084C50F7D1D368E360A2609C60D4603046BDE8B4
S214084C60F04100F0FDBD55F8085C0CF10808641B1F
S214084C70A0682B44404542D0E568C560A860C0E7F8
S214084C80BDE8F081DB089A1001209040DCF804109B
S214084C900CEBC3039A680143A260E360CCF80410E7
S214084CA030469C60D460BDE8F04100F0D9BD294D7F
S214084CB0A842AED143F00102CCF81440CCF810401C
S214084CC0E060A0606260E350C8E71F44CB0707D4E3
S214084CD055F8081C641AE368A2680F44D3609A6003
S214084CE01D4B47F001021B6862609F42CCF80840E3
S214084CF0B4D31A4B30461968FFF718FFAEE7012100
S214084D007FE7142A0BD802F15B00410092E7801077
S214084D100125854048681346284348609AE7542A80
S214084D2003D8180B6E30410084E7B2F5AA7F03D883
S214084D30D80B773041007DE740F254518A4203D8B9
S214084D40980C7C30410075E7FC217E2072E700BF96
S214084D50E8050720F0050720F00907209CAC072087
S214084D602DE9F04F936883B0164681460C462BB360
S214084D708B89190726D5226922B303F0020292B25C
S214084D803568002A2CD04FF0000ADFF8E8B2D04683
S214084D90D84534BF43465B4652464846B8F1000FEE
S214084DA04FD0E169676AB847002856DDB368824481
S214084DB01B1AC0EB0808B360002BE9D1002003B02B
S214084DC0BDE8F08F48462146FFF788FC002840F0EB
S214084DD04881A389356803F0020292B2002AD2D12C
S214084DE013F0010A42D1D046B8F1000F23D09A0535
S214084DF0A76876D5B845C0F0A48013F4906F40F045
S214084E00B2802068BB4651465A4600F0C1FCA268EC
S214084E102168D21B01EB0B03A26023604246B368ED
S214084E2092449B1AC2EB0808B360002BC6D0A3892D
S214084E30B8F1000FDBD1D5F800A0D5F80480083506
S214084E40D2E7D5F800A0D5F804800835A0E748468C
S214084E502146FFF759FD002859D0A38943F040039F
S214084E604FF0FF30A38103B0BDE8F08F9246019261
S214084E7093469046B8F1000F2BD0019F002F64D0C0
S214084E8020682169C24534BF5346434688421F46B8
S214084E90D4F808C0626903D99444634500F3AE8029
S214084EA0934236DB1346676A4846E1695A46B8476E
S214084EB0071ED2DDBAEB070A3AD0B368BB44DB1B41
S214084EC0C7EB0808B360002B3FF478AFB8F1000FC3
S214084ED0D3D10027D5F800B0D5F804800197083557
S214084EE0C8E720682369984202D86369984572D251
S214084EF0B84538BF47463A46514600F049FCA368CD
S214084F002268DB1B3A44A3602260002B9FD03A46F7
S214084F1085E71A465946009300F03AFC009BA168BC
S214084F202268C91ABAEB070A1344A1602360C4D1E1
S214084F3048462146FFF7E8FC00288ED1CDF804A0A5
S214084F40BBE720684746C3465DE758460A214246FF
S214084F5000F0D4FB00287FD000F1010A0127CBEB34
S214084F600A0A01978CE7226821696769C1EB020C77
S214084F7007EB47070CF1010207EBD77742447F108F
S214084F80974234BF17463A465B054FD51146484602
S214084F90CDF800C000F016F9DDF800C083460028FA
S214084FA062D062462169CDF800C0FEF711FBA289DF
S214084FB0DDF800C022F4906242F08002A2810BEB7A
S214084FC00C00CCEB0702C4F810B067612060A26042
S214084FD04746C34617E76FF00042904538BF42463B
S214084FE092FBF3F202FB03F3676A4846E16952460E
S214084FF0B84700287FF731AF024610E762465946A1
S214085000CDF800C000F0C4FBDDF800C023684846B1
S214085010634423602146CDF800C0FFF775FCDDF831
S21408502000C000287FF419AF674643E74846CDF826
S21408503000C000F017FCDDF800C083460028BED18B
S21408504048462169FFF7C0FDA3890C2223F0800398
S2140850509BB2C9F8002001E7012708F1010A019769
S2140850600EE74FF0FF30AAE60C23C9F80030A389F4
S214085070F4E600BF00FCFF7F2DE9F04110F5387715
S214085080884619D000267D68BC68013D0ED4A389E1
S214085090013D012B06D9B4F90E302046013301D064
S2140850A0C04706436B1C04F16804F0D13F68002F24
S2140850B0E9D13046BDE8F0813E463046BDE8F0818D
S2140850C000487047C4050720014B1868704700BFA2
S2140850D0E4050720F0B58B8991B09AB296070C467E
S2140850E0054637D4B1F90E10002917DB01AA00F0DF
S2140850F039FF002810DB029B03F47043B3F5005118
S2140851004F424F41B3F5004F2CD0A3894FF4806629
S21408511043F40063A3810BE0A3899AB212F0800FD0
S21408512043F40063A38114BF40264FF4806600272B
S2140851302846314600F046F8A389002829D01B4A9D
S21408514043F08003EA63A381206020616661A7B903
S21408515011B0F0BD01F1430301220B600B614A61F7
S21408516011B0F0BD124AA36A9342CED1A3894FF478
S21408517080663343A381E664DAE72846B4F90E105E
S21408518000F004FF0028E3D0A38943F00103A381BD
S214085190DEE79A05DCD404F1430243F0020301215A
S2140851A0A381226022616161D2E700BF3549080009
S2140851B0A55C0800024B0146186800F003B800BF5B
S2140851C0C00507202DE9F04F01F10B05162D83B019
S2140851D0064627D935F0070527D4A94225D83046EC
S2140851E000F03CFBB5F5FC7F26D2C14F4FEAD50C44
S2140851F007EBCC03DC689C4200F0D2816368E26867
S21408520023F0030323445868A16840F00105CA60E8
S214085210304691605D6000F023FB0834204603B0FA
S214085220BDE8F08F1025A942D9D900240C232046C2
S214085230336003B0BDE8F08F5FEA552C00F0898034
S214085240BCF1040F00F260814FEA951C0CF1380C93
S2140852504FEA4C01A64F07EB8101CC68A14205D165
S2140852600CE0002B79DAE468A14207D0626822F0E5
S2140852700302531B0F2BF4DD0CF1FF3C0CF1010C61
S2140852809B4B3C6903F1080E744500F07E8161680B
S21408529021F003014A1B0F2A00F36481002AC3F891
S2140852A014E0C3F810E069DAB1F5007F80F03A81BF
S2140852B0C9088A104FF0010808FA02F803EBC10182
S2140852C05A68886848EA0202A060E1605A608C6002
S2140852D0C4604FEAAC030120984090425BD8024273
S2140852E006D12CF0030C400002420CF1040CFAD054
S2140852F007EBCC084446E146E3689C4207D146E102
S214085300002A80F25781DB689C4200F04081596889
S21408531021F003014A1B0F2AF2DD1C4654F808CF79
S214085320D96845F0010942F001081D44C3F8049005
S2140853303046CCF80C10C1F808C07D613D61C5F850
S2140853400CE0C5F808E0C5F80480AA5000F088FA12
S21408535064E77E214FF03F0C7CE722445068E36800
S214085360A16840F00105CB6030469960556000F0B2
S21408537077FA0834204603B0BDE8F08F21444B681E
S214085380304643F001034B6000F06AFA08342046C2
S21408539003B0BDE8F08FBC68636823F00309A9452D
S2140853A004D3C5EB09030F2B00F39180514B524AE7
S2140853B01968136805EB010A013304EB090B00F0C2
S2140853C061810AF5805A0AF10F0A2AF47F6A2AF0E0
S2140853D00F0A30465146019200F024FCB0F1FF3F18
S2140853E08046019A00F00181834500F2FB80DFF8D1
S2140853F014C1C345DCF800305344CCF8003000F044
S2140854004A8112683C4901321BBFCBEB080B5B4450
S214085410C1F80080CCF8003018F0070300F01481BB
S214085420C3F10802C3F5805390440833C244CAF354
S2140854300B0ACAEB030A51463046CDF804C000F002
S214085440F1FB431CDDF804C000F03581C8EB000210
S214085450524442F00102DCF80030BC425344C7F81C
S2140854600880CCF80030C8F80420DFF898A015D0DB
S214085470B9F10F0F40F2EB806168A9F10C0222F037
S214085480070201F0010142EA010E0520A1180F2AC1
S214085490C4F804E04860886000F21181174ABC68C6
S2140854A011688B4288BF1360154A11688B4288BF03
S2140854B01360626822F003029542C5EB020301D826
S2140854C00F2B04DC304600F0CBF90024A6E645F0A6
S2140854D0010243F00103254462603046BD606B60FC
S2140854E000F0BEF90834204603B0BDE8F08F00BFD0
S2140854F0E80507209CAC0720F409072098AC07208D
S21408550094AC0720A0AC0720BCF1140F61D9BCF1FD
S214085510540F00F28F804FEA153C0CF16E0C4FEAE0
S2140855204C0197E64B0A042B58D9142B00F2AD8091
S21408553003F15B02500007EB80008368DFF8B88150
S214085540834200F08A805A6822F00302914202D20F
S2140855509B689842F7D1D9687A68E160A3608C6046
S214085560DC60B6E645F0010742F0010125446760B5
S21408557030465D611D61C5F80CE0C5F808E0696055
S214085580AA50083400F06CF948E65A68A1E609F112
S214085590010919F0030F04F108047FF4ADAE2DE0FD
S2140855A004F108036469A34208BF0CF1020C3FF437
S2140855B067AE23E6194448681C4654F8082FDB688B
S2140855C040F001054D603046D3609A6000F048F917
S2140855D024E60CF15B0C4FEA4C013BE68A093832AC
S2140855E05000A8E7BC423FF402AFBC68626822F0ED
S2140855F0030261E7D8F8008098457AD11CF0030FBB
S214085600A8F108030CF1FF3CF4D17B6823EA0003F9
S2140856107B60400098423FF6BEAE00283FF4BBAE23
S2140856200342CC467FF464AE400003420CF1040CFF
S214085630FAD05DE6BCF5AA7F19D84FEAD53C0CF13E
S214085640770C4FEA4C0105E64FF48053EEE601234B
S214085650C8F80430444600222EE7921001209040F5
S214085660D8F8042019460243C8F8042075E740F223
S21408567054539C451BD84FEA954C0CF17C0C4FEACA
S2140856804C01E7E50AF1100AA3E6542B1FD80A0BCB
S2140856906E3250004FE7CBF30B0100297FF4B1AE12
S2140856A00AEB0901BA6841F001015160F6E6FC21EF
S2140856B04FF07E0CCEE501224FF0000ACBE604F14F
S2140856C008013046FFF780FADAF80030E6E6B3F568
S2140856D0AA7F03D8CA0B773250002CE740F2545200
S2140856E0934203D88A0C7C32500024E7FC207E22A2
S2140856F021E77B688DE700BFE8050720830770B4BD
S214085700C9B240D0541E2AB303788B4223D0431C18
S21408571004E0FCB1057814468D421CD013F0030F44
S214085720184604F1FF3203F10103F2D1032C14D812
S214085730651E54B303788B420DD0421C002302E04A
S21408574004788C4207D0AB42104603F1010302F1FD
S2140857500102F5D1002070BC704741EA01260346D5
S21408576046EA06461A6818467240A2F1013525EA46
S214085770020212F0803F03F10403D9D1043C032C43
S2140857801846EFD8D4E71446D0E72046E3E700BF2C
S2140857908842F0B410D98C18A0420DD28518531E32
S2140857A042B121462A4611F8014D013B02F8014D47
S2140857B05C1CF8D1F0BC70470F2A44D940EA0103B4
S2140857C09B0744D1A2F110073F0900EB07161036D5
S2140857D00C4603462568103343F8105C6568103499
S2140857E043F80C5C54F8085C43F8085C54F8045C0E
S2140857F043F8045CB342EDD17B1C02F00F0C1B018E
S214085800BCF1030F1944034423D90E461D466446CB
S21408581056F8047B043C032C45F8047BF8D8ACF116
S214085820040424F00304043402F00302234421444D
S214085830002ABFD01A4411F8014B03F8014B9342D3
S214085840F9D1F0BC70470346002AF3D1B2E7034605
S214085850F0E76246002AEDD1ACE700BF704700BF0C
S214085860704700BF2DE9F04F0C4683B0904681463E
S214085870002900F0BA80FFF7F1FF08F10B0654F88C
S214085880043C162E23F00305A4F108074BD8102174
S2140858900E46B0454CD88D4251DADFF884B37819F5
S2140858A0DBF808E0864500F0A680426822F0010C86
S2140858B08444DCF804C01CF0010F54D000221046C3
S2140858C0DB076FD454F8083CC3EB070ADAF8043051
