S01100004F626A6563746966792E7372656374
S214080000902D0720A5230800A1230800A123080097
S214080010A1230800A1230800A1230800000000006F
S214080020000000000000000000000000A1230800F7
S214080030A123080000000000A1230800A12308004F
S214080040A1230800A1230800A1230800A123080073
S214080050A1230800A1230800A1230800A123080063
S214080060A1230800A123080000000000CD10080006
S214080070E1100800F510080009110800000000004B
S21408008000000000C1250800A1230800A1230800DD
S214080090A1230800A1230800A1230800A123080023
S2140800A0A123080000000000A1230800A1230800DF
S2140800B0A1230800A1230800A1230800A123080003
S2140800C0A1230800A1230800A1230800A1230800F3
S2140800D0A1230800A1230800A1230800A1230800E3
S2140800E0B9170800A1230800A1230800A1230800C7
S2140800F0A123080010B5054C237833B9044B13B177
S2140801000448AFF300800123237010BD440A07207B
S214080110000000001061080008B5064B1BB1064831
S2140801200649AFF300800648036813B1054B03B1D0
S214080130984708BD0000000010610800480A07201C
S214080140106108000000000010B50E480E4B9847D6
S21408015000203E210D4B98470D4CA0470028FCD0A8
S2140801600C4B98470C4A0D4B9A620D4CA04700283A
S214080170FCD010200B4B98470B4B98470148024B76
S214080180984710BD00BD0105B10007208111080081
S214080190D5110800E5110800013F0D2000060E40A5
S2140801A0F51108001D110800552408002DE9F04F28
S2140801B083B005469046002A47D04E1C254F264C4D
S2140801C0DFF8A8A0DFF894B006F1FF390023019302
S2140801D0224B9D4206D158464946214B984700284F
S2140801E0F9D119E01F4B9D4209D19946484601A905
S2140801F0A0470028FAD1019B06F8013C17E01A4BE5
S2140802009D4209D19946484601A9A0470028FAD137
S214080210019B06F8013C14E0554508D1504601A953
S214080220A0470028FAD1019B06F8013C09E0BD4228
S21408023007D1384601A9A0470028FAD1019B06F83D
S214080240013C0136B8F10108BED1002003B0BDE874
S214080250F08F00BF00400A408923080000080E40BF
S214080260B51208000080094000C0094000000A4096
S2140802700E4900230B700E4A13800E4AA1201070F8
S21408028020205070538093800220D08013810A4A21
S2140802904FF4E130106013715371082393710B7893
S2140802A00133DBB20B700120704700BFFC0A072041
S2140802B0A80B0720140B0720600A0720024B1A78A1
S2140802C0013AD2B21A707047FC0A0720044B1A7813
S2140802D0013AD2B21A701B780022024B1A70704785
S2140802E0680A0720080B0720002070470020704780
S2140802F01D4B1B7813F0800F12D003F06003202BE1
S21408030028D1194B5B78212B26D1174BDB88072B76
S21408031024D1154B154A9A6007229A810120704706
S21408032003F06003202B1BD10F4B5878202804D0ED
S214080330222814BF0020012070470B4BDB88072BB0
S21408034010D1094B0A4A1A61084A9A6007229A810C
S2140803500120704700207047002070470020704733
S2140803600020704700207047740D0720600A072099
S21408037075030800704700BF30B583B0424B1B7842
S21408038013F0FF0F7ED1414B984730B1404B1C8885
S214080390404B9847844206D174E03D4B1C883E4B40
S2140803A0984784426ED0EFF31083D3F1010538BF27
S2140803B0002572B6BFF35F8F0022384B1A70384B91
S2140803C01C78E4B2374B33F81430DBB9364B1A884E
S2140803D001321A802D4B984718B9334B1B88632B6C
S2140803E007D92A4B984768B12F4B1B88B3F5487F27
S2140803F008D2002D46D00122284B1A70BFF35F8F13
S21408040062B63FE00022284B1A80284B1B7813F070
S214080410FF0F06D1944214BF00220122204B1A7007
S21408042003E0D4F1010438BF00240122164B1A70E9
S21408043025B11A4B1A70BFF35F8F62B62546194B63
S21408044033F81440403C18BF012464B10F4B98475A
S21408045020B1104B98470E4B188007E00E4B984774
S2140804600B4B188002E00022094B1A800D4B33F81C
S21408047015300F4A0092812021460E4A02EB85125B
S2140804800D4CA04703B030BD100B0720AD1D08006B
S214080490040B0720F91D0800E91D0800D8010720ED
S2140804A06C0A0720F00A0720F40A0720A40B072086
S2140804B0BD040800700A07202520080008B578B98A
S2140804C0084B1B7813F0FF0F14BF00220122064BBF
S2140804D023F81200054B1870054B1870054B984703
S2140804E008BD00BF6C0A0720F00A0720A40B0720E7
S2140804F0100B07207903080008B50020014B984721
S21408050008BD00BF79030800EFF3108372B6BFF387
S2140805105F8F00210A4A11700A4A128892B20A4965
S2140805200878C0B2094931F8100080B2801A2BB991
S2140805300122034B1A70BFF35F8F62B6704700BF85
S214080540D8010720000B07200C0B0720F80A072005
S21408055008B5034B9847003018BF012008BD00BFF8
S2140805600905080010B582B0EFF31083D3F1010334
S21408057038BF002372B6BFF35F8F00211F4A117081
S2140805801F4A1478E4B21F4A127812F0FF0F08D1F7
S2140805901D4A118889B21D4A32F8142092B2914237
S2140805A008D23BB30122154B1A70BFF35F8F62B6B1
S2140805B0002020E00021144A11808C4214BF00213C
S2140805C001210F4A117001210E4A117023B10B4BFD
S2140805D01970BFF35F8F62B600200D4B98470D4B1E
S2140805E00093022001210C4A02EB841240230B4C94
S2140805F0A04700E0002002B010BD00BFD8010720C9
S2140806000C0B0720A00B0720000B0720F80A072072
S21408061051050800B1060800200B07202520080011
S21408062010B50024154B1C70154B1C70154B1C7010
S214080630154B1C70154B1C805C80154B1C80204687
S214080640144B9847144B1C70144B1C70144B1C808E
S2140806505C80144B1C802046134B9847024658B1C2
S214080660064B19780131C9B219701B78DBB2012B19
S21408067002D101210D4B1970104610BD680A0720DB
S214080680100B0720A40B07206C0A0720F00A072087
S214080690040B072079030800A00B07200C0B072083
S2140806A0F80A0720000B072065050800080B072036
S2140806B010B582B0D8B90F4B1B7813F0FF0F14BFD4
S2140806C00023012351B90C490091104601210B4A19
S2140806D002EB831240230A4CA04708E089B2094A75
S2140806E022F813100020084B1870084B984702B0E1
S2140806F010BD00BF0C0B0720B1060800200B072012
S21408070025200800F80A0720A00B07206505080022
S2140807100F4B1B681B685A881A4403781844904283
S21408072010D24378042B0FD08B4205D170474378FC
S214080730042B0BD08B420AD0037818449042F6D389
S2140807400020704700207047002070470020704740
S214080750AC0B072008B5034B987800F07F00024BD7
S214080760984708BD740D0720B11D080010B4164B35
S2140807701B7803B3154B1B681B681A7982421CD971
S214080780134A13605C881C44A34218D25A78042A79
S21408079009D19A78824206D1DA788A4203D10C4A7D
S2140807A0136001200CE01A781344A342EED3084ADB
S2140807B01360002004E0002002E0002000E0002093
S2140807C05DF8044B704700BFBC0B0720AC0B072036
S2140807D0C00B07202DE9F84304460021124B984722
S2140807E08046E8B1114B1B685B6853F82490D9F82B
S2140807F00C309847014620460B4B9847804678B100
S2140808000B4B1C6805260B4D0B4F20463146A84758
S214080810044610B18078B847F7E7D9F80430984707
S2140808204046BDE8F88300BF6D070800AC0B0720FC
S214080830C00B072011070800151E08002DE9F04117
S2140808408046104B98470346C8B10F4B1C680526D0
S2140808500E4D0F4F20463146A847044638B18078DB
S214080860E178A288B84703460028F3D107E0094B89
S2140808701B685B6853F828301B6898470346184679
S214080880BDE8F0816D070800C00B072011070800B7
S21408089019210800AC0B072070B50D4B1B7883B1E7
S2140808A00C4B1B681B681B795BB100240A4E094D6C
S2140808B02046B0470134E4B22B681B681B79A34274
S2140808C0F6D80022024B1A700122044B1A8070BD1B
S2140808D0BC0B0720AC0B0720D5070800B80B072071
S2140808E038B50C4B1B789BB10B4B1B681A681279F2
S2140808F072B10024084D5B6853F824301B6903B1B5
S21408090098470134E4B22B681A681279A242F2D8E2
S21408091038BD00BFBC0B0720AC0B07202DE9F04103
S214080920774B00229A811A615A611B7813F0800F60
S21408093000F0E681724AD288002A40F0E581DBE1C1
S21408094013F01F0367D16E49497806290DD0082988
S21408095057D000295FD1022A05D16A4802216A4B7E
S2140809609847012474E1002472E1654B5A88130AFB
S214080970013B0E2B3BD8DFE803F0080F2A3A3A3A39
S2140809803A3A3A3A3A3A3A3A2200604B1B681846DC
S21408099019785D4B984721E0D2B25C4B1B685B7CAC
S2140809A0934226D9594B5B6853F832301846598813
S2140809B0554B9847524B9B6802225A700EE0534B91
S2140809C09B68C3B1184659884F4B984706E012F003
S2140809D0FF0F12D14E4804214B4B9847484BDA88F4
S2140809E09B8993420BD9464B9A81012430E1002417
S2140809F02EE100242CE100242AE1002428E1012429
S214080A0026E1012A05D1434801213F4B9847012496
S214080A101EE100241CE1012B2AD1394949780A290C
S214080A2026D1012A1ED13B4B1B78EBB1344B1D79DE
S214080A30394B1E6833681B79AB4217D92846002104
S214080A40364B98470446002800F00281736853F82E
S214080A502530DB689847324B1870184601212A4B18
S214080A609847F5E00024F3E00024F1E00024EFE0E6
S214080A70022B40F0EF80224B5B78002B40F0E3809F
S214080A80022A0BD11E4B1879264B9847264B1880FE
S214080A90184602211C4B98470124D9E00024D7E0C9
S214080AA013F01F0340F08480154A5278013A082A4A
S214080AB07ED8DFE812F013007D00CA007D0009002A
S214080AC07D007D007D003D000D4BDB8823B9174A6D
S214080AD00B4B1A610124BBE00024B9E0084BDB8805
S214080AE053B9074B5B88012B08D1064B1A8822F0AE
S214080AF002021A800124ABE00024A9E00024A7E043
S214080B00740D0720B80B0720091E0800600107208F
S214080B10D4010720BC0B0720AC0B07206D07080084
S214080B20B40B07206D1E0800B00B072055070800F9
S214080B30794BDB88002B31D1784B984700282FD08B
S214080B40754B9A78764B1B685B7C9A422ADC754B09
S214080B509847714B9B78744A13702BB303F1005374
S214080B60013B6F4A526802EBC3007049086052F8AE
S214080B7033301B79D3B100252F466D4E884628465C
S214080B803946B0470446002862D00135EDB2D8F899
S214080B9000301B681B79AB42F1D859E0002457E0B7
S214080BA0002455E0002453E0012451E001244FE0DE
S214080BB0012B1CD1584A52780B2A18D1564BDB8881
S214080BC08BB9594B1B7883B1534B1D795E882846E1
S214080BD0584B9847044600283AD02846F1B2544B5A
S214080BE09847044634E0002432E0002430E0022B24
S214080BF030D1494B5B78012B02D0032B10D026E06E
S214080C00454BDB8843B9444B5B883BB9424B187964
S214080C10494B984704461BE0002419E0002417E0D7
S214080C203D4BDB885BB93C4B5B8853B93A4C207923
S214080C30424B98472079424B9847044608E00024E0
S214080C4006E0002404E0002402E0002400E000247B
S214080C50002C5DD1304B1B7803F01F03012B1ED1EF
S214080C60314B1B78DBB12C4B1C79304B1D682B683D
S214080C701B79A34213D920460021324B984770B1FE
S214080C806B6853F82450EB689847014620462D4B6E
S214080C90984720B1AB6898470446002838D11E4BC1
S214080CA01B7803F01F03022B28D11F4B1B78FBB1C0
S214080CB01E4B1B681A681279E2B10025214FDFF82F
S214080CC06C805B6853F82560F368984701462846A9
S214080CD0B8470446E0B1B36898470446C0B901353A
S214080CE0EDB2D8F800301A681279AA42E9D80FE0AF
S214080CF000240DE000240BE0002409E0002407E0AF
S214080D0013F0600FA6D1CBE613F0600FA2D117E65A
S214080D102046BDE8F08100BF740D0720D91D0800E5
S214080D206001072099080800BC0B0720AC0B0720B9
S214080D303D080800D5070800691F0800F5220800C6
S214080D40811E08006D0708002DE9F0410C46904604
S214080D5060B9002A0EDD8F18094E0A4D3068214604
S214080D602B6898470134BC42F8D106E04FF0FF30B4
S214080D70BDE8F0810020BDE8F0814046BDE8F0817E
S214080D80700D0720680D07202DE9F0410E46154620
S214080D90013802280FD892B10024DFF83C800D4FA6
S214080DA0D8F80000315D3B68984700280ADB013414
S214080DB0A542F5D10AE04FF0FF30BDE8F0810020EB
S214080DC0BDE8F0814FF0FF30BDE8F0812046BDE871
S214080DD0F08100BF6C0D0720700D072010B54FF48A
S214080DE00042164B5A600B20154CA0470C20A04713
S214080DF00D20A0470E20A0473B204FF06051114C15
S214080E00A04755204FF06051A04756204FF060513C
S214080E10A04768200C49A0475C200C49A0470C480E
S214080E204FF440710B4A0C4B98472B204FF000614B
S214080E30A0472A204FF00061A04710BD501A0E4068
S214080E4005120800010F0800790000280100002894
S214080E50000E0E4001000008D50F08004264B1F1EC
S214080E60805F16D004D8C1B1B1F1006F0AD013E084
S214080E70B1F1405F11D0B1F1605F0ED0B1F1205FE3
S214080E800AD17047036F016F0B4023EA020303671A
S214080E9002E0036F1343036742607047416412F031
S214080EA0010F14BF4166016612F00A0F14BF0162F3
S214080EB0416212F0020F02D0C0F8801004E012F06F
S214080EC0080F18BFC0F8841041610160704700BF62
S214080ED010B44164019C0CB1416600E001660BB198
S214080EE0016500E041650AB1016300E04163016104
S214080EF001605DF8044B7047C06C7047806C7047A3
S214080F0070B582B00D46440904F5001404F207745F
S214080F10660201F0F044B4F1205F30D006D8B4F190
S214080F20006F0AD0B4F1805F18D049E0B4F1405F92
S214080F3030D0B4F1605F2DD042E000F01F000124ED
S214080F40844030464FF0006122461F4B984715F004
S214080F50010F14BF74663466012032E000F01F00EB
S214080F600124844030464FF080512246164B98475D
S214080F7015F0010F14BF74663466012021E000F0F6
S214080F801F010124304604FA01F12A460F4B984700
S214080F90204616E000F01F01012405F0605205EA1D
S214080FA004030093304604FA01F1B2F1605F14BFFF
S214080FB000220122C5F38003054DA847204600E01D
S214080FC0002002B070BD00BF5D0E08009D0E080030
S214080FD0D10E0800F0B583B007460E46154602F057
S214080FE0F044B4F1205F26D006D8B4F1006F0AD0DA
S214080FF0B4F1805F13D034E0B4F1405F1FD0B4F191
S214081000605F1CD02DE04FF000613246164B9847C3
S21408101015F0010F14BF7E663E66012022E04FF0F1
S21408102080513246104B984715F0010F14BF7E6664
S2140810303E66012016E00D4B9847012012E005F0A9
S214081040605205F00103009338463146B2F1605FFE
S21408105014BF00220122C5F38003054CA0470120D7
S21408106000E0002003B0F0BD5D0E08009D0E0800ED
S214081070D10E08002DE9F04104460E46104B98475D
S214081080054620460F4B9847054017D00E4F07F1E8
S2140810900C046C3754F80C3CB3420AD154F8081CBC
S2140810A0294206D023683046984754F8083C25EA73
S2140810B00305BC4202D01034002DEBD1BDE8F08108
S2140810C0F90E0800FD0E0800C40B072008B50248F4
S2140810D00B21024B984708BD000E0E4075100800FD
S2140810E008B502480C21024B984708BD00100E4070
S2140810F07510080008B502480D21024B984708BD30
S21408110000120E407510080008B502480E21024B62
S214081110984708BD00140E4075100800174B1A6B48
S21408112022F07002104318639B6E13F0080F09D163
S2140811304FF40063114901E0013B19D08A6E12F0A2
S214081140080FF9D00D4B1A6B22F0030242F0020288
S2140811501A63986E10F008000CD14FF40063074924
S21408116001E0013B08D08A6E12F0080FF9D07047EC
S21408117001207047002070470120704700060E4087
S21408118038B111490B6A114A1A40114B13430B62C6
S21408119070470D4A136A23F45C1323F0030343F4E1
S2140811A05C1343F00103090289B20B431362936E82
S2140811B013F0010FFBD0044A136A43F09B7343F401
S2140811C080331362704700BF00060E40FCFFC8FE5F
S2140811D002003701024B986E00F48030704700BF5B
S2140811E000060E404FF00052014B9A62704700BF4F
S2140811F000060E40024B986E00F00200704700BFD3
S21408120000060E402C2820D81F280DD8124B9A69A5
S214081210012383401A40934219D0012303FA00F0B1
S2140812200D4B1861002070470B4BD3F80821203867
S214081230012383401A4093420BD0012303FA00F09F
S214081240054BC3F8000100207047012070470020B6
S21408125070470020704700BF00060E40024B187803
S21408126080F00100704700BF340C072010B4AC2390
S21408127003600A684B68B2FBF3F31B095C1E4FF663
S214081280FE7294420AD803628B68436040F20223D7
S214081290C0F8203150230360002000E001205DF8EC
S2140812A0044B7047436913F0020F1ABFC161002050
S2140812B001207047436913F0010F1DBF83690B7047
S2140812C000200120704700BFEFF3108372B6BFF30B
S2140812D05F8F00210A4A117001210A4A116023B95A
S2140812E0074B1970BFF35F8F62B60222064B1A606F
S2140812F0064A0023136153619381054A13707047A9
S214081300D801072020C20A4060C10A40740D072091
S214081310840C07200522034B1A704FF40022024B58
S2140813201A607047840C0720F0C10A4003220D4B50
S2140813301A70EFF3108072B6BFF35F8F00220A4B65
S2140813401A700A4901220A60094B1A6008220A60C4
S2140813501A6028B90122044B1A70BFF35F8F62B671
S214081360704700BF840C0720D801072060C10A40D8
S214081370F0C10A4008B5024B1B6903B1984708BD7F
S214081380740D072038B5EFF3108372B6BFF35F8F7E
S2140813900021484A11700121474A116023B9454B7C
S2140813A01970BFF35F8F62B6444B1B78032B04D1CA
S2140813B0434B9847434B984738BD434B1B88434A93
S2140813C09489E41AA4B2002C2ED1414A11880B4401
S2140813D09BB213803D4AD2889A4202D03D4B1B7876
S2140813E0C3B10422354B1A70EFF3108272B6BFF3FE
S2140813F05F8F00212F4B1970102337490B609031EF
S2140814000B60002A55D101222A4B1A70BFF35F8F52
S21408141062B638BD2D4B5B696BB1984758B1002250
S214081420294B1A80294B9C893F2C04D90022294B2A
S2140814301A70402402E00122264B1A70234B9D683E
S214081440214B1A88EFF31080D0F1010038BF002036
S21408145072B6BFF35F8F0021164B19701F4B1B68BF
S21408146013F0020F01D15CB913E028B10122114B29
S2140814701A70BFF35F8F62B60422104B1A7038BD1D
S2140814802A44174B12F8011B03F8011BD9B2A142D4
S214081490F8D30D4B1A8814441C8001230E4A136097
S2140814A09032136028B11A46024B1A70BFF35F8F4A
S2140814B062B638BDD801072020C20A40840C07202F
S2140814C075130800C9120800860C0720740D07203B
S2140814D0800C0720830C072060C10A4030C10A40F0
S2140814E00000182010B50346047D14F0010F10D034
S2140814F0047D6FF300040475046854B1054850F879
S214081500220010F4807F18BF42F0800208469968CF
S214081510A04710BD00C10A40F8B50246411E01EBBF
S21408152041004D4B03EBC003187D10F0010F00F08F
S2140815309280D8689C68A04267D0241AB4F5803F89
S21408154092BF26044FF480340026444D55F8227086
S21408155017F4807F0FD055F82250C5F302150827D8
S21408156007FA05F5013D2C4216D03E431D7D6FF364
S21408157041051D7510E055F82270C7F3C127012FE5
S21408158008D155F82250C5F30215082707FA05F5BD
S214081590AC4201D846F01406314D05EB02155F68DB
S2140815A038446860EFF31080D0F1010C38BF4FF074
S2140815B0000C72B6BFF35F8F00272A480770E868EA
S2140815C010F0100F16D146F02106AE60DA682244F5
S2140815D0DA601C614FF0007303FA01F1224B99613F
S2140815E0BCF1000F37D001221E4B1A70BFF35F8F75
S2140815F062B6F8BDBCF1000F05D001201949087085
S214081600BFF35F8F62B6D9689960144951F8221003
S21408161011F4807F1BD0197D11F0020F17D001211D
S214081620124B43F82210303B53F8223013F4803F15
S2140816301CBF0F4B43F8221001210E4B43F8221013
S2140816404FF4805303FA02F2074B9A61F8BD184626
S2140816500021094B9847F8BD380C072000C10A40FE
S21408166000C30A40D801072000C00A4060C10A40EB
S21408167090C10A40F0C10A40E51408000246002856
S21408168035D11D4B1B787BB31C4B9B7803B9FEE703
S214081690EFF3108172B6BFF35F8F0020184B1870F7
S2140816A0164B987801389870F1B90121144B1970C7
S2140816B0BFF35F8F62B617E0104B9B78FF2B00D105
S2140816C0FEE7EFF3108172B6BFF35F8F00200C4B76
S2140816D018700A4B98780130987029B90121084B80
S2140816E01970BFF35F8F62B6034B1A707047024BD0
S2140816F01B78002BF8D1DFE7820C0720600D072047
S214081700D801072038B5EFF3108572B6BFF35F8FA0
S2140817100022194B1A700120184B9847184BD3F81B
S214081720002822F48042C3F800281A46D2F8043863
S21408173013F4804FFAD0124B1A6822F480721A609B
S21408174008249C610121996110229A6104209861FD
S2140817509C60986002209860D9609A60D3F8002848
S21408176042F48042C3F8002825B9034B1970BFF32A
S2140817705F8F62B638BD00BFD80107207D16080007
S21408178000C00A4008B50A4BD3F8002822F4804265
S214081790C3F800281A6842F480721A60D3F8002842
S2140817A042F48042C3F800280020024B984708BD40
S2140817B000C00A407D1608002DE9F84F9C4B984754
S2140817C060B99C4B5B6813F0010F07D172B6BFF384
S2140817D05F8F0022984B1A70BDE8F88F954B5B68B0
S2140817E013F0040F0CD0934B04229A60D3F80438F5
S2140817F013F4405F40F0B182904B9847BDE8F88FED
S2140818008C4B5B6813F0020F06D00222894B9A6055
S2140818108A4B9847BDE8F88F864B5B6813F4805F61
S21408182000F08B82864B10221A6008221A60F03B62
S2140818301B6813F0040F60D0824B1B781BB1824BD9
S2140818409847824B9847824B1B68C3F30A53082B6A
S21408185006D0804B984704227F4B1A60BDE8F88F65
S2140818607E4B7F4D7F4C804813F8011B5A19115543
S2140818708342F9D17D4B984730B9764B9847042276
S214081880754B1A60BDE8F88F0422734B1A60744BC8
S21408189093F90030002B0BDA0023754A1380754A3B
S2140818A013800222674B1A70734B9847BDE8F88F6F
S2140818B06B4BDB881BB9714B9847BDE8F88F002344
S2140818C06B4A13806B4A138001215E4A11701022FE
S2140818D061490A60EFF3108172B6BFF35F8F56480E
S2140818E00370674B1A60002940F0378201220270A5
S2140818F0BFF35F8F62B6BDE8F88F554B1B6813F0D1
S214081900010F08D05F4B1B6813F0010F03D05A4B2A
S2140819109847BDE8F88F4E4B1B6813F0020F00F08F
S214081920B380484B1B78012B0CD0022B01D0042B1C
S21408193002D1454B984701E0464B9847434B98479A
S214081940BDE8F88F424B1868C0F30A50444B9B8991
S214081950484A148822189342AEBF80B2C4EB0303E9
S21408196098B23F4B9A682244A0B13C4B13F8011B2F
S21408197002F8011BD9B28142F8D30444A4B23D4B05
S2140819801C80402806D1364BDA88394B1B882344FE
S2140819909A4213DC324B9C815B6943B1984730B955
S2140819A02C4B984702222C4B1A60BDE8F88F02226F
S2140819B0294B1A60314B9847BDE8F88F284B9B890E
S2140819C0A3421AD1264B5B6933B9224B98470222A9
S2140819D0214B1A60BDE8F88F984730B91D4B9847D9
S2140819E002221D4B1A60BDE8F88F214A214B188841
S2140819F011880144118000221A80174A02231360B6
S214081A0010231360EFF3108272B6BFF35F8F0020C7
S214081A10094908701A490B60002A40F09E81012285
S214081A20054B1A70BFF35F8F62B6BDE8F88F00BF2C
S214081A305D12080000C00A40D8010720E108080027
S214081A4020C20A40840C072075130800C912080033
S214081A5030C10A401513080060C10A40000018206B
S214081A60740D0720FFFFE7DF080018201D0908008F
S214081A70800C0720860C0720851308002D13080005
S214081A80F0C10A40C0C10A40B54B1B6813F0080FE6
S214081A9013D00822B34B1A60303B1B6813F0010FB3
S214081AA040F05B81B04B1B78032B40F056814FF417
S214081AB00022AE4B1A60BDE8F88FA94B1B6813F0DE
S214081AC0100F00F03A811022A64B1A60303B1B68B4
S214081AD013F0020F40F04181A34B1B78012B03D172
S214081AE0A34B9847BDE8F88F042B40F036814FF497
S214081AF000229E4B1A60BDE8F88FDAB29C46A246D2
S214081B002F695E1E08FA06F63E4218D06F683E42F7
S214081B1015D0984B03EB0213D96811F0010F40F06B
S214081B201C8195494E61DB681B0C03D0E168CB1A13
S214081B30E360A3601046914B9847BDE8F88F2E697E
S214081B4009FA0CFC1CEA060F46D04FEA830B01F193
S214081B509007D1F8906016F0010F14D00E6816F0B2
S214081B60010F10D0864B01214BF803107D484BF827
S214081B7000104FF480414BF8031050460021814B6B
S214081B809847BDE8F88F3A6812F4805F24D00A6850
S214081B9012F4405F20D14FF48052794B4BF8032063
S214081BA0A3F50873C3F814C09AF814306FF38203C9
S214081BB08AF81430744B5BF8032022F400724BF852
S214081BC00320F0334FF400224BF803204FF4802212
S214081BD04BF80320BDE8F88F013318340431042B82
S214081BE08BD1B4E00822644B9A600546002401278E
S214081BF0644E0134E4B2284639462246B0471835C2
S214081C00032CF6D1614B98475B4B1A6822F07F028B
S214081C101A601A6842F080021A605B4A116821F45A
S214081C20CB5121F01C0141F030011160116841F0E0
S214081C3002011160DA6942F00102DA61EFF31081FD
S214081C4072B6BFF35F8F0020514A1070474A0420CF
S214081C501060022010604FF480529A6129B9012260
S214081C604B4B1A70BFF35F8F62B64A4B9847BDE876
S214081C70F88F414B1B6913F0010F1AD03E4B5B6877
S214081C8013F0010F15D03C4BD3F8002822F48042FD
S214081C90C3F8002801225A6110229A61D3F8002856
S214081CA042F48042C3F8002800203B4B9847BDE822
S214081CB0F88F314B1B6913F0100F1ED02E4B5B6844
S214081CC013F0100F19D02C4BD3F8002822F48042BA
S214081CD0C3F8002803E05A6812F0010F04D1D3F8BD
S214081CE0042812F4804FF6D0234B10225A610120A4
S214081CF09861294B9847BDE8F88F1F4BD3F80438EE
S214081D0013F0020F29D01C4BD3F8002822F4804287
S214081D10C3F800280222C3F80828D3F8002842F49B
S214081D208042C3F80028D3F8043813F4006F14BFB1
S214081D301A4B1B4B9847BDE8F88F1A4804461A49B1
S214081D4001230D4D4FF000784FF48059D5E60A4B25
S214081D505B6813F0080F8CD044E7BDE8F88F00BF27
S214081D6030C10A4060C10A40840C0720F0C10A400E
S214081D702D13080000C30A4000C00A4019150800C1
S214081D8020C20A40E514080000C10A409908080065
S214081D90D8010720C91208007D1608000517080094
S214081DA085170800380C072034C10A400020704701
S214081DB0084B1A6822F080021A601A6800F07F0042
S214081DC022F07F0202431A601A6842F080021A6004
S214081DD0704700BF00C00A40024B186800F07F003A
S214081DE0704700BF00C00A40024B186AC0F3CA001A
S214081DF0704700BF00C00A40024B186AC0F30D00C7
S214081E00704700BF00C00A40014B98609981704730
S214081E10740D072070B500F00F02032A1FD8104B68
S214081E20D869012101FA02F420EA0400D86103F512
S214081E30807353F8220020F0020043F82200541E54
S214081E40084D04FA01F6301905EBC000064B984712
S214081E50344405EBC4052B7D6FF382032B7570BDE8
S214081E6000C00A40380C0720E514080000F00F00F0
S214081E70024B53F82000C0F3C0407047C0C10A4068
S214081E8030B400F00F03032B54D8314A52F82320FD
S214081E9012F4002F50D15A1E02EB42022D4901EBD4
S214081EA0C202117D11F0040F48D111F0010F47D17D
S214081EB0EFF31081D1F1010138BF002172B6BFF3EC
S214081EC05F8F0025244C257010F0800F1AD0234809
S214081ED050F8230010F4405F14D0107D40F0040042
S214081EE010754FF480521E4840F8232002FA03F378
S214081EF0A0F5F870836129B301202070BFF35F8FC7
S214081F0062B622E0174A52F8230020F4007042F81E
S214081F1023004020603242F823004FF4002090321D
S214081F2042F8230081B101200B4B1870BFF35F8F76
S214081F3062B60AE0002008E0012006E0012004E07E
S214081F40002002E0012000E0012030BC704700BFFE
S214081F50C0C10A40380C0720D801072030C10A4003
S214081F60F0C10A4000C10A4038B500F00F00032847
S214081F7040D82749431E03EB4303DC000B191A7DA0
S214081F8012F0040F3AD01A7D6FF382021A754FF4D6
S214081F908052204D45F820208240A5F508756A61D4
S214081FA0820005F5E07555F8200010F4002F15D0CE
S214081FB01948105810F0400F06D0402517481550FD
S214081FC04FF48025903015504FF4002511481550D1
S214081FD0A0F59070155845F4007515501A7D12F046
S214081FE0010F09D01A7D6FF300021A750B5998472E
S214081FF0012038BD002038BD012038BD8200084DBC
S21408200055F8200010F4002FD2D1012038BD00BFAB
S214082010380C072020C20A4030C10A4060C10A4076
S214082020C0C10A402DE9F04100F00F0003285AD835
S214082030344CE46901258540254257D0324C54F883
S214082040204014F4002F54D1304E441E04EB4404B0
S214082050E5007419277D17F0040F4DD1EFF31087AC
S214082060D7F1010838BF4FF0000872B6BFF35F8F8C
S2140820704FF0000C264F87F800C0277D17F0010F99
S2140820800BD0B8F1000F3AD00122214B1A70BFF3DB
S2140820905F8F62B66046BDE8F081277D47F001078E
S2140820A02775B8F1000F07D04FF0010E184F87F8C4
S2140820B000E0BFF35F8F62B66260A3600022E26052
S2140820C02261069A725121B9D3F1010338BF002361
S2140820D000E00123227D63F3410222750D4B9847E9
S2140820E00120BDE8F0810020BDE8F0810020BDE8B1
S2140820F0F0810020BDE8F0810020BDE8F0810020D6
S214082100BDE8F08100C00A40C0C10A40380C07206C
S214082110D8010720191508002DE9F04F83B000F004
S2140821200F04032C00F2C7806C4BDB69264601259A
S214082130A5401D4240F0C18011F0030300F0BF80A7
S214082140022B02D9032B02D0B9E0012700E00027B2
S2140821504FEA840C624D55F8243023F4CB5323F011
S2140821601C03C90201F4C05100F0800000280CBF0F
S21408217000204FF48070A2F580681FFA88F8B8F53A
S2140821807C4F04D3082A05D95200013A03E040F2EE
S214082190FF7200E00F22B2FA82F241EA870707438D
S2140821A0C2F11C0247EA021222F4D06222F00302AD
S2140821B0D204D20C13434CF80530012707FA06F66A
S2140821C0B7B2022C00F28180464A03234348012610
S2140821D0C56906FA03F1294209D00F43BFB2C5699B
S2140821E025EA0101C161116821F002011160013B75
S2140821F0043AD9B2A142EBD867E047FA04F313F0E1
S214082200010F52D0631E03EB430C08EBCC052B7D65
S21408221003F001026FF300032B75A10001EB060A19
S21408222056F8243043F0020346F824302B4BD8697E
S2140822304FF0010B0BFA04FB4BEA0000D86159F883
S214082240243013F4802F0FD12B68002B39D0DAF8FE
S214082250002012F4807F18BF44F080040120E9684B
S21408226022469847002036E056F8243043F4007398
S21408227046F82430CAB1EA682B69D31AEB608A5943
S21408228012F4807F14BF44F080002046297DD5F8DC
S21408229004E0AD6858F83C200092C1F340010EEB0C
S2140822A00302EB1A104DA84768B10134E4B2042CB7
S2140822B0A3D101200FE000200DE000200BE0002055
S2140822C009E0002007E0002005E0DFF82080044E43
S2140822D0DFF81C9091E703B0BDE8F08F00C00A4015
S2140822E000C10A400CC10A4025200800380C072007
S2140822F030C10A4070B500F00F02561E4FF000714C
S214082300B140154B5961154901EB021100248C6048
S2140823104FF480519140596110F0800F12D093000D
S2140823200F4818440F4C1C444FF400550E491944E6
S21408233004E025600B6813F4005FFBD1036813F410
S214082340405FF6D106EB4606084800EBC6000121BA
S214082350074B984770BD00BF00C00A4000C30A403C
S21408236030C10A40F0C10A40C0C10A40380C0720F4
S214082370E5140800436913F0020F1DBFC1F30801F6
S214082380C161002001207047436913F0010F05D092
S2140823908369C3F308030B60002070470120704769
S2140823A0FEE700BF10B51E4B1E4A9A4203D01E4BCE
S2140823B01B4A9A4204D31D4B1D4A9A420FD31AE071
S2140823C01C4B1D4CE41A24F0030404340023144860
S2140823D014495A581A500433A342FAD1EBE7174B5C
S2140823E01749C91A21F003011A1D1144002243F89F
S2140823F0042F8B42FBD1134A22F0604323F07F035D
S21408240011498B6002F16042B2F5801F03D28A68D8
S21408241042F000528A600D4B98470D4B9847FEE7EE
S2140824200000072010610800440A0720900D0720C6
S214082430440A072004000720470A0720400A072006
S2140824408B0D07200000080000ED00E0F1300800C2
S214082450892808003E4B1B6B03F00303032B5FD849
S214082460DFE803F0020E2B2B3A4B5B6913F0800F64
S21408247014BF4FF400424FF4FA42374B1A604FE04D
S214082480334B1B6A13F0807F03D0344A324B1A60F2
S21408249046E0334A304B1A602D4B1B6A03F0700334
S2140824A0102B02D0202B04D03AE02E4A2A4B1A6072
S2140824B036E02A4A284B1A6032E0254B1B6A13F08E
S2140824C0807F03D0254A244B1A6012E0244A224B08
S2140824D01A601F4B1B6A03F07003102B02D0202BC8
S2140824E004D006E01F4A1C4B1A6002E01B4A1A4B2F
S2140824F01A60174B1B6B03F00303022B0DD1144B0A
S214082500986A996A144BC0F30A401A6800FB0222BC
S214082510C9B2B2FBF1F21A6002E0134A0E4B1A6017
S2140825200B4B1B6B03F07003702B07D10A4B1A6812
S2140825300E49A1FB020252081A607047044B196B39
S214082540054BC1F302111A68CA401A60704700BFEB
S21408255000060E40101A0E40DC010720001BB700CC
S21408256000093D0000127A00001C4E0EABAAAAAA6B
S214082570094B1B6813B9094A074B1A60064B1B68B8
S2140825801A180749914204DB1046034A1060184699
S21408259070474FF0FF307047880C0720902D0720B3
S2140825A0FC7F08204FF0FF30704700BF4FF4005301
S2140825B04B600020704700BF01207047002070471E
S2140825C000B583B011480DF107010122104B98475A
S2140825D072B6BFF35F8F00220E4B1A700E4B1B7835
S2140825E09DF807100D4AD1549B2B03D100220A4BA5
S2140825F01A7002E00133084A13700122054B1A705C
S214082600BFF35F8F62B603B05DF804FB0080094035
S214082610AD010800D8010720280D07208C0C0720DC
S214082620F0B583B004460D46002301931F4B98422D
S21408263007D11F461E4E38462946B0470028FAD10D
S21408264019E01C4B984209D11F461B4E384601A973
S214082650B0470028FAD1019B2B7019E0174B984217
S21408266009D11E46144C304601A9A0470028FAD1C5
S214082670019B2B7018E0124B9C4209D11E460E4C4B
S214082680304601A9A0470028FAD1019B2B700BE021
S2140826900C4B9C4208D11E46074C304601A9A04761
S2140826A00028FAD1019B2B7003B0F0BD00080E403D
S2140826B0B5120800008009408923080000C00940B8
S2140826C000000A4000400A4070B50C46214B98426C
S2140826D007D11E46204D30462146A8470028FAD185
S2140826E02BE01E4B984207D11E461D4D304621460C
S2140826F0A8470028FAD122E01A4B984207D11E466E
S214082700174D30462146A8470028FAD119E0164B3F
S214082710984207D11E46124D30462146A847002843
S214082720FAD110E0114B98420FD11E460C4D304698
S2140827302146A8470028FAD109E0012070BD0120EB
S21408274070BD012070BD012070BD002070BD012045
S21408275070BD00BF00080E40A512080000800940A2
S2140827607523080000C0094000000A4000400A40DF
S21408277030B585B00820124DA847124C124B1C6085
S214082780124A134B1A60134A134B1A60134B0193E1
S2140827904FF4E13302934FF4006303930820A847ED
S2140827A0204601A90E4B98470E4D2B6898680021C5
S2140827B00D4CA0472B6858680021A04705B030BDCF
S2140827C00512080000080E40700D0720C9260800EC
S2140827D06C0D072021260800680D072000BD01059E
S2140827E06D12080008060720E932080000000000FD
S2140827F010B500231E491F4802E00133834216D055
S214082800CA6B12F0007FF8D111E05A1C834201D03F
S21408281013460EE01346164AD26B12F0007F16D007
S214082820154A934215D000201149144609E010496C
S2140828301148CA6B12F0007FE7D0ECE71A18A242DC
S21408284008D00130CA6B12F0007FF7D102E00020F2
S21408285000E00020094B984703A3D3E90023084C5F
S214082860A047084B984710BD6666666666661440BD
S21408287000120E40414B4C00404B4C00912B080078
S214082880D12E0800A13008002DE9F843154B9847CB
S214082890154B9847154B9847154B4FF080621A61B1
S2140828A0C3F8A0204FF000725A61C3F8A0201D4656
S2140828B04FF08066B1460F4CDFF84C800E4FC5F8D7
S2140828C034900C20A0472E633C20A0476E63C04778
S2140828D0A7FB003109484909094B98470948A0470A
S2140828E0EDE700BF49010800DD0D08007127080064
S2140828F000120E400100072009CB3D8D84600800B9
S21408290041310800C0C62D00F127080081F00041BB
S21408291002E000BF83F0004330B54FEA41044FEAB7
S214082920430594EA050F08BF90EA020F1FBF54EA52
S214082930000C55EA020C7FEA645C7FEA655C00F0EE
S214082940E2804FEA5454D4EB5555B8BF6D420CDDBF
S2140829502C4480EA020281EA030382EA000083EA42
S214082960010180EA020281EA0303362D88BF30BDE2
S21408297011F0004F4FEA01314FF4801C4CEA113138
S21408298002D0404261EB410113F0004F4FEA033397
S2140829904CEA133302D0524263EB430394EA050F22
S2140829A000F0A780A4F10104D5F1200E0DDB02FA91
S2140829B00EFC22FA05F2801841F1000103FA0EF225
S2140829C0801843FA05F359410EE0A5F120050EF1EB
S2140829D0200E012A03FA0EFC28BF4CF0020C43FA1C
S2140829E005F3C01851EBE37101F0004507D54FF029
S2140829F0000EDCF1000C7EEB00006EEB0101B1F579
S214082A00801F1BD3B1F5001F0CD349085FEA3000BE
S214082A104FEA3C0C04F101044FEA445212F5800FC9
S214082A2080F09A80BCF1004F08BF5FEA500C50F166
S214082A30000041EB045141EA050130BD5FEA4C0C49
S214082A40404141EB010111F4801FA4F10104E9D1D2
S214082A5091F0000F04BF01460020B1FA81F308BFC9
S214082A602033A3F10B03B3F120020CDA0C3208DD95
S214082A7002F1140CC2F10C0201FA0CF021FA02F170
S214082A800CE002F11402D8BFC2F1200C01FA02F1E0
S214082A9020FA0CFCDCBF41EA0C019040E41AA2BF05
S214082AA001EB0451294330BD6FEA04041F3C1CDACD
S214082AB00C340EDC04F11404C4F1200220FA04F0ED
S214082AC001FA02F340EA030021FA04F345EA030197
S214082AD030BDC4F10C04C4F1200220FA02F001FA59
S214082AE004F340EA0300294630BD21FA04F02946DB
S214082AF030BD94F0000F83F4801306BF81F4801174
S214082B000134013D4EE77FEA645C18BF7FEA655CE6
S214082B1029D094EA050F08BF90EA020F05D054EAB8
S214082B20000C04BF1946104630BD91EA030F1EBFBD
S214082B300021002030BD5FEA545C05D140004941C1
S214082B4028BF41F0004130BD14F580043CBF01F5B4
S214082B50801130BD01F0004545F0FE4141F470019A
S214082B604FF0000030BD7FEA645C1ABF1946104675
S214082B707FEA655C1CBF0B46024650EA013406BF76
S214082B8052EA033591EA030F41F4002130BD00BF35
S214082B9090F0000F04BF0021704730B54FF48064F2
S214082BA004F132044FF000054FF0000150E700BF73
S214082BB090F0000F04BF0021704730B54FF48064D2
S214082BC004F1320410F0004548BF40424FF00001BF
S214082BD03EE700BF42004FEAE2014FEA31014FEA02
S214082BE002701FBF12F07F4393F07F4F81F0605151
S214082BF0704792F0000F14BF93F07F4F704730B5C0
S214082C004FF4607401F0004521F0004120E700BF52
S214082C1050EA010208BF704730B54FF000050AE0D9
S214082C2050EA010208BF704730B511F0004502D5DA
S214082C30404261EB41014FF4806404F132045FEADC
S214082C40915C3FF4DCAE4FF003025FEADC0C18BF81
S214082C5003325FEADC0C18BF033202EBDC02C2F177
S214082C60200300FA03FC20FA02F001FA03FE40EA09
S214082C700E0021FA02F11444C1E600BF70B54FF009
S214082C80FF0C4CF4E06C1CEA11541DBF1CEA1355EB
S214082C9094EA0C0F95EA0C0F00F0DEF82C4481EA53
S214082CA0030621EA4C5123EA4C5350EA013518BF73
S214082CB052EA033541F4801143F4801338D0A0FB60
S214082CC002CE4FF00005E1FB02E506F00042E0FB0D
S214082CD003E54FF00006E1FB03569CF0000F18BF13
S214082CE04EF0010EA4F1FF04B6F5007F64F54074BB
S214082CF004D25FEA4E0E6D4146EB060642EAC6214E
S214082D0041EA55514FEAC52040EA5E504FEACE2EBA
S214082D10B4F1FD0C88BFBCF5E06F1ED8BEF1004FBD
S214082D2008BF5FEA500E50F1000041EB045170BD39
S214082D3006F0004646EA010140EA020081EA03017D
S214082D40B4EB5C04C2BFD4EB0C0541EA045170BD79
S214082D5041F480114FF0000E013C00F3AB8014F1F3
S214082D60360FDEBF002001F0004170BDC4F100043C
S214082D70203C35DA0C341BDC04F11404C4F12005BD
S214082D8000FA05F320FA04F001FA05F240EA020018
S214082D9001F0004221F0004110EBD37021FA04F64E
S214082DA042EB06015EEA430E08BF20EAD37070BD08
S214082DB0C4F10C04C4F1200500FA04F320FA05F067
S214082DC001FA04F240EA020001F0004110EBD37069
S214082DD041F100015EEA430E08BF20EAD37070BDD9
S214082DE0C4F1200500FA05F24EEA020E20FA04F3B2
S214082DF001FA05F243EA020321FA04F001F0004161
S214082E0021FA04F220EA020000EBD3705EEA430ED1
S214082E1008BF20EAD37070BD94F0000F0FD101F000
S214082E200046400041EB010111F4801F08BF013C39
S214082E30F7D041EA060195F0000F18BF704703F077
S214082E400046520043EB030313F4801F08BF013DFE
S214082E50F7D043EA0603704794EA0C0F0CEA1355BA
S214082E6018BF95EA0C0F0CD050EA410618BF52EA74
S214082E704306D1D181EA030101F000414FF000007A
S214082E8070BD50EA410606BF1046194652EA430688
S214082E9019D094EA0C0F02D150EA013613D195EAFC
S214082EA00C0F05D152EA03361CBF104619460AD144
S214082EB081EA030101F0004141F0FE4141F470014E
S214082EC04FF0000070BD41F0FE4141F4780170BD3E
S214082ED070B54FF0FF0C4CF4E06C1CEA11541DBFA3
S214082EE01CEA135594EA0C0F95EA0C0F00F0A7F8A5
S214082EF0A4EB050481EA030E52EA03354FEA0131D2
S214082F0000F088804FEA03334FF0805545EA1313E4
S214082F1043EA12634FEA022245EA111545EA1065AC
S214082F204FEA00260EF000419D4208BF964244F143
S214082F30FD0404F5407402D25B084FEA3202B61A62
S214082F4065EB03055B084FEA32024FF480104FF436
S214082F50002CB6EB020E75EB030E22BFB61A7546AA
S214082F6040EA0C005B084FEA3202B6EB020E75EB3D
S214082F70030E22BFB61A754640EA5C005B084FEAA5
S214082F803202B6EB020E75EB030E22BFB61A754672
S214082F9040EA9C005B084FEA3202B6EB020E75EB7D
S214082FA0030E22BFB61A754640EADC0055EA060E3E
S214082FB018D04FEA051545EA16754FEA06164FEA81
S214082FC0C30343EA52734FEAC2025FEA1C1CC0D12D
S214082FD011F4801F0BD141EA00014FF000004FF0BA
S214082FE0004CB6E711F4801F04BF01430020B4F17B
S214082FF0FD0C88BFBCF5E06F3FF6AFAEB5EB030C33
S21408300004BFB6EB020C5FEA500C50F1000041EB2F
S214083010045170BD0EF0004E4EEA113114EB5C04FC
S214083020C2BFD4EB0C0541EA045170BD41F48011CF
S2140830304FF0000E013C90E645EA060E8DE60CEAD7
S214083040135594EA0C0F08BF95EA0C0F3FF43BAFF4
S21408305094EA0C0F0AD150EA01347FF434AF95EAAB
S2140830600C0F7FF425AF104619462CE795EA0C0F8F
S21408307006D152EA03353FF4FDAE1046194622E75C
S21408308050EA410618BF52EA43067FF4C5AE50EA36
S21408309041047FF40DAF52EA43057FF4EBAE12E726
S2140830A04FEA410212F5001215D211D56FF4787363
S2140830B0B3EB625212D94FEAC12343F0004343EA06
S2140830C0505311F0004F23FA02F018BF40427047E1
S2140830D04FF00000704750EA013005D111F000406B
S2140830E008BF6FF0004070474FF00000704700BF01
S2140830F070B50F4E0F4D761BB61007D0043D002452
S214083100013455F8043F9847A642F9D10A4E0B4DAC
S21408311002F0E8FF761BB61008D0043D0024013400
S21408312055F8043F9847A642F9D170BD70BD00BF58
S214083130F0600800F0600800F8600800F06008001A
S2140831400FB410B5074B82B004AC54F8042B1868BB
S21408315023468168019400F08BF902B0BDE8104060
S21408316004B0704708060720844641EA000313F0B7
S214083170030349D1403A23D30B6803604B68436086
S2140831808B688360CB68C3600B6903614B694361D6
S2140831908B698361CB69C3610B6A03624B6A4362BE
S2140831A08B6A8362CB6AC3620B6B03634B6B4363A6
S2140831B08B6B8363CB6BC36340304031403ADBD2C2
S2140831C030320BD30B6803604B6843608B688360B0
S2140831D0CB68C36010301031103AF3D20C3205D3E6
S2140831E051F8043B40F8043B043AF9D2043208D0BC
S2140831F0D2071CBF11F8013B00F8013B01D30B882E
S21408320003806046704700BF082A13D38B07B1D0E7
S21408321010F00303AED0C3F10403D21ADB071CBFB9
S21408322011F8013B00F8013BA4D331F8023B20F823
S214083230023B9FE7043AD9D3013A11F8013B00F85C
S214083240013BF9D20B7803704B7843708B78837008
S21408325060467047F0B4840743D0541E002A3ED018
S214083260CDB2034603E0621E002C38D0144603F89D
S214083270015B9A07F7D1032C2AD9CDB245EA052572
S2140832800F2C45EA054515D9A4F110073F0903F1A7
S214083290100606EB07161A46156055609560D56049
S2140832A01032B242F8D104F00F040137032C03EBB6
S2140832B007130DD91E462246043A032A46F8045B2D
S2140832C0FAD8221F22F003020432134404F003043F
S2140832D02CB1C9B21C4403F8011BA342FBD1F0BCB5
S2140832E0704714460346C6E700290CBF0222002290
S2140832F04FF4806300F000B82DE9F0413C4D0446D9
S2140833002D68884616461F4615B1AB6B002B4FD066
S214083310022E30D8002F2EDB2846214601F026F84C
S214083320A38900226260A2611A0628D423F08303C8
S2140833309BB2022EA3812DD0B8F1000F3CD0012EEF
S21408334013D09BB203F008002A4A80B2EA63C4F896
S2140833500080C4F81080676178B113F0030F18BFB7
S2140833600027A7600020BDE8F08143F001037A42F9
S214083370A381A261E5E74FF0FF30BDE8F08128465B
S214083380216901F053F9A389022E23F083039BB227
S214083390A381D1D1002004F1430243F002030025A3
S2140833A00121A381A560226022616161BDE8F081E8
S2140833B0284600F0F7FFABE7002F08BF4FF48067FA
S2140833C0384601F029FC804628B1A38943F08003DB
S2140833D09BB2A381B3E74FF4806001F01DFC8046E2
S2140833E018B9A3894FF0FF30D5E74FF48067ECE7AC
S2140833F008060720994308004B6E2DE9F0479C0401
S2140834000E46804691462AD59368126802F1080A45
S2140834101BB31AE9A000BF0817D0043D002401E03A
S214083420A74210D0404655F8041F324601F050F81F
S214083430431C04F10104F3D10023C9F80830C9F885
S2140834400430BDE8F087D9F80830A3EB8703C9F83D
S21408345008300AF1080A002BDBD10020ECE701F05F
S214083460B1F90023C9F80830C9F80430BDE8F08778
S2140834702DE9F04FB1B01C4602919046089306908D
S21408348018B1836B002B00F0E880029DAB899AB2D6
S214083490900407D46A6E43F4005322F40051AB81BB
S2140834A09AB26966110740F1B780DDF808B0DBF814
S2140834B01030002B00F0B08002F01A020A2A00F042
S2140834C0B78000230DF180090A9315931493099386
S2140834D0CDF84C904E4698F80030002B00F0C88483
S2140834E0252B00F0C58408F1010201E0252B04D045
S2140834F0137814460132002BF8D1C8EB040595B1B1
S214083500149B159A01332A44072BC6F80080756069
S214083510159214937BDD002A40F0D58409981492FE
S21408352028444E4609902378002B00F0ED830021AE
S2140835304FF000024FF0FF3C63788DF84720049167
S2140835408A4604F101080846654608F10108A3F111
S2140835502002582A00F2D982DFE812F0CB02D702FE
S214083560D702D202D702D702D702D702D702D7028B
S21408357082028F02D70284009302D7022B0196019B
S2140835809601960196019601960196019601960176
S214083590D702D702D702D702D702D702D702D70256
S2140835A0D702D7023001D702D702D702D702D702EE
S2140835B0D702D702D702D702D7027B01D702D70293
S2140835C0D702D702D702A401D702D702BF01D70273
S2140835D0D702D702D702D702D702D702D702D70216
S2140835E0D702E401FA01D702D702D7021602FA0177
S2140835F0D702D7021B02D7022802890066027D027C
S214083600D7023A02D7021901D702D702AF02083604
S21408361009982844099086E70698029900F090FDD4
S214083620B0B9029DAA8902F01A020A2A7FF449AFA5
S214083630DDF808B0BBF90E30002BFFF642AF06984F
S21408364059464246234600F03DFD31B0BDE8F08FAE
S2140836504FF0FF3031B0BDE8F08F00F0A3FE14E75E
S214083660404208934AF0040A98F800306DE71AF0CA
S21408367020030490AC4600F0F480DDF820B00BF18F
S214083680070323F0070303F108040894D3E9004569
S21408369000234FF0000000218DF84700CDF814C035
S2140836A00791BCF1000FA8BF2AF0800A54EA050269
S2140836B040F0AD80BCF1000F40F0A980002B40F030
S2140836C0C0831AF0010F00F0BC83302330AF07F830
S2140836D0413DC7EB09040594DDF814B0079CE345A3
S2140836E0B8BFE346CDF80CB01CB10BF1010BCDF812
S2140836F00CB01AF00205079505D0DDF80CB00BF1F2
S214083700020BCDF80CB01AF084030B9340F01B8222
S214083710049DDDF80CB0CBEB0504002C40F31382B7
S214083720102C40F38984BE4D159A2B4614982546CE
S2140837304FF0100B6446B4461E4606E0831C0CF198
S214083740080C0846103D102D11DD411C10320729C3
S21408375015928CE840081491F0DD002A40F0E681C6
S214083760103D102D4FF001031046CC46EDDC3146D7
S2140837706646A4462C460D462244072B159235600D
S2140837807460149300F36D830836591CDEE11AF052
S214083790200F0490AC4600F08D80089DEB1D23F0AA
S2140837A0070303F1080BD3E90045CDF820B0012341
S2140837B06FE74AF0800A98F80030C6E64AF0100A22
S2140837C01AF0200F0490AC468DF8471000F0C88019
S2140837D0089CE11D21F00701D1E900230831089172
S2140837E014461D46002A73F1000BC0F2CE83BCF1C6
S2140837F0000F9DF84700A8BF2AF0800A54EA050281
S2140838000790CDF814C04FF001033FF453AF012BD7
S21408381000F01983022B0DF17F0340F04C82DDF88F
S21408382028B0194604F00F0022091BF8000042EAE7
S21408383005722B09087052EA03000F4614461D4607
S21408384001F1FF31EED1CDE90E23C7EB090305934D
S21408385042E74AF0100A1AF020030490AC467FF4B8
S2140838600CAF1AF0100240F011831AF0400300F073
S2140838700D83DDF820B01346BBF800400BF1040BAF
S2140838800025CDF820B004E7A3F13002002018F890
S214083890013B00EB800002EB4000A3F13002092A4E
S2140838A0F5D954E64AF0100A1AF0200F0490AC46F0
S2140838B07FF473AF1AF0100F40F0EF821AF0400F43
S2140838C000F0EB82DDF820B00025BBF800400BF1D5
S2140838D0040B0123CDF820B0DBE6AC46514D1AF0B8
S2140838E0200F04908DF847100A9500F0F080089D88
S2140838F0EA1D22F0070202F1080BCDF820B0D2E943
S21408390000451AF0010F00F0AA8254EA050B00F0F1
S214083910A68230228DF849304AF0020A8DF84820EF
S2140839200223B6E6089BDDF820B01B6801244FF09A
S21408393000050BF1040B049003948DF847508DF89E
S2140839405830CDF820B0059416AF4FF0000CD0E6EE
S2140839501AF0200F0490AC468DF847107FF438AF65
S2140839601AF0100F40F0A7821AF0400F00F0A3825A
S214083970DDF820B0BBF900400BF1040BE517224632
S2140839802B46CDF820B02DE74AF0400A98F80030CC
S214083990DBE598F8003042466C2B03BF08F10108B7
S2140839A04AF0200A53784AF0100ACEE51AF0200F9B
S2140839B08DF8471000F0F782089C2168099CE517E7
S2140839C02B46089D224604350895C1E9002382E562
S2140839D0089CAC4627684FF0000504908DF84750C1
S2140839E00434002F00F03283BCF1000F3846C0F2D2
S2140839F0078362460021CDF804C001F0B1FBDDF86C
S214083A0004C0002800F03A83C01B9DF84750604564
S214083A10A8BF60460590089407954FF0000C5BE633
S214083A20D460080094600800089BDDF820B0049075
S214083A30B2481C68302278230BF1040BAC468DF88C
S214083A4049304AF0020ACDF820B000258DF8482003
S214083A500A9002231DE64AF0200A98F8003074E51A
S214083A60DDF820B0DBF800000BF104030028FFF6B1
S214083A70F7AD089398F8003067E598F800302B21E2
S214083A8063E598F8003008F101042A2B00F0058356
S214083A90A3F13002092A98BF002500F2FA8214F82A
S214083AA0013B05EB850502EB4505A3F13002092A23
S214083AB0F5D945EAE575A04649E5904C1AF0200F79
S214083AC00490AC460A948DF847107FF410AF1AF0AD
S214083AD0100F40F0EA811AF0400F00F0E681DDF89A
S214083AE020B00025BBF800400BF1040BCDF820B041
S214083AF007E798F8003000297FF427AD202124E551
S214083B004AF0010A98F800301FE504908DF847102F
S214083B10002B00F0F98001254FF0000B03958DF877
S214083B2058308DF847B0059516AF0EE706980299F7
S214083B3013AAFFF761FC002840F0ED801498159A48
S214083B40431CCC46FEE5149B159A591C9DF8470065
S214083B5068B101320DF14700012307291592149127
S214083B6086E8090000F360810B4608360131079C99
S214083B7064B1023212A8022307291592149186E826
S214083B80090000F357810B46083601310B9D802D3E
S214083B9000F00181059DC5EB0C04002C2FDD102CD0
S214083BA0574D22DD30464FF0100B2E462546069C14
S214083BB006E003F1020C08300B46103D102D10DD10
S214083BC0591C10320729159280E840081491F0DD38
S214083BD0002A63D1103D102D4FF0010C13464846BD
S214083BE0EEDC2C46614635460646224407291592E1
S214083BF035607460149100F3C18008360131059D64
S214083C0007292A44159237607560149140F3C180DD
S214083C10002A40F0308114924E461AF0040F00F045
S214083C208B80049DDDF80CB0CBEB0504002C40F32C
S214083C308380102C40F31E821499324D1027DDF82D
S214083C4018A0DDF808B005E0881C08361946103CB0
S214083C50102C10DD4B1C1032072B159286E8A0009E
S214083C601493F1DD002A7DD1103C102C4FF0010092
S214083C7011464E46EEDC22440728159235607460DD
S214083C80149059DD002A4FD1099CDDF80CB0049D2C
S214083C90AB45ACBF5C44641909945EE020460299C3
S214083CA013AAFFF7A9FB002835D1149B159A03F130
S214083CB0010C484681E7E00840EA457004F0070230
S214083CC0E908303250EA010B1F461A7004460D46C2
S214083CD003F1FF33EFD11AF0010FCDE90C01394695
S214083CE000F0B980302A3FF4F4AC1F46C7EB09054C
S214083CF03023059501F8013CEEE400BFA8600800F3
S214083D00C4600800D4600800159B23B10698029981
S214083D1013AAFFF771FB029CA3895B063FF598ACD4
S214083D20099831B0BDE8F08F0698029913AAFFF7F4
S214083D3063FB0028EFD1159A099CDDF80CB0049DAA
S214083D40AB45ACBF5C446419099432B10698029935
S214083D5013AAFFF751FB0028DDD1002014904E4629
S214083D60FFF7B9BB5046594613AAFFF745FB00288C
S214083D70D1D11499159A481C4E4668E7002A40F097
S214083D80F780059C012320972194159422461493C6
S214083D904E46083641E7049DDDF80CB0CBEB05042B
S214083DA0002C7FF7F7AE102CA64D40F370812946FD
S214083DB04FF0100B25466446B4460E4606E0981C9F
S214083DC00CF1080C0B46103D102D0FDD591C103257
S214083DD0072915928CE840081491F0DDBAB9103D11
S214083DE0102D4FF001001346CC46EFDC33466646EE
S214083DF0A4462C461D462244072815923560746052
S214083E00149000F3AF800836411C0346C2E60698B5
S214083E10029913AAFFF7F0FA00287FF47CAF149BE8
S214083E20159A581CCC46CEE7002A79D119464E4634
S214083E3013469CE6002A40F08480012113464E462D
S214083E40A4E64F4648E4002D08BF0A2C46D2303474
S214083E5030AF07F8414DC7EB090305933CE402234E
S214083E6017E4002A40F0AF80134601214E466DE65F
S214083E704446FFF758BB0698029913AAFFF7BCFA00
S214083E8000287FF448AF159A4E46C6E6089D2C686B
S214083E90043508950025FFF7FCBB089D01232C6810
S214083EA0043508950025FFF7F4BB089D2C680435F3
S214083EB00895002525E5089D2C6804350895E5171E
S214083EC022462B468EE40698029913AAFFF794FA20
S214083ED000287FF420AF4E46FFF79ABB0DF17F0B04
S214083EE003965E46E346204629460A22002301F04A
S214083EF0E9FD30323270204629460A22002301F0B6
S214083F00E1FD04460D4654EA0500374606F1FF363D
S214083F10E9D1C7EB0903DC46039E0593FFF7DCBB34
S214083F200698029913AACDF804C0FFF765FADDF8DB
S214083F3004C000287FF4EFAE149B159A591C4E4611
S214083F4015E60698029913AACDF804C0FFF754FAA6
S214083F50DDF804C000287FF4DEAE149B159A591CC1
S214083F604E4613E6002A56D1012113464E4611E660
S214083F700698029913AAFFF73FFA00287FF4CBAEFB
S214083F801499159A01314E4639E64FF02D0B6442C6
S214083F9065EB45058DF847B0CDF81CB0CDF814C0D4
S214083FA00123FFF77EBB1AF0100F1DD11AF0400F41
S214083FB058D0089DDDF824B02B6804350895A3F87A
S214083FC000B0FFF788BA0698029913AACDF804C07D
S214083FD0FFF712FADDF804C000287FF49CAE149BA5
S214083FE0159A591C4E46B1E5DDF820B0099CDBF859
S214083FF000300BF1040BCDF820B01C60FFF76BBA4D
S214084000089401F095FB9DF84740059007944FF0FB
S214084010000CFFF761BB0698029913AACDF804C0F6
S214084020FFF7EAF9DDF804C000287FF474AE149BA5
S214084030159A591C4E46ADE5149B159A0133024D48
S214084040FFF79ABBC4600800D4600800BCF1060FEE
S21408405034BF63460623089423EAE374059303945F
S214084060164F72E4089C099D2368043408941D6062
S214084070FFF731BA1498124D0130FCE59DF8475009
S214084080CDF814C0079508948446FFF725BB084664
S214084090B1E6A0460025FFF75ABADDF820B098F832
S2140840A00130DBF800500BF10402002D0892A04600
S2140840B0BFF64BAA4FF0FF35FFF747BABC600800BB
S2140840C0D46008002DE9F0474F6EADF58D6D884633
S2140840D01997D8F81C70B1F80CA0B1F80E9007978D
S2140840E0D8F824701AAC4FF480652AF0020A002625
S2140840F069460094049402950595ADF80CA0ADF8B1
S2140841000E90099706960546FFF7B2F9041E07DBD8
S2140841102846694600F02AF9B04218BF4FF0FF3427
S214084120BDF80C305B0605D5B8F80C3043F04003F4
S214084130A8F80C3020460DF58D6DBDE8F08700BF59
S2140841402F4B70B5064618680C4610B1826B002ACD
S21408415036D0A589ABB219070CD52269AAB113F0D7
S21408416001011ED0636900215B42A361A160F2B120
S214084170002070BDDA063AD55B0724D4226945F0DC
S2140841800803A3819BB2002AE9D103F42071B1F594
S214084190007FE4D03046214600F0CEFCA389226991
S2140841A0DDE7980758BF6169A160002AE0D1A389B6
S2140841B01A06DDD543F04003A3814FF0FF3070BDEB
S2140841C000F0F0F8C5E7216B49B104F140039942C5
S2140841D003D0304600F02AFAA58900232363226913
S2140841E025F024050021ADB222606160C7E745F0DE
S2140841F04005092333604FF0FF30A58170BD00BF2E
S21408420008060720024B13B1024800F005B87047AD
S21408421000000000A14408000146002002460346AC
S21408422001F054BB8B892DE9F0419AB20D4611076F
S21408423080463CD46A6843F40063002AAB8159DDA3
S214084240AC6A002C4BD09BB203F48052002192B289
S214084250D8F80060C8F80010002A4FD02A6D5F070B
S21408426005D569682B6B521A0BB1EB6BD21A404610
S214084270E9690023A047441C4AD0AB892A6923F47D
S21408428000639BB200212A60DA04AB8169604CD4D3
S214084290296BC8F8006011B305F14003994202D0B3
S2140842A0404600F0C3F900202863BDE8F0812E6977
S2140842B0AEB191072C680CBF6B6900232E60A41B57
S2140842C0AB600AE0324623466F6A4046E969B8475B
S2140842D00028C0EB0404064404DD002CF2DC0020B1
S2140842E0BDE8F081AB894FF0FF3043F04003AB8167
S2140842F0BDE8F081EA6B002AA2DCF0E7012340461D
S214084300E969A047431C02461ED0AB89AC6AA6E7FB
S214084310D8F800305BB9AA89296922F4006292B2FB
S2140843206B60D304AA812960B2D52865B0E71D2B37
S21408433001D0162B13D1A9892B6921F4006100221C
S214084340A9812B606A60A3E7D8F80030002BDCD080
S2140843501D2B01D0162BC5D1C8F80060BFE7AB8966
S21408436043F04003AB81BDE8F08100BF10B50446BA
S21408437082B008B1836B53B1B1F90C0008B902B02A
S21408438010BD204602B0BDE81040FFF74BBF0191B4
S21408439000F008F80199EFE7014900F09FBB00BF5D
S2140843A0195A08002DE9F04F846B83B00746002C95
S2140843B065D17D6833480423032107F53B72F8630B
S2140843C0C7F8E412C7F8E822C7F8E04205F15C002F
S2140843D0AB812C606C60AC606C66EC812C616C61A7
S2140843E0AC6121460822FEF735FFDFF89CB0BE68B0
S2140843F0DFF898A0DFF89890DFF898800123092264
S214084400ED61C5F820B0C5F824A0C5F82890C5F811
S2140844102C802146F381B28134607460B46074667F
S21408442034617461B461082206F15C000193FEF7FA
S21408443011FFFD6812200222F661C6F820B0C6F801
S21408444024A0C6F82890C6F82C802146A881EA81C0
S2140844502C606C60AC606C662C616C61AC6105F1BC
S2140844605C000822FEF7F6FE019BED61C5F820B059
S214084470C5F824A0C5F82890C5F82C80BB6303B0FF
S214084480BDE8F08F99430800AD560800D1560800DD
S2140844900957080029570800704700BF704700BF33
S2140844A038B5094D094C641BA41018BF05EB8405E4
S2140844B005D0013C55F8043D9847002CF9D1BDE8D5
S2140844C0384001F019BE00BF046108000861080002
S2140844D02DE9F04193890F46990482B01446804628
S2140844E006D4526E43F4005342F40052A381626627
S2140844F000F01CFB01283ED03A46404601A904F1CC
S2140845005C0301F099F9421C06462DD000283AD0E3
S2140845109DF80410002509E0236819702368013304
S21408452023600135B5422ED201ABE95CA368013B96
S214084530002BA360F0DAA269934206DB23681970A1
S2140845402368197801330A29EAD14046224601F041
S2140845501FF9B0F1FF33584258410028E1D04FF018
S214084560FF3002B0BDE8F081A38943F04003A38181
S21408457002B0BDE8F0817B1EFE2BBDD8F9B2064618
S2140845808DF80410C6E7384602B0BDE8F08100BFD3
S214084590F8B5234D0F46044600F092FEAB685E68F9
S2140845A026F00306F11B01F6EF7121F47F6121F076
S2140845B00F01A1F58057B7F5805F07DB204600217D
S2140845C001F062F8AB683344984204D0204600F005
S2140845D079FE0020F8BD2046794201F055F80130F2
S2140845E00DD0104BAA681968F61B46F0010620463F
S2140845F0C91B5660196000F065FE0120F8BD20460C
S214084600002101F041F8AB68C21A0F2ADEDD064D1C
S21408461004492D6842F00102401B5A600860D5E73D
S21408462030060720380D07203C0A07202DE9F04100
S2140846300D460646002955D000F042FE55F8041CE3
S214084640DFF870C1A5F1080421F00103E218DCF8D0
S21408465008005768904227F0030768D011F0010158
S214084660576032D00021D0194068C00706D43B44B2
S214084670906800294DD0D268C260906043F001026D
S2140846806260E350E1B9B3F5007F2DD35A0A042AD5
S21408469069D89809383041000CEB810CDCF8082002
S2140846A04449624565D0516821F003018B4202D225
S2140846B092689445F7D1D368E360A2609C60D460A2
S2140846C03046BDE8F04100F0FDBD55F8085C0CF139
S2140846D00808641BA0682B44404542D0E568C560BE
S2140846E0A860C0E7BDE8F081DB089A10012090407A
S2140846F0DCF804100CEBC3039A680143A260E3607D
S214084700CCF8041030469C60D460BDE8F04100F058
S214084710D9BD294DA842AED143F00102CCF81440C9
S214084720CCF81040E060A0606260E350C8E71F4421
S214084730CB0707D455F8081C641AE368A2680F4428
S214084740D3609A601D4B47F001021B6862609F4267
S214084750CCF80840B4D31A4B30461968FFF718FF50
S214084760AEE701217FE7142A0BD802F15B0041006F
S21408477092E780100125854048681346284348601C
S2140847809AE7542A03D8180B6E30410084E7B2F52E
S214084790AA7F03D8D80B773041007DE740F2545102
S2140847A08A4203D8980C7C30410075E7FC217E20AD
S2140847B072E700BF3006072038060720380A0720A9
S2140847C0340D07202DE9F04F936883B016468146CE
S2140847D00C462BB38B89190726D5226922B303F01A
S2140847E0020292B23568002A2CD04FF0000ADFF891
S2140847F0E8B2D046D84534BF43465B46524648469C
S214084800B8F1000F4FD0E169676AB847002856DD4F
S214084810B36882441B1AC0EB0808B360002BE9D1C2
S214084820002003B0BDE8F08F48462146FFF788FC15
S214084830002840F04881A389356803F0020292B246
S214084840002AD2D113F0010A42D1D046B8F1000F9F
S21408485023D09A05A76876D5B845C0F0A48013F487
S214084860906F40F0B2802068BB4651465A4600F02A
S214084870C1FCA2682168D21B01EB0B03A26023606F
S2140848804246B36892449B1AC2EB0808B360002BF2
S214084890C6D0A389B8F1000FDBD1D5F800A0D5F8AB
S2140848A004800835D2E7D5F800A0D5F80480083586
S2140848B0A0E748462146FFF759FD002859D0A389A6
S2140848C043F040034FF0FF30A38103B0BDE8F08FFC
S2140848D09246019293469046B8F1000F2BD0019F5E
S2140848E0002F64D020682169C24534BF534643462A
S2140848F088421F46D4F808C0626903D994446345C1
S21408490000F3AE80934236DB1346676A4846E16991
S2140849105A46B847071ED2DDBAEB070A3AD0B3683C
S214084920BB44DB1BC7EB0808B360002B3FF478AF2B
S214084930B8F1000FD3D10027D5F800B0D5F8048019
S21408494001970835C8E720682369984202D8636942
S214084950984572D2B84538BF47463A46514600F0A1
S21408496049FCA3682268DB1B3A44A3602260002B3C
S2140849709FD03A4685E71A465946009300F03AFC17
S214084980009BA1682268C91ABAEB070A1344A160FB
S2140849902360C4D148462146FFF7E8FC00288ED19C
S2140849A0CDF804A0BBE720684746C3465DE75846EF
S2140849B00A21424600F0D4FB00287FD000F1010A05
S2140849C00127CBEB0A0A01978CE7226821696769F9
S2140849D0C1EB020C07EB47070CF1010207EBD77790
S2140849E042447F10974234BF17463A465B054FD578
S2140849F011464846CDF800C000F016F9DDF800C0AC
S214084A008346002862D062462169CDF800C0FEF7CA
S214084A10ABFBA289DDF800C022F4906242F0800267
S214084A20A2810BEB0C00CCEB0702C4F810B0676150
S214084A302060A2604746C34617E76FF000429045DD
S214084A4038BF424692FBF3F202FB03F3676A484616
S214084A50E1695246B84700287FF731AF024610E7AB
S214084A6062465946CDF800C000F0C4FBDDF800C029
S214084A7023684846634423602146CDF800C0FFF704
S214084A8075FCDDF800C000287FF419AF674643E7D9
S214084A904846CDF800C000F017FCDDF800C0834695
S214084AA00028BED148462169FFF7C0FDA3890C221D
S214084AB023F080039BB2C9F8002001E7012708F11C
S214084AC0010A01970EE74FF0FF30AAE60C23C9F853
S214084AD00030A389F4E600BF00FCFF7F2DE9F04113
S214084AE010F53877884619D000267D68BC68013DE1
S214084AF00ED4A389013D012B06D9B4F90E30204601
S214084B00013301D0C04706436B1C04F16804F0D19A
S214084B103F68002FE9D13046BDE8F0813E46304672
S214084B20BDE8F081004870470C060720014B18685E
S214084B30704700BF2C060720F0B58B8991B09AB253
S214084B4096070C46054637D4B1F90E10002917DB30
S214084B5001AA00F069FF002810DB029B03F47043EB
S214084B60B3F500514F424F41B3F5004F2CD0A389FF
S214084B704FF4806643F40063A3810BE0A3899AB2DE
S214084B8012F0800F43F40063A38114BF40264FF44D
S214084B90806600272846314600F046F8A389002894
S214084BA029D01B4A43F08003EA63A3812060206172
S214084BB06661A7B911B0F0BD01F1430301220B608D
S214084BC00B614A6111B0F0BD124AA36A9342CED176
S214084BD0A3894FF480663343A381E664DAE7284660
S214084BE0B4F90E1000F034FF0028E3D0A38943F090
S214084BF00103A381DEE79A05DCD404F1430243F0FF
S214084C0002030121A381226022616161D2E700BF0D
S214084C109943080009570800024B0146186800F037
S214084C2003B800BF080607202DE9F04F01F10B0571
S214084C30162D83B0064627D935F0070527D4A9428E
S214084C4025D8304600F03CFBB5F5FC7F26D2C14F90
S214084C504FEAD50C07EBCC03DC689C4200F0D28107
S214084C606368E26823F0030323445868A16840F0A9
S214084C700105CA60304691605D6000F023FB083489
S214084C80204603B0BDE8F08F1025A942D9D90024E4
S214084C900C232046336003B0BDE8F08F5FEA552C3E
S214084CA000F08980BCF1040F00F260814FEA951C81
S214084CB00CF1380C4FEA4C01A64F07EB8101CC6883
S214084CC0A14205D10CE0002B79DAE468A14207D0AE
S214084CD0626822F00302531B0F2BF4DD0CF1FF3C35
S214084CE00CF1010C9B4B3C6903F1080E744500F06F
S214084CF07E81616821F003014A1B0F2A00F3648154
S214084D00002AC3F814E0C3F810E069DAB1F5007FAA
S214084D1080F03A81C9088A104FF0010808FA02F8AC
S214084D2003EBC1015A68886848EA0202A060E1609D
S214084D305A608C60C4604FEAAC03012098409042E9
S214084D405BD8024206D12CF0030C400002420CF15C
S214084D50040CFAD007EBCC084446E146E3689C42CC
S214084D6007D146E1002A80F25781DB689C4200F0B2
S214084D704081596821F003014A1B0F2AF2DD1C46C0
S214084D8054F808CFD96845F0010942F001081D44D7
S214084D90C3F804903046CCF80C10C1F808C07D6102
S214084DA03D61C5F80CE0C5F808E0C5F80480AA50CF
S214084DB000F088FA64E77E214FF03F0C7CE7224437
S214084DC05068E368A16840F00105CB6030469960FA
S214084DD0556000F077FA0834204603B0BDE8F08F37
S214084DE021444B68304643F001034B6000F06AFAF2
S214084DF00834204603B0BDE8F08FBC68636823F02B
S214084E000309A94504D3C5EB09030F2B00F39180CA
S214084E10514B524A1968136805EB010A013304EB33
S214084E20090B00F061810AF5805A0AF10F0A2AF484
S214084E307F6A2AF00F0A30465146019200F024FC99
S214084E40B0F1FF3F8046019A00F00181834500F2E9
S214084E50FB80DFF814C1C345DCF800305344CCF8B7
S214084E60003000F04A8112683C4901321BBFCBEB88
S214084E70080B5B44C1F80080CCF8003018F0070334
S214084E8000F01481C3F10802C3F580539044083338
S214084E90C244CAF30B0ACAEB030A51463046CDF899
S214084EA004C000F0F1FB431CDDF804C000F03581B7
S214084EB0C8EB0002524442F00102DCF80030BC4263
S214084EC05344C7F80880CCF80030C8F80420DFF848
S214084ED098A015D0B9F10F0F40F2EB806168A9F1E0
S214084EE00C0222F0070201F0010142EA010E052039
S214084EF0A1180F2AC4F804E04860886000F21181FF
S214084F00174ABC6811688B4288BF1360154A116837
S214084F108B4288BF1360626822F003029542C5EB95
S214084F20020301D80F2B04DC304600F0CBF900242E
S214084F30A6E645F0010243F00103254462603046C8
S214084F40BD606B6000F0BEF90834204603B0BDE8CB
S214084F50F08F00BF30060720340D07203C0A0720D4
S214084F60300D07202C0D0720380D0720BCF1140F34
S214084F7061D9BCF1540F00F28F804FEA153C0CF152
S214084F806E0C4FEA4C0197E64B0A042B58D9142BA3
S214084F9000F2AD8003F15B02500007EB80008368E7
S214084FA0DFF8B881834200F08A805A6822F003024C
S214084FB0914202D29B689842F7D1D9687A68E16034
S214084FC0A3608C60DC60B6E645F0010742F001019C
S214084FD02544676030465D611D61C5F80CE0C5F87C
S214084FE008E06960AA50083400F06CF948E65A6888
S214084FF0A1E609F1010919F0030F04F108047FF48A
S214085000ADAE2DE004F108036469A34208BF0CF1B5
S214085010020C3FF467AE23E6194448681C4654F869
S214085020082FDB6840F001054D603046D3609A6073
S21408503000F048F924E60CF15B0C4FEA4C013BE61D
S2140850408A0938325000A8E7BC423FF402AFBC6871
S214085050626822F0030261E7D8F8008098457AD1A2
S2140850601CF0030FA8F108030CF1FF3CF4D17B6891
S21408507023EA00037B60400098423FF6BEAE002855
S2140850803FF4BBAE0342CC467FF464AE4000034216
S2140850900CF1040CFAD05DE6BCF5AA7F19D84FEAE5
S2140850A0D53C0CF1770C4FEA4C0105E64FF48053DB
S2140850B0EEE60123C8F80430444600222EE7921094
S2140850C001209040D8F8042019460243C8F8042066
S2140850D075E740F254539C451BD84FEA954C0CF1A3
S2140850E07C0C4FEA4C01E7E50AF1100AA3E6542BBC
S2140850F01FD80A0B6E3250004FE7CBF30B0100297E
S2140851007FF4B1AE0AEB0901BA6841F001015160BB
S214085110F6E6FC214FF07E0CCEE501224FF0000AA1
S214085120CBE604F108013046FFF780FADAF80030DB
S214085130E6E6B3F5AA7F03D8CA0B773250002CE709
S21408514040F25452934203D88A0C7C32500024E72B
S214085150FC207E2221E77B688DE700BF300607200B
S214085160830770B4C9B240D0541E2AB303788B4262
S21408517023D0431C04E0FCB1057814468D421CD0AD
S21408518013F0030F184604F1FF3203F10103F2D1BE
S214085190032C14D8651E54B303788B420DD0421CDA
S2140851A0002302E004788C4207D0AB42104603F195
S2140851B0010302F10102F5D1002070BC704741EAF4
S2140851C00126034646EA06461A6818467240A2F1C1
S2140851D0013525EA020212F0803F03F10403D9D113
S2140851E0043C032C1846EFD8D4E71446D0E72046EC
S2140851F0E3E700BF8842F0B410D98C18A0420DD25D
S2140852008518531E42B121462A4611F8014D013B26
S21408521002F8014D5C1CF8D1F0BC70470F2A44D93F
S21408522040EA01039B0744D1A2F110073F0900EBAF
S214085230071610360C4603462568103343F8105CEC
S2140852406568103443F80C5C54F8085C43F8085C4E
S21408525054F8045C43F8045CB342EDD17B1C02F0BE
S2140852600F0C1B01BCF1030F1944034423D90E4647
S2140852701D46644656F8047B043C032C45F8047B1C
S214085280F8D8ACF1040424F00304043402F0030252
S21408529023442144002ABFD01A4411F8014B03F8CE
S2140852A0014B9342F9D1F0BC70470346002AF3D16C
S2140852B0B2E70346F0E76246002AEDD1ACE700BF46
S2140852C0704700BF704700BF2DE9F04F0C4683B00B
S2140852D090468146002900F0BA80FFF7F1FF08F1F2
S2140852E00B0654F8043C162E23F00305A4F1080711
S2140852F04BD810210E46B0454CD88D4251DADFF80F
S21408530084B37819DBF808E0864500F0A680426882
S21408531022F0010C8444DCF804C01CF0010F54D0C1
S21408532000221046DB076FD454F8083CC3EB070A84
S214085330DAF8043023F003032B44002862D07045C3
S21408534000F0E98002EB030E8E455BDBC3688268DB
S214085350D046D3609A6058F8081FDAF80C302A1F2F
S214085360242ACB60996000F22381132A40F2B08089
S21408537023681B2ACAF808306368CAF80C3000F29B
S2140853802B8108340AF11003A3E026F00706002E46
S2140853903146B0DA0C230020C9F8003003B0BDE867
S2140853A0F08FA046AA1B0F2A03F001031AD82B4336
S2140853B07B603D446B6843F001036B604846FFF72B
S2140853C081FF404603B0BDE8F08F22F0030202EBEF
S2140853D0050C8C45A6DBC2688168A046CA6065468F
S2140853E09160DFE7B919334342F001007B600A4455
S2140853F048605368083143F0010353604846FFF796
S21408540015F9DBE78B4233DA41464846FFF70CFCD2
S21408541080460028D2D054F8043CA0F1080123F0B6
S21408542001023A44914200F0BC802A1F242A6ED812
S214085430132A42D8034622461168196051685960F3
S21408544092689A6021464846FFF7F0F8B6E7114694
S21408545003B0BDE8F04FFFF7E7BBDEF8042006F11F
S214085460100C22F00302501960453DDA704659E7E1
S214085470D04658F8080FDAF80C102A1F242AC160FC
S214085480886000F2A080132A40F29B8021681B2ABD
S214085490CAF808106168CAF80C1000F2B28008341E
S2140854A00AF1100221681D4611606168574651606E
S2140854B0A3689360DAF8043074E723681B2A03604D
S2140854C06368436062D800F1080304F10802B3E792
S2140854D04346226875461A60626857465A60A2684C
S2140854E09A60DAF804305DE7831B374443F001031B
S2140854F0CBF808707B6054F8043C484603F0010378
S2140855001E4344F8046CFFF7DDFE20465AE72146A2
S214085510FFF770FE96E702EB030C06F110029445BF
S214085520FFF670AF574657F8081FDAF80C302A1FF0
S214085530242ACB60996000F28680132A77D92368DC
S2140855401B2ACAF808306368CAF80C3000F2848050
S21408555008340AF1100322681A6062685A60A26862
S2140855609A60C6EB0C020AEB060342F00102CBF87F
S21408557008305A60DAF80430484603F001031E4340
S214085580CAF80460FFF79EFE38461BE7A368242A7D
S2140855908360E368C3602BD000F1100304F11002A7
S2140855A04AE750F8042CA04622F003021544F9E610
S2140855B02146404675465746FFF71CFEDAF8043083
S2140855C0F0E642466EE7214640461D465746FFF738
S2140855D011FEDAF80430E5E6A368242ACAF8103083
S2140855E0E368CAF8143018D010340AF1180370E7C4
S2140855F0226900F118030261616904F11802416129
S2140856001AE7A168242ACAF81010E168CAF8141024
S2140856100FD010340AF1180244E722690AF1200371
S214085620CAF8182062691834CAF81C2051E73B46A5
S21408563091E721690AF12002CAF81810616918343E
S214085640CAF81C102EE721463846CDF804C0FFF7E6
S214085650D1FDDDF804C084E7A368242ACAF8103010
S214085660E368CAF8143003D010340AF1180372E756
S21408567022690AF12003CAF8182062691834CAF8A1
S2140856801C2068E73006072038B5074C0023054677
S21408569008462360FCF76CFF431C00D038BD23681F
S2140856A0002BFBD02B6038BD8C0D072010B50C46A0
S2140856B0B1F90E1000F0F2F9002803DB236D03445D
S2140856C0236510BDA38923F48053A38110BD00BFB2
S2140856D02DE9F0410C4689891D46CB051646074636
S2140856E006D5B4F90E100022022300F0C3F9A189EA
S2140856F021F48051A1813846B4F90E1032462B4663
S214085700BDE8F04100F0CEB810B50C46B1F90E1061
S21408571000F0B0F9A389421C0EBF23F4805343F46B
S21408572080532065A38110BDB1F90E1000F022B990
S21408573020F0030110F00300C0F1000051F8043B0C
S21408574000F1040C4FEACC0C6FF000021CBF22FAE2
S2140857500CF213434FF0010C4CEA0C2C4CEA0C4CA0
S214085760A3EB0C0222EA030212EACC1204BF51F899
S214085770043B0430F4D013F0FF0F1FBF013013F4BE
S2140857807F4F013013F47F0F18BF0130704700BFFA
S214085790F8B50D461446074610B1836B002B48D063
S2140857A0A289A06993B2A060180738D52669002E8A
S2140857B035D09904EDB215D5236862699E1B9642CA
S2140857C01CDA0136A268591C013AA26021601D70D5
S2140857D06369B3421AD0A389DB0701D50A2D15D011
S2140857E02846F8BD636E42F4005223F400536366FD
S2140857F02368A28162699E1B9642E2DB38462146F0
S214085800FEF7B4FD40B923680126DBE73846214693
S214085810FEF7ACFD0028E3D04FF0FF30F8BD384661
S2140858202146FEF78DFC0028F6D1A289266993B298
S214085830BFE7FEF7B7FDB3E72DE9F0411E4686B091
S2140858400C46054617460F4B91B1D3F80080FFF774
S21408585069F90096034621463A462846C047431C3F
S21408586003D100228A2332602B6006B0BDE8F0819F
S2140858701F68FFF757F9009603462246284603A9ED
S214085880B847ECE7400A072021B1FF2A04D80A7077
S21408589001207047084670478A2303604FF0FF30A0
S2140858A0704700BF70B5084C0646002508461146E6
S2140858B01A462560FBF768FA431C00D070BD2368BB
S2140858C0002BFBD0336070BD8C0D0720F0B5274C3D
