S016000050726F6A6563744C617361726F732E7372656362
S214080000A0CD0720AD280800A9280800A9280800C0
S214080010A9280800A9280800A92808000000000048
S214080020000000000000000000000000310F08007B
S214080030A928080000000000AD0F0800E90F080016
S214080040A9280800A9280800A9280800A92808003F
S214080050A9280800A9280800A9280800A92808002F
S214080060A9280800A9280800000000001927080089
S2140800702D27080041270800552708000000000023
S21408008000000000850C0800A9280800A928080018
S214080090A9280800A9280800A9280800A9280800EF
S2140800A0A928080000000000A92808006502080022
S2140800B031020800A9280800A9280800A92808006D
S2140800C0A9280800A9280800A9280800A9280800BF
S2140800D0A9280800A9280800A9280800A9280800AF
S2140800E0A9280800A9280800A9280800A92808009F
S2140800F0A928080010B5054C237833B9044B13B16A
S2140801000448AFF300800123237010BD800A07203F
S214080110000000007486080008B5064B1BB10648A8
S2140801200649AFF300800648036813B1054B03B1D0
S214080130984708BD0000000074860800840A072057
S214080140748608000000000010B5002040F2DC515C
S214080150034CA047012040F2DC51A04710BD00BF69
S214080160CD020800000000002DE9F0410446244BAB
S2140801709847244D244E2046B0471FA3D3E90023B2
S214080180224CA047C5E90001214F00243C60214BC2
S2140801901C602148214B9847012040F27C61DFF81B
S2140801A08C80C047204640F2A461C04720461C4CBD
S2140801B0A0470120A0473868B047D5E90023194C66
S2140801C0A04770B1184F124E0F4D41F27070B847E5
S2140801D03068A8470B4BD3E90023124CA0470028E9
S2140801E0F3D1074B98470023094A1360094A13605E
S2140801F0BDE8F081AFF30080AE47E17A14AEF53F74
S2140802004901080068AD0720313408005137080056
S2140802109C0A0720A00A0720687F080041400800BB
S21408022099020800E139080001000720CD020800FD
S21408023010B5094C20686168084B9847237B59B26B
S214080240490903F01F03012202FA03F32031044A86
S21408025042F8213010BD00BFB0010720FD0D080090
S21408026000E100E010B5094C606AA16A084B98479F
S21408027094F8303059B2490903F01F03012202FAF4
S21408028003F32031034A42F8213010BDB00107209D
S214080290FD0D080000E100E0F8B50646084C070129
S2140802A03D1AAD00611960590431064B9847BE1BCC
S2140802B004EB860660597168034B9847F8BD00BF83
S2140802C03801072091060800B907080010B50A4645
S2140802D0C0EB0011094B03EB81039B6B93420BD3D6
S2140802E0064B01010C1A03EB840153F82400043171
S2140802F0034B9847002010BD012010BD3801072089
S21408030095070800114B124A1360124A116821F02B
S214080310020141F001011160E43213600E4B1B68C4
S21408032013F0006F03D14FF000620C4B1A600C4AB2
S214080330136803F0113323F001031360054B1A68A2
S21408034022F0020242F005021A607047000110000F
S214080350E4060E400000084018060E4010060E4040
S214080360040008400F4B994219D84900B2FBF1F235
S214080370043AFF2A07D9002301335208FF2A03D973
S214080380072BF9D100E00023110289B21B0403F4FD
S214080390E0230B43D2B21A430261002070470120C3
S2140803A0704700BF801A060038B504460D464FF061
S2140803B0FF338362036A80230360036B08230360AA
S2140803C0202303600423036049682A68054B98477E
S2140803D0012814BF002001206B7A012B04BF40239C
S2140803E0236038BD650308002DE9F0030446CB6892
S2140803F08E68002B49D0002242604868000200F44C
S214080400407040F480500D7C2D0405F4FE0528430A
S2140804106060E2604A685AB10878012AC4BF4D781D
S21408042045EA0020022A04DD8A7842EA002000E035
S2140804300020E060012B04D1032222604FF0010C5B
S2140804402BE0012222604FF0000C26E0216A11F40E
S214080450807F1CD1551EE2B12A46012B05D1BCF17E
S214080460000F02D1C4F80090C44611F0020F04D061
S214080470226B3270013B01363A46002BE6D1236ADE
S21408048013F0010FFBD0236A14E0012012E00520C8
S21408049010E009200EE005200CE0216A11F48070B7
S2140804A0F9D143F697224FF002094FF0010843F6B8
S2140804B09827D2E7BDE8F003704700BF70B403463C
S2140804C0CA688868002A3FD000245C600E7C360420
S2140804D006F4FE064D682D0205F4407535435D604A
S2140804E0DC604C685CB10D78012CC4BF4E7846EAD7
S2140804F00525022C04DD897841EA052500E000255B
S214080500DD600BE0196A11F4807F1FD111F0040F2B
S214080510F8D010F8011B5963013A07D0196A11F48C
S214080520807F15D111F0040FF3D1EBE71A6A12F4A5
S21408053080700FD112F0040FF8D002221A601A6ADF
S21408054012F0010FFBD006E0012004E0052002E0CF
S214080550052000E0052070BC704700BF00B587B0D6
S214080560002306AA02F8153D0392012204928DF88C
S21408057014108DF80430029301A9024B984707B06F
S2140805805DF804FBBD04080038B51F4B1B78EBB1BB
S2140805901E481F4B98471F4B1B6863B11E4A1368BB
S2140805A0013313601D4A1360022B07DD03221A4B22
S2140805B01A60022038BD0322184B1A600022124B1C
S2140805C01A701748174B9847012038BD164B1B78EA
S2140805D0C3B116480E4B98470E4B1B682BB90E4AEC
S2140805E01368013313600D4A136000220E4B1A700D
S2140805F00A4D0F4829680B4CA0470E482968A047A3
S214080600022038BD012038BDB40A0720707F0800D4
S21408061071420800B80A0720BC0A0720B00A07205B
S214080620807F080041400800AC0A0720947F080035
S214080630A47F0800B47F080010B504460348214686
S214080640034B9847034B1C6010BD00BFC47F0800CF
S21408065041400800B80A072008B50348034B9847E6
S2140806600122034B1A7008BDD47F080071420800A7
S214080670B40A072008B50348034B98470122034BE2
S2140806801A7008BDE47F080071420800AC0A07200B
S21408069070B40B688C8A4A6802F00F0214430D89FE
S2140806A02C438A7A44EA42248A7D44EA0244CA7D74
S2140806B044EA42440A7E44EA824400EB4312C2F803
S2140806C00042CC68C2F804420C69C2F80C428A7D23
S2140806D03AB18C8B4A8B42EA044400EB4312C2F8C8
S2140806E01842856C4FF001129A40D2431540CE7FCF
S2140806F09E408C7F9C4044EA06442C438464446CA9
S214080700224091F821509D4091F820409C4044EAB0
S21408071005442243426401229A4091F822401CB1C3
S214080720046A1443046203E0046A24EA02040462C6
S21408073091F82440012C846E0CBF144394438466BD
S21408074091F82540012C846E0CBF44EA024224EA44
S21408075002428266032B0CD8C46EDB00FF229A4046
S21408076024EA020291F8231001FA03F31343C3663E
S2140807700CE0043B046FDB00FF229A4024EA0202E6
S21408078091F8231001FA03F313430367002070BCA3
S214080790704700BF10B40C680B69934206D3CA6052
S2140807A000EB4410C0F80822002001E04FF6FF7066
S2140807B05DF8044B704700BF012303FA01F141605E
S2140807C0704700BF00B585B000230B4A537102225C
S2140807D00A490A600A4902918DF80C20094A0192D2
S2140807E08DF80D301720084B9847084801A9084B84
S2140807F0984705B05DF804FB74AD072070AD072078
S214080800A086010000BD0105512808000000094027
S214080810A903080030B587B0002301930293059317
S214080820039004910A4B19788DF8141009480A4B5E
S214080830984738B9074D094C284601A9A04700280B
S214080840FAD101E0002000E0012007B030BD00BF6B
S21408085070AD0720000009405D050800BD040800CB
S21408086030B587B000230193029305930390049153
S214080870064B1B688DF81430054D064C284601A912
S214080880A0470028FAD1012007B030BD70AD072078
S21408089000000940E903080008B50238232837D8BD
S2140808A0DFE800F0161A1E36363636363636363650
S2140808B036363636363636363636363636363636CB
S2140808C03636122A222E26321348144B984708BD6D
S2140808D01348124B984708BD1248104B984708BD56
S2140808E011480E4B984708BD10480C4B984708BD52
S2140808F00F480A4B984708BD0E48084B984708BD4E
S2140809000D48064B984708BD0C48044B984708BD49
S2140809100B48024B984708BD1C8008004140080059
S214080920308008004C80080068800800888008002E
S214080930A0800800B8800800D0800800E88008007A
S214080940F880080010B582B0044600238DF80630FB
S214080950ADF800308DF8023020238DF804300223DD
S2140809608DF8053001A80321384B9847F0B1684642
S2140809700321374B9847374B9DF801201A709DF88E
S21408098002205A7001225A7120238DF80430032160
S2140809908DF8051000238DF800308DF801308DF89D
S2140809A0023001A8294B984758B927E02A482B4B0C
S2140809B09847284B00225A71186820609B88A380A5
S2140809C040E068460321224B9847224B9DF80120B9
S2140809D09A709DF80220DA7001225A7104238DF865
S2140809E0053000238DF800308DF801308DF8023080
S2140809F001A80321154B9847D0B10AE01848174BB1
S214080A009847144B00225A71186820609B88A38068
S214080A1018E0684603210E4B98470E4B9DF80120B8
S214080A201A7101225A71186820609B88A38009E011
S214080A300C480A4B9847074B00225A7118682060E2
S214080A409B88A380204602B010BD00BF150808008A
S214080A506108080074AD072000810800714208008C
S214080A600C8108001881080000B583B022238DF891
S214080A70043000238DF805308DF8063001A80321D0
S214080A80024B984703B05DF804FB00BF1508080042
S214080A9000B583B024238DF8043000238DF8053084
S214080AA08DF80630ADF800308DF8023001A8032125
S214080AB0154B984710B368460321144B98479DF882
S214080AC00030242B0CD19DF80100C31EDBB2012B8D
S214080AD017D80F4B18709DF802200E4B1A7010E0AE
S214080AE00D480E4B98479DF800200D4811460D4BB3
S214080AF098479DF800000C4B984702E00B48074BB8
S214080B00984703B05DF804FB15080800610808005C
S214080B10F8010720C00A072024810800714208004F
S214080B2038810800414008009908080044810800F8
S214080B3000B583B00A4B1A889B78ADF804208DF868
S214080B40063001A80321074B9847034618B105222B
S214080B50054B1A700123184603B05DF804FB00BF66
S214080B601880080015080800F801072000B583B0AB
S214080B7021238DF8043000238DF805308DF80630D3
S214080B8001A80321024B984703B05DF804FB00BF99
S214080B901508080000B583B023238DF80430002319
S214080BA08DF805308DF80630ADF800308DF8023037
S214080BB001A80321104B9847C0B1684603210F4B84
S214080BC098479DF80030232B02D19DF8010010E0CD
S214080BD00B480C4B98479DF800200B4811460B4BCA
S214080BE098479DF800000A4B984702E00948054BCD
S214080BF0984703B05DF804FB15080800610808006C
S214080C002481080071420800388108004140080025
S214080C1099080800448108002DE9F0410C469046E2
S214080C2060B9002A0EDD8F18094E0A4D3068214635
S214080C302B6898470134BC42F8D106E04FF0FF30E5
S214080C40BDE8F0810020BDE8F0814046BDE8F081AF
S214080C5084AD07207CAD0720436913F0020F1DBF43
S214080C60C1F30801C161002001207047436913F0F1
S214080C70010F05D08369C3F308030B600020704793
S214080C800120704700B583B011480DF10701012215
S214080C90104B984772B6BFF35F8F00220E4B1A7040
S214080CA00E4B1B789DF807100D4AD1549B2B03D189
S214080CB000220A4B1A7002E00133084A1370012218
S214080CC0054B1A70BFF35F8F62B603B05DF804FB7E
S214080CD000800940390D080008020720600B07202D
S214080CE0C40A07202DE9F0410E46154601380228A9
S214080CF00FD892B10024DFF83C800D4FD8F80000DA
S214080D00315D3B68984700280ADB0134A542F5D1D7
S214080D100AE04FF0FF30BDE8F0810020BDE8F08122
S214080D204FF0FF30BDE8F0812046BDE8F08100BFF7
S214080D3080AD072084AD07202DE9F04F83B0054627
S214080D409046002A47D04E1C254F264CDFF8A8A010
S214080D50DFF894B006F1FF3900230193224B9D4239
S214080D6006D158464946214B98470028F9D119E03C
S214080D701F4B9D4209D19946484601A9A04700281D
S214080D80FAD1019B06F8013C17E01A4B9D4209D19F
S214080D909946484601A9A0470028FAD1019B06F8BB
S214080DA0013C14E0554508D1504601A9A047002843
S214080DB0FAD1019B06F8013C09E0BD4207D1384646
S214080DC001A9A0470028FAD1019B06F8013C013684
S214080DD0B8F10108BED1002003B0BDE8F08F00BF0F
S214080DE000400A406D0C080000080E404D0E080032
S214080DF00080094000C0094000000A4000EB81114D
S214080E00086A704710B4AC2303600A684B68B2FBE4
S214080E10F3F31B095C1E4FF6FE7294420AD803626F
S214080E208B68436040F20223C0F8203150230360E9
S214080E30002000E001205DF8044B7047436913F07A
S214080E40020F1ABFC161002001207047436913F0E2
S214080E50010F1DBF83690B7000200120704700BF7B
S214080E6000F1080343604FF0FF328260C3600361FD
S214080E7000230360704700BF00230361704700BF6C
S214080E8043685A684A6042688A605A68916059603E
S214080E9041600861036801330360704710B40C684A
S214080EA0B4F1FF3F01D103690AE000F10803C26804
S214080EB01268944204D35B685A6812689442FAD25D
S214080EC05A684A6091608B6059600861036801330C
S214080ED003605DF8044B7047436882689A608368CD
S214080EE042685A6003695A68824204BF82685A6038
S214080EF0002202611A68013A1A601868704700BF33
S214080F0003480068006880F3088862B600DF00BF00
S214080F1008ED00E04FF0807340F8043C40F8081CE9
S214080F20002340F80C3C40F8202C4038704700BF9F
S214080F30064B19680868B0E8F00F80F309884FF088
S214080F40000080F311884EF00D0E70472CAC072079
S214080F504FF08052014B1A60704700BF04ED00E066
S214080F60EFF311804FF0A00181F31188704700203D
S214080F7008B5034B9847034B1A6801321A6008BD38
S214080F80610F0800FC01072080F31188704700BF36
S214080F9008B5044A1368013B136013B90020024BD6
S214080FA0984708BDFC010720890F0800EFF3098061
S214080FB00C4B1A6820E9F00F10602DE908404FF036
S214080FC0A00080F3118800F08BFE4FF0000080F33D
S214080FD01188BDE8084019680868B0E8F00F80F383
S214080FE0098870472CAC072008B54FF08052054B8F
S214080FF01A60054B9847054B98470020044B9847BE
S21408100008BD00BF04ED00E0610F0800ED190800F8
S214081010890F0800034A044B1A600722043B1A602B
S214081020704700BF1F48010014E000E010B5094BE8
S2140810301A6842F470021A601A6842F070421A601F
S214081040054B98470024054B1C60054B98472046DF
S21408105010BD00BF20ED00E015100800FC010720B9
S214081060010F080030B4134A1368834201D21A46A7
S214081070FAE7114654681519854203D1686804448E
S2140810805460104642688418A3420CD10A4C24685F
S2140810909C4206D05B681A4442600B681B68036073
S2140810A002E0036000E00360814218BF086030BCBD
S2140810B0704700BF6CAB072068AB072038B50446FE
S2140810C0284B9847284B1B689BB9284A284B13601F
S2140810D00021516049F6F0729818234D286049F6A9
S2140810E0F475595199505A601860224B1A68103A8C
S2140810F01A60002C2DD004F1100212F0070F1CBF46
S21408110022F007020832511E49F6FE73994222D889
S21408111016490C6863689A4204D9236813B12146B5
S2140811201C46F7E7104B1B689C4216D00D68103516
S21408113023680B6063689B1A202B04D9A0184360A9
S21408114062600D4B98470B4B1A686168521A1A6012
S21408115004E0002502E0002500E00025074B98473C
S214081160284638BDBD19080068AB07206CAB0720B9
S214081170680B072000020720651008000D1B0800F2
S21408118010B5044668B1074B9847074B196854F8DA
S2140811900C2C0A441A60A4F11000044B9847044B20
S2140811A0984710BDBD190800000207206510080002
S2140811B00D1B080010B50446036C3BB903681BBB3F
S2140811C04068134B9847002363601DE06AB980683F
S2140811D01A46104B9847A268236C1344A3606268AB
S2140811E0934211D32368A3600EE0C0681A46094BE1
S2140811F09847226C5242E3681344E36021688B42A6
S21408120002D263681A44E260A36B0133A36310BD7D
S214081210F91F08009140080038B5034605685DB117
S214081220026CC4681444C4604068844228BFDD6009
S2140812300846D968014B984738BD00BF914008005A
S214081240F8B504461D4B9847A36C002B12DD636A5D
S21408125083B104F124061A4D1A4F01E0636A4BB1B4
S2140812603046A84700B1B847A36C013BA364A36CFB
S214081270002BF3DC4FF0FF33A364134B98470F4B58
S2140812809847636C002B12DD236983B104F11006BE
S2140812900B4D0C4F01E023694BB13046A84700B10F
S2140812A0B847636C013B6364636C002BF3DC4FF058
S2140812B0FF336364044B9847F8BD00BF710F0800FE
S2140812C0151E0800451F0800910F080038B50D4682
S2140812D0044618B9164B984700BFFDE7154B9847C4
S2140812E02368226CE06B00FB02F01918616000218D
S2140812F0A163A360821A1344E3604FF0FF3363646C
S214081300A36455B923697BB104F110000A4B9847CA
S214081310012809D1094B984706E004F11000084D4A
S214081320A84704F12400A847064B9847012038BD73
S214081330610F0800710F0800151E0800510F0800FD
S214081340610E0800910F0800F8B50D4617460646C8
S21408135088B150200E4B9847044660B105FB06F04E
S21408136001300B4B9847206040B92046094B9847F8
S21408137001E000BFFDE7084B9847FAE7E6632564F7
S21408138020460121054B984784F84D702046F8BD45
S214081390BD10080081110800610F0800CD12080072
S2140813A02DE9F04F85B08A4601929B46044618B947
S2140813B0364B984700BFFDE709B9036C1BB90027F1
S2140813C0334E344D03E0314B984700BFFDE7B04736
S2140813D0A26BE36B9A4212D2204651465A462E4BCF
S2140813E09847636A3BB104F124002C4B98470128C0
S2140813F001D12B4B9847274B9847012043E0019B88
S2140814001BB9244B984700203DE01FB902A8254B7E
S21408141098470127A847244B9847B047636CB3F111
S214081420FF3F04BF00236364A36CB3F1FF3F04BF10
S2140814300023A364A84702A801A91C4B9847E0B953
S214081440B047D4F83890D4F83C80A847C1450ED1A8
S21408145004F110000199164B98472046154B9847FB
S214081460154B98470028B2D10D4B9847AFE7204652
S214081470104B9847104B9847A9E720460D4B9847BE
S2140814800D4B9847002005B0BDE8F08F610F0800A7
S214081490710F0800910F0800B5110800151E080006
S2140814A0510F0800991E0800BD190800C11E080043
S2140814B0711D0800411208000D1B08002DE9F041B7
S2140814C00E4615469846044618B91C4B984700BF62
S2140814D0FDE729B9036C1BB1184B984700BFFDE719
S2140814E0164B98470746A26BE36B9A4218D22046DB
S2140814F031464246124B9847A36CB3F1FF3F0AD1D8
S214081500636A7BB104F124000E4B984760B16DB155
S21408151001242C600BE0A36C0133A364012406E0CD
S214081520002404E0012402E0012400E001243846F7
S214081530054B98472046BDE8F08100BF610F0800BC
S214081540B5110800151E0800890F08002DE9F04F90
S21408155085B0894601929A46044618B9444B98477E
S21408156000BFFDE709B9036C2BB90027414EDFF829
S21408157034B1414D03E03E4B984700BFFDE7B04706
S214081580A36B002B28D0E568204649463B4B984776
S214081590BAF1000F12D1A36B013BA363236813B9FA
S2140815A0374B98476060236993B104F11000354BB8
S2140815B0984701280CD1344B984709E0E560636AE0
S2140815C033B104F124002F4B984708B12E4B9847A7
S2140815D0294B9847012048E0019B1BB9264B9847A2
S2140815E0002042E017B902A8D8470127A847274B8A
S2140815F09847B047636CB3F1FF3F04BF00236364AA
S214081600A36CB3F1FF3F04BF0023A364A84702A856
S21408161001A91F4B984710BBB047D4F83880A84795
S214081620B8F1000F15D1236823B9B0476068194B85
S2140816309847A84704F124000199174B9847204675
S214081640164B9847164B9847002898D10E4B984744
S21408165095E72046114B9847114B98478FE7204649
S2140816600E4B98470E4B9847002005B0BDE8F08F04
S214081670610F0800710F0800910F08001912080082
S214081680511F0800151E0800510F0800BD19080054
S214081690C11E08007D1F0800711D080041120800C1
S2140816A00D1B0800991E080038B504460D460D4B5C
S2140816B09847636CB3F1FF3F04BF00236364A36CD1
S2140816C0B3F1FF3F04BF0023A364074B9847A36BFF
S2140816D023B904F124002946044B98472046044BB6
S2140816E0984738BD710F0800910F0800D11D0800F3
S2140816F04112080010B504460E4B1B6858600E4B86
S2140817001B68984207D20D4B18680A4B19680431B3
S2140817100B4B984710BD0B4B1868064B19680431DD
S214081720074B9847084B1B689C423CBF064B1C60FF
S21408173010BD00BF2CAC072048AC07204CAC0720D7
S2140817409D0E08008CAB0720040207202DE9F84FF1
S2140817500E4617469A460A9DDDF83080814618B927
S214081760624B984700BFFDE7042D03D95F4B9847A7
S21408177000BFFDE74C205E4B98470446002800F063
S214081780B180B8F1000F40F0A980B800584B9847D0
S214081790206318B92046574B9847A3E0A521BA00FE
S2140817A0554B984707F18047013F236B03EB8703A8
S2140817B023F0070B04F1340031460A224F4B9847B2
S2140817C0002384F83D30042D34BF2E460426E662F6
S2140817D0A664271D3846DFF87081C04704F1180054
S2140817E0C0472461C6F10506A661646258464946A4
S2140817F05246434B9847206010F0070F03D03B4BE8
S214081800984700BFFDE70B9B03B11C603D4B98470C
S2140818103D4B1A6801321A603C4B1B682BBB3B4B8E
S2140818201C60394B1B68012B29D1394E06F1640917
S214081830DFF8E0803046C04714364E45FAD1DFF868
S2140818400C914846334EB047DFF804814046B0470F
S2140818503148B0473148B0473148B047314BC3F8F4
S2140818600090314BC3F8008009E0304B1B6833B951
S214081870264B1B68DB6A9D4224BF244B1C60E36A28
S2140818802B4A1268934284BF294A1360294A116872
S214081890216401311160284A1268934284BF264A9F
S2140818A0136003EB83031A4800EB83003946234B87
S2140818B09847234B98471D4B1B684BB1134B1B6827
S2140818C0DB6A9D4207D91F4B98470120BDE8F88F71
S2140818D00120BDE8F88F0120BDE8F88FC0F83080F9
S2140818E040465BE74FF0FF30BDE8F88F610F080011
S2140818F0BD100800811108007D410800F14308006A
S214081900150F0800710F08006CAC07202CAC0720D8
S214081910C4AB0720610E080030AC072098AB072040
S21408192078AB07208CAB07204CAC072090AB072081
S21408193070AC072050AC0720C0AB0720810E08000B
S214081940910F0800510F0800790E080054AC0720C4
S214081950ACAB072010B584B0002300930193029324
S21408196003930E480E4982220E4CA04701280ED13A
S2140819700D4B984701280AD10C4B984701220C4B6F
S2140819801A6000220B4B1A600B4B984704E018B9F4
S214081990064B984700BFFDE704B010BD5D1C080065
S2140819A0B48108004D170800F1200800610F0800F0
S2140819B090AB072048AC07202D100800024B1A6889
S2140819C001321A60704700BF28AC072010B5044BD8
S2140819D09847044B1C68044B9847204610BD00BF28
S2140819E0710F080048AC0720910F08002DE9F04158
S2140819F03A4B1B68002B6BD1394B1A6801321A60B8
S214081A001B6803BB374B1B681B681BB1364B9847D4
S214081A1000BFFDE7334B1968344A10681860116038
S214081A20334A1168013111601B681B6823B94FF0EF
S214081A30FF32304B1A6006E02A4B1B68DB68DB680F
S214081A405A682C4B1A60264B1A682A4B1B689A420F
S214081A5042D3244B1B681B684BB1224B1B68DB68C0
S214081A60DC6863681E4A1268934213D90EE04FF08A
S214081A70FF32204B1A60BDE8F0811A4B1B68DB6802
S214081A80DC686368164A1268934207D9194A1360D5
S214081A90BDE8F081184E194FDFF86C80251D2846E2
S214081AA0B047A36A13B104F11800B047E36A3A686E
S214081AB0934288BF3B6003EB830008EB800029460F
S214081AC00F4B9847074B1B681B68002BD5D1CEE7F2
S214081AD00C4B1A6801321A60BDE8F08128AC072062
S214081AE048AC07208CAB0720610F08004CAC0720D9
S214081AF044AC072004020720D90E0800C0AB072014
S214081B00810E080074AB0720C4AB07202DE9F84304
S214081B10314B1B681BB9314B984700BFFDE7304B6C
S214081B2098472D4B1A68013A1A601B68002B48D153
S214081B302C4B1B68002B46D00025DFF8D4802A4F94
S214081B402A4E1DE0D8F80C30DC6804F11800B847B7
S214081B5004F104094846B847E36A3268934288BFE6
S214081B60336003EB8303224800EB83004946214B8E
S214081B709847214B1B68E26ADB6A9A4228BF012510
S214081B80D8F80030002BDDD11C4B1B6863B11B4B0B
S214081B901B687BB11A4D194CA8472368013B236084
S214081BA02368002BF8D105E0012D03D0154B1B68E0
S214081BB0012B0AD10022134B1A60134B98470124B5
S214081BC004E0002402E0002400E000240F4B9847BD
S214081BD02046BDE8F88300BF28AC0720610F080040
S214081BE0710F08006CAC0720D90E0800C0AB0720A0
S214081BF0C4AB0720810E08002CAC072074AB072066
S214081C00ED19080068AC0720510F0800910F08006E
S214081C1030AC072010B5044678B1094B9847094BF5
S214081C201B681C44084B18680430084B9847204625
S214081C30074B9847074B984708B9074B984710BD76
S214081C40BD19080048AC07202CAC0720D90E0800A0
S214081C50F51608000D1B0800510F080080B5154D35
S214081C60154EDFF878801CE0144B9847144B1C6818
S214081C70144B9847ACB1144B9847114BDB68DC689B
S214081C80201D124B9847124B1A68013A1A602B68A7
S214081C90013B2B600F4B9847206B0F4FB8472046E9
S214081CA0B8472B68002BDFD13368012BF9D9C0471A
S214081CB0F7E700BF94AB0720C4AB0720BD190800A0
S214081CC098AB07200D1B0800710F0800D90E0800F6
S214081CD06CAC0720910F080081110800510F08000E
S214081CE008B51D4B1B685BB91C4B1B6803EB8303CD
S214081CF09B001B4AD358CBB9184B1B6853B905E051
S214081D000122184B1A6008BD1A682AB9164B98475C
S214081D1000BFFDE7114B12491A68013A1A601A68A3
S214081D2002EB820251F82220002AEDD00B4B1B68EA
S214081D3003EB83030A4A02EB83035A6852685A6025
S214081D4003F108018A4204BF52685A605B68DA6881
S214081D50064B1A6008BD00BF28AC0720C0AB07209A
S214081D60C4AB072068AC0720610F08002CAC07201E
S214081D7038B50C4618B90E4B984700BFFDE70D4D11
S214081D80296818310C4B9847286804300B4B98473D
S214081D90B4F1FF3F05D1296809480431094B984733
S214081DA038BD094B18682044084B984738BD00BF13
S214081DB0610F08002CAC07209D0E0800D90E0800FD
S214081DC078AB0720810E080048AC0720F5160800F7
S214081DD038B50D4618B9094B984700BFFDE7084CBB
S214081DE021681831074B984720680430064B9847F7
S214081DF0064B18682844064B984738BD610F0800FC
S214081E002CAC0720810E0800D90E080048AC072025
S214081E10F516080038B5C368DC681CB9164B984731
S214081E2000BFFDE704F118052846144B9847144BE5
S214081E301B689BB9251D2846104B9847E36A114A2C
S214081E401268934284BF0F4A136003EB83030E485D
S214081E5000EB830029460D4B984703E00C482946BB
S214081E600A4B98470B4B1B68E06ADB6A984234BFFC
S214081E700020012038BD00BF610F0800D90E0800F9
S214081E8028AC0720C0AB0720C4AB0720810E08008B
S214081E9030AC07202CAC072008B518B9054B984776
S214081EA000BFFDE7044A12680260044A12684260EE
S214081EB008BD00BF610F080044AC072048AC0720E7
S214081EC038B50D46044618B9184B984700BFFDE7C5
S214081ED019B9164B984700BFFDE7154B98472B686E
S214081EE0B3F1FF3F19D0134A116822688A4204D01A
S214081EF0114A116862688A4211D90F4A11686268E5
S214081F00891A8B420DD90C490968521A13442B605A
S214081F1020460A4B9847002404E0002402E00124E7
S214081F2000E00124064B9847204638BD610F08009C
S214081F30710F080044AC072048AC0720991E08001B
S214081F40910F08000122014B1A60704768AC072001
S214081F50014B1868704700BF2CAC0720054B1B6860
S214081F6033B1054B1B68002B14BF022001207047B5
S214081F700020704790AB072028AC072038B50446E9
S214081F8000282ED0C36A174A1268D26A934228D20B
S214081F90144A1268D26AC2F10502826103EB83030F
S214081FA0114A02EB830342699A4216D1051D284658
S214081FB00E4B98470B4B1B68DB6AE3620C4A1268A9
S214081FC0934284BF0A4A136003EB8303064800EB78
S214081FD083002946074B984738BD024B1B68DB6AC7
S214081FE0C36238BD2CAC0720C4AB0720D90E080046
S214081FF0C0AB0720810E080038B50446D0B1C26AC7
S214082000836C9A4216D0051D28460B4B9847A36C3E
S214082010E362C3F10502A261084A1268934284BFCC
S214082020064A136003EB8303054800EB8300294642
S214082030044B984738BD00BFD90E0800C0AB072030
S214082040C4AB0720810E080010B504464160206125
S21408205091420AD8D21A81698A4211D20A4B186864
S214082060211D0A4B9847002010BD9A4201D299427A
S21408207008D2074B1868211D044B9847002010BD4E
S214082080012010BD012010BDA8AC07209D0E080039
S21408209074AC072070B50D4B98470D4B1B688BB971
S2140820A00C4D28460C4EB0470C4C2046B0470C4BFF
S2140820B01D600C4B1C6005200C2100220A4B98471B
S2140820C0034B1860094B984770BD00BF710F080096
S2140820D0A4AC072078AC0720610E08008CAC07205B
S2140820E074AC0720A8AC072049130800910F080015
S2140820F010B584B00B4B98470B4B1B6863B1042391
S21408210000930023019302930393084808494FF469
S2140821108272084CA04718B9074B984700BFFDE7DE
S21408212004B010BD95200800A4AC0720452208007E
S214082130C08108004D170800610F080010B584B06C
S2140821400F4C2468C4B10191029203906BB90D4BF1
S214082150984701280A4B186801A907BF069A002362
S21408216000221346084CA04707E0204601A91A4655
S2140821700023064CA04700E0002004B010BD00BFB6
S214082180A4AC07205D1F0800A1130800BD140800B2
S2140821902DE9F04782B08146224B98478046224B6D
S2140821A01B68984234D2214E214F24E0DA68D2F8D0
S2140821B000A0DB68DC68251D2846B847636A204609
S2140821C09847E369012B16D1A3695344534506D9AA
S2140821D06360246130682946164B98470BE0002355
S2140821E00093204619465246134CA04718B9134B7D
S2140821F0984700BFFDE733681A68002AD6D1104A08
S21408220011680A48016013600123C9F8003002E02B
S2140822100023C9F80030044BC3F80080404602B0DB
S214082220BDE8F087CD190800A0AC072074AC0720DD
S214082230D90E08009D0E08003D210800610F080011
S214082240A8AC07202DE9F04387B04D4DDFF8608134
S2140822504C4B1B681A68002A00F08780DB681E68EB
S214082260494B984703A8494B98470746039B002BBA
S21408227030D1864224D8464B9847424B1B68DB68C9
S214082280DC68201DC047E369012B14D1A1692046EC
S21408229031443A4633463F4FB84701280BD100230E
S2140822A000932046194632463B4EB04718B93B4B7A
S2140822B0984700BFFDE7636A204698470CE000266B
S2140822C02868F11B364B9847314B984720B9354B51
S2140822D0984701E02E4B984702A82C4B984707468C
S2140822E0314EDFF8B09038E0059C1CB1616909B141
S2140822F0201DC047039902291FD003292AD0002988
S2140823002BD1049BA169204619443A46C8470128A0
S21408231023D1636A20469847E369012B1DD1A26939
S2140823200023009320461946049C22441A4CA047D2
S21408233098B91A4B984700BFFDE70499A16119B9E7
S214082340164B984700BFFDE7204639443A463B46B9
S214082350C84702E02046154B9847286803A900227C
S2140823601346B0470028BFD172E7074B984703A823
S214082370064B98470746039B002BA0D0AAE700BF4A
S214082380A4AC072074AC0720BD19080091210800EA
S2140823900D1B0800492008003D210800610F0800B1
S2140823A0A9160800510F08004D15080081110800ED
S2140823B0D90E080010B50E480E4B984700203E214F
S2140823C00D4B98470D4CA0470028FCD00C4B98475F
S2140823D00C4A0D4B9A620D4CA0470028FCD01020E2
S2140823E00B4B98470B4B98470148024B984710BD34
S2140823F000BD0105B1000720CD27080021280800E8
S21408240031280800013F0D2000060E40412808002C
S214082410692708005D29080010B54FF400421A4BDA
S2140824205A600B20194CA0470C20A0470D20A04747
S2140824300E20A0473B204FF06051154CA047552072
S2140824404FF06051A04756204FF06051A0476820D3
S2140824501049A0475C201049A04710484FF4407127
S2140824600F4A104B984711204FF00061A0471220E2
S2140824704FF00061A0472C204FF00061A0472D20A8
S2140824804FF00061A04710BD501A0E4051280800B2
S2140824904D2508007900002801000028000E0E408F
S2140824A001000008212608004264B1F1805F16D0BA
S2140824B004D8C1B1B1F1006F0AD013E0B1F1405FA2
S2140824C011D0B1F1605F0ED0B1F1205F0AD170472C
S2140824D0036F016F0B4023EA0203036702E0036FF2
S2140824E01343036742607047416412F0010F14BF3C
S2140824F04166016612F00A0F14BF0162416212F0CB
S214082500020F02D0C0F8801004E012F0080F18BFBF
S214082510C0F8841041610160704700BF10B4416480
S214082520019C0CB1416600E001660BB1016500E054
S21408253041650AB1016300E04163016101605DF82D
S214082540044B7047C06C7047806C704770B582B09B
S2140825500D46440904F5001404F20774660201F0F7
S214082560F044B4F1205F30D006D8B4F1006F0AD03A
S214082570B4F1805F18D049E0B4F1405F30D0B4F1D0
S214082580605F2DD042E000F01F00012484403046F2
S2140825904FF0006122461F4B984715F0010F14BFF5
S2140825A074663466012032E000F01F00012484407F
S2140825B030464FF080512246164B984715F0010FCB
S2140825C014BF74663466012021E000F01F01012460
S2140825D0304604FA01F12A460F4B9847204616E083
S2140825E000F01F01012405F0605205EA0403009379
S2140825F0304604FA01F1B2F1605F14BF00220122EE
S214082600C5F38003054DA847204600E0002002B029
S21408261070BD00BFA9240800E92408001D2508008D
S214082620F0B583B007460E46154602F0F044B4F1FE
S214082630205F26D006D8B4F1006F0AD0B4F1805FC8
S21408264013D034E0B4F1405F1FD0B4F1605F1CD003
S2140826502DE04FF000613246164B984715F0010FF3
S21408266014BF7E663E66012022E04FF08051324657
S214082670104B984715F0010F14BF7E663E66012082
S21408268016E00D4B9847012012E005F0605205F061
S2140826900103009338463146B2F1605F14BF00224A
S2140826A00122C5F38003054CA047012000E0002066
S2140826B003B0F0BDA9240800E92408001D25080079
S2140826C02DE9F04104460E46104B9847054620462D
S2140826D00F4B9847054017D00E4F07F10C046C3780
S2140826E054F80C3CB3420AD154F8081C294206D0C8
S2140826F023683046984754F8083C25EA0305BC4248
S21408270002D01034002DEBD1BDE8F0814525080035
S21408271049250800ACAC072008B502480B21024B37
S214082720984708BD000E0E40C126080008B50248A6
S2140827300C21024B984708BD00100E40C126080021
S21408274008B502480D21024B984708BD00120E40F6
S214082750C126080008B502480E21024B984708BD56
S21408276000140E40C1260800174B1A6B22F07002A0
S214082770104318639B6E13F0080F09D14FF40063DB
S214082780114901E0013B19D08A6E12F0080FF9D002
S2140827900D4B1A6B22F0030242F002021A63986E7F
S2140827A010F008000CD14FF40063074901E0013B24
S2140827B008D08A6E12F0080FF9D0704701207047CB
S2140827C0002070470120704700060E4038B11149B6
S2140827D00B6A114A1A40114B13430B6270470D4A95
S2140827E0136A23F45C1323F0030343F45C1343F0E7
S2140827F00103090289B20B431362936E13F0010FAB
S214082800FBD0044A136A43F09B7343F48033136285
S214082810704700BF00060E40FCFFC8FE02003701E6
S214082820024B986E00F48030704700BF00060E40DA
S2140828304FF00052014B9A62704700BF00060E40E8
S214082840024B986E00F00200704700BF00060E406C
S2140828502C2820D81F280DD8124B9A6901238340AC
S2140828601A40934219D0012303FA00F00D4B186161
S214082870002070470B4BD3F80821203801238340EB
S2140828801A4093420BD0012303FA00F0054BC3F815
S2140828900001002070470120704700207047002084
S2140828A0704700BF00060E40FEE700BF10B51E4B7F
S2140828B01E4A9A4203D01E4B1B4A9A4204D31D4B0B
S2140828C01D4A9A420FD31AE01C4B1D4CE41A24F0FA
S2140828D0030404340023144814495A581A5004337D
S2140828E0A342FAD1EBE7174B1749C91A21F003019F
S2140828F01A1D1144002243F8042F8B42FBD1134AB9
S21408290022F0604323F07F0311498B6002F1604296
S214082910B2F5801F03D28A6842F000528A600D4BD7
S21408292098470D4B9847FEE7000007207486080076
S2140829307C0A07209CAD0720800A07200400072091
S2140829407F0A07207C0A072097AD072000000800AA
S21408295000ED00E0F13F0800C12F08003E4B1B6B5E
S21408296003F00303032B5FD8DFE803F0020E2B2BDC
S2140829703A4B5B6913F0800F14BF4FF400424FF4D4
S214082980FA42374B1A604FE0334B1B6A13F0807FCE
S21408299003D0344A324B1A6046E0334A304B1A604A
S2140829A02D4B1B6A03F07003102B02D0202B04D08B
S2140829B03AE02E4A2A4B1A6036E02A4A284B1A6012
S2140829C032E0254B1B6A13F0807F03D0254A244B40
S2140829D01A6012E0244A224B1A601F4B1B6A03F047
S2140829E07003102B02D0202B04D006E01F4A1C4B85
S2140829F01A6002E01B4A1A4B1A60174B1B6B03F04F
S214082A000303022B0DD1144B986A996A144BC0F332
S214082A100A401A6800FB0222C9B2B2FBF1F21A6039
S214082A2002E0134A0E4B1A600B4B1B6B03F0700345
S214082A30702B07D10A4B1A680E49A1FB02025208EE
S214082A401A607047044B196B054BC1F302111A68DC
S214082A50CA401A60704700BF00060E40101A0E40A3
S214082A600C020720001BB70000093D0000127A0080
S214082A70001C4E0EABAAAAAA094B1B6813B9094A32
S214082A80074B1A60064B1B681A180749914204DB65
S214082A901046034A1060184670474FF0FF307047DC
S214082AA01CAD0720A0CD0720FC7F08204FF0FF3084
S214082AB0704700BF4FF400534B600020704700BFBC
S214082AC00120704700207047F8B51D4C1D4D1E4E5E
S214082AD02378012B31D13378002B2ED11B4B1B7852
S214082AE0002B2AD11A481B4B98471B4B984707467A
S214082AF001280DD100232370144A13700122327066
S214082B0016490B70164B1A701648174B98470FE065
S214082B1002280DD1002323700C4A1370012232704C
S214082B200E4A137003220E4B1A7010480E4B984725
S214082B300F483946074B9847CAE7C820A847C7E74B
S214082B4020AD0720151C08002DAD07202CAD07204A
S214082B50C881080041400800890508002EAD0720F6
S214082B6095AD0720F4810800714208000C82080021
S214082B70248208002DE9F047184C194D194E237881
S214082B80012B27D133782BBB174B1B7813BB174861
S214082B90174B9847DFF874A01648DAF80010164F57
S214082BA0B8471648164B1968B847DFF864904FF0D0
S214082BB0010889F80080DAF80000124B9847124896
S214082BC0B8470023084A1370237089F8003086F83F
S214082BD00080D4E76420A847D1E700BF2DAD0720C2
S214082BE0151C08002CAD072020AD072034820800ED
S214082BF071420800588208004140080070820800A8
S214082C00A40A07206901080088820800A80A072085
S214082C102EAD07202DE9F043C5B06E4C6E4D6F4EB5
S214082C202378012B40F0D3803378002B40F0CF80F8
S214082C306B4B1B78002B40F0CA806A4B1B78002B26
S214082C4040F0C580684B1978052900F2B980DFE89E
S214082C5011F006003300450081009000B300634879
S214082C60634B9847634F02A8634B984702983860AF
S214082C70BDF80C30BB807B79D3B14FF0010884F8DF
S214082C8000800022564B1A705C48DFF89091C847BF
S214082C9079783A78FB78B87800903879019058486F
S214082CA0C8473879574B98474F4B83F80080B7E7A3
S214082CB055484F4B9847B3E7544B9847012806D1D9
S214082CC053484B4B98470222474B1A70A8E751487F
S214082CD0474B98470122444B1A70A1E74E484F4B82
S214082CE098474F4B98470238052899D801A353F8B8
S214082CF020F000BF1D2D08003F2D08003F2D0800BE
S214082D00212C08000D2D0800152D08004548384BC5
S214082D10984785E74448364B984781E74348344BFD
S214082D209847434B9847002333702E4A1370012266
S214082D3022702B4A137003222B4B1A7070E73D48FB
S214082D402B4B98473C48354FB8473C48B8473C4B10
S214082D50984765E73B4B9847012803D10422224B46
S214082D601A705DE73848224B984703221E4B1A70A4
S214082D7056E7364B9847023803283FF651AFDFE848
S214082D8000F0020F1317324B98473248234B9847E8
S214082D9000233370134A13702370114A13703FE7E9
S214082DA02D481E4B98473BE72C481C4B984737E75F
S214082DB02B481A4B984733E72A480D4B98472FE776
S214082DC02948164B984704A8284B984728E76420B4
S214082DD0A84725E72CAD0720151C08002DAD0720B1
S214082DE020AD07202EAD072095AD07209C82080051
S214082DF07142080024AD072045090800A88208008B
S214082E00B882080039060800D8820800690A08004F
S214082E10EC820800FC820800D483080041400800C1
S214082E20910A0800148308002483080038830800E1
S214082E30590608004483080058830800748308006D
S214082E40310B08006D0B08009C830800950B0800E2
S214082E5075060800B4830800C4830800D8830800F1
S214082E60E8830800B4810800F88308006940080071
S214082E70F0B583B004460D46002301931F4B9842D5
S214082E8007D11F461E4E38462946B0470028FAD1B5
S214082E9019E01C4B984209D11F461B4E384601A91B
S214082EA0B0470028FAD1019B2B7019E0174B9842BF
S214082EB009D11E46144C304601A9A0470028FAD16D
S214082EC0019B2B7018E0124B9C4209D11E460E4CF3
S214082ED0304601A9A0470028FAD1019B2B700BE0C9
S214082EE00C4B9C4208D11E46074C304601A9A04709
S214082EF00028FAD1019B2B7003B0F0BD00080E40E5
S214082F004D0E0800008009406D0C080000C00940FE
S214082F1000000A4000400A4070B50C46214B984213
S214082F2007D11E46204D30462146A8470028FAD12C
S214082F302BE01E4B984207D11E461D4D30462146B3
S214082F40A8470028FAD122E01A4B984207D11E4615
S214082F50174D30462146A8470028FAD119E0164BE7
S214082F60984207D11E46124D30462146A8470028EB
S214082F70FAD110E0114B98420FD11E460C4D304640
S214082F802146A8470028FAD109E0012070BD012093
S214082F9070BD012070BD012070BD002070BD0120ED
S214082FA070BD00BF00080E403D0E080000800940B6
S214082FB0590C080000C0094000000A4000400A40BA
S214082FC070B588B04B4B98474B4B984708204B4CEE
S214082FD0A0474B4D4B4B1D604B4A4C4B1A604C4A16
S214082FE04C4B1A604C4B05934FF4E13306934FF461
S214082FF0006307930820A047284605A9474B98472B
S214083000474E336898680021464DA8473368586885
S2140830100021A8474448454DA8474548A847454B7A
S2140830209847454B98470025444B1D700B20A047F2
S2140830300C20A0470D20A0470E20A047404A4FF47A
S21408304000031361C2F8A0304FF080631361C2F822
S214083050A0304FF000735361C2F8A0304FF0807371
S2140830601361C2F8A030536301230093354B1B68E5
S214083070019302950395344834494FF47A722B46E7
S214083080334CA047012802D03248284B98470123E2
S2140830900093314B1B6801930023029303932F4838
S2140830A02F494FF47A722A4CA047012802D02D489F
S2140830B01E4B9847012300932B4B1B680193002354
S2140830C00293039329482A494FF47A72204CA04762
S2140830D0012802D02748154B98470023264A137024
S2140830E0264A1370264A13700122264B1A70264B5E
S2140830F09847FEE7B5230800192408005128080059
S21408310000080E4084AD0720192F080080AD072060
S214083110712E08007CAD072000BD0105050E0800CD
S214083120380607208142080010840800414008003D
S2140831302084080005030800C507080095AD072089
S21408314000120E408CAD0720C92A080030840800FB
S2140831504D1708004084080088AD0720752B080026
S214083160648408007084080090AD0720152C0800B9
S21408317094840800A484080020AD07202DAD0720FD
S2140831802EAD07202CAD07205519080081F0004108
S21408319002E000BF83F0004330B54FEA41044FEA2F
S2140831A0430594EA050F08BF90EA020F1FBF54EACA
S2140831B0000C55EA020C7FEA645C7FEA655C00F066
S2140831C0E2804FEA5454D4EB5555B8BF6D420CDD37
S2140831D02C4480EA020281EA030382EA000083EABA
S2140831E0010180EA020281EA0303362D88BF30BD5A
S2140831F011F0004F4FEA01314FF4801C4CEA1131B0
S21408320002D0404261EB410113F0004F4FEA03330E
S2140832104CEA133302D0524263EB430394EA050F99
S21408322000F0A780A4F10104D5F1200E0DDB02FA08
S2140832300EFC22FA05F2801841F1000103FA0EF29C
S214083240801843FA05F359410EE0A5F120050EF162
S214083250200E012A03FA0EFC28BF4CF0020C43FA93
S21408326005F3C01851EBE37101F0004507D54FF0A0
S214083270000EDCF1000C7EEB00006EEB0101B1F5F0
S214083280801F1BD3B1F5001F0CD349085FEA300036
S2140832904FEA3C0C04F101044FEA445212F5800F41
S2140832A080F09A80BCF1004F08BF5FEA500C50F1DE
S2140832B0000041EB045141EA050130BD5FEA4C0CC1
S2140832C0404141EB010111F4801FA4F10104E9D14A
S2140832D091F0000F04BF01460020B1FA81F308BF41
S2140832E02033A3F10B03B3F120020CDA0C3208DD0D
S2140832F002F1140CC2F10C0201FA0CF021FA02F1E8
S2140833000CE002F11402D8BFC2F1200C01FA02F157
S21408331020FA0CFCDCBF41EA0C019040E41AA2BF7C
S21408332001EB0451294330BD6FEA04041F3C1CDA44
S2140833300C340EDC04F11404C4F1200220FA04F064
S21408334001FA02F340EA030021FA04F345EA03010E
S21408335030BDC4F10C04C4F1200220FA02F001FAD0
S21408336004F340EA0300294630BD21FA04F0294652
S21408337030BD94F0000F83F4801306BF81F48011EB
S2140833800134013D4EE77FEA645C18BF7FEA655C5E
S21408339029D094EA050F08BF90EA020F05D054EA30
S2140833A0000C04BF1946104630BD91EA030F1EBF35
S2140833B00021002030BD5FEA545C05D14000494139
S2140833C028BF41F0004130BD14F580043CBF01F52C
S2140833D0801130BD01F0004545F0FE4141F4700112
S2140833E04FF0000030BD7FEA645C1ABF19461046ED
S2140833F07FEA655C1CBF0B46024650EA013406BFEE
S21408340052EA033591EA030F41F4002130BD00BFAC
S21408341090F0000F04BF0021704730B54FF4806469
S21408342004F132044FF000054FF0000150E700BFEA
S21408343090F0000F04BF0021704730B54FF4806449
S21408344004F1320410F0004548BF40424FF0000136
S2140834503EE700BF42004FEAE2014FEA31014FEA79
S21408346002701FBF12F07F4393F07F4F81F06051C8
S214083470704792F0000F14BF93F07F4F704730B537
S2140834804FF4607401F0004521F0004120E700BFCA
S21408349050EA010208BF704730B54FF000050AE051
S2140834A050EA010208BF704730B511F0004502D552
S2140834B0404261EB41014FF4806404F132045FEA54
S2140834C0915C3FF4DCAE4FF003025FEADC0C18BFF9
S2140834D003325FEADC0C18BF033202EBDC02C2F1EF
S2140834E0200300FA03FC20FA02F001FA03FE40EA81
S2140834F00E0021FA02F11444C1E600BF70B54FF081
S214083500FF0C4CF4E06C1CEA11541DBF1CEA135562
S21408351094EA0C0F95EA0C0F00F0DEF82C4481EACA
S214083520030621EA4C5123EA4C5350EA013518BFEA
S21408353052EA033541F4801143F4801338D0A0FBD7
S21408354002CE4FF00005E1FB02E506F00042E0FB84
S21408355003E54FF00006E1FB03569CF0000F18BF8A
S2140835604EF0010EA4F1FF04B6F5007F64F5407432
S21408357004D25FEA4E0E6D4146EB060642EAC621C5
S21408358041EA55514FEAC52040EA5E504FEACE2E32
S214083590B4F1FD0C88BFBCF5E06F1ED8BEF1004F35
S2140835A008BF5FEA500E50F1000041EB045170BDB1
S2140835B006F0004646EA010140EA020081EA0301F5
S2140835C0B4EB5C04C2BFD4EB0C0541EA045170BDF1
S2140835D041F480114FF0000E013C00F3AB8014F16B
S2140835E0360FDEBF002001F0004170BDC4F10004B4
S2140835F0203C35DA0C341BDC04F11404C4F1200535
S21408360000FA05F320FA04F001FA05F240EA02008F
S21408361001F0004221F0004110EBD37021FA04F6C5
S21408362042EB06015EEA430E08BF20EAD37070BD7F
S214083630C4F10C04C4F1200500FA04F320FA05F0DE
S21408364001FA04F240EA020001F0004110EBD370E0
S21408365041F100015EEA430E08BF20EAD37070BD50
S214083660C4F1200500FA05F24EEA020E20FA04F329
S21408367001FA05F243EA020321FA04F001F00041D8
S21408368021FA04F220EA020000EBD3705EEA430E49
S21408369008BF20EAD37070BD94F0000F0FD101F078
S2140836A00046400041EB010111F4801F08BF013CB1
S2140836B0F7D041EA060195F0000F18BF704703F0EF
S2140836C00046520043EB030313F4801F08BF013D76
S2140836D0F7D043EA0603704794EA0C0F0CEA135532
S2140836E018BF95EA0C0F0CD050EA410618BF52EAEC
S2140836F04306D1D181EA030101F000414FF00000F2
S21408370070BD50EA410606BF1046194652EA4306FF
S21408371019D094EA0C0F02D150EA013613D195EA73
S2140837200C0F05D152EA03361CBF104619460AD1BB
S21408373081EA030101F0004141F0FE4141F47001C5
S2140837404FF0000070BD41F0FE4141F4780170BDB5
S21408375070B54FF0FF0C4CF4E06C1CEA11541DBF1A
S2140837601CEA135594EA0C0F95EA0C0F00F0A7F81C
S214083770A4EB050481EA030E52EA03354FEA013149
S21408378000F088804FEA03334FF0805545EA13135C
S21408379043EA12634FEA022245EA111545EA106524
S2140837A04FEA00260EF000419D4208BF964244F1BB
S2140837B0FD0404F5407402D25B084FEA3202B61ADA
S2140837C065EB03055B084FEA32024FF480104FF4AE
S2140837D0002CB6EB020E75EB030E22BFB61A754622
S2140837E040EA0C005B084FEA3202B6EB020E75EBB5
S2140837F0030E22BFB61A754640EA5C005B084FEA1D
S2140838003202B6EB020E75EB030E22BFB61A7546E9
S21408381040EA9C005B084FEA3202B6EB020E75EBF4
S214083820030E22BFB61A754640EADC0055EA060EB5
S21408383018D04FEA051545EA16754FEA06164FEAF8
S214083840C30343EA52734FEAC2025FEA1C1CC0D1A4
S21408385011F4801F0BD141EA00014FF000004FF031
S214083860004CB6E711F4801F04BF01430020B4F1F2
S214083870FD0C88BFBCF5E06F3FF6AFAEB5EB030CAA
S21408388004BFB6EB020C5FEA500C50F1000041EBA7
S214083890045170BD0EF0004E4EEA113114EB5C0474
S2140838A0C2BFD4EB0C0541EA045170BD41F4801147
S2140838B04FF0000E013C90E645EA060E8DE60CEA4F
S2140838C0135594EA0C0F08BF95EA0C0F3FF43BAF6C
S2140838D094EA0C0F0AD150EA01347FF434AF95EA23
S2140838E00C0F7FF425AF104619462CE795EA0C0F07
S2140838F006D152EA03353FF4FDAE1046194622E7D4
S21408390050EA410618BF52EA43067FF4C5AE50EAAD
S21408391041047FF40DAF52EA43057FF4EBAE12E79D
S2140839204FF0FF3C06E000BF4FF0010C02E000BF7E
S2140839304FF0010C4DF804CD4FEA410C7FEA6C5C61
S2140839404FEA430C18BF7FEA6C5C1BD001B050EA04
S214083950410C0CBF52EA430C91EA030F02BF90EAEF
S214083960020F0020704710F1000F91EA030F58BFAE
S214083970994208BF90422CBFD8176FEAE37040F010
S214083980010070474FEA410C7FEA6C5C02D150EAAE
S214083990013C07D14FEA430C7FEA6C5CD6D152EA69
S2140839A0033CD3D05DF8040B704700BF844610462E
S2140839B062468C461946634600E000BF01B5FFF72D
S2140839C0B7FF002848BF10F1000F01BD4DF808EDFD
S2140839D0FFF7F4FF0CBF012000205DF808FB00BFCE
S2140839E04DF808EDFFF7EAFF34BF012000205DF828
S2140839F008FB00BF4DF808EDFFF7E0FF94BF012075
S214083A0000205DF808FB00BF4DF808EDFFF7CEFF75
S214083A1094BF012000205DF808FB00BF4DF808EDB4
S214083A20FFF7C4FF34BF012000205DF808FB00BF85
S214083A304BB942B9002908BF002802D04FF0FF3121
S214083A40084600F03BB882B0EC462DE9005000F07E
S214083A501DF8DDF804E002B00CBC70472DE9704F85
S214083A60089E14461D468046894600F029F804FB41
S214083A7001F3A4FB00AB00FB05329344B8EB0A083D
S214083A8069EB0B09C6E90089BDE8708F2DE9704F10
S214083A90089E14461D468046894600F061F900FBDC
S214083AA005F5A0FB04AB04FB0154A344B8EB0A08D5
S214083AB069EB0B09C6E90089BDE8708F704700BF3F
S214083AC000292DE9F00FC0F2A1800024002BC0F2D7
S214083AD09880154606460F46002B3FD18A4258D98D
S214083AE0B2FA82F34BB1C3F1200201FA03F720FAC7
S214083AF002F29D4000FA03F61743290CB7FBF1F2D1
S214083B0001FB1277A8B200FB02F34FEA164C4CEA08
S214083B100747BB4209D97F1902F1FF3C80F00581AF
S214083B20BB4240F20281023A2F44FF1AB7FBF1F378
S214083B3001FB137100FB03F0B6B246EA0141884266
S214083B4008D9491903F1FF3780F0F180884240F21E
S214083B50EE80023B43EA0242002303E08B420AD986
S214083B6000231A461046194614B1404261EB41013B
S214083B70BDE8F00F7047B3FA83F8B8F1000F40F0CD
S214083B8088808B4202D3824200F2E2800023012220
S214083B90E8E712B90123B3FBF2F5B5FA85F2002A75
S214083BA03AD17F1B280C1FFA85FC0123B7FBF0F1DE
S214083BB000FB11770CFB01F24FEA164848EA074764
S214083BC0BA4207D97F1901F1FF3802D2BA4200F289
S214083BD0C4804146BF1AB7FBF0F200FB12700CFB1C
S214083BE002FCB6B246EA0040844507D9401902F1FD
S214083BF0FF3702D2844500F2AE803A4642EA0142D6
S214083C00B0E7E443524263EB430362E7404261EBAA
S214083C1041014FF0FF3459E79540C2F1200927FAD1
S214083C2009F126FA09F99740280CB1FBF0F800FBD1
S214083C3018111FFA85FC0CFB08F349EA07094FEA36
S214083C40194747EA01418B4206FA02F608D949198C
S214083C5008F1FF327AD28B4278D9A8F102082944B3
S214083C60C91AB1FBF0F300FB13170CFB03F21FFA9B
S214083C7089F949EA0747BA4207D97F1903F1FF319C
S214083C8060D2BA425ED9023B2F44BF1A43EA0843C1
S214083C908CE7C8F1200225FA02F103FA08FC27FA95
S214083CA002F320FA02F207FA08F741EA0C0C4FEA88
S214083CB01C49B3FBF9F109FB11331FFA8CFA0AFB0E
S214083CC001FB17433A0C42EA03439B4505FA08F002
S214083CD008D913EB0C0301F1FF3235D29B4533D9D3
S214083CE002396344CBEB0303B3FBF9F209FB123347
S214083CF00AFB02FABFB247EA0347BA4508D917EBE8
S214083D000C0702F1FF331BD2BA4519D9023A6744A9
S214083D1042EA0145A5FB0001CAEB07078F424FF0B0
S214083D2000030AD305D02A461CE76246FDE63B4652
S214083D3010E706FA08F68642F5D26A1E002311E74F
S214083D401A46E5E70B46A0E71146CBE7904687E715
S214083D504346424606E7023A50E702392F4439E717
S214083D602DE9F00F144605460E46002B43D18A422D
S214083D7053D9B2FA82F757B1C7F1200620FA06F6E9
S214083D8001FA07F302FA07F400FA07F51E43210CB6
S214083D90B6FBF1F201FB1266A0B200FB02F32F0C91
S214083DA047EA0646B34209D9361902F1FF3780F0CA
S214083DB0FD80B34240F2FA80023A2644F61AB6FB71
S214083DC0F1F301FB136100FB03F0ADB245EA0141D4
S214083DD0884208D9091903F1FF3680F0E98088423D
S214083DE040F2E680023B43EA0242002310461946A8
S214083DF0BDE8F00F70478B424CD8B3FA83F6002E16
S214083E004FD18B4202D3824200F2DD80BDE8F00F2C
S214083E100023012210461946704712B90124B4FB44
S214083E20F2F4B4FA84F2002A40F08280091B260CC9
S214083E30A7B20123B1FBF6F006FB101107FB00F250
S214083E404FEA154C4CEA01418A4207D9091900F194
S214083E50FF3C02D28A4200F2C8806046891AB1FB4B
S214083E60F6F206FB121107FB02F7ADB245EA01456A
S214083E70AF4208D92C1902F1FF3180F09B80A74287
S214083E8040F29880023A42EA004210461946BDE8D7
S214083E90F00F704700231A4610461946BDE8F00F83
S214083EA07047C6F1200522FA05F703FA06F421FA48
S214083EB005F301FA06FB20FA05F53C434FEA1448D9
S214083EC0B3FBF8FC08FB1C331FFA84F909FB0CFA51
S214083ED045EA0B0B4FEA1B4545EA03439A4502FAA7
S214083EE006F204D91B190CF1FF356FD3AC46CAEBA2
S214083EF00303B3FBF8F508FB153309FB05F91FFAAE
S214083F008BFB4BEA0347B94504D93F1905F1FF3344
S214083F1062D31D4645EA0C4CACFB0223C9EB0707E7
S214083F209F424FF000054AD346D062462B465DE7CF
S214083F309440C2F1200921FA09FC914020FA09F9B7
S214083F40260CBCFBF6F806FB18CCA7B207FB08F352
S214083F5049EA01094FEA194141EA0C4C634500FA5F
S214083F6002F509D91CEB040C08F1FF323BD2634575
S214083F7039D9A8F10208A444C3EB0C0CBCFBF6F331
S214083F8006FB13C107FB03F21FFA89F949EA014148
S214083F908A4207D9091903F1FF3022D28A4220D96A
S214083FA0023B2144891A43EA084343E73A4605E7B1
S214083FB0334618E70A4666E7B0409042B5D20CF199
S214083FC0FF32002312E7334632460FE79A458DD96B
S214083FD0ACF1020C23448AE7B9459AD9023D274436
S214083FE098E70346DEE79046C6E70238214435E7F9
S214083FF070B50F4E0F4D761BB61007D0043D002443
S214084000013455F8043F9847A642F9D10A4E0B4D9D
S21408401004F01AFB761BB61008D0043D00240134C1
S21408402055F8043F9847A642F9D170BD70BD00BF49
S21408403054860800548608005C86080054860800E3
S2140840400FB410B5074B82B004AC54F8042B1868AC
S21408405023468168019400F039FA02B0BDE81040A2
S21408406004B07047380607200FB410B5074B82B067
S21408407004AC54F8042B186823464168019401F0F0
S2140840808DF802B0BDE8104004B070473806072027
S214084090844641EA000313F0030349D1403A23D388
S2140840A00B6803604B6843608B688360CB68C360AB
S2140840B00B6903614B6943618B698361CB69C36193
S2140840C00B6A03624B6A43628B6A8362CB6AC3627B
S2140840D00B6B03634B6B43638B6B8363CB6BC36363
S2140840E040304031403ADBD230320BD30B680360A5
S2140840F04B6843608B688360CB68C36010301031B0
S214084100103AF3D20C3205D351F8043B40F8043B7E
S214084110043AF9D2043208D0D2071CBF11F8013B82
S21408412000F8013B01D30B8803806046704700BF48
S214084130082A13D38B07B1D010F00303AED0C3F10F
S2140841400403D21ADB071CBF11F8013B00F8013B39
S214084150A4D331F8023B20F8023B9FE7043AD9D3B0
S214084160013A11F8013B00F8013BF9D20B780370CD
S2140841704B7843708B78837060467047F0B484073A
S21408418043D0541E002A3ED0CDB2034603E0621E3A
S214084190002C38D0144603F8015B9A07F7D1032C95
S2140841A02AD9CDB245EA05250F2C45EA054515D985
S2140841B0A4F110073F0903F1100606EB07161A4686
S2140841C0156055609560D5601032B242F8D104F09B
S2140841D00F040137032C03EB07130DD91E4622469E
S2140841E0043A032A46F8045BFAD8221F22F0030290
S2140841F00432134404F003042CB1C9B21C4403F877
S214084200011BA342FBD1F0BC704714460346C6E721
S214084210F0B5044689B008460D4600F0B9F8A3681C
S21408422002219A89DFF844E000F1010C012704AE68
S2140842300291910404950590CDF80CC0CDF818E0CD
S2140842400797019606D4596E42F4005221F400519D
S2140842509A8159662046194601AA02F087F800286E
S2140842600CBF0A204FF0FF3009B0F0BDB08108003F
S214084270024B01461868FFF7CBBF00BF3806072079
S21408428000290CBF022200224FF4806300F000B819
S2140842902DE9F0413C4D04462D68884616461F46D3
S2140842A015B1AB6B002B4FD0022E30D8002F2EDB6B
S2140842B02846214601F054FDA38900226260A261C7
S2140842C01A0628D423F083039BB2022EA3812DD08E
S2140842D0B8F1000F3CD0012E13D09BB203F00800B3
S2140842E02A4A80B2EA63C4F80080C4F8108067617E
S2140842F078B113F0030F18BF0027A7600020BDE8A9
S214084300F08143F001037A42A381A261E5E74FF00A
S214084310FF30BDE8F0812846216901F05BFFA389DC
S214084320022E23F083039BB2A381D1D1002004F18F
S214084330430243F0020300250121A381A560226001
S21408434022616161BDE8F081284601F037FDABE7E0
S214084350002F08BF4FF48067384602F065FA80469B
S21408436028B1A38943F080039BB2A381B3E74FF437
S214084370806002F059FA804618B9A3894FF0FF30DA
S214084380D5E74FF48067ECE738060720B15D0800EC
S21408439020F0030110F00300C0F1000051F8043BC0
S2140843A000F1040C4FEACC0C6FF000021CBF22FA96
S2140843B00CF213434FF0010C4CEA0C2C4CEA0C4C54
S2140843C0A3EB0C0222EA030212EACC1204BF51F84D
S2140843D0043B0430F4D013F0FF0F1FBF013013F472
S2140843E07F4F013013F47F0F18BF0130704700BFAE
S2140843F040EA01039B0770B42AD1032A28D90C4641
S2140844000346214654F8045BA5F1013626EA05065C
S21408441016F0803F05D1043A032A43F8045B214688
S214084420EFD89AB10C78013A1C7001333CB16AB1E6
S21408443011F8014F013A03F8014B002CF7D12AB1C5
S2140844401A44002103F8011B9342FBD170BC704745
S2140844500346E6E74B6E2DE9F0479C040E46804679
S21408446091462AD59368126802F1080A1BB31AE91E
S214084470A000BF0817D0043D002401E0A74210D0D2
S214084480404655F8041F324601F02EFD431C04F141
S2140844900104F3D10023C9F80830C9F80430BDE890
S2140844A0F087D9F80830A3EB8703C9F808300AF173
S2140844B0080A002BDBD10020ECE701F057FF0023A9
S2140844C0C9F80830C9F80430BDE8F0872DE9F04F80
S2140844D0B1B01C46029190460893069018B1836BBB
S2140844E0002B00F0E880029DAB899AB2900407D4AE
S2140844F06A6E43F4005322F40051AB819AB269669F
S214084500110740F1B780DDF808B0DBF81030002B53
S21408451000F0B08002F01A020A2A00F0B7800023E2
S2140845200DF180090A93159314930993CDF84C90CE
S2140845304E4698F80030002B00F0C884252B00F073
S214084540C58408F1010201E0252B04D0137814462F
S2140845500132002BF8D1C8EB040595B1149B159AC7
S21408456001332A44072BC6F8008075601592149309
S2140845707BDD002A40F0D5840998149228444E46DC
S21408458009902378002B00F0ED8300214FF00002FD
S2140845904FF0FF3C63788DF8472004918A4604F173
S2140845A001080846654608F10108A3F12002582AC2
S2140845B000F2D982DFE812F0CB02D702D702D20285
S2140845C0D702D702D702D702D702D70282028F02B3
S2140845D0D70284009302D7022B0196019601960112
S2140845E0960196019601960196019601D702D70282
S2140845F0D702D702D702D702D702D702D702D702E6
S2140846003001D702D702D702D702D702D702D7027D
S214084610D702D702D7027B01D702D702D702D70222
S214084620D702A401D702D702BF01D702D702D70202
S214084630D702D702D702D702D702D702D702E40199
S214084640FA01D702D702D7021602FA01D702D70212
S2140846501B02D7022802890066027D02D7023A02A8
S214084660D7021901D702D702AF020836099828449C
S214084670099086E70698029901F05CFAB0B9029D9F
S214084680AA8902F01A020A2A7FF449AFDDF808B0B0
S214084690BBF90E30002BFFF642AF06985946424645
S2140846A0234600F03DFD31B0BDE8F08F4FF0FF30F7
S2140846B031B0BDE8F08F01F081FB14E74042089363
S2140846C04AF0040A98F800306DE71AF020030490C0
S2140846D0AC4600F0F480DDF820B00BF1070323F0B9
S2140846E0070303F108040894D3E9004500234FF0B4
S2140846F0000000218DF84700CDF814C00791BCF1E2
S214084700000FA8BF2AF0800A54EA050240F0AD80E0
S214084710BCF1000F40F0A980002B40F0C0831AF0CF
S214084720010F00F0BC83302330AF07F8413DC7EBDC
S21408473009040594DDF814B0079CE345B8BFE346C2
S214084740CDF80CB01CB10BF1010BCDF80CB01AF07B
S2140847500205079505D0DDF80CB00BF1020BCDF875
S2140847600CB01AF084030B9340F01B82049DDDF80E
S2140847700CB0CBEB0504002C40F31382102C40F34E
S2140847808984BE4D159A2B46149825464FF0100B73
S2140847906446B4461E4606E0831C0CF1080C084620
S2140847A0103D102D11DD411C1032072915928CE89A
S2140847B040081491F0DD002A40F0E681103D102DE7
S2140847C04FF001031046CC46EDDC31466646A4465B
S2140847D02C460D462244072B1592356074601493B8
S2140847E000F36D830836591CDEE11AF0200F04909A
S2140847F0AC4600F08D80089DEB1D23F0070303F1FF
S214084800080BD3E90045CDF820B001236FE74AF03E
S214084810800A98F80030C6E64AF0100A1AF0200F08
S2140848200490AC468DF8471000F0C880089CE11D3F
S21408483021F00701D1E900230831089114461D46E6
S214084840002A73F1000BC0F2CE83BCF1000F9DF86E
S2140848504700A8BF2AF0800A54EA05020790CDF858
S21408486014C04FF001033FF453AF012B00F0198337
S214084870022B0DF17F0340F04C82DDF828B0194674
S21408488004F00F0022091BF8000042EA05722B0903
S214084890087052EA03000F4614461D4601F1FF3120
S2140848A0EED1CDE90E23C7EB0903059342E74AF09C
S2140848B0100A1AF020030490AC467FF40CAF1AF0E6
S2140848C0100240F011831AF0400300F00D83DDF863
S2140848D020B01346BBF800400BF1040B0025CDF8BA
S2140848E020B004E7A3F13002002018F8013B00EBE3
S2140848F0800002EB4000A3F13002092AF5D954E6FD
S2140849004AF0100A1AF0200F0490AC467FF473AFF2
S2140849101AF0100F40F0EF821AF0400F00F0EB820A
S214084920DDF820B00025BBF800400BF1040B01238E
S214084930CDF820B0DBE6AC46514D1AF0200F0490B7
S2140849408DF847100A9500F0F080089DEA1D22F0C1
S214084950070202F1080BCDF820B0D2E900451AF09C
S214084960010F00F0AA8254EA050B00F0A682302256
S2140849708DF849304AF0020A8DF848200223B6E638
S214084980089BDDF820B01B6801244FF000050BF1EA
S214084990040B049003948DF847508DF85830CDF8E2
S2140849A020B0059416AF4FF0000CD0E61AF0200F92
S2140849B00490AC468DF847107FF438AF1AF0100F05
S2140849C040F0A7821AF0400F00F0A382DDF820B06E
S2140849D0BBF900400BF1040BE51722462B46CDF831
S2140849E020B02DE74AF0400A98F80030DBE598F842
S2140849F0003042466C2B03BF08F101084AF0200A33
S214084A0053784AF0100ACEE51AF0200F8DF84710B2
S214084A1000F0F782089C2168099CE5172B46089D3C
S214084A20224604350895C1E9002382E5089CAC4671
S214084A3027684FF0000504908DF847500434002F7F
S214084A4000F03283BCF1000F3846C0F20783624696
S214084A500021CDF804C002F0CFF9DDF804C0002824
S214084A6000F03A83C01B9DF847506045A8BF6046D3
S214084A700590089407954FF0000C5BE61085080033
S214084A80D0840800089BDDF820B00490B2481C6863
S214084A90302278230BF1040BAC468DF849304AF0E7
S214084AA0020ACDF820B000258DF848200A90022387
S214084AB01DE64AF0200A98F8003074E5DDF820B0C4
S214084AC0DBF800000BF104030028FFF6F7AD0893A7
S214084AD098F8003067E598F800302B2163E598F8D9
S214084AE0003008F101042A2B00F00583A3F13002F8
S214084AF0092A98BF002500F2FA8214F8013B05EB54
S214084B00850502EB4505A3F13002092AF5D945EAE1
S214084B10E575A04649E5904C1AF0200F0490AC467F
S214084B200A948DF847107FF410AF1AF0100F40F073
S214084B30EA811AF0400F00F0E681DDF820B0002583
S214084B40BBF800400BF1040BCDF820B007E798F847
S214084B50003000297FF427AD202124E54AF0010A19
S214084B6098F800301FE504908DF84710002B00F0E9
S214084B70F98001254FF0000B03958DF858308DF815
S214084B8047B0059516AF0EE70698029913AAFFF7E1
S214084B9061FC002840F0ED801498159A431CCC461A
S214084BA0FEE5149B159A591C9DF8470068B101321A
S214084BB00DF14700012307291592149186E809008C
S214084BC000F360810B4608360131079C64B1023257
S214084BD012A8022307291592149186E8090000F303
S214084BE057810B46083601310B9D802D00F0018158
S214084BF0059DC5EB0C04002C2FDD102C574D22DD2F
S214084C0030464FF0100B2E462546069C06E003F16C
S214084C10020C08300B46103D102D10DD591C1032C2
S214084C200729159280E840081491F0DD002A63D120
S214084C30103D102D4FF0010C13464846EEDC2C466E
S214084C406146354606462244072915923560746043
S214084C50149100F3C18008360131059D07292A44BE
S214084C60159237607560149140F3C180002A40F0B1
S214084C70308114924E461AF0040F00F08B80049D83
S214084C80DDF80CB0CBEB0504002C40F38380102C29
S214084C9040F31E821499324D1027DDF818A0DDF86F
S214084CA008B005E0881C08361946103C102C10DDA4
S214084CB04B1C1032072B159286E8A0001493F1DDE2
S214084CC0002A7DD1103C102C4FF0010011464E46AC
S214084CD0EEDC22440728159235607460149059DD7E
S214084CE0002A4FD1099CDDF80CB0049DAB45ACBF3B
S214084CF05C44641909945EE02046029913AAFFF7FB
S214084D00A9FB002835D1149B159A03F1010C4846D7
S214084D1081E7E00840EA457004F00702E908303207
S214084D2050EA010B1F461A7004460D4603F1FF337E
S214084D30EFD11AF0010FCDE90C01394600F0B98021
S214084D40302A3FF4F4AC1F46C7EB09053023059517
S214084D5001F8013CEEE400BFE48408000085080082
S214084D6010850800159B23B10698029913AAFFF729
S214084D7071FB029CA3895B063FF598AC099831B095
S214084D80BDE8F08F0698029913AAFFF763FB002880
S214084D90EFD1159A099CDDF80CB0049DAB45ACBF65
S214084DA05C446419099432B10698029913AAFFF76D
S214084DB051FB0028DDD1002014904E46FFF7B9BB02
S214084DC05046594613AAFFF745FB0028D1D1149937
S214084DD0159A481C4E4668E7002A40F0F780059C5E
S214084DE00123209721941594224614934E4608369C
S214084DF041E7049DDDF80CB0CBEB0504002C7FF7EB
S214084E00F7AE102CA64D40F3708129464FF0100BD4
S214084E1025466446B4460E4606E0981C0CF1080C77
S214084E200B46103D102D0FDD591C10320729159220
S214084E308CE840081491F0DDBAB9103D102D4FF0FB
S214084E4001001346CC46EFDC33466646A4462C469D
S214084E501D4622440728159235607460149000F3A6
S214084E60AF800836411C0346C2E60698029913AA84
S214084E70FFF7F0FA00287FF47CAF149B159A581CAD
S214084E80CC46CEE7002A79D119464E4613469CE60C
S214084E90002A40F08480012113464E46A4E64F4679
S214084EA048E4002D08BF0A2C46D2303430AF07F845
S214084EB0414DC7EB090305933CE4022317E4002A97
S214084EC040F0AF80134601214E466DE64446FFF794
S214084ED058BB0698029913AAFFF7BCFA00287FF475
S214084EE048AF159A4E46C6E6089D2C6804350895C0
S214084EF00025FFF7FCBB089D01232C6804350895A0
S214084F000025FFF7F4BB089D2C6804350895002596
S214084F1025E5089D2C6804350895E51722462B4696
S214084F208EE40698029913AAFFF794FA00287FF4ED
S214084F3020AF4E46FFF79ABB0DF17F0B03965E46F1
S214084F40E346204629460A220023FEF771FD303242
S214084F503270204629460A220023FEF769FD0446D9
S214084F600D4654EA0500374606F1FF36E9D1C7EB89
S214084F700903DC46039E0593FFF7DCBB06980299F7
S214084F8013AACDF804C0FFF765FADDF804C00028B8
S214084F907FF4EFAE149B159A591C4E4615E60698F4
S214084FA0029913AACDF804C0FFF754FADDF804C036
S214084FB000287FF4DEAE149B159A591C4E4613E65D
S214084FC0002A56D1012113464E4611E60698029944
S214084FD013AAFFF73FFA00287FF4CBAE1499159A68
S214084FE001314E4639E64FF02D0B644265EB450518
S214084FF08DF847B0CDF81CB0CDF814C00123FFF7E4
S2140850007EBB1AF0100F1DD11AF0400F58D0089D1D
S214085010DDF824B02B6804350895A3F800B0FFF730
S21408502088BA0698029913AACDF804C0FFF712FAB0
S214085030DDF804C000287FF49CAE149B159A591C12
S2140850404E46B1E5DDF820B0099CDBF800300BF1E0
S214085050040BCDF820B01C60FFF76BBA0894FFF776
S21408506097F99DF84740059007944FF0000CFFF716
S21408507061BB0698029913AACDF804C0FFF7EAF9AF
S214085080DDF804C000287FF474AE149B159A591CEA
S2140850904E46ADE5149B159A0133024DFFF79ABBB1
S2140850A00085080010850800BCF1060F34BF63466B
S2140850B00623089423EAE37405930394164F72E4D0
S2140850C0089C099D2368043408941D60FFF731BACC
S2140850D01498124D0130FCE59DF84750CDF814C0E1
S2140850E0079508948446FFF725BB0846B1E6A04610
S2140850F00025FFF75ABADDF820B098F80130DBF83B
S21408510000500BF10402002D0892A046BFF64BAAE9
S2140851104FF0FF35FFF747BAF884080010850800F7
S2140851202DE9F0474F6EADF58D6D88461997D8F87E
S2140851301C70B1F80CA0B1F80E900797D8F8247038
S2140851401AAC4FF480652AF0020A002669460094D5
S214085150049402950595ADF80CA0ADF80E90099745
S21408516006960546FFF7B2F9041E07DB2846694689
S21408517000F0F6FDB04218BF4FF0FF34BDF80C3013
S2140851805B0605D5B8F80C3043F04003A8F80C3099
S21408519020460DF58D6DBDE8F08700BF2DE9F04F70
S2140851A00C468989DDB08F048346079306D4636E60
S2140851B041F4005123F40053A1816366904618F821
S2140851C0013B00260696099635460A968F4F0F939A
S2140851D02BB33968C818407800F0080000F0FF09BB
S2140851E008B362680CE023683A68197801330A4401
S2140851F0527816070CD562680135013A236062605A
S214085200002AF0DC5846214602F094F80028EAD036
S2140852104246904618F8013B0F93002BD9D10A98BE
S2140852205DB0BDE8F08F252B40F0898053784E4658
S21408523008F10102782B00F2A581DFE813F0790067
S214085240A301A301A301A301A301A301A301A30131
S214085250A301A301A301A301A301A301A301A30121
S214085260A301A301A301A301A301A301A301A30111
S214085270A301A301A301A301A301A301A301A30101
S214085280A301A301A301A3017E00A301A301A30117
S214085290A3017901A301A301A301A301A3016F013F
S2140852A06F016F016F016F016F016F016F016F0171
S2140852B06F01A301A301A301A301A301A301A301F5
S2140852C0A301A301A3016B01A301A301A301A301E9
S2140852D0A301A301A3016501A301A3016101A30121
S2140852E0A301A301A301A301A301A301A3015701DD
S2140852F0A301A3014C01A301A301A301A301A301D8
S214085300A301A30146013E01A301A301A30138019D
S2140853103001A301A3012701A3010D0105011D0109
S214085320A301A301EB00A3019300A301A301570166
S2140853304FF0FF305DB0BDE8F08F05929046636889
S214085340002B40F34383236818F8012C1978914200
S2140853507FF465AF62680133013A62602360013505
S214085360424656E72A4905920A22069109924FF0C4
S21408537003086368002B53DD19F0400F34D0B8F1EA
S214085380020F00F0F081B8F1030F00F03A81B8F18F
S214085390010F00F00681002E08BF012619F001084B
S2140853A040F0658219F0100F09D1F7E21A4422601E
S2140853B09844F61A01F0BEFF002840F0E8826368B9
S2140853C05846B34221462268F0DB9B1B3244636092
S2140853D0B04422604544DDF81480424619E7584632
S2140853E0214601F0A7FF08BB3968236800E0236060
S2140853F01A7801330A4452781007C0D56268013516
S214085400013A002A6260F2DCE9E700BF3C060720A2
S2140854101178080063680592002B4FF00208ABDC91
S2140854205846214601F086FF0028A5D00A9E002E81
S2140854303FF47EAFA389304613F0400F18BF4FF0F5
S214085440FF305DB0BDE8F08F05928F4B08200693BD
S21408545009904FF003088CE719F0100F059240F0FA
S2140854608D8019F0040F00F0CC82079E90463368B2
S21408547004361D800796CBE683490592102249F428
S2140854800879069109924FF0030872E798F80130F8
S2140854906C2B00F0AF8249F001099046C8E60592E9
S2140854A07A4A0023069209934FF0030861E798F8B2
S2140854B0013049F004099046BAE6059273490A2273
S2140854C0069109924FF0030853E7059249F0400900
S2140854D04FF000084DE711461CA8059201F0C6FFDC
S2140854E049F0400905904FF0010842E7664B102046
S2140854F0059249F40079069309904FF0030838E7B7
S214085500059249F00109A0E798F8013049F0020928
S21408551090468DE6059249F00109CFE706EB860628
S21408552003EB4603A3F1300698F8013090467FE671
S21408553098F8013049F01009904679E610A800213D
S21408554008220B90FEF71AFE19F0100A00F00982DE
S2140855500DF13C090022904622683B6812781344F5
S2140855605B781B0702D4002E40F07E82BAF1000F4B
S21408557004D1C9F800A00A9E01360A96DDF8148000
S214085580424646E60B445B78059203F00303012B7C
S21408559000F02D823D480A21069009914FF0030835
S2140855A0E7E6002E08BF4FF0FF3619F0100F00F0A0
S2140855B0308123684FF000080DF170091A7801331E
S2140855C019F80220C2B1626808F10108013A464596
S2140855D0236062603FF4FEAE002AEFDC58462146A0
S2140855E001F0A8FE00287FF4F5AE23681A78013388
S2140855F019F80220002AE6D1B8F1000F7FF4EAAEC7
S2140856000DE6731E262B8CBFA6F1270300230DF18B
S214085610480A4FF00000AC4688BF2726099D49F483
S2140856205869D0460890099320680178A1F12B02A2
S2140856304D2A44D8DFE802F0914391434366606000
S21408564060606060608B8B434343434343435B5BCC
S2140856505B5B5B5B434343434343434343434343AD
S21408566043434343432C43434343434343435B5BE4
S2140856705B5B5B5B4343434343434343434343438D
S21408568043434343432C00BF117808006175080064
S21408569009F4C062B2F5007F11D129F4007949F403
S2140856A0A0691025626888F80010013A002A08F1F7
S2140856B00108626040DD01302060013EB4D119F473
S2140856C0807F0995654605D0D04500F28781D0458C
S2140856D03FF4A5AD19F0100600F01581089ECAEB38
S2140856E00803DDF8148033441D44424691E50A2D2C
S2140856F0E5DD29F43869D5E7A74A29F4386932F987
S2140857001550CFE719F4006FCCD015B949F40079D5
S214085710082519F4806F40F00A81099A29F46079FF
S21408572012B1013A099201366268089B013A0133C0
S214085730002A08936260BEDC58462146CDF810C0A1
S21408574001F0F8FDDDF810C00028B6D0B7E7924B98
S21408575033F91550082DCCDCB1E719F0800FAED020
S21408576029F080099EE7002E08BF4FF0FF3619F093
S21408577001087FF4E3AE19F0100F35D10798D0F87A
S214085780008000F10409C24623683A681878591C54
S21408579002445278120711D462682160013A6260A6
S2140857A01B78013E0AF8013B08D06368002BEBDC47
S2140857B05846214601F0BEFD0028E5D0C8EB0A0889
S2140857C00A9E4544DDF81480002301360A96CDF873
S2140857D01C908AF8003042461BE55846214601F0E0
S2140857E0A9FD00287FF4F6AD396823681A780133D6
S2140857F00A44527810073FF5EDAD626808F10108D3
S214085800013A4645236062603FF4E4AD002AEDDCC9
S214085810E3E707980DF17009D0F80080021D07929B
S214085820C24623681A78591C19F80220A2B1626881
S2140858302160013A62601B78013E0AF8013B0BD0F2
S2140858406368002BEDDC5846214601F073FD0028FE
S214085850E7D0D0453FF4EAADBAEB08083FF4DFAC32
S2140858600A9E002301360A968AF80030B2E510AA86
S2140858700B92104600210822FEF780FC19F0100350
S2140858800D9374D04FF000094FF0000A08950D9D4F
S214085890CDF830B00DF14808D34600F04FFF584514
S2140858A03FF4C4AD2368616813F801EB0B9801391F
S2140858B00BF1010A236042460090534661600C983B
S2140858C0494608F80BE001F053FA411C3FF4AEAD28
